{
	"data": {
		"bytecode": {
			"linkReferences": {},
			"object": "6080604052348015600e575f5ffd5b506109b98061001c5f395ff3fe608060405234801561000f575f5ffd5b5060043610610086575f3560e01c8063ab43d31811610059578063ab43d3181461013a578063bbd812031461016a578063c1a52b5014610188578063de9bad0c146101a857610086565b806308bb11141461008a57806317645523146100ba5780634debc578146100ea578063596c89fa1461011a575b5f5ffd5b6100a4600480360381019061009f9190610529565b6101d8565b6040516100b19190610576565b60405180910390f35b6100d460048036038101906100cf919061058f565b6101e7565b6040516100e19190610576565b60405180910390f35b61010460048036038101906100ff91906106f6565b61020b565b60405161011191906107fd565b60405180910390f35b6101226102d2565b6040516101319392919061081d565b60405180910390f35b610154600480360381019061014f919061058f565b610354565b6040516101619190610576565b60405180910390f35b610172610383565b60405161017f9190610576565b60405180910390f35b6101906103dc565b60405161019f9392919061081d565b60405180910390f35b6101c260048036038101906101bd9190610529565b6104ae565b6040516101cf9190610576565b60405180910390f35b5f818301604051818152602081f35b5f5f5b828110156102025781810191506001810190506101ea565b50805f5260205ff35b60605f6020835161021c91906108ac565b90505f8167ffffffffffffffff811115610239576102386105d2565b5b6040519080825280602002602001820160405280156102675781602001602082028036833780820191505090505b5090505f5f90505f602090505b855181116102c6575f81870151905080848481518110610297576102966108dc565b5b60200260200101818152505082806102ae90610909565b935050506020816102bf9190610950565b9050610274565b50819350505050919050565b5f5f5f6102dd6104c3565b606f815f600381106102f2576102f16108dc565b5b60200201818152505060de81600160038110610311576103106108dc565b5b60200201818152505061014d81600260038110610331576103306108dc565b5b6020020181815250505f8101519350602081015192506040810151915050909192565b5f5f5f90505b8281101561037d57808261036e9190610950565b9150808060010191505061035a565b50919050565b5f5f600567ffffffffffffffff8111156103a05761039f6105d2565b5b6040519080825280602002602001820160405280156103ce5781602001602082028036833780820191505090505b509050602081015191505090565b5f5f5f5f600367ffffffffffffffff8111156103fb576103fa6105d2565b5b6040519080825280602002602001820160405280156104295781602001602082028036833780820191505090505b5090506101bc815f81518110610442576104416108dc565b5b60200260200101818152505061022b81600181518110610465576104646108dc565b5b60200260200101818152505061029a81600281518110610488576104876108dc565b5b6020026020010181815250505f8101519350602081015192506040810151915050909192565b5f81836104bb9190610950565b905092915050565b6040518060600160405280600390602082028036833780820191505090505090565b5f604051905090565b5f5ffd5b5f5ffd5b5f819050919050565b610508816104f6565b8114610512575f5ffd5b50565b5f81359050610523816104ff565b92915050565b5f5f6040838503121561053f5761053e6104ee565b5b5f61054c85828601610515565b925050602061055d85828601610515565b9150509250929050565b610570816104f6565b82525050565b5f6020820190506105895f830184610567565b92915050565b5f602082840312156105a4576105a36104ee565b5b5f6105b184828501610515565b91505092915050565b5f5ffd5b5f5ffd5b5f601f19601f8301169050919050565b7f4e487b71000000000000000000000000000000000000000000000000000000005f52604160045260245ffd5b610608826105c2565b810181811067ffffffffffffffff82111715610627576106266105d2565b5b80604052505050565b5f6106396104e5565b905061064582826105ff565b919050565b5f67ffffffffffffffff821115610664576106636105d2565b5b61066d826105c2565b9050602081019050919050565b828183375f83830152505050565b5f61069a6106958461064a565b610630565b9050828152602081018484840111156106b6576106b56105be565b5b6106c184828561067a565b509392505050565b5f82601f8301126106dd576106dc6105ba565b5b81356106ed848260208601610688565b91505092915050565b5f6020828403121561070b5761070a6104ee565b5b5f82013567ffffffffffffffff811115610728576107276104f2565b5b610734848285016106c9565b91505092915050565b5f81519050919050565b5f82825260208201905092915050565b5f819050602082019050919050565b5f819050919050565b61077881610766565b82525050565b5f610789838361076f565b60208301905092915050565b5f602082019050919050565b5f6107ab8261073d565b6107b58185610747565b93506107c083610757565b805f5b838110156107f05781516107d7888261077e565b97506107e283610795565b9250506001810190506107c3565b5085935050505092915050565b5f6020820190508181035f83015261081581846107a1565b905092915050565b5f6060820190506108305f830186610567565b61083d6020830185610567565b61084a6040830184610567565b949350505050565b7f4e487b71000000000000000000000000000000000000000000000000000000005f52601260045260245ffd5b7f4e487b71000000000000000000000000000000000000000000000000000000005f52601160045260245ffd5b5f6108b6826104f6565b91506108c1836104f6565b9250826108d1576108d0610852565b5b828204905092915050565b7f4e487b71000000000000000000000000000000000000000000000000000000005f52603260045260245ffd5b5f610913826104f6565b91507fffffffffffffffffffffffffffffffffffffffffffffffffffffffffffffffff82036109455761094461087f565b5b600182019050919050565b5f61095a826104f6565b9150610965836104f6565b925082820190508082111561097d5761097c61087f565b5b9291505056fea26469706673582212209985191a83b9c8bf7e4150554f7a68bc083749737ca2e77d6db19d73e010262b64736f6c634300081c0033",
			"opcodes": "PUSH1 0x80 PUSH1 0x40 MSTORE CALLVALUE DUP1 ISZERO PUSH1 0xE JUMPI PUSH0 PUSH0 REVERT JUMPDEST POP PUSH2 0x9B9 DUP1 PUSH2 0x1C PUSH0 CODECOPY PUSH0 RETURN INVALID PUSH1 0x80 PUSH1 0x40 MSTORE CALLVALUE DUP1 ISZERO PUSH2 0xF JUMPI PUSH0 PUSH0 REVERT JUMPDEST POP PUSH1 0x4 CALLDATASIZE LT PUSH2 0x86 JUMPI PUSH0 CALLDATALOAD PUSH1 0xE0 SHR DUP1 PUSH4 0xAB43D318 GT PUSH2 0x59 JUMPI DUP1 PUSH4 0xAB43D318 EQ PUSH2 0x13A JUMPI DUP1 PUSH4 0xBBD81203 EQ PUSH2 0x16A JUMPI DUP1 PUSH4 0xC1A52B50 EQ PUSH2 0x188 JUMPI DUP1 PUSH4 0xDE9BAD0C EQ PUSH2 0x1A8 JUMPI PUSH2 0x86 JUMP JUMPDEST DUP1 PUSH4 0x8BB1114 EQ PUSH2 0x8A JUMPI DUP1 PUSH4 0x17645523 EQ PUSH2 0xBA JUMPI DUP1 PUSH4 0x4DEBC578 EQ PUSH2 0xEA JUMPI DUP1 PUSH4 0x596C89FA EQ PUSH2 0x11A JUMPI JUMPDEST PUSH0 PUSH0 REVERT JUMPDEST PUSH2 0xA4 PUSH1 0x4 DUP1 CALLDATASIZE SUB DUP2 ADD SWAP1 PUSH2 0x9F SWAP2 SWAP1 PUSH2 0x529 JUMP JUMPDEST PUSH2 0x1D8 JUMP JUMPDEST PUSH1 0x40 MLOAD PUSH2 0xB1 SWAP2 SWAP1 PUSH2 0x576 JUMP JUMPDEST PUSH1 0x40 MLOAD DUP1 SWAP2 SUB SWAP1 RETURN JUMPDEST PUSH2 0xD4 PUSH1 0x4 DUP1 CALLDATASIZE SUB DUP2 ADD SWAP1 PUSH2 0xCF SWAP2 SWAP1 PUSH2 0x58F JUMP JUMPDEST PUSH2 0x1E7 JUMP JUMPDEST PUSH1 0x40 MLOAD PUSH2 0xE1 SWAP2 SWAP1 PUSH2 0x576 JUMP JUMPDEST PUSH1 0x40 MLOAD DUP1 SWAP2 SUB SWAP1 RETURN JUMPDEST PUSH2 0x104 PUSH1 0x4 DUP1 CALLDATASIZE SUB DUP2 ADD SWAP1 PUSH2 0xFF SWAP2 SWAP1 PUSH2 0x6F6 JUMP JUMPDEST PUSH2 0x20B JUMP JUMPDEST PUSH1 0x40 MLOAD PUSH2 0x111 SWAP2 SWAP1 PUSH2 0x7FD JUMP JUMPDEST PUSH1 0x40 MLOAD DUP1 SWAP2 SUB SWAP1 RETURN JUMPDEST PUSH2 0x122 PUSH2 0x2D2 JUMP JUMPDEST PUSH1 0x40 MLOAD PUSH2 0x131 SWAP4 SWAP3 SWAP2 SWAP1 PUSH2 0x81D JUMP JUMPDEST PUSH1 0x40 MLOAD DUP1 SWAP2 SUB SWAP1 RETURN JUMPDEST PUSH2 0x154 PUSH1 0x4 DUP1 CALLDATASIZE SUB DUP2 ADD SWAP1 PUSH2 0x14F SWAP2 SWAP1 PUSH2 0x58F JUMP JUMPDEST PUSH2 0x354 JUMP JUMPDEST PUSH1 0x40 MLOAD PUSH2 0x161 SWAP2 SWAP1 PUSH2 0x576 JUMP JUMPDEST PUSH1 0x40 MLOAD DUP1 SWAP2 SUB SWAP1 RETURN JUMPDEST PUSH2 0x172 PUSH2 0x383 JUMP JUMPDEST PUSH1 0x40 MLOAD PUSH2 0x17F SWAP2 SWAP1 PUSH2 0x576 JUMP JUMPDEST PUSH1 0x40 MLOAD DUP1 SWAP2 SUB SWAP1 RETURN JUMPDEST PUSH2 0x190 PUSH2 0x3DC JUMP JUMPDEST PUSH1 0x40 MLOAD PUSH2 0x19F SWAP4 SWAP3 SWAP2 SWAP1 PUSH2 0x81D JUMP JUMPDEST PUSH1 0x40 MLOAD DUP1 SWAP2 SUB SWAP1 RETURN JUMPDEST PUSH2 0x1C2 PUSH1 0x4 DUP1 CALLDATASIZE SUB DUP2 ADD SWAP1 PUSH2 0x1BD SWAP2 SWAP1 PUSH2 0x529 JUMP JUMPDEST PUSH2 0x4AE JUMP JUMPDEST PUSH1 0x40 MLOAD PUSH2 0x1CF SWAP2 SWAP1 PUSH2 0x576 JUMP JUMPDEST PUSH1 0x40 MLOAD DUP1 SWAP2 SUB SWAP1 RETURN JUMPDEST PUSH0 DUP2 DUP4 ADD PUSH1 0x40 MLOAD DUP2 DUP2 MSTORE PUSH1 0x20 DUP2 RETURN JUMPDEST PUSH0 PUSH0 JUMPDEST DUP3 DUP2 LT ISZERO PUSH2 0x202 JUMPI DUP2 DUP2 ADD SWAP2 POP PUSH1 0x1 DUP2 ADD SWAP1 POP PUSH2 0x1EA JUMP JUMPDEST POP DUP1 PUSH0 MSTORE PUSH1 0x20 PUSH0 RETURN JUMPDEST PUSH1 0x60 PUSH0 PUSH1 0x20 DUP4 MLOAD PUSH2 0x21C SWAP2 SWAP1 PUSH2 0x8AC JUMP JUMPDEST SWAP1 POP PUSH0 DUP2 PUSH8 0xFFFFFFFFFFFFFFFF DUP2 GT ISZERO PUSH2 0x239 JUMPI PUSH2 0x238 PUSH2 0x5D2 JUMP JUMPDEST JUMPDEST PUSH1 0x40 MLOAD SWAP1 DUP1 DUP3 MSTORE DUP1 PUSH1 0x20 MUL PUSH1 0x20 ADD DUP3 ADD PUSH1 0x40 MSTORE DUP1 ISZERO PUSH2 0x267 JUMPI DUP2 PUSH1 0x20 ADD PUSH1 0x20 DUP3 MUL DUP1 CALLDATASIZE DUP4 CALLDATACOPY DUP1 DUP3 ADD SWAP2 POP POP SWAP1 POP JUMPDEST POP SWAP1 POP PUSH0 PUSH0 SWAP1 POP PUSH0 PUSH1 0x20 SWAP1 POP JUMPDEST DUP6 MLOAD DUP2 GT PUSH2 0x2C6 JUMPI PUSH0 DUP2 DUP8 ADD MLOAD SWAP1 POP DUP1 DUP5 DUP5 DUP2 MLOAD DUP2 LT PUSH2 0x297 JUMPI PUSH2 0x296 PUSH2 0x8DC JUMP JUMPDEST JUMPDEST PUSH1 0x20 MUL PUSH1 0x20 ADD ADD DUP2 DUP2 MSTORE POP POP DUP3 DUP1 PUSH2 0x2AE SWAP1 PUSH2 0x909 JUMP JUMPDEST SWAP4 POP POP POP PUSH1 0x20 DUP2 PUSH2 0x2BF SWAP2 SWAP1 PUSH2 0x950 JUMP JUMPDEST SWAP1 POP PUSH2 0x274 JUMP JUMPDEST POP DUP2 SWAP4 POP POP POP POP SWAP2 SWAP1 POP JUMP JUMPDEST PUSH0 PUSH0 PUSH0 PUSH2 0x2DD PUSH2 0x4C3 JUMP JUMPDEST PUSH1 0x6F DUP2 PUSH0 PUSH1 0x3 DUP2 LT PUSH2 0x2F2 JUMPI PUSH2 0x2F1 PUSH2 0x8DC JUMP JUMPDEST JUMPDEST PUSH1 0x20 MUL ADD DUP2 DUP2 MSTORE POP POP PUSH1 0xDE DUP2 PUSH1 0x1 PUSH1 0x3 DUP2 LT PUSH2 0x311 JUMPI PUSH2 0x310 PUSH2 0x8DC JUMP JUMPDEST JUMPDEST PUSH1 0x20 MUL ADD DUP2 DUP2 MSTORE POP POP PUSH2 0x14D DUP2 PUSH1 0x2 PUSH1 0x3 DUP2 LT PUSH2 0x331 JUMPI PUSH2 0x330 PUSH2 0x8DC JUMP JUMPDEST JUMPDEST PUSH1 0x20 MUL ADD DUP2 DUP2 MSTORE POP POP PUSH0 DUP2 ADD MLOAD SWAP4 POP PUSH1 0x20 DUP2 ADD MLOAD SWAP3 POP PUSH1 0x40 DUP2 ADD MLOAD SWAP2 POP POP SWAP1 SWAP2 SWAP3 JUMP JUMPDEST PUSH0 PUSH0 PUSH0 SWAP1 POP JUMPDEST DUP3 DUP2 LT ISZERO PUSH2 0x37D JUMPI DUP1 DUP3 PUSH2 0x36E SWAP2 SWAP1 PUSH2 0x950 JUMP JUMPDEST SWAP2 POP DUP1 DUP1 PUSH1 0x1 ADD SWAP2 POP POP PUSH2 0x35A JUMP JUMPDEST POP SWAP2 SWAP1 POP JUMP JUMPDEST PUSH0 PUSH0 PUSH1 0x5 PUSH8 0xFFFFFFFFFFFFFFFF DUP2 GT ISZERO PUSH2 0x3A0 JUMPI PUSH2 0x39F PUSH2 0x5D2 JUMP JUMPDEST JUMPDEST PUSH1 0x40 MLOAD SWAP1 DUP1 DUP3 MSTORE DUP1 PUSH1 0x20 MUL PUSH1 0x20 ADD DUP3 ADD PUSH1 0x40 MSTORE DUP1 ISZERO PUSH2 0x3CE JUMPI DUP2 PUSH1 0x20 ADD PUSH1 0x20 DUP3 MUL DUP1 CALLDATASIZE DUP4 CALLDATACOPY DUP1 DUP3 ADD SWAP2 POP POP SWAP1 POP JUMPDEST POP SWAP1 POP PUSH1 0x20 DUP2 ADD MLOAD SWAP2 POP POP SWAP1 JUMP JUMPDEST PUSH0 PUSH0 PUSH0 PUSH0 PUSH1 0x3 PUSH8 0xFFFFFFFFFFFFFFFF DUP2 GT ISZERO PUSH2 0x3FB JUMPI PUSH2 0x3FA PUSH2 0x5D2 JUMP JUMPDEST JUMPDEST PUSH1 0x40 MLOAD SWAP1 DUP1 DUP3 MSTORE DUP1 PUSH1 0x20 MUL PUSH1 0x20 ADD DUP3 ADD PUSH1 0x40 MSTORE DUP1 ISZERO PUSH2 0x429 JUMPI DUP2 PUSH1 0x20 ADD PUSH1 0x20 DUP3 MUL DUP1 CALLDATASIZE DUP4 CALLDATACOPY DUP1 DUP3 ADD SWAP2 POP POP SWAP1 POP JUMPDEST POP SWAP1 POP PUSH2 0x1BC DUP2 PUSH0 DUP2 MLOAD DUP2 LT PUSH2 0x442 JUMPI PUSH2 0x441 PUSH2 0x8DC JUMP JUMPDEST JUMPDEST PUSH1 0x20 MUL PUSH1 0x20 ADD ADD DUP2 DUP2 MSTORE POP POP PUSH2 0x22B DUP2 PUSH1 0x1 DUP2 MLOAD DUP2 LT PUSH2 0x465 JUMPI PUSH2 0x464 PUSH2 0x8DC JUMP JUMPDEST JUMPDEST PUSH1 0x20 MUL PUSH1 0x20 ADD ADD DUP2 DUP2 MSTORE POP POP PUSH2 0x29A DUP2 PUSH1 0x2 DUP2 MLOAD DUP2 LT PUSH2 0x488 JUMPI PUSH2 0x487 PUSH2 0x8DC JUMP JUMPDEST JUMPDEST PUSH1 0x20 MUL PUSH1 0x20 ADD ADD DUP2 DUP2 MSTORE POP POP PUSH0 DUP2 ADD MLOAD SWAP4 POP PUSH1 0x20 DUP2 ADD MLOAD SWAP3 POP PUSH1 0x40 DUP2 ADD MLOAD SWAP2 POP POP SWAP1 SWAP2 SWAP3 JUMP JUMPDEST PUSH0 DUP2 DUP4 PUSH2 0x4BB SWAP2 SWAP1 PUSH2 0x950 JUMP JUMPDEST SWAP1 POP SWAP3 SWAP2 POP POP JUMP JUMPDEST PUSH1 0x40 MLOAD DUP1 PUSH1 0x60 ADD PUSH1 0x40 MSTORE DUP1 PUSH1 0x3 SWAP1 PUSH1 0x20 DUP3 MUL DUP1 CALLDATASIZE DUP4 CALLDATACOPY DUP1 DUP3 ADD SWAP2 POP POP SWAP1 POP POP SWAP1 JUMP JUMPDEST PUSH0 PUSH1 0x40 MLOAD SWAP1 POP SWAP1 JUMP JUMPDEST PUSH0 PUSH0 REVERT JUMPDEST PUSH0 PUSH0 REVERT JUMPDEST PUSH0 DUP2 SWAP1 POP SWAP2 SWAP1 POP JUMP JUMPDEST PUSH2 0x508 DUP2 PUSH2 0x4F6 JUMP JUMPDEST DUP2 EQ PUSH2 0x512 JUMPI PUSH0 PUSH0 REVERT JUMPDEST POP JUMP JUMPDEST PUSH0 DUP2 CALLDATALOAD SWAP1 POP PUSH2 0x523 DUP2 PUSH2 0x4FF JUMP JUMPDEST SWAP3 SWAP2 POP POP JUMP JUMPDEST PUSH0 PUSH0 PUSH1 0x40 DUP4 DUP6 SUB SLT ISZERO PUSH2 0x53F JUMPI PUSH2 0x53E PUSH2 0x4EE JUMP JUMPDEST JUMPDEST PUSH0 PUSH2 0x54C DUP6 DUP3 DUP7 ADD PUSH2 0x515 JUMP JUMPDEST SWAP3 POP POP PUSH1 0x20 PUSH2 0x55D DUP6 DUP3 DUP7 ADD PUSH2 0x515 JUMP JUMPDEST SWAP2 POP POP SWAP3 POP SWAP3 SWAP1 POP JUMP JUMPDEST PUSH2 0x570 DUP2 PUSH2 0x4F6 JUMP JUMPDEST DUP3 MSTORE POP POP JUMP JUMPDEST PUSH0 PUSH1 0x20 DUP3 ADD SWAP1 POP PUSH2 0x589 PUSH0 DUP4 ADD DUP5 PUSH2 0x567 JUMP JUMPDEST SWAP3 SWAP2 POP POP JUMP JUMPDEST PUSH0 PUSH1 0x20 DUP3 DUP5 SUB SLT ISZERO PUSH2 0x5A4 JUMPI PUSH2 0x5A3 PUSH2 0x4EE JUMP JUMPDEST JUMPDEST PUSH0 PUSH2 0x5B1 DUP5 DUP3 DUP6 ADD PUSH2 0x515 JUMP JUMPDEST SWAP2 POP POP SWAP3 SWAP2 POP POP JUMP JUMPDEST PUSH0 PUSH0 REVERT JUMPDEST PUSH0 PUSH0 REVERT JUMPDEST PUSH0 PUSH1 0x1F NOT PUSH1 0x1F DUP4 ADD AND SWAP1 POP SWAP2 SWAP1 POP JUMP JUMPDEST PUSH32 0x4E487B7100000000000000000000000000000000000000000000000000000000 PUSH0 MSTORE PUSH1 0x41 PUSH1 0x4 MSTORE PUSH1 0x24 PUSH0 REVERT JUMPDEST PUSH2 0x608 DUP3 PUSH2 0x5C2 JUMP JUMPDEST DUP2 ADD DUP2 DUP2 LT PUSH8 0xFFFFFFFFFFFFFFFF DUP3 GT OR ISZERO PUSH2 0x627 JUMPI PUSH2 0x626 PUSH2 0x5D2 JUMP JUMPDEST JUMPDEST DUP1 PUSH1 0x40 MSTORE POP POP POP JUMP JUMPDEST PUSH0 PUSH2 0x639 PUSH2 0x4E5 JUMP JUMPDEST SWAP1 POP PUSH2 0x645 DUP3 DUP3 PUSH2 0x5FF JUMP JUMPDEST SWAP2 SWAP1 POP JUMP JUMPDEST PUSH0 PUSH8 0xFFFFFFFFFFFFFFFF DUP3 GT ISZERO PUSH2 0x664 JUMPI PUSH2 0x663 PUSH2 0x5D2 JUMP JUMPDEST JUMPDEST PUSH2 0x66D DUP3 PUSH2 0x5C2 JUMP JUMPDEST SWAP1 POP PUSH1 0x20 DUP2 ADD SWAP1 POP SWAP2 SWAP1 POP JUMP JUMPDEST DUP3 DUP2 DUP4 CALLDATACOPY PUSH0 DUP4 DUP4 ADD MSTORE POP POP POP JUMP JUMPDEST PUSH0 PUSH2 0x69A PUSH2 0x695 DUP5 PUSH2 0x64A JUMP JUMPDEST PUSH2 0x630 JUMP JUMPDEST SWAP1 POP DUP3 DUP2 MSTORE PUSH1 0x20 DUP2 ADD DUP5 DUP5 DUP5 ADD GT ISZERO PUSH2 0x6B6 JUMPI PUSH2 0x6B5 PUSH2 0x5BE JUMP JUMPDEST JUMPDEST PUSH2 0x6C1 DUP5 DUP3 DUP6 PUSH2 0x67A JUMP JUMPDEST POP SWAP4 SWAP3 POP POP POP JUMP JUMPDEST PUSH0 DUP3 PUSH1 0x1F DUP4 ADD SLT PUSH2 0x6DD JUMPI PUSH2 0x6DC PUSH2 0x5BA JUMP JUMPDEST JUMPDEST DUP2 CALLDATALOAD PUSH2 0x6ED DUP5 DUP3 PUSH1 0x20 DUP7 ADD PUSH2 0x688 JUMP JUMPDEST SWAP2 POP POP SWAP3 SWAP2 POP POP JUMP JUMPDEST PUSH0 PUSH1 0x20 DUP3 DUP5 SUB SLT ISZERO PUSH2 0x70B JUMPI PUSH2 0x70A PUSH2 0x4EE JUMP JUMPDEST JUMPDEST PUSH0 DUP3 ADD CALLDATALOAD PUSH8 0xFFFFFFFFFFFFFFFF DUP2 GT ISZERO PUSH2 0x728 JUMPI PUSH2 0x727 PUSH2 0x4F2 JUMP JUMPDEST JUMPDEST PUSH2 0x734 DUP5 DUP3 DUP6 ADD PUSH2 0x6C9 JUMP JUMPDEST SWAP2 POP POP SWAP3 SWAP2 POP POP JUMP JUMPDEST PUSH0 DUP2 MLOAD SWAP1 POP SWAP2 SWAP1 POP JUMP JUMPDEST PUSH0 DUP3 DUP3 MSTORE PUSH1 0x20 DUP3 ADD SWAP1 POP SWAP3 SWAP2 POP POP JUMP JUMPDEST PUSH0 DUP2 SWAP1 POP PUSH1 0x20 DUP3 ADD SWAP1 POP SWAP2 SWAP1 POP JUMP JUMPDEST PUSH0 DUP2 SWAP1 POP SWAP2 SWAP1 POP JUMP JUMPDEST PUSH2 0x778 DUP2 PUSH2 0x766 JUMP JUMPDEST DUP3 MSTORE POP POP JUMP JUMPDEST PUSH0 PUSH2 0x789 DUP4 DUP4 PUSH2 0x76F JUMP JUMPDEST PUSH1 0x20 DUP4 ADD SWAP1 POP SWAP3 SWAP2 POP POP JUMP JUMPDEST PUSH0 PUSH1 0x20 DUP3 ADD SWAP1 POP SWAP2 SWAP1 POP JUMP JUMPDEST PUSH0 PUSH2 0x7AB DUP3 PUSH2 0x73D JUMP JUMPDEST PUSH2 0x7B5 DUP2 DUP6 PUSH2 0x747 JUMP JUMPDEST SWAP4 POP PUSH2 0x7C0 DUP4 PUSH2 0x757 JUMP JUMPDEST DUP1 PUSH0 JUMPDEST DUP4 DUP2 LT ISZERO PUSH2 0x7F0 JUMPI DUP2 MLOAD PUSH2 0x7D7 DUP9 DUP3 PUSH2 0x77E JUMP JUMPDEST SWAP8 POP PUSH2 0x7E2 DUP4 PUSH2 0x795 JUMP JUMPDEST SWAP3 POP POP PUSH1 0x1 DUP2 ADD SWAP1 POP PUSH2 0x7C3 JUMP JUMPDEST POP DUP6 SWAP4 POP POP POP POP SWAP3 SWAP2 POP POP JUMP JUMPDEST PUSH0 PUSH1 0x20 DUP3 ADD SWAP1 POP DUP2 DUP2 SUB PUSH0 DUP4 ADD MSTORE PUSH2 0x815 DUP2 DUP5 PUSH2 0x7A1 JUMP JUMPDEST SWAP1 POP SWAP3 SWAP2 POP POP JUMP JUMPDEST PUSH0 PUSH1 0x60 DUP3 ADD SWAP1 POP PUSH2 0x830 PUSH0 DUP4 ADD DUP7 PUSH2 0x567 JUMP JUMPDEST PUSH2 0x83D PUSH1 0x20 DUP4 ADD DUP6 PUSH2 0x567 JUMP JUMPDEST PUSH2 0x84A PUSH1 0x40 DUP4 ADD DUP5 PUSH2 0x567 JUMP JUMPDEST SWAP5 SWAP4 POP POP POP POP JUMP JUMPDEST PUSH32 0x4E487B7100000000000000000000000000000000000000000000000000000000 PUSH0 MSTORE PUSH1 0x12 PUSH1 0x4 MSTORE PUSH1 0x24 PUSH0 REVERT JUMPDEST PUSH32 0x4E487B7100000000000000000000000000000000000000000000000000000000 PUSH0 MSTORE PUSH1 0x11 PUSH1 0x4 MSTORE PUSH1 0x24 PUSH0 REVERT JUMPDEST PUSH0 PUSH2 0x8B6 DUP3 PUSH2 0x4F6 JUMP JUMPDEST SWAP2 POP PUSH2 0x8C1 DUP4 PUSH2 0x4F6 JUMP JUMPDEST SWAP3 POP DUP3 PUSH2 0x8D1 JUMPI PUSH2 0x8D0 PUSH2 0x852 JUMP JUMPDEST JUMPDEST DUP3 DUP3 DIV SWAP1 POP SWAP3 SWAP2 POP POP JUMP JUMPDEST PUSH32 0x4E487B7100000000000000000000000000000000000000000000000000000000 PUSH0 MSTORE PUSH1 0x32 PUSH1 0x4 MSTORE PUSH1 0x24 PUSH0 REVERT JUMPDEST PUSH0 PUSH2 0x913 DUP3 PUSH2 0x4F6 JUMP JUMPDEST SWAP2 POP PUSH32 0xFFFFFFFFFFFFFFFFFFFFFFFFFFFFFFFFFFFFFFFFFFFFFFFFFFFFFFFFFFFFFFFF DUP3 SUB PUSH2 0x945 JUMPI PUSH2 0x944 PUSH2 0x87F JUMP JUMPDEST JUMPDEST PUSH1 0x1 DUP3 ADD SWAP1 POP SWAP2 SWAP1 POP JUMP JUMPDEST PUSH0 PUSH2 0x95A DUP3 PUSH2 0x4F6 JUMP JUMPDEST SWAP2 POP PUSH2 0x965 DUP4 PUSH2 0x4F6 JUMP JUMPDEST SWAP3 POP DUP3 DUP3 ADD SWAP1 POP DUP1 DUP3 GT ISZERO PUSH2 0x97D JUMPI PUSH2 0x97C PUSH2 0x87F JUMP JUMPDEST JUMPDEST SWAP3 SWAP2 POP POP JUMP INVALID LOG2 PUSH5 0x6970667358 0x22 SLT KECCAK256 SWAP10 DUP6 NOT BYTE DUP4 0xB9 0xC8 0xBF PUSH31 0x4150554F7A68BC083749737CA2E77D6DB19D73E010262B64736F6C63430008 SHR STOP CALLER "
		},
		"gasEstimates": {
			"creation": {
				"codeDepositCost": "497800",
				"executionCost": "528",
				"totalCost": "498328"
			},
			"external": {
				"addAssembly(uint256,uint256)": "infinite",
				"addSolidity(uint256,uint256)": "infinite",
				"bytesToBytes32Array(bytes)": "infinite",
				"loopAssembly(uint256)": "infinite",
				"loopNormal(uint256)": "infinite",
				"read1()": "infinite",
				"read2()": "infinite",
				"testDynamicArray()": "infinite"
			},
			"internal": {
				"isContract(address)": "infinite"
			}
		},
		"methodIdentifiers": {
			"addAssembly(uint256,uint256)": "08bb1114",
			"addSolidity(uint256,uint256)": "de9bad0c",
			"bytesToBytes32Array(bytes)": "4debc578",
			"loopAssembly(uint256)": "17645523",
			"loopNormal(uint256)": "ab43d318",
			"read1()": "596c89fa",
			"read2()": "c1a52b50",
			"testDynamicArray()": "bbd81203"
		}
	},
	"abi": [
		{
			"inputs": [
				{
					"internalType": "uint256",
					"name": "x",
					"type": "uint256"
				},
				{
					"internalType": "uint256",
					"name": "y",
					"type": "uint256"
				}
			],
			"name": "addAssembly",
			"outputs": [
				{
					"internalType": "uint256",
					"name": "",
					"type": "uint256"
				}
			],
			"stateMutability": "pure",
			"type": "function"
		},
		{
			"inputs": [
				{
					"internalType": "uint256",
					"name": "x",
					"type": "uint256"
				},
				{
					"internalType": "uint256",
					"name": "y",
					"type": "uint256"
				}
			],
			"name": "addSolidity",
			"outputs": [
				{
					"internalType": "uint256",
					"name": "",
					"type": "uint256"
				}
			],
			"stateMutability": "pure",
			"type": "function"
		},
		{
			"inputs": [
				{
					"internalType": "bytes",
					"name": "data",
					"type": "bytes"
				}
			],
			"name": "bytesToBytes32Array",
			"outputs": [
				{
					"internalType": "bytes32[]",
					"name": "",
					"type": "bytes32[]"
				}
			],
			"stateMutability": "pure",
			"type": "function"
		},
		{
			"inputs": [
				{
					"internalType": "uint256",
					"name": "n",
					"type": "uint256"
				}
			],
			"name": "loopAssembly",
			"outputs": [
				{
					"internalType": "uint256",
					"name": "rst",
					"type": "uint256"
				}
			],
			"stateMutability": "pure",
			"type": "function"
		},
		{
			"inputs": [
				{
					"internalType": "uint256",
					"name": "n",
					"type": "uint256"
				}
			],
			"name": "loopNormal",
			"outputs": [
				{
					"internalType": "uint256",
					"name": "rst",
					"type": "uint256"
				}
			],
			"stateMutability": "pure",
			"type": "function"
		},
		{
			"inputs": [],
			"name": "read1",
			"outputs": [
				{
					"internalType": "uint256",
					"name": "a",
					"type": "uint256"
				},
				{
					"internalType": "uint256",
					"name": "b",
					"type": "uint256"
				},
				{
					"internalType": "uint256",
					"name": "c",
					"type": "uint256"
				}
			],
			"stateMutability": "pure",
			"type": "function"
		},
		{
			"inputs": [],
			"name": "read2",
			"outputs": [
				{
					"internalType": "uint256",
					"name": "a",
					"type": "uint256"
				},
				{
					"internalType": "uint256",
					"name": "b",
					"type": "uint256"
				},
				{
					"internalType": "uint256",
					"name": "c",
					"type": "uint256"
				}
			],
			"stateMutability": "pure",
			"type": "function"
		},
		{
			"inputs": [],
			"name": "testDynamicArray",
			"outputs": [
				{
					"internalType": "uint256",
					"name": "i",
					"type": "uint256"
				}
			],
			"stateMutability": "pure",
			"type": "function"
		}
	]
}