{
	"data": {
		"bytecode": {
			"linkReferences": {},
			"object": "6080604052348015600e575f5ffd5b50606a80601a5f395ff3fe6080604052348015600e575f5ffd5b50600436106026575f3560e01c8063c298557814602a575b5f5ffd5b60306032565b005b56fea2646970667358221220996df93631cfd61378c1b1af254585d6b70f3d07eb9c75d0df691b28107f8c5364736f6c634300081c0033",
			"opcodes": "PUSH1 0x80 PUSH1 0x40 MSTORE CALLVALUE DUP1 ISZERO PUSH1 0xE JUMPI PUSH0 PUSH0 REVERT JUMPDEST POP PUSH1 0x6A DUP1 PUSH1 0x1A PUSH0 CODECOPY PUSH0 RETURN INVALID PUSH1 0x80 PUSH1 0x40 MSTORE CALLVALUE DUP1 ISZERO PUSH1 0xE JUMPI PUSH0 PUSH0 REVERT JUMPDEST POP PUSH1 0x4 CALLDATASIZE LT PUSH1 0x26 JUMPI PUSH0 CALLDATALOAD PUSH1 0xE0 SHR DUP1 PUSH4 0xC2985578 EQ PUSH1 0x2A JUMPI JUMPDEST PUSH0 PUSH0 REVERT JUMPDEST PUSH1 0x30 PUSH1 0x32 JUMP JUMPDEST STOP JUMPDEST JUMP INVALID LOG2 PUSH5 0x6970667358 0x22 SLT KECCAK256 SWAP10 PUSH14 0xF93631CFD61378C1B1AF254585D6 0xB7 0xF RETURNDATASIZE SMOD 0xEB SWAP13 PUSH22 0xD0DF691B28107F8C5364736F6C634300081C00330000 "
		},
		"gasEstimates": {
			"creation": {
				"codeDepositCost": "21200",
				"executionCost": "73",
				"totalCost": "21273"
			},
			"external": {
				"foo()": "121"
			}
		},
		"methodIdentifiers": {
			"foo()": "c2985578"
		}
	},
	"abi": [
		{
			"inputs": [],
			"name": "foo",
			"outputs": [],
			"stateMutability": "nonpayable",
			"type": "function"
		}
	]
}