{
	"contracts/delegatecall/unstructured-proxy.sol": {
		"UnstructuredProxy": {
			"abi": [
				{
					"stateMutability": "nonpayable",
					"type": "fallback"
				},
				{
					"inputs": [],
					"name": "logic",
					"outputs": [
						{
							"internalType": "address",
							"name": "impl",
							"type": "address"
						}
					],
					"stateMutability": "view",
					"type": "function"
				},
				{
					"inputs": [
						{
							"internalType": "address",
							"name": "newLogic",
							"type": "address"
						}
					],
					"name": "upgradeTo",
					"outputs": [],
					"stateMutability": "nonpayable",
					"type": "function"
				}
			],
			"devdoc": {
				"kind": "dev",
				"methods": {},
				"version": 1
			},
			"evm": {
				"assembly": "    /* \"contracts/delegatecall/unstructured-proxy.sol\":174:2568  contract UnstructuredProxy {... */\n  mstore(0x40, 0x80)\n  callvalue\n  dup1\n  iszero\n  tag_1\n  jumpi\n  0x00\n  dup1\n  revert\ntag_1:\n  pop\n  dataSize(sub_0)\n  dup1\n  dataOffset(sub_0)\n  0x00\n  codecopy\n  0x00\n  return\nstop\n\nsub_0: assembly {\n        /* \"contracts/delegatecall/unstructured-proxy.sol\":174:2568  contract UnstructuredProxy {... */\n      mstore(0x40, 0x80)\n      callvalue\n      dup1\n      iszero\n      tag_1\n      jumpi\n      0x00\n      dup1\n      revert\n    tag_1:\n      pop\n      jumpi(tag_2, lt(calldatasize, 0x04))\n      shr(0xe0, calldataload(0x00))\n      dup1\n      0x3659cfe6\n      eq\n      tag_4\n      jumpi\n      dup1\n      0xd7dfa0dd\n      eq\n      tag_5\n      jumpi\n      jump(tag_3)\n    tag_2:\n    tag_3:\n        /* \"contracts/delegatecall/unstructured-proxy.sol\":2540:2558  _delegate(logic()) */\n      tag_8\n        /* \"contracts/delegatecall/unstructured-proxy.sol\":2550:2557  logic() */\n      tag_9\n        /* \"contracts/delegatecall/unstructured-proxy.sol\":2550:2555  logic */\n      tag_10\n        /* \"contracts/delegatecall/unstructured-proxy.sol\":2550:2557  logic() */\n      jump\t// in\n    tag_9:\n        /* \"contracts/delegatecall/unstructured-proxy.sol\":2540:2549  _delegate */\n      tag_11\n        /* \"contracts/delegatecall/unstructured-proxy.sol\":2540:2558  _delegate(logic()) */\n      jump\t// in\n    tag_8:\n        /* \"contracts/delegatecall/unstructured-proxy.sol\":174:2568  contract UnstructuredProxy {... */\n      stop\n        /* \"contracts/delegatecall/unstructured-proxy.sol\":326:417  function upgradeTo(address newLogic)public {   ... */\n    tag_4:\n      tag_12\n      0x04\n      dup1\n      calldatasize\n      sub\n      dup2\n      add\n      swap1\n      tag_13\n      swap2\n      swap1\n      tag_14\n      jump\t// in\n    tag_13:\n      tag_15\n      jump\t// in\n    tag_12:\n      stop\n        /* \"contracts/delegatecall/unstructured-proxy.sol\":423:595  function logic() public view returns(address impl) {   ... */\n    tag_5:\n      tag_16\n      tag_10\n      jump\t// in\n    tag_16:\n      mload(0x40)\n      tag_17\n      swap2\n      swap1\n      tag_18\n      jump\t// in\n    tag_17:\n      mload(0x40)\n      dup1\n      swap2\n      sub\n      swap1\n      return\n    tag_10:\n        /* \"contracts/delegatecall/unstructured-proxy.sol\":460:472  address impl */\n      0x00\n        /* \"contracts/delegatecall/unstructured-proxy.sol\":487:503  bytes32 position */\n      dup1\n        /* \"contracts/delegatecall/unstructured-proxy.sol\":271:319  keccak256(\"org.zeppelinos.proxy.implementation\") */\n      0x7050c9e0f4ca769c69bd3a8ef740bc37934f8e2c036e5a723fd8ee048ed3f8c3\n        /* \"contracts/delegatecall/unstructured-proxy.sol\":487:519  bytes32 position = logicPosition */\n      swap1\n      pop\n        /* \"contracts/delegatecall/unstructured-proxy.sol\":569:577  position */\n      dup1\n        /* \"contracts/delegatecall/unstructured-proxy.sol\":563:578  sload(position) */\n      sload\n        /* \"contracts/delegatecall/unstructured-proxy.sol\":555:578  impl := sload(position) */\n      swap2\n      pop\n        /* \"contracts/delegatecall/unstructured-proxy.sol\":541:588  {... */\n      pop\n        /* \"contracts/delegatecall/unstructured-proxy.sol\":423:595  function logic() public view returns(address impl) {   ... */\n      swap1\n      jump\t// out\n        /* \"contracts/delegatecall/unstructured-proxy.sol\":801:2502  function _delegate(address _logic) internal virtual {... */\n    tag_11:\n        /* \"contracts/delegatecall/unstructured-proxy.sol\":1292:1306  calldatasize() */\n      calldatasize\n        /* \"contracts/delegatecall/unstructured-proxy.sol\":1289:1290  0 */\n      0x00\n        /* \"contracts/delegatecall/unstructured-proxy.sol\":1286:1287  0 */\n      dup1\n        /* \"contracts/delegatecall/unstructured-proxy.sol\":1273:1307  calldatacopy(0, 0, calldatasize()) */\n      calldatacopy\n        /* \"contracts/delegatecall/unstructured-proxy.sol\":1818:1819  0 */\n      0x00\n        /* \"contracts/delegatecall/unstructured-proxy.sol\":1815:1816  0 */\n      dup1\n        /* \"contracts/delegatecall/unstructured-proxy.sol\":1799:1813  calldatasize() */\n      calldatasize\n        /* \"contracts/delegatecall/unstructured-proxy.sol\":1796:1797  0 */\n      0x00\n        /* \"contracts/delegatecall/unstructured-proxy.sol\":1788:1794  _logic */\n      dup5\n        /* \"contracts/delegatecall/unstructured-proxy.sol\":1781:1786  gas() */\n      gas\n        /* \"contracts/delegatecall/unstructured-proxy.sol\":1768:1820  delegatecall(gas(), _logic, 0, calldatasize(), 0, 0) */\n      delegatecall\n        /* \"contracts/delegatecall/unstructured-proxy.sol\":2061:2077  returndatasize() */\n      returndatasize\n        /* \"contracts/delegatecall/unstructured-proxy.sol\":2058:2059  0 */\n      0x00\n        /* \"contracts/delegatecall/unstructured-proxy.sol\":2055:2056  0 */\n      dup1\n        /* \"contracts/delegatecall/unstructured-proxy.sol\":2040:2078  returndatacopy(0, 0, returndatasize()) */\n      returndatacopy\n        /* \"contracts/delegatecall/unstructured-proxy.sol\":2099:2105  result */\n      dup1\n        /* \"contracts/delegatecall/unstructured-proxy.sol\":2171:2172  0 */\n      0x00\n        /* \"contracts/delegatecall/unstructured-proxy.sol\":2166:2330  case 0 {... */\n      dup2\n      eq\n      tag_22\n      jumpi\n        /* \"contracts/delegatecall/unstructured-proxy.sol\":2455:2471  returndatasize() */\n      returndatasize\n        /* \"contracts/delegatecall/unstructured-proxy.sol\":2452:2453  0 */\n      0x00\n        /* \"contracts/delegatecall/unstructured-proxy.sol\":2445:2472  return(0, returndatasize()) */\n      return\n        /* \"contracts/delegatecall/unstructured-proxy.sol\":2166:2330  case 0 {... */\n    tag_22:\n        /* \"contracts/delegatecall/unstructured-proxy.sol\":2299:2315  returndatasize() */\n      returndatasize\n        /* \"contracts/delegatecall/unstructured-proxy.sol\":2296:2297  0 */\n      0x00\n        /* \"contracts/delegatecall/unstructured-proxy.sol\":2289:2316  revert(0, returndatasize()) */\n      revert\n        /* \"contracts/delegatecall/unstructured-proxy.sol\":326:417  function upgradeTo(address newLogic)public {   ... */\n    tag_15:\n        /* \"contracts/delegatecall/unstructured-proxy.sol\":391:409  setLogic(newLogic) */\n      tag_24\n        /* \"contracts/delegatecall/unstructured-proxy.sol\":400:408  newLogic */\n      dup2\n        /* \"contracts/delegatecall/unstructured-proxy.sol\":391:399  setLogic */\n      tag_25\n        /* \"contracts/delegatecall/unstructured-proxy.sol\":391:409  setLogic(newLogic) */\n      jump\t// in\n    tag_24:\n        /* \"contracts/delegatecall/unstructured-proxy.sol\":326:417  function upgradeTo(address newLogic)public {   ... */\n      pop\n      jump\t// out\n        /* \"contracts/delegatecall/unstructured-proxy.sol\":601:770  function setLogic(address newLogic) internal {   ... */\n    tag_25:\n        /* \"contracts/delegatecall/unstructured-proxy.sol\":659:675  bytes32 position */\n      0x00\n        /* \"contracts/delegatecall/unstructured-proxy.sol\":271:319  keccak256(\"org.zeppelinos.proxy.implementation\") */\n      0x7050c9e0f4ca769c69bd3a8ef740bc37934f8e2c036e5a723fd8ee048ed3f8c3\n        /* \"contracts/delegatecall/unstructured-proxy.sol\":659:691  bytes32 position = logicPosition */\n      swap1\n      pop\n        /* \"contracts/delegatecall/unstructured-proxy.sol\":744:752  newLogic */\n      dup2\n        /* \"contracts/delegatecall/unstructured-proxy.sol\":734:742  position */\n      dup2\n        /* \"contracts/delegatecall/unstructured-proxy.sol\":727:753  sstore(position, newLogic) */\n      sstore\n        /* \"contracts/delegatecall/unstructured-proxy.sol\":713:763  {... */\n      pop\n        /* \"contracts/delegatecall/unstructured-proxy.sol\":601:770  function setLogic(address newLogic) internal {   ... */\n      pop\n      jump\t// out\n        /* \"#utility.yul\":88:205   */\n    tag_28:\n        /* \"#utility.yul\":197:198   */\n      0x00\n        /* \"#utility.yul\":194:195   */\n      dup1\n        /* \"#utility.yul\":187:199   */\n      revert\n        /* \"#utility.yul\":334:460   */\n    tag_30:\n        /* \"#utility.yul\":371:378   */\n      0x00\n        /* \"#utility.yul\":411:453   */\n      0xffffffffffffffffffffffffffffffffffffffff\n        /* \"#utility.yul\":404:409   */\n      dup3\n        /* \"#utility.yul\":400:454   */\n      and\n        /* \"#utility.yul\":389:454   */\n      swap1\n      pop\n        /* \"#utility.yul\":334:460   */\n      swap2\n      swap1\n      pop\n      jump\t// out\n        /* \"#utility.yul\":466:562   */\n    tag_31:\n        /* \"#utility.yul\":503:510   */\n      0x00\n        /* \"#utility.yul\":532:556   */\n      tag_41\n        /* \"#utility.yul\":550:555   */\n      dup3\n        /* \"#utility.yul\":532:556   */\n      tag_30\n      jump\t// in\n    tag_41:\n        /* \"#utility.yul\":521:556   */\n      swap1\n      pop\n        /* \"#utility.yul\":466:562   */\n      swap2\n      swap1\n      pop\n      jump\t// out\n        /* \"#utility.yul\":568:690   */\n    tag_32:\n        /* \"#utility.yul\":641:665   */\n      tag_43\n        /* \"#utility.yul\":659:664   */\n      dup2\n        /* \"#utility.yul\":641:665   */\n      tag_31\n      jump\t// in\n    tag_43:\n        /* \"#utility.yul\":634:639   */\n      dup2\n        /* \"#utility.yul\":631:666   */\n      eq\n        /* \"#utility.yul\":621:684   */\n      tag_44\n      jumpi\n        /* \"#utility.yul\":680:681   */\n      0x00\n        /* \"#utility.yul\":677:678   */\n      dup1\n        /* \"#utility.yul\":670:682   */\n      revert\n        /* \"#utility.yul\":621:684   */\n    tag_44:\n        /* \"#utility.yul\":568:690   */\n      pop\n      jump\t// out\n        /* \"#utility.yul\":696:835   */\n    tag_33:\n        /* \"#utility.yul\":742:747   */\n      0x00\n        /* \"#utility.yul\":780:786   */\n      dup2\n        /* \"#utility.yul\":767:787   */\n      calldataload\n        /* \"#utility.yul\":758:787   */\n      swap1\n      pop\n        /* \"#utility.yul\":796:829   */\n      tag_46\n        /* \"#utility.yul\":823:828   */\n      dup2\n        /* \"#utility.yul\":796:829   */\n      tag_32\n      jump\t// in\n    tag_46:\n        /* \"#utility.yul\":696:835   */\n      swap3\n      swap2\n      pop\n      pop\n      jump\t// out\n        /* \"#utility.yul\":841:1170   */\n    tag_14:\n        /* \"#utility.yul\":900:906   */\n      0x00\n        /* \"#utility.yul\":949:951   */\n      0x20\n        /* \"#utility.yul\":937:946   */\n      dup3\n        /* \"#utility.yul\":928:935   */\n      dup5\n        /* \"#utility.yul\":924:947   */\n      sub\n        /* \"#utility.yul\":920:952   */\n      slt\n        /* \"#utility.yul\":917:1036   */\n      iszero\n      tag_48\n      jumpi\n        /* \"#utility.yul\":955:1034   */\n      tag_49\n      tag_28\n      jump\t// in\n    tag_49:\n        /* \"#utility.yul\":917:1036   */\n    tag_48:\n        /* \"#utility.yul\":1075:1076   */\n      0x00\n        /* \"#utility.yul\":1100:1153   */\n      tag_50\n        /* \"#utility.yul\":1145:1152   */\n      dup5\n        /* \"#utility.yul\":1136:1142   */\n      dup3\n        /* \"#utility.yul\":1125:1134   */\n      dup6\n        /* \"#utility.yul\":1121:1143   */\n      add\n        /* \"#utility.yul\":1100:1153   */\n      tag_33\n      jump\t// in\n    tag_50:\n        /* \"#utility.yul\":1090:1153   */\n      swap2\n      pop\n        /* \"#utility.yul\":1046:1163   */\n      pop\n        /* \"#utility.yul\":841:1170   */\n      swap3\n      swap2\n      pop\n      pop\n      jump\t// out\n        /* \"#utility.yul\":1176:1294   */\n    tag_34:\n        /* \"#utility.yul\":1263:1287   */\n      tag_52\n        /* \"#utility.yul\":1281:1286   */\n      dup2\n        /* \"#utility.yul\":1263:1287   */\n      tag_31\n      jump\t// in\n    tag_52:\n        /* \"#utility.yul\":1258:1261   */\n      dup3\n        /* \"#utility.yul\":1251:1288   */\n      mstore\n        /* \"#utility.yul\":1176:1294   */\n      pop\n      pop\n      jump\t// out\n        /* \"#utility.yul\":1300:1522   */\n    tag_18:\n        /* \"#utility.yul\":1393:1397   */\n      0x00\n        /* \"#utility.yul\":1431:1433   */\n      0x20\n        /* \"#utility.yul\":1420:1429   */\n      dup3\n        /* \"#utility.yul\":1416:1434   */\n      add\n        /* \"#utility.yul\":1408:1434   */\n      swap1\n      pop\n        /* \"#utility.yul\":1444:1515   */\n      tag_54\n        /* \"#utility.yul\":1512:1513   */\n      0x00\n        /* \"#utility.yul\":1501:1510   */\n      dup4\n        /* \"#utility.yul\":1497:1514   */\n      add\n        /* \"#utility.yul\":1488:1494   */\n      dup5\n        /* \"#utility.yul\":1444:1515   */\n      tag_34\n      jump\t// in\n    tag_54:\n        /* \"#utility.yul\":1300:1522   */\n      swap3\n      swap2\n      pop\n      pop\n      jump\t// out\n\n    auxdata: 0xa26469706673582212209037799da010bfad7653728e9732bd8700269642c8387e99926efdef12d97dc964736f6c634300081a0033\n}\n",
				"bytecode": {
					"linkReferences": {},
					"object": "6080604052348015600e575f80fd5b506101ef8061001c5f395ff3fe608060405234801561000f575f80fd5b5060043610610038575f3560e01c80633659cfe61461004b578063d7dfa0dd1461006757610039565b5b610049610044610085565b6100b2565b005b61006560048036038101906100609190610166565b6100d1565b005b61006f610085565b60405161007c91906101a0565b60405180910390f35b5f807f7050c9e0f4ca769c69bd3a8ef740bc37934f8e2c036e5a723fd8ee048ed3f8c39050805491505090565b365f80375f80365f845af43d5f803e805f81146100cd573d5ff35b3d5ffd5b6100da816100dd565b50565b5f7f7050c9e0f4ca769c69bd3a8ef740bc37934f8e2c036e5a723fd8ee048ed3f8c390508181555050565b5f80fd5b5f73ffffffffffffffffffffffffffffffffffffffff82169050919050565b5f6101358261010c565b9050919050565b6101458161012b565b811461014f575f80fd5b50565b5f813590506101608161013c565b92915050565b5f6020828403121561017b5761017a610108565b5b5f61018884828501610152565b91505092915050565b61019a8161012b565b82525050565b5f6020820190506101b35f830184610191565b9291505056fea26469706673582212209037799da010bfad7653728e9732bd8700269642c8387e99926efdef12d97dc964736f6c634300081a0033",
					"opcodes": "PUSH1 0x80 PUSH1 0x40 MSTORE CALLVALUE DUP1 ISZERO PUSH1 0xE JUMPI PUSH0 DUP1 REVERT JUMPDEST POP PUSH2 0x1EF DUP1 PUSH2 0x1C PUSH0 CODECOPY PUSH0 RETURN INVALID PUSH1 0x80 PUSH1 0x40 MSTORE CALLVALUE DUP1 ISZERO PUSH2 0xF JUMPI PUSH0 DUP1 REVERT JUMPDEST POP PUSH1 0x4 CALLDATASIZE LT PUSH2 0x38 JUMPI PUSH0 CALLDATALOAD PUSH1 0xE0 SHR DUP1 PUSH4 0x3659CFE6 EQ PUSH2 0x4B JUMPI DUP1 PUSH4 0xD7DFA0DD EQ PUSH2 0x67 JUMPI PUSH2 0x39 JUMP JUMPDEST JUMPDEST PUSH2 0x49 PUSH2 0x44 PUSH2 0x85 JUMP JUMPDEST PUSH2 0xB2 JUMP JUMPDEST STOP JUMPDEST PUSH2 0x65 PUSH1 0x4 DUP1 CALLDATASIZE SUB DUP2 ADD SWAP1 PUSH2 0x60 SWAP2 SWAP1 PUSH2 0x166 JUMP JUMPDEST PUSH2 0xD1 JUMP JUMPDEST STOP JUMPDEST PUSH2 0x6F PUSH2 0x85 JUMP JUMPDEST PUSH1 0x40 MLOAD PUSH2 0x7C SWAP2 SWAP1 PUSH2 0x1A0 JUMP JUMPDEST PUSH1 0x40 MLOAD DUP1 SWAP2 SUB SWAP1 RETURN JUMPDEST PUSH0 DUP1 PUSH32 0x7050C9E0F4CA769C69BD3A8EF740BC37934F8E2C036E5A723FD8EE048ED3F8C3 SWAP1 POP DUP1 SLOAD SWAP2 POP POP SWAP1 JUMP JUMPDEST CALLDATASIZE PUSH0 DUP1 CALLDATACOPY PUSH0 DUP1 CALLDATASIZE PUSH0 DUP5 GAS DELEGATECALL RETURNDATASIZE PUSH0 DUP1 RETURNDATACOPY DUP1 PUSH0 DUP2 EQ PUSH2 0xCD JUMPI RETURNDATASIZE PUSH0 RETURN JUMPDEST RETURNDATASIZE PUSH0 REVERT JUMPDEST PUSH2 0xDA DUP2 PUSH2 0xDD JUMP JUMPDEST POP JUMP JUMPDEST PUSH0 PUSH32 0x7050C9E0F4CA769C69BD3A8EF740BC37934F8E2C036E5A723FD8EE048ED3F8C3 SWAP1 POP DUP2 DUP2 SSTORE POP POP JUMP JUMPDEST PUSH0 DUP1 REVERT JUMPDEST PUSH0 PUSH20 0xFFFFFFFFFFFFFFFFFFFFFFFFFFFFFFFFFFFFFFFF DUP3 AND SWAP1 POP SWAP2 SWAP1 POP JUMP JUMPDEST PUSH0 PUSH2 0x135 DUP3 PUSH2 0x10C JUMP JUMPDEST SWAP1 POP SWAP2 SWAP1 POP JUMP JUMPDEST PUSH2 0x145 DUP2 PUSH2 0x12B JUMP JUMPDEST DUP2 EQ PUSH2 0x14F JUMPI PUSH0 DUP1 REVERT JUMPDEST POP JUMP JUMPDEST PUSH0 DUP2 CALLDATALOAD SWAP1 POP PUSH2 0x160 DUP2 PUSH2 0x13C JUMP JUMPDEST SWAP3 SWAP2 POP POP JUMP JUMPDEST PUSH0 PUSH1 0x20 DUP3 DUP5 SUB SLT ISZERO PUSH2 0x17B JUMPI PUSH2 0x17A PUSH2 0x108 JUMP JUMPDEST JUMPDEST PUSH0 PUSH2 0x188 DUP5 DUP3 DUP6 ADD PUSH2 0x152 JUMP JUMPDEST SWAP2 POP POP SWAP3 SWAP2 POP POP JUMP JUMPDEST PUSH2 0x19A DUP2 PUSH2 0x12B JUMP JUMPDEST DUP3 MSTORE POP POP JUMP JUMPDEST PUSH0 PUSH1 0x20 DUP3 ADD SWAP1 POP PUSH2 0x1B3 PUSH0 DUP4 ADD DUP5 PUSH2 0x191 JUMP JUMPDEST SWAP3 SWAP2 POP POP JUMP INVALID LOG2 PUSH5 0x6970667358 0x22 SLT KECCAK256 SWAP1 CALLDATACOPY PUSH26 0x9DA010BFAD7653728E9732BD8700269642C8387E99926EFDEF12 0xD9 PUSH30 0xC964736F6C634300081A0033000000000000000000000000000000000000 "
				},
				"gasEstimates": {
					"creation": {
						"codeDepositCost": "99000",
						"executionCost": "145",
						"totalCost": "99145"
					},
					"external": {
						"": "infinite",
						"logic()": "2493",
						"upgradeTo(address)": "22574"
					},
					"internal": {
						"_delegate(address)": "infinite",
						"setLogic(address)": "22129"
					}
				},
				"methodIdentifiers": {
					"logic()": "d7dfa0dd",
					"upgradeTo(address)": "3659cfe6"
				}
			},
			"storageLayout": {
				"storage": [],
				"types": null
			},
			"userdoc": {
				"kind": "user",
				"methods": {},
				"version": 1
			}
		}
	}
}