{
	"contracts/gas/forever.sol": {
		"Gas": {
			"abi": [
				{
					"inputs": [],
					"name": "forever",
					"outputs": [],
					"stateMutability": "nonpayable",
					"type": "function"
				},
				{
					"inputs": [],
					"name": "i",
					"outputs": [
						{
							"internalType": "uint256",
							"name": "",
							"type": "uint256"
						}
					],
					"stateMutability": "view",
					"type": "function"
				},
				{
					"inputs": [],
					"name": "remaind",
					"outputs": [
						{
							"internalType": "uint256",
							"name": "",
							"type": "uint256"
						}
					],
					"stateMutability": "view",
					"type": "function"
				}
			],
			"devdoc": {
				"kind": "dev",
				"methods": {},
				"version": 1
			},
			"evm": {
				"assembly": "    /* \"contracts/gas/forever.sol\":70:386  contract Gas{... */\n  mstore(0x40, 0x80)\n    /* \"contracts/gas/forever.sol\":102:103  0 */\n  0x00\n    /* \"contracts/gas/forever.sol\":88:103  uint public i=0 */\n  dup1\n  sstore\n    /* \"contracts/gas/forever.sol\":70:386  contract Gas{... */\n  callvalue\n  dup1\n  iszero\n  tag_1\n  jumpi\n  0x00\n  dup1\n  revert\ntag_1:\n  pop\n  dataSize(sub_0)\n  dup1\n  dataOffset(sub_0)\n  0x00\n  codecopy\n  0x00\n  return\nstop\n\nsub_0: assembly {\n        /* \"contracts/gas/forever.sol\":70:386  contract Gas{... */\n      mstore(0x40, 0x80)\n      callvalue\n      dup1\n      iszero\n      tag_1\n      jumpi\n      0x00\n      dup1\n      revert\n    tag_1:\n      pop\n      jumpi(tag_2, lt(calldatasize, 0x04))\n      shr(0xe0, calldataload(0x00))\n      dup1\n      0x0b854580\n      eq\n      tag_3\n      jumpi\n      dup1\n      0x9ff9a603\n      eq\n      tag_4\n      jumpi\n      dup1\n      0xe5aa3d58\n      eq\n      tag_5\n      jumpi\n    tag_2:\n      0x00\n      dup1\n      revert\n        /* \"contracts/gas/forever.sol\":109:128  uint public remaind */\n    tag_3:\n      tag_6\n      tag_7\n      jump\t// in\n    tag_6:\n      mload(0x40)\n      tag_8\n      swap2\n      swap1\n      tag_9\n      jump\t// in\n    tag_8:\n      mload(0x40)\n      dup1\n      swap2\n      sub\n      swap1\n      return\n        /* \"contracts/gas/forever.sol\":134:384  function forever() public {... */\n    tag_4:\n      tag_10\n      tag_11\n      jump\t// in\n    tag_10:\n      stop\n        /* \"contracts/gas/forever.sol\":88:103  uint public i=0 */\n    tag_5:\n      tag_12\n      tag_13\n      jump\t// in\n    tag_12:\n      mload(0x40)\n      tag_14\n      swap2\n      swap1\n      tag_9\n      jump\t// in\n    tag_14:\n      mload(0x40)\n      dup1\n      swap2\n      sub\n      swap1\n      return\n        /* \"contracts/gas/forever.sol\":109:128  uint public remaind */\n    tag_7:\n      sload(0x01)\n      dup2\n      jump\t// out\n        /* \"contracts/gas/forever.sol\":134:384  function forever() public {... */\n    tag_11:\n        /* \"contracts/gas/forever.sol\":200:378  while (true){... */\n    tag_16:\n        /* \"contracts/gas/forever.sol\":207:211  true */\n      0x01\n        /* \"contracts/gas/forever.sol\":200:378  while (true){... */\n      iszero\n      tag_17\n      jumpi\n        /* \"contracts/gas/forever.sol\":231:234  100 */\n      0x64\n        /* \"contracts/gas/forever.sol\":229:230  i */\n      sload(0x00)\n        /* \"contracts/gas/forever.sol\":229:234  i>100 */\n      gt\n        /* \"contracts/gas/forever.sol\":253:261  return ; */\n      tag_15\n        /* \"contracts/gas/forever.sol\":226:275  if(i>100){... */\n      jumpi\n        /* \"contracts/gas/forever.sol\":298:299  0 */\n      0x00\n        /* \"contracts/gas/forever.sol\":294:296  10 */\n      0x0a\n        /* \"contracts/gas/forever.sol\":292:293  i */\n      sload(0x00)\n        /* \"contracts/gas/forever.sol\":292:296  i%10 */\n      tag_19\n      swap2\n      swap1\n      tag_20\n      jump\t// in\n    tag_19:\n        /* \"contracts/gas/forever.sol\":292:299  i%10==0 */\n      sub\n        /* \"contracts/gas/forever.sol\":288:350  if (i%10==0){... */\n      tag_21\n      jumpi\n        /* \"contracts/gas/forever.sol\":326:335  gasleft() */\n      gas\n        /* \"contracts/gas/forever.sol\":318:325  remaind */\n      0x01\n        /* \"contracts/gas/forever.sol\":318:335  remaind=gasleft() */\n      dup2\n      swap1\n      sstore\n      pop\n        /* \"contracts/gas/forever.sol\":288:350  if (i%10==0){... */\n    tag_21:\n        /* \"contracts/gas/forever.sol\":366:367  1 */\n      0x01\n        /* \"contracts/gas/forever.sol\":363:364  i */\n      0x00\n      dup1\n        /* \"contracts/gas/forever.sol\":363:367  i+=1 */\n      dup3\n      dup3\n      sload\n      tag_22\n      swap2\n      swap1\n      tag_23\n      jump\t// in\n    tag_22:\n      swap3\n      pop\n      pop\n      dup2\n      swap1\n      sstore\n      pop\n        /* \"contracts/gas/forever.sol\":200:378  while (true){... */\n      jump(tag_16)\n    tag_17:\n        /* \"contracts/gas/forever.sol\":134:384  function forever() public {... */\n    tag_15:\n      jump\t// out\n        /* \"contracts/gas/forever.sol\":88:103  uint public i=0 */\n    tag_13:\n      sload(0x00)\n      dup2\n      jump\t// out\n        /* \"#utility.yul\":7:84   */\n    tag_24:\n        /* \"#utility.yul\":44:51   */\n      0x00\n        /* \"#utility.yul\":73:78   */\n      dup2\n        /* \"#utility.yul\":62:78   */\n      swap1\n      pop\n        /* \"#utility.yul\":7:84   */\n      swap2\n      swap1\n      pop\n      jump\t// out\n        /* \"#utility.yul\":90:208   */\n    tag_25:\n        /* \"#utility.yul\":177:201   */\n      tag_31\n        /* \"#utility.yul\":195:200   */\n      dup2\n        /* \"#utility.yul\":177:201   */\n      tag_24\n      jump\t// in\n    tag_31:\n        /* \"#utility.yul\":172:175   */\n      dup3\n        /* \"#utility.yul\":165:202   */\n      mstore\n        /* \"#utility.yul\":90:208   */\n      pop\n      pop\n      jump\t// out\n        /* \"#utility.yul\":214:436   */\n    tag_9:\n        /* \"#utility.yul\":307:311   */\n      0x00\n        /* \"#utility.yul\":345:347   */\n      0x20\n        /* \"#utility.yul\":334:343   */\n      dup3\n        /* \"#utility.yul\":330:348   */\n      add\n        /* \"#utility.yul\":322:348   */\n      swap1\n      pop\n        /* \"#utility.yul\":358:429   */\n      tag_33\n        /* \"#utility.yul\":426:427   */\n      0x00\n        /* \"#utility.yul\":415:424   */\n      dup4\n        /* \"#utility.yul\":411:428   */\n      add\n        /* \"#utility.yul\":402:408   */\n      dup5\n        /* \"#utility.yul\":358:429   */\n      tag_25\n      jump\t// in\n    tag_33:\n        /* \"#utility.yul\":214:436   */\n      swap3\n      swap2\n      pop\n      pop\n      jump\t// out\n        /* \"#utility.yul\":442:622   */\n    tag_26:\n        /* \"#utility.yul\":490:567   */\n      0x4e487b7100000000000000000000000000000000000000000000000000000000\n        /* \"#utility.yul\":487:488   */\n      0x00\n        /* \"#utility.yul\":480:568   */\n      mstore\n        /* \"#utility.yul\":587:591   */\n      0x12\n        /* \"#utility.yul\":584:585   */\n      0x04\n        /* \"#utility.yul\":577:592   */\n      mstore\n        /* \"#utility.yul\":611:615   */\n      0x24\n        /* \"#utility.yul\":608:609   */\n      0x00\n        /* \"#utility.yul\":601:616   */\n      revert\n        /* \"#utility.yul\":628:804   */\n    tag_20:\n        /* \"#utility.yul\":660:661   */\n      0x00\n        /* \"#utility.yul\":677:697   */\n      tag_36\n        /* \"#utility.yul\":695:696   */\n      dup3\n        /* \"#utility.yul\":677:697   */\n      tag_24\n      jump\t// in\n    tag_36:\n        /* \"#utility.yul\":672:697   */\n      swap2\n      pop\n        /* \"#utility.yul\":711:731   */\n      tag_37\n        /* \"#utility.yul\":729:730   */\n      dup4\n        /* \"#utility.yul\":711:731   */\n      tag_24\n      jump\t// in\n    tag_37:\n        /* \"#utility.yul\":706:731   */\n      swap3\n      pop\n        /* \"#utility.yul\":750:751   */\n      dup3\n        /* \"#utility.yul\":740:775   */\n      tag_38\n      jumpi\n        /* \"#utility.yul\":755:773   */\n      tag_39\n      tag_26\n      jump\t// in\n    tag_39:\n        /* \"#utility.yul\":740:775   */\n    tag_38:\n        /* \"#utility.yul\":796:797   */\n      dup3\n        /* \"#utility.yul\":793:794   */\n      dup3\n        /* \"#utility.yul\":789:798   */\n      mod\n        /* \"#utility.yul\":784:798   */\n      swap1\n      pop\n        /* \"#utility.yul\":628:804   */\n      swap3\n      swap2\n      pop\n      pop\n      jump\t// out\n        /* \"#utility.yul\":810:990   */\n    tag_27:\n        /* \"#utility.yul\":858:935   */\n      0x4e487b7100000000000000000000000000000000000000000000000000000000\n        /* \"#utility.yul\":855:856   */\n      0x00\n        /* \"#utility.yul\":848:936   */\n      mstore\n        /* \"#utility.yul\":955:959   */\n      0x11\n        /* \"#utility.yul\":952:953   */\n      0x04\n        /* \"#utility.yul\":945:960   */\n      mstore\n        /* \"#utility.yul\":979:983   */\n      0x24\n        /* \"#utility.yul\":976:977   */\n      0x00\n        /* \"#utility.yul\":969:984   */\n      revert\n        /* \"#utility.yul\":996:1187   */\n    tag_23:\n        /* \"#utility.yul\":1036:1039   */\n      0x00\n        /* \"#utility.yul\":1055:1075   */\n      tag_42\n        /* \"#utility.yul\":1073:1074   */\n      dup3\n        /* \"#utility.yul\":1055:1075   */\n      tag_24\n      jump\t// in\n    tag_42:\n        /* \"#utility.yul\":1050:1075   */\n      swap2\n      pop\n        /* \"#utility.yul\":1089:1109   */\n      tag_43\n        /* \"#utility.yul\":1107:1108   */\n      dup4\n        /* \"#utility.yul\":1089:1109   */\n      tag_24\n      jump\t// in\n    tag_43:\n        /* \"#utility.yul\":1084:1109   */\n      swap3\n      pop\n        /* \"#utility.yul\":1132:1133   */\n      dup3\n        /* \"#utility.yul\":1129:1130   */\n      dup3\n        /* \"#utility.yul\":1125:1134   */\n      add\n        /* \"#utility.yul\":1118:1134   */\n      swap1\n      pop\n        /* \"#utility.yul\":1153:1156   */\n      dup1\n        /* \"#utility.yul\":1150:1151   */\n      dup3\n        /* \"#utility.yul\":1147:1157   */\n      gt\n        /* \"#utility.yul\":1144:1180   */\n      iszero\n      tag_44\n      jumpi\n        /* \"#utility.yul\":1160:1178   */\n      tag_45\n      tag_27\n      jump\t// in\n    tag_45:\n        /* \"#utility.yul\":1144:1180   */\n    tag_44:\n        /* \"#utility.yul\":996:1187   */\n      swap3\n      swap2\n      pop\n      pop\n      jump\t// out\n\n    auxdata: 0xa2646970667358221220b7bc704f141157d26fc79ba14d66f4b3c25ed5718ca87221ab689bc795f3b4fa64736f6c63430008120033\n}\n",
				"bytecode": {
					"linkReferences": {},
					"object": "60806040526000805534801561001457600080fd5b50610216806100246000396000f3fe608060405234801561001057600080fd5b50600436106100415760003560e01c80630b854580146100465780639ff9a60314610064578063e5aa3d581461006e575b600080fd5b61004e61008c565b60405161005b9190610102565b60405180910390f35b61006c610092565b005b6100766100e3565b6040516100839190610102565b60405180910390f35b60015481565b5b6001156100e0576064600054116100e1576000600a6000546100b5919061014c565b036100c2575a6001819055505b60016000808282546100d491906101ac565b92505081905550610093565b5b565b60005481565b6000819050919050565b6100fc816100e9565b82525050565b600060208201905061011760008301846100f3565b92915050565b7f4e487b7100000000000000000000000000000000000000000000000000000000600052601260045260246000fd5b6000610157826100e9565b9150610162836100e9565b9250826101725761017161011d565b5b828206905092915050565b7f4e487b7100000000000000000000000000000000000000000000000000000000600052601160045260246000fd5b60006101b7826100e9565b91506101c2836100e9565b92508282019050808211156101da576101d961017d565b5b9291505056fea2646970667358221220b7bc704f141157d26fc79ba14d66f4b3c25ed5718ca87221ab689bc795f3b4fa64736f6c63430008120033",
					"opcodes": "PUSH1 0x80 PUSH1 0x40 MSTORE PUSH1 0x0 DUP1 SSTORE CALLVALUE DUP1 ISZERO PUSH2 0x14 JUMPI PUSH1 0x0 DUP1 REVERT JUMPDEST POP PUSH2 0x216 DUP1 PUSH2 0x24 PUSH1 0x0 CODECOPY PUSH1 0x0 RETURN INVALID PUSH1 0x80 PUSH1 0x40 MSTORE CALLVALUE DUP1 ISZERO PUSH2 0x10 JUMPI PUSH1 0x0 DUP1 REVERT JUMPDEST POP PUSH1 0x4 CALLDATASIZE LT PUSH2 0x41 JUMPI PUSH1 0x0 CALLDATALOAD PUSH1 0xE0 SHR DUP1 PUSH4 0xB854580 EQ PUSH2 0x46 JUMPI DUP1 PUSH4 0x9FF9A603 EQ PUSH2 0x64 JUMPI DUP1 PUSH4 0xE5AA3D58 EQ PUSH2 0x6E JUMPI JUMPDEST PUSH1 0x0 DUP1 REVERT JUMPDEST PUSH2 0x4E PUSH2 0x8C JUMP JUMPDEST PUSH1 0x40 MLOAD PUSH2 0x5B SWAP2 SWAP1 PUSH2 0x102 JUMP JUMPDEST PUSH1 0x40 MLOAD DUP1 SWAP2 SUB SWAP1 RETURN JUMPDEST PUSH2 0x6C PUSH2 0x92 JUMP JUMPDEST STOP JUMPDEST PUSH2 0x76 PUSH2 0xE3 JUMP JUMPDEST PUSH1 0x40 MLOAD PUSH2 0x83 SWAP2 SWAP1 PUSH2 0x102 JUMP JUMPDEST PUSH1 0x40 MLOAD DUP1 SWAP2 SUB SWAP1 RETURN JUMPDEST PUSH1 0x1 SLOAD DUP2 JUMP JUMPDEST JUMPDEST PUSH1 0x1 ISZERO PUSH2 0xE0 JUMPI PUSH1 0x64 PUSH1 0x0 SLOAD GT PUSH2 0xE1 JUMPI PUSH1 0x0 PUSH1 0xA PUSH1 0x0 SLOAD PUSH2 0xB5 SWAP2 SWAP1 PUSH2 0x14C JUMP JUMPDEST SUB PUSH2 0xC2 JUMPI GAS PUSH1 0x1 DUP2 SWAP1 SSTORE POP JUMPDEST PUSH1 0x1 PUSH1 0x0 DUP1 DUP3 DUP3 SLOAD PUSH2 0xD4 SWAP2 SWAP1 PUSH2 0x1AC JUMP JUMPDEST SWAP3 POP POP DUP2 SWAP1 SSTORE POP PUSH2 0x93 JUMP JUMPDEST JUMPDEST JUMP JUMPDEST PUSH1 0x0 SLOAD DUP2 JUMP JUMPDEST PUSH1 0x0 DUP2 SWAP1 POP SWAP2 SWAP1 POP JUMP JUMPDEST PUSH2 0xFC DUP2 PUSH2 0xE9 JUMP JUMPDEST DUP3 MSTORE POP POP JUMP JUMPDEST PUSH1 0x0 PUSH1 0x20 DUP3 ADD SWAP1 POP PUSH2 0x117 PUSH1 0x0 DUP4 ADD DUP5 PUSH2 0xF3 JUMP JUMPDEST SWAP3 SWAP2 POP POP JUMP JUMPDEST PUSH32 0x4E487B7100000000000000000000000000000000000000000000000000000000 PUSH1 0x0 MSTORE PUSH1 0x12 PUSH1 0x4 MSTORE PUSH1 0x24 PUSH1 0x0 REVERT JUMPDEST PUSH1 0x0 PUSH2 0x157 DUP3 PUSH2 0xE9 JUMP JUMPDEST SWAP2 POP PUSH2 0x162 DUP4 PUSH2 0xE9 JUMP JUMPDEST SWAP3 POP DUP3 PUSH2 0x172 JUMPI PUSH2 0x171 PUSH2 0x11D JUMP JUMPDEST JUMPDEST DUP3 DUP3 MOD SWAP1 POP SWAP3 SWAP2 POP POP JUMP JUMPDEST PUSH32 0x4E487B7100000000000000000000000000000000000000000000000000000000 PUSH1 0x0 MSTORE PUSH1 0x11 PUSH1 0x4 MSTORE PUSH1 0x24 PUSH1 0x0 REVERT JUMPDEST PUSH1 0x0 PUSH2 0x1B7 DUP3 PUSH2 0xE9 JUMP JUMPDEST SWAP2 POP PUSH2 0x1C2 DUP4 PUSH2 0xE9 JUMP JUMPDEST SWAP3 POP DUP3 DUP3 ADD SWAP1 POP DUP1 DUP3 GT ISZERO PUSH2 0x1DA JUMPI PUSH2 0x1D9 PUSH2 0x17D JUMP JUMPDEST JUMPDEST SWAP3 SWAP2 POP POP JUMP INVALID LOG2 PUSH5 0x6970667358 0x22 SLT KECCAK256 0xB7 0xBC PUSH17 0x4F141157D26FC79BA14D66F4B3C25ED571 DUP13 0xA8 PUSH19 0x21AB689BC795F3B4FA64736F6C634300081200 CALLER "
				},
				"gasEstimates": {
					"creation": {
						"codeDepositCost": "106800",
						"executionCost": "5159",
						"totalCost": "111959"
					},
					"external": {
						"forever()": "infinite",
						"i()": "2451",
						"remaind()": "2407"
					}
				},
				"methodIdentifiers": {
					"forever()": "9ff9a603",
					"i()": "e5aa3d58",
					"remaind()": "0b854580"
				}
			},
			"storageLayout": {
				"storage": [
					{
						"astId": 4,
						"contract": "contracts/gas/forever.sol:Gas",
						"label": "i",
						"offset": 0,
						"slot": "0",
						"type": "t_uint256"
					},
					{
						"astId": 6,
						"contract": "contracts/gas/forever.sol:Gas",
						"label": "remaind",
						"offset": 0,
						"slot": "1",
						"type": "t_uint256"
					}
				],
				"types": {
					"t_uint256": {
						"encoding": "inplace",
						"label": "uint256",
						"numberOfBytes": "32"
					}
				}
			},
			"userdoc": {
				"kind": "user",
				"methods": {},
				"version": 1
			}
		}
	}
}