{
	"contracts/gas/forever.sol": {
		"GasCaller": {
			"abi": [
				{
					"inputs": [
						{
							"internalType": "address",
							"name": "_gas",
							"type": "address"
						}
					],
					"stateMutability": "nonpayable",
					"type": "constructor"
				},
				{
					"inputs": [],
					"name": "callForever",
					"outputs": [],
					"stateMutability": "nonpayable",
					"type": "function"
				}
			],
			"devdoc": {
				"kind": "dev",
				"methods": {},
				"version": 1
			},
			"evm": {
				"assembly": "    /* \"contracts/gas/forever.sol\":395:736  contract GasCaller{... */\n  mstore(0x40, 0x80)\n    /* \"contracts/gas/forever.sol\":436:494  constructor(address _gas) public {... */\n  callvalue\n  dup1\n  iszero\n  tag_1\n  jumpi\n  0x00\n  dup1\n  revert\ntag_1:\n  pop\n  mload(0x40)\n  sub(codesize, bytecodeSize)\n  dup1\n  bytecodeSize\n  dup4\n  codecopy\n  dup2\n  dup2\n  add\n  0x40\n  mstore\n  dup2\n  add\n  swap1\n  tag_2\n  swap2\n  swap1\n  tag_3\n  jump\t// in\ntag_2:\n    /* \"contracts/gas/forever.sol\":483:487  _gas */\n  dup1\n    /* \"contracts/gas/forever.sol\":479:482  gas */\n  0x00\n  dup1\n    /* \"contracts/gas/forever.sol\":479:487  gas=_gas */\n  0x0100\n  exp\n  dup2\n  sload\n  dup2\n  0xffffffffffffffffffffffffffffffffffffffff\n  mul\n  not\n  and\n  swap1\n  dup4\n  0xffffffffffffffffffffffffffffffffffffffff\n  and\n  mul\n  or\n  swap1\n  sstore\n  pop\n    /* \"contracts/gas/forever.sol\":436:494  constructor(address _gas) public {... */\n  pop\n    /* \"contracts/gas/forever.sol\":395:736  contract GasCaller{... */\n  jump(tag_6)\n    /* \"#utility.yul\":88:205   */\ntag_8:\n    /* \"#utility.yul\":197:198   */\n  0x00\n    /* \"#utility.yul\":194:195   */\n  dup1\n    /* \"#utility.yul\":187:199   */\n  revert\n    /* \"#utility.yul\":334:460   */\ntag_10:\n    /* \"#utility.yul\":371:378   */\n  0x00\n    /* \"#utility.yul\":411:453   */\n  0xffffffffffffffffffffffffffffffffffffffff\n    /* \"#utility.yul\":404:409   */\n  dup3\n    /* \"#utility.yul\":400:454   */\n  and\n    /* \"#utility.yul\":389:454   */\n  swap1\n  pop\n    /* \"#utility.yul\":334:460   */\n  swap2\n  swap1\n  pop\n  jump\t// out\n    /* \"#utility.yul\":466:562   */\ntag_11:\n    /* \"#utility.yul\":503:510   */\n  0x00\n    /* \"#utility.yul\":532:556   */\n  tag_20\n    /* \"#utility.yul\":550:555   */\n  dup3\n    /* \"#utility.yul\":532:556   */\n  tag_10\n  jump\t// in\ntag_20:\n    /* \"#utility.yul\":521:556   */\n  swap1\n  pop\n    /* \"#utility.yul\":466:562   */\n  swap2\n  swap1\n  pop\n  jump\t// out\n    /* \"#utility.yul\":568:690   */\ntag_12:\n    /* \"#utility.yul\":641:665   */\n  tag_22\n    /* \"#utility.yul\":659:664   */\n  dup2\n    /* \"#utility.yul\":641:665   */\n  tag_11\n  jump\t// in\ntag_22:\n    /* \"#utility.yul\":634:639   */\n  dup2\n    /* \"#utility.yul\":631:666   */\n  eq\n    /* \"#utility.yul\":621:684   */\n  tag_23\n  jumpi\n    /* \"#utility.yul\":680:681   */\n  0x00\n    /* \"#utility.yul\":677:678   */\n  dup1\n    /* \"#utility.yul\":670:682   */\n  revert\n    /* \"#utility.yul\":621:684   */\ntag_23:\n    /* \"#utility.yul\":568:690   */\n  pop\n  jump\t// out\n    /* \"#utility.yul\":696:839   */\ntag_13:\n    /* \"#utility.yul\":753:758   */\n  0x00\n    /* \"#utility.yul\":784:790   */\n  dup2\n    /* \"#utility.yul\":778:791   */\n  mload\n    /* \"#utility.yul\":769:791   */\n  swap1\n  pop\n    /* \"#utility.yul\":800:833   */\n  tag_25\n    /* \"#utility.yul\":827:832   */\n  dup2\n    /* \"#utility.yul\":800:833   */\n  tag_12\n  jump\t// in\ntag_25:\n    /* \"#utility.yul\":696:839   */\n  swap3\n  swap2\n  pop\n  pop\n  jump\t// out\n    /* \"#utility.yul\":845:1196   */\ntag_3:\n    /* \"#utility.yul\":915:921   */\n  0x00\n    /* \"#utility.yul\":964:966   */\n  0x20\n    /* \"#utility.yul\":952:961   */\n  dup3\n    /* \"#utility.yul\":943:950   */\n  dup5\n    /* \"#utility.yul\":939:962   */\n  sub\n    /* \"#utility.yul\":935:967   */\n  slt\n    /* \"#utility.yul\":932:1051   */\n  iszero\n  tag_27\n  jumpi\n    /* \"#utility.yul\":970:1049   */\n  tag_28\n  tag_8\n  jump\t// in\ntag_28:\n    /* \"#utility.yul\":932:1051   */\ntag_27:\n    /* \"#utility.yul\":1090:1091   */\n  0x00\n    /* \"#utility.yul\":1115:1179   */\n  tag_29\n    /* \"#utility.yul\":1171:1178   */\n  dup5\n    /* \"#utility.yul\":1162:1168   */\n  dup3\n    /* \"#utility.yul\":1151:1160   */\n  dup6\n    /* \"#utility.yul\":1147:1169   */\n  add\n    /* \"#utility.yul\":1115:1179   */\n  tag_13\n  jump\t// in\ntag_29:\n    /* \"#utility.yul\":1105:1179   */\n  swap2\n  pop\n    /* \"#utility.yul\":1061:1189   */\n  pop\n    /* \"#utility.yul\":845:1196   */\n  swap3\n  swap2\n  pop\n  pop\n  jump\t// out\n    /* \"contracts/gas/forever.sol\":395:736  contract GasCaller{... */\ntag_6:\n  dataSize(sub_0)\n  dup1\n  dataOffset(sub_0)\n  0x00\n  codecopy\n  0x00\n  return\nstop\n\nsub_0: assembly {\n        /* \"contracts/gas/forever.sol\":395:736  contract GasCaller{... */\n      mstore(0x40, 0x80)\n      callvalue\n      dup1\n      iszero\n      tag_1\n      jumpi\n      0x00\n      dup1\n      revert\n    tag_1:\n      pop\n      jumpi(tag_2, lt(calldatasize, 0x04))\n      shr(0xe0, calldataload(0x00))\n      dup1\n      0xc6a48535\n      eq\n      tag_3\n      jumpi\n    tag_2:\n      0x00\n      dup1\n      revert\n        /* \"contracts/gas/forever.sol\":499:734  function callForever() public {... */\n    tag_3:\n      tag_4\n      tag_5\n      jump\t// in\n    tag_4:\n      stop\n    tag_5:\n        /* \"contracts/gas/forever.sol\":539:554  bytes memory cd */\n      0x00\n        /* \"contracts/gas/forever.sol\":555:591  abi.encodeWithSignature(\"forever()\") */\n      add(0x24, mload(0x40))\n      mload(0x40)\n      0x20\n      dup2\n      dup4\n      sub\n      sub\n      dup2\n      mstore\n      swap1\n      0x40\n      mstore\n      and(not(0xffffffffffffffffffffffffffffffffffffffffffffffffffffffff), 0x9ff9a60300000000000000000000000000000000000000000000000000000000)\n      0x20\n      dup3\n      add\n      dup1\n      mload\n      0xffffffffffffffffffffffffffffffffffffffffffffffffffffffff\n      dup4\n      dup2\n      dup4\n      and\n      or\n      dup4\n      mstore\n      pop\n      pop\n      pop\n      pop\n        /* \"contracts/gas/forever.sol\":539:591  bytes memory cd=abi.encodeWithSignature(\"forever()\") */\n      swap1\n      pop\n        /* \"contracts/gas/forever.sol\":602:611  bool succ */\n      0x00\n        /* \"contracts/gas/forever.sol\":612:629  bytes memory data */\n      dup1\n        /* \"contracts/gas/forever.sol\":631:634  gas */\n      0x00\n      dup1\n      sload\n      swap1\n      0x0100\n      exp\n      swap1\n      div\n      0xffffffffffffffffffffffffffffffffffffffff\n      and\n        /* \"contracts/gas/forever.sol\":631:639  gas.call */\n      0xffffffffffffffffffffffffffffffffffffffff\n      and\n        /* \"contracts/gas/forever.sol\":645:650  20000 */\n      0x4e20\n        /* \"contracts/gas/forever.sol\":652:654  cd */\n      dup5\n        /* \"contracts/gas/forever.sol\":631:655  gas.call{gas: 20000}(cd) */\n      mload(0x40)\n      tag_7\n      swap2\n      swap1\n      tag_8\n      jump\t// in\n    tag_7:\n      0x00\n      mload(0x40)\n      dup1\n      dup4\n      sub\n      dup2\n      0x00\n      dup8\n      dup8\n      call\n      swap3\n      pop\n      pop\n      pop\n      returndatasize\n      dup1\n      0x00\n      dup2\n      eq\n      tag_11\n      jumpi\n      mload(0x40)\n      swap2\n      pop\n      and(add(returndatasize, 0x3f), not(0x1f))\n      dup3\n      add\n      0x40\n      mstore\n      returndatasize\n      dup3\n      mstore\n      returndatasize\n      0x00\n      0x20\n      dup5\n      add\n      returndatacopy\n      jump(tag_10)\n    tag_11:\n      0x60\n      swap2\n      pop\n    tag_10:\n      pop\n        /* \"contracts/gas/forever.sol\":601:655  (bool succ,bytes memory data)=gas.call{gas: 20000}(cd) */\n      swap2\n      pop\n      swap2\n      pop\n        /* \"contracts/gas/forever.sol\":670:674  succ */\n      dup2\n        /* \"contracts/gas/forever.sol\":665:728  if (!succ){... */\n      tag_12\n      jumpi\n        /* \"contracts/gas/forever.sol\":689:717  revert(\"transaction failed\") */\n      mload(0x40)\n      0x08c379a000000000000000000000000000000000000000000000000000000000\n      dup2\n      mstore\n      0x04\n      add\n      tag_13\n      swap1\n      tag_14\n      jump\t// in\n    tag_13:\n      mload(0x40)\n      dup1\n      swap2\n      sub\n      swap1\n      revert\n        /* \"contracts/gas/forever.sol\":665:728  if (!succ){... */\n    tag_12:\n        /* \"contracts/gas/forever.sol\":529:734  {... */\n      pop\n      pop\n      pop\n        /* \"contracts/gas/forever.sol\":499:734  function callForever() public {... */\n      jump\t// out\n        /* \"#utility.yul\":7:105   */\n    tag_15:\n        /* \"#utility.yul\":58:64   */\n      0x00\n        /* \"#utility.yul\":92:97   */\n      dup2\n        /* \"#utility.yul\":86:98   */\n      mload\n        /* \"#utility.yul\":76:98   */\n      swap1\n      pop\n        /* \"#utility.yul\":7:105   */\n      swap2\n      swap1\n      pop\n      jump\t// out\n        /* \"#utility.yul\":111:258   */\n    tag_16:\n        /* \"#utility.yul\":212:223   */\n      0x00\n        /* \"#utility.yul\":249:252   */\n      dup2\n        /* \"#utility.yul\":234:252   */\n      swap1\n      pop\n        /* \"#utility.yul\":111:258   */\n      swap3\n      swap2\n      pop\n      pop\n      jump\t// out\n        /* \"#utility.yul\":264:510   */\n    tag_17:\n        /* \"#utility.yul\":345:346   */\n      0x00\n        /* \"#utility.yul\":355:468   */\n    tag_26:\n        /* \"#utility.yul\":369:375   */\n      dup4\n        /* \"#utility.yul\":366:367   */\n      dup2\n        /* \"#utility.yul\":363:376   */\n      lt\n        /* \"#utility.yul\":355:468   */\n      iszero\n      tag_28\n      jumpi\n        /* \"#utility.yul\":454:455   */\n      dup1\n        /* \"#utility.yul\":449:452   */\n      dup3\n        /* \"#utility.yul\":445:456   */\n      add\n        /* \"#utility.yul\":439:457   */\n      mload\n        /* \"#utility.yul\":435:436   */\n      dup2\n        /* \"#utility.yul\":430:433   */\n      dup5\n        /* \"#utility.yul\":426:437   */\n      add\n        /* \"#utility.yul\":419:458   */\n      mstore\n        /* \"#utility.yul\":391:393   */\n      0x20\n        /* \"#utility.yul\":388:389   */\n      dup2\n        /* \"#utility.yul\":384:394   */\n      add\n        /* \"#utility.yul\":379:394   */\n      swap1\n      pop\n        /* \"#utility.yul\":355:468   */\n      jump(tag_26)\n    tag_28:\n        /* \"#utility.yul\":502:503   */\n      0x00\n        /* \"#utility.yul\":493:499   */\n      dup5\n        /* \"#utility.yul\":488:491   */\n      dup5\n        /* \"#utility.yul\":484:500   */\n      add\n        /* \"#utility.yul\":477:504   */\n      mstore\n        /* \"#utility.yul\":326:510   */\n      pop\n        /* \"#utility.yul\":264:510   */\n      pop\n      pop\n      pop\n      jump\t// out\n        /* \"#utility.yul\":516:902   */\n    tag_18:\n        /* \"#utility.yul\":620:623   */\n      0x00\n        /* \"#utility.yul\":648:686   */\n      tag_30\n        /* \"#utility.yul\":680:685   */\n      dup3\n        /* \"#utility.yul\":648:686   */\n      tag_15\n      jump\t// in\n    tag_30:\n        /* \"#utility.yul\":702:790   */\n      tag_31\n        /* \"#utility.yul\":783:789   */\n      dup2\n        /* \"#utility.yul\":778:781   */\n      dup6\n        /* \"#utility.yul\":702:790   */\n      tag_16\n      jump\t// in\n    tag_31:\n        /* \"#utility.yul\":695:790   */\n      swap4\n      pop\n        /* \"#utility.yul\":799:864   */\n      tag_32\n        /* \"#utility.yul\":857:863   */\n      dup2\n        /* \"#utility.yul\":852:855   */\n      dup6\n        /* \"#utility.yul\":845:849   */\n      0x20\n        /* \"#utility.yul\":838:843   */\n      dup7\n        /* \"#utility.yul\":834:850   */\n      add\n        /* \"#utility.yul\":799:864   */\n      tag_17\n      jump\t// in\n    tag_32:\n        /* \"#utility.yul\":889:895   */\n      dup1\n        /* \"#utility.yul\":884:887   */\n      dup5\n        /* \"#utility.yul\":880:896   */\n      add\n        /* \"#utility.yul\":873:896   */\n      swap2\n      pop\n        /* \"#utility.yul\":624:902   */\n      pop\n        /* \"#utility.yul\":516:902   */\n      swap3\n      swap2\n      pop\n      pop\n      jump\t// out\n        /* \"#utility.yul\":908:1179   */\n    tag_8:\n        /* \"#utility.yul\":1038:1041   */\n      0x00\n        /* \"#utility.yul\":1060:1153   */\n      tag_34\n        /* \"#utility.yul\":1149:1152   */\n      dup3\n        /* \"#utility.yul\":1140:1146   */\n      dup5\n        /* \"#utility.yul\":1060:1153   */\n      tag_18\n      jump\t// in\n    tag_34:\n        /* \"#utility.yul\":1053:1153   */\n      swap2\n      pop\n        /* \"#utility.yul\":1170:1173   */\n      dup2\n        /* \"#utility.yul\":1163:1173   */\n      swap1\n      pop\n        /* \"#utility.yul\":908:1179   */\n      swap3\n      swap2\n      pop\n      pop\n      jump\t// out\n        /* \"#utility.yul\":1185:1354   */\n    tag_19:\n        /* \"#utility.yul\":1269:1280   */\n      0x00\n        /* \"#utility.yul\":1303:1309   */\n      dup3\n        /* \"#utility.yul\":1298:1301   */\n      dup3\n        /* \"#utility.yul\":1291:1310   */\n      mstore\n        /* \"#utility.yul\":1343:1347   */\n      0x20\n        /* \"#utility.yul\":1338:1341   */\n      dup3\n        /* \"#utility.yul\":1334:1348   */\n      add\n        /* \"#utility.yul\":1319:1348   */\n      swap1\n      pop\n        /* \"#utility.yul\":1185:1354   */\n      swap3\n      swap2\n      pop\n      pop\n      jump\t// out\n        /* \"#utility.yul\":1360:1528   */\n    tag_20:\n        /* \"#utility.yul\":1500:1520   */\n      0x7472616e73616374696f6e206661696c65640000000000000000000000000000\n        /* \"#utility.yul\":1496:1497   */\n      0x00\n        /* \"#utility.yul\":1488:1494   */\n      dup3\n        /* \"#utility.yul\":1484:1498   */\n      add\n        /* \"#utility.yul\":1477:1521   */\n      mstore\n        /* \"#utility.yul\":1360:1528   */\n      pop\n      jump\t// out\n        /* \"#utility.yul\":1534:1900   */\n    tag_21:\n        /* \"#utility.yul\":1676:1679   */\n      0x00\n        /* \"#utility.yul\":1697:1764   */\n      tag_38\n        /* \"#utility.yul\":1761:1763   */\n      0x12\n        /* \"#utility.yul\":1756:1759   */\n      dup4\n        /* \"#utility.yul\":1697:1764   */\n      tag_19\n      jump\t// in\n    tag_38:\n        /* \"#utility.yul\":1690:1764   */\n      swap2\n      pop\n        /* \"#utility.yul\":1773:1866   */\n      tag_39\n        /* \"#utility.yul\":1862:1865   */\n      dup3\n        /* \"#utility.yul\":1773:1866   */\n      tag_20\n      jump\t// in\n    tag_39:\n        /* \"#utility.yul\":1891:1893   */\n      0x20\n        /* \"#utility.yul\":1886:1889   */\n      dup3\n        /* \"#utility.yul\":1882:1894   */\n      add\n        /* \"#utility.yul\":1875:1894   */\n      swap1\n      pop\n        /* \"#utility.yul\":1534:1900   */\n      swap2\n      swap1\n      pop\n      jump\t// out\n        /* \"#utility.yul\":1906:2325   */\n    tag_14:\n        /* \"#utility.yul\":2072:2076   */\n      0x00\n        /* \"#utility.yul\":2110:2112   */\n      0x20\n        /* \"#utility.yul\":2099:2108   */\n      dup3\n        /* \"#utility.yul\":2095:2113   */\n      add\n        /* \"#utility.yul\":2087:2113   */\n      swap1\n      pop\n        /* \"#utility.yul\":2159:2168   */\n      dup2\n        /* \"#utility.yul\":2153:2157   */\n      dup2\n        /* \"#utility.yul\":2149:2169   */\n      sub\n        /* \"#utility.yul\":2145:2146   */\n      0x00\n        /* \"#utility.yul\":2134:2143   */\n      dup4\n        /* \"#utility.yul\":2130:2147   */\n      add\n        /* \"#utility.yul\":2123:2170   */\n      mstore\n        /* \"#utility.yul\":2187:2318   */\n      tag_41\n        /* \"#utility.yul\":2313:2317   */\n      dup2\n        /* \"#utility.yul\":2187:2318   */\n      tag_21\n      jump\t// in\n    tag_41:\n        /* \"#utility.yul\":2179:2318   */\n      swap1\n      pop\n        /* \"#utility.yul\":1906:2325   */\n      swap2\n      swap1\n      pop\n      jump\t// out\n\n    auxdata: 0xa2646970667358221220c5a5929769df4954b2b239e91cf89a3d287b67ca9fe1a9add838edc6cb38071f64736f6c63430008120033\n}\n",
				"bytecode": {
					"linkReferences": {},
					"object": "608060405234801561001057600080fd5b506040516103eb3803806103eb833981810160405281019061003291906100db565b806000806101000a81548173ffffffffffffffffffffffffffffffffffffffff021916908373ffffffffffffffffffffffffffffffffffffffff16021790555050610108565b600080fd5b600073ffffffffffffffffffffffffffffffffffffffff82169050919050565b60006100a88261007d565b9050919050565b6100b88161009d565b81146100c357600080fd5b50565b6000815190506100d5816100af565b92915050565b6000602082840312156100f1576100f0610078565b5b60006100ff848285016100c6565b91505092915050565b6102d4806101176000396000f3fe608060405234801561001057600080fd5b506004361061002b5760003560e01c8063c6a4853514610030575b600080fd5b61003861003a565b005b60006040516024016040516020818303038152906040527f9ff9a603000000000000000000000000000000000000000000000000000000007bffffffffffffffffffffffffffffffffffffffffffffffffffffffff19166020820180517bffffffffffffffffffffffffffffffffffffffffffffffffffffffff8381831617835250505050905060008060008054906101000a900473ffffffffffffffffffffffffffffffffffffffff1673ffffffffffffffffffffffffffffffffffffffff16614e208460405161010c919061020a565b60006040518083038160008787f1925050503d806000811461014a576040519150601f19603f3d011682016040523d82523d6000602084013e61014f565b606091505b509150915081610194576040517f08c379a000000000000000000000000000000000000000000000000000000000815260040161018b9061027e565b60405180910390fd5b505050565b600081519050919050565b600081905092915050565b60005b838110156101cd5780820151818401526020810190506101b2565b60008484015250505050565b60006101e482610199565b6101ee81856101a4565b93506101fe8185602086016101af565b80840191505092915050565b600061021682846101d9565b915081905092915050565b600082825260208201905092915050565b7f7472616e73616374696f6e206661696c65640000000000000000000000000000600082015250565b6000610268601283610221565b915061027382610232565b602082019050919050565b600060208201905081810360008301526102978161025b565b905091905056fea2646970667358221220c5a5929769df4954b2b239e91cf89a3d287b67ca9fe1a9add838edc6cb38071f64736f6c63430008120033",
					"opcodes": "PUSH1 0x80 PUSH1 0x40 MSTORE CALLVALUE DUP1 ISZERO PUSH2 0x10 JUMPI PUSH1 0x0 DUP1 REVERT JUMPDEST POP PUSH1 0x40 MLOAD PUSH2 0x3EB CODESIZE SUB DUP1 PUSH2 0x3EB DUP4 CODECOPY DUP2 DUP2 ADD PUSH1 0x40 MSTORE DUP2 ADD SWAP1 PUSH2 0x32 SWAP2 SWAP1 PUSH2 0xDB JUMP JUMPDEST DUP1 PUSH1 0x0 DUP1 PUSH2 0x100 EXP DUP2 SLOAD DUP2 PUSH20 0xFFFFFFFFFFFFFFFFFFFFFFFFFFFFFFFFFFFFFFFF MUL NOT AND SWAP1 DUP4 PUSH20 0xFFFFFFFFFFFFFFFFFFFFFFFFFFFFFFFFFFFFFFFF AND MUL OR SWAP1 SSTORE POP POP PUSH2 0x108 JUMP JUMPDEST PUSH1 0x0 DUP1 REVERT JUMPDEST PUSH1 0x0 PUSH20 0xFFFFFFFFFFFFFFFFFFFFFFFFFFFFFFFFFFFFFFFF DUP3 AND SWAP1 POP SWAP2 SWAP1 POP JUMP JUMPDEST PUSH1 0x0 PUSH2 0xA8 DUP3 PUSH2 0x7D JUMP JUMPDEST SWAP1 POP SWAP2 SWAP1 POP JUMP JUMPDEST PUSH2 0xB8 DUP2 PUSH2 0x9D JUMP JUMPDEST DUP2 EQ PUSH2 0xC3 JUMPI PUSH1 0x0 DUP1 REVERT JUMPDEST POP JUMP JUMPDEST PUSH1 0x0 DUP2 MLOAD SWAP1 POP PUSH2 0xD5 DUP2 PUSH2 0xAF JUMP JUMPDEST SWAP3 SWAP2 POP POP JUMP JUMPDEST PUSH1 0x0 PUSH1 0x20 DUP3 DUP5 SUB SLT ISZERO PUSH2 0xF1 JUMPI PUSH2 0xF0 PUSH2 0x78 JUMP JUMPDEST JUMPDEST PUSH1 0x0 PUSH2 0xFF DUP5 DUP3 DUP6 ADD PUSH2 0xC6 JUMP JUMPDEST SWAP2 POP POP SWAP3 SWAP2 POP POP JUMP JUMPDEST PUSH2 0x2D4 DUP1 PUSH2 0x117 PUSH1 0x0 CODECOPY PUSH1 0x0 RETURN INVALID PUSH1 0x80 PUSH1 0x40 MSTORE CALLVALUE DUP1 ISZERO PUSH2 0x10 JUMPI PUSH1 0x0 DUP1 REVERT JUMPDEST POP PUSH1 0x4 CALLDATASIZE LT PUSH2 0x2B JUMPI PUSH1 0x0 CALLDATALOAD PUSH1 0xE0 SHR DUP1 PUSH4 0xC6A48535 EQ PUSH2 0x30 JUMPI JUMPDEST PUSH1 0x0 DUP1 REVERT JUMPDEST PUSH2 0x38 PUSH2 0x3A JUMP JUMPDEST STOP JUMPDEST PUSH1 0x0 PUSH1 0x40 MLOAD PUSH1 0x24 ADD PUSH1 0x40 MLOAD PUSH1 0x20 DUP2 DUP4 SUB SUB DUP2 MSTORE SWAP1 PUSH1 0x40 MSTORE PUSH32 0x9FF9A60300000000000000000000000000000000000000000000000000000000 PUSH28 0xFFFFFFFFFFFFFFFFFFFFFFFFFFFFFFFFFFFFFFFFFFFFFFFFFFFFFFFF NOT AND PUSH1 0x20 DUP3 ADD DUP1 MLOAD PUSH28 0xFFFFFFFFFFFFFFFFFFFFFFFFFFFFFFFFFFFFFFFFFFFFFFFFFFFFFFFF DUP4 DUP2 DUP4 AND OR DUP4 MSTORE POP POP POP POP SWAP1 POP PUSH1 0x0 DUP1 PUSH1 0x0 DUP1 SLOAD SWAP1 PUSH2 0x100 EXP SWAP1 DIV PUSH20 0xFFFFFFFFFFFFFFFFFFFFFFFFFFFFFFFFFFFFFFFF AND PUSH20 0xFFFFFFFFFFFFFFFFFFFFFFFFFFFFFFFFFFFFFFFF AND PUSH2 0x4E20 DUP5 PUSH1 0x40 MLOAD PUSH2 0x10C SWAP2 SWAP1 PUSH2 0x20A JUMP JUMPDEST PUSH1 0x0 PUSH1 0x40 MLOAD DUP1 DUP4 SUB DUP2 PUSH1 0x0 DUP8 DUP8 CALL SWAP3 POP POP POP RETURNDATASIZE DUP1 PUSH1 0x0 DUP2 EQ PUSH2 0x14A JUMPI PUSH1 0x40 MLOAD SWAP2 POP PUSH1 0x1F NOT PUSH1 0x3F RETURNDATASIZE ADD AND DUP3 ADD PUSH1 0x40 MSTORE RETURNDATASIZE DUP3 MSTORE RETURNDATASIZE PUSH1 0x0 PUSH1 0x20 DUP5 ADD RETURNDATACOPY PUSH2 0x14F JUMP JUMPDEST PUSH1 0x60 SWAP2 POP JUMPDEST POP SWAP2 POP SWAP2 POP DUP2 PUSH2 0x194 JUMPI PUSH1 0x40 MLOAD PUSH32 0x8C379A000000000000000000000000000000000000000000000000000000000 DUP2 MSTORE PUSH1 0x4 ADD PUSH2 0x18B SWAP1 PUSH2 0x27E JUMP JUMPDEST PUSH1 0x40 MLOAD DUP1 SWAP2 SUB SWAP1 REVERT JUMPDEST POP POP POP JUMP JUMPDEST PUSH1 0x0 DUP2 MLOAD SWAP1 POP SWAP2 SWAP1 POP JUMP JUMPDEST PUSH1 0x0 DUP2 SWAP1 POP SWAP3 SWAP2 POP POP JUMP JUMPDEST PUSH1 0x0 JUMPDEST DUP4 DUP2 LT ISZERO PUSH2 0x1CD JUMPI DUP1 DUP3 ADD MLOAD DUP2 DUP5 ADD MSTORE PUSH1 0x20 DUP2 ADD SWAP1 POP PUSH2 0x1B2 JUMP JUMPDEST PUSH1 0x0 DUP5 DUP5 ADD MSTORE POP POP POP POP JUMP JUMPDEST PUSH1 0x0 PUSH2 0x1E4 DUP3 PUSH2 0x199 JUMP JUMPDEST PUSH2 0x1EE DUP2 DUP6 PUSH2 0x1A4 JUMP JUMPDEST SWAP4 POP PUSH2 0x1FE DUP2 DUP6 PUSH1 0x20 DUP7 ADD PUSH2 0x1AF JUMP JUMPDEST DUP1 DUP5 ADD SWAP2 POP POP SWAP3 SWAP2 POP POP JUMP JUMPDEST PUSH1 0x0 PUSH2 0x216 DUP3 DUP5 PUSH2 0x1D9 JUMP JUMPDEST SWAP2 POP DUP2 SWAP1 POP SWAP3 SWAP2 POP POP JUMP JUMPDEST PUSH1 0x0 DUP3 DUP3 MSTORE PUSH1 0x20 DUP3 ADD SWAP1 POP SWAP3 SWAP2 POP POP JUMP JUMPDEST PUSH32 0x7472616E73616374696F6E206661696C65640000000000000000000000000000 PUSH1 0x0 DUP3 ADD MSTORE POP JUMP JUMPDEST PUSH1 0x0 PUSH2 0x268 PUSH1 0x12 DUP4 PUSH2 0x221 JUMP JUMPDEST SWAP2 POP PUSH2 0x273 DUP3 PUSH2 0x232 JUMP JUMPDEST PUSH1 0x20 DUP3 ADD SWAP1 POP SWAP2 SWAP1 POP JUMP JUMPDEST PUSH1 0x0 PUSH1 0x20 DUP3 ADD SWAP1 POP DUP2 DUP2 SUB PUSH1 0x0 DUP4 ADD MSTORE PUSH2 0x297 DUP2 PUSH2 0x25B JUMP JUMPDEST SWAP1 POP SWAP2 SWAP1 POP JUMP INVALID LOG2 PUSH5 0x6970667358 0x22 SLT KECCAK256 0xC5 0xA5 SWAP3 SWAP8 PUSH10 0xDF4954B2B239E91CF89A RETURNDATASIZE 0x28 PUSH28 0x67CA9FE1A9ADD838EDC6CB38071F64736F6C63430008120033000000 "
				},
				"gasEstimates": {
					"creation": {
						"codeDepositCost": "144800",
						"executionCost": "infinite",
						"totalCost": "infinite"
					},
					"external": {
						"callForever()": "infinite"
					}
				},
				"methodIdentifiers": {
					"callForever()": "c6a48535"
				}
			},
			"storageLayout": {
				"storage": [
					{
						"astId": 38,
						"contract": "contracts/gas/forever.sol:GasCaller",
						"label": "gas",
						"offset": 0,
						"slot": "0",
						"type": "t_address"
					}
				],
				"types": {
					"t_address": {
						"encoding": "inplace",
						"label": "address",
						"numberOfBytes": "20"
					}
				}
			},
			"userdoc": {
				"kind": "user",
				"methods": {},
				"version": 1
			}
		}
	}
}