{
	"contracts/extend/override.sol": {
		"B": {
			"abi": [
				{
					"inputs": [],
					"name": "foo",
					"outputs": [],
					"stateMutability": "nonpayable",
					"type": "function"
				}
			],
			"devdoc": {
				"kind": "dev",
				"methods": {},
				"version": 1
			},
			"evm": {
				"assembly": "    /* \"contracts/extend/override.sol\":171:245  contract B is A {... */\n  mstore(0x40, 0x80)\n  callvalue\n  dup1\n  iszero\n  tag_1\n  jumpi\n  revert(0x00, 0x00)\ntag_1:\n  pop\n  dataSize(sub_0)\n  dup1\n  dataOffset(sub_0)\n  0x00\n  codecopy\n  0x00\n  return\nstop\n\nsub_0: assembly {\n        /* \"contracts/extend/override.sol\":171:245  contract B is A {... */\n      mstore(0x40, 0x80)\n      callvalue\n      dup1\n      iszero\n      tag_1\n      jumpi\n      revert(0x00, 0x00)\n    tag_1:\n      pop\n      jumpi(tag_2, lt(calldatasize, 0x04))\n      shr(0xe0, calldataload(0x00))\n      dup1\n      0xc2985578\n      eq\n      tag_3\n      jumpi\n    tag_2:\n      revert(0x00, 0x00)\n        /* \"contracts/extend/override.sol\":193:243  function foo() public virtual override {... */\n    tag_3:\n      tag_4\n      tag_5\n      jump\t// in\n    tag_4:\n      stop\n    tag_5:\n      jump\t// out\n\n    auxdata: 0xa264697066735822122048393e1ada83190b8b30417257415243f716ce08a397ccaa2419b1f2d09e42f064736f6c634300081c0033\n}\n",
				"bytecode": {
					"linkReferences": {},
					"object": "6080604052348015600e575f5ffd5b50606a80601a5f395ff3fe6080604052348015600e575f5ffd5b50600436106026575f3560e01c8063c298557814602a575b5f5ffd5b60306032565b005b56fea264697066735822122048393e1ada83190b8b30417257415243f716ce08a397ccaa2419b1f2d09e42f064736f6c634300081c0033",
					"opcodes": "PUSH1 0x80 PUSH1 0x40 MSTORE CALLVALUE DUP1 ISZERO PUSH1 0xE JUMPI PUSH0 PUSH0 REVERT JUMPDEST POP PUSH1 0x6A DUP1 PUSH1 0x1A PUSH0 CODECOPY PUSH0 RETURN INVALID PUSH1 0x80 PUSH1 0x40 MSTORE CALLVALUE DUP1 ISZERO PUSH1 0xE JUMPI PUSH0 PUSH0 REVERT JUMPDEST POP PUSH1 0x4 CALLDATASIZE LT PUSH1 0x26 JUMPI PUSH0 CALLDATALOAD PUSH1 0xE0 SHR DUP1 PUSH4 0xC2985578 EQ PUSH1 0x2A JUMPI JUMPDEST PUSH0 PUSH0 REVERT JUMPDEST PUSH1 0x30 PUSH1 0x32 JUMP JUMPDEST STOP JUMPDEST JUMP INVALID LOG2 PUSH5 0x6970667358 0x22 SLT KECCAK256 BASEFEE CODECOPY RETURNDATACOPY BYTE 0xDA DUP4 NOT SIGNEXTEND DUP12 ADDRESS COINBASE PUSH19 0x57415243F716CE08A397CCAA2419B1F2D09E42 CREATE PUSH5 0x736F6C6343 STOP ADDMOD SHR STOP CALLER "
				},
				"gasEstimates": {
					"creation": {
						"codeDepositCost": "21200",
						"executionCost": "73",
						"totalCost": "21273"
					},
					"external": {
						"foo()": "121"
					}
				},
				"methodIdentifiers": {
					"foo()": "c2985578"
				}
			},
			"storageLayout": {
				"storage": [],
				"types": null
			},
			"userdoc": {
				"kind": "user",
				"methods": {},
				"version": 1
			}
		}
	}
}