{
	"contracts/extend/super.sol": {
		"B": {
			"abi": [
				{
					"anonymous": false,
					"inputs": [
						{
							"indexed": false,
							"internalType": "string",
							"name": "message",
							"type": "string"
						}
					],
					"name": "Log",
					"type": "event"
				},
				{
					"inputs": [],
					"name": "bar",
					"outputs": [],
					"stateMutability": "nonpayable",
					"type": "function"
				}
			],
			"devdoc": {
				"kind": "dev",
				"methods": {},
				"version": 1
			},
			"evm": {
				"assembly": "    /* \"contracts/extend/super.sol\":472:599  contract B is A {... */\n  mstore(0x40, 0x80)\n  callvalue\n  dup1\n  iszero\n  tag_1\n  jumpi\n  0x00\n  dup1\n  revert\ntag_1:\n  pop\n  dataSize(sub_0)\n  dup1\n  dataOffset(sub_0)\n  0x00\n  codecopy\n  0x00\n  return\nstop\n\nsub_0: assembly {\n        /* \"contracts/extend/super.sol\":472:599  contract B is A {... */\n      mstore(0x40, 0x80)\n      callvalue\n      dup1\n      iszero\n      tag_1\n      jumpi\n      0x00\n      dup1\n      revert\n    tag_1:\n      pop\n      jumpi(tag_2, lt(calldatasize, 0x04))\n      shr(0xe0, calldataload(0x00))\n      dup1\n      0xfebb0f7e\n      eq\n      tag_3\n      jumpi\n    tag_2:\n      0x00\n      dup1\n      revert\n        /* \"contracts/extend/super.sol\":496:597  function bar() public virtual override {... */\n    tag_3:\n      tag_4\n      tag_5\n      jump\t// in\n    tag_4:\n      stop\n    tag_5:\n        /* \"contracts/extend/super.sol\":550:569  Log(\"B.bar called\") */\n      0xcf34ef537ac33ee1ac626ca1587a0a7e8e51561e5514f8cb36afa1c5102b3bab\n      mload(0x40)\n      tag_7\n      swap1\n      tag_8\n      jump\t// in\n    tag_7:\n      mload(0x40)\n      dup1\n      swap2\n      sub\n      swap1\n      log1\n        /* \"contracts/extend/super.sol\":579:590  super.bar() */\n      tag_9\n        /* \"contracts/extend/super.sol\":579:588  super.bar */\n      tag_10\n        /* \"contracts/extend/super.sol\":579:590  super.bar() */\n      jump\t// in\n    tag_9:\n        /* \"contracts/extend/super.sol\":496:597  function bar() public virtual override {... */\n      jump\t// out\n        /* \"contracts/extend/super.sol\":397:468  function bar() public virtual {... */\n    tag_10:\n        /* \"contracts/extend/super.sol\":442:461  Log(\"A.bar called\") */\n      0xcf34ef537ac33ee1ac626ca1587a0a7e8e51561e5514f8cb36afa1c5102b3bab\n      mload(0x40)\n      tag_12\n      swap1\n      tag_13\n      jump\t// in\n    tag_12:\n      mload(0x40)\n      dup1\n      swap2\n      sub\n      swap1\n      log1\n        /* \"contracts/extend/super.sol\":397:468  function bar() public virtual {... */\n      jump\t// out\n        /* \"#utility.yul\":7:176   */\n    tag_14:\n        /* \"#utility.yul\":91:102   */\n      0x00\n        /* \"#utility.yul\":125:131   */\n      dup3\n        /* \"#utility.yul\":120:123   */\n      dup3\n        /* \"#utility.yul\":113:132   */\n      mstore\n        /* \"#utility.yul\":165:169   */\n      0x20\n        /* \"#utility.yul\":160:163   */\n      dup3\n        /* \"#utility.yul\":156:170   */\n      add\n        /* \"#utility.yul\":141:170   */\n      swap1\n      pop\n        /* \"#utility.yul\":7:176   */\n      swap3\n      swap2\n      pop\n      pop\n      jump\t// out\n        /* \"#utility.yul\":182:344   */\n    tag_15:\n        /* \"#utility.yul\":322:336   */\n      0x422e6261722063616c6c65640000000000000000000000000000000000000000\n        /* \"#utility.yul\":318:319   */\n      0x00\n        /* \"#utility.yul\":310:316   */\n      dup3\n        /* \"#utility.yul\":306:320   */\n      add\n        /* \"#utility.yul\":299:337   */\n      mstore\n        /* \"#utility.yul\":182:344   */\n      pop\n      jump\t// out\n        /* \"#utility.yul\":350:716   */\n    tag_16:\n        /* \"#utility.yul\":492:495   */\n      0x00\n        /* \"#utility.yul\":513:580   */\n      tag_23\n        /* \"#utility.yul\":577:579   */\n      0x0c\n        /* \"#utility.yul\":572:575   */\n      dup4\n        /* \"#utility.yul\":513:580   */\n      tag_14\n      jump\t// in\n    tag_23:\n        /* \"#utility.yul\":506:580   */\n      swap2\n      pop\n        /* \"#utility.yul\":589:682   */\n      tag_24\n        /* \"#utility.yul\":678:681   */\n      dup3\n        /* \"#utility.yul\":589:682   */\n      tag_15\n      jump\t// in\n    tag_24:\n        /* \"#utility.yul\":707:709   */\n      0x20\n        /* \"#utility.yul\":702:705   */\n      dup3\n        /* \"#utility.yul\":698:710   */\n      add\n        /* \"#utility.yul\":691:710   */\n      swap1\n      pop\n        /* \"#utility.yul\":350:716   */\n      swap2\n      swap1\n      pop\n      jump\t// out\n        /* \"#utility.yul\":722:1141   */\n    tag_8:\n        /* \"#utility.yul\":888:892   */\n      0x00\n        /* \"#utility.yul\":926:928   */\n      0x20\n        /* \"#utility.yul\":915:924   */\n      dup3\n        /* \"#utility.yul\":911:929   */\n      add\n        /* \"#utility.yul\":903:929   */\n      swap1\n      pop\n        /* \"#utility.yul\":975:984   */\n      dup2\n        /* \"#utility.yul\":969:973   */\n      dup2\n        /* \"#utility.yul\":965:985   */\n      sub\n        /* \"#utility.yul\":961:962   */\n      0x00\n        /* \"#utility.yul\":950:959   */\n      dup4\n        /* \"#utility.yul\":946:963   */\n      add\n        /* \"#utility.yul\":939:986   */\n      mstore\n        /* \"#utility.yul\":1003:1134   */\n      tag_26\n        /* \"#utility.yul\":1129:1133   */\n      dup2\n        /* \"#utility.yul\":1003:1134   */\n      tag_16\n      jump\t// in\n    tag_26:\n        /* \"#utility.yul\":995:1134   */\n      swap1\n      pop\n        /* \"#utility.yul\":722:1141   */\n      swap2\n      swap1\n      pop\n      jump\t// out\n        /* \"#utility.yul\":1147:1309   */\n    tag_17:\n        /* \"#utility.yul\":1287:1301   */\n      0x412e6261722063616c6c65640000000000000000000000000000000000000000\n        /* \"#utility.yul\":1283:1284   */\n      0x00\n        /* \"#utility.yul\":1275:1281   */\n      dup3\n        /* \"#utility.yul\":1271:1285   */\n      add\n        /* \"#utility.yul\":1264:1302   */\n      mstore\n        /* \"#utility.yul\":1147:1309   */\n      pop\n      jump\t// out\n        /* \"#utility.yul\":1315:1681   */\n    tag_18:\n        /* \"#utility.yul\":1457:1460   */\n      0x00\n        /* \"#utility.yul\":1478:1545   */\n      tag_29\n        /* \"#utility.yul\":1542:1544   */\n      0x0c\n        /* \"#utility.yul\":1537:1540   */\n      dup4\n        /* \"#utility.yul\":1478:1545   */\n      tag_14\n      jump\t// in\n    tag_29:\n        /* \"#utility.yul\":1471:1545   */\n      swap2\n      pop\n        /* \"#utility.yul\":1554:1647   */\n      tag_30\n        /* \"#utility.yul\":1643:1646   */\n      dup3\n        /* \"#utility.yul\":1554:1647   */\n      tag_17\n      jump\t// in\n    tag_30:\n        /* \"#utility.yul\":1672:1674   */\n      0x20\n        /* \"#utility.yul\":1667:1670   */\n      dup3\n        /* \"#utility.yul\":1663:1675   */\n      add\n        /* \"#utility.yul\":1656:1675   */\n      swap1\n      pop\n        /* \"#utility.yul\":1315:1681   */\n      swap2\n      swap1\n      pop\n      jump\t// out\n        /* \"#utility.yul\":1687:2106   */\n    tag_13:\n        /* \"#utility.yul\":1853:1857   */\n      0x00\n        /* \"#utility.yul\":1891:1893   */\n      0x20\n        /* \"#utility.yul\":1880:1889   */\n      dup3\n        /* \"#utility.yul\":1876:1894   */\n      add\n        /* \"#utility.yul\":1868:1894   */\n      swap1\n      pop\n        /* \"#utility.yul\":1940:1949   */\n      dup2\n        /* \"#utility.yul\":1934:1938   */\n      dup2\n        /* \"#utility.yul\":1930:1950   */\n      sub\n        /* \"#utility.yul\":1926:1927   */\n      0x00\n        /* \"#utility.yul\":1915:1924   */\n      dup4\n        /* \"#utility.yul\":1911:1928   */\n      add\n        /* \"#utility.yul\":1904:1951   */\n      mstore\n        /* \"#utility.yul\":1968:2099   */\n      tag_32\n        /* \"#utility.yul\":2094:2098   */\n      dup2\n        /* \"#utility.yul\":1968:2099   */\n      tag_18\n      jump\t// in\n    tag_32:\n        /* \"#utility.yul\":1960:2099   */\n      swap1\n      pop\n        /* \"#utility.yul\":1687:2106   */\n      swap2\n      swap1\n      pop\n      jump\t// out\n\n    auxdata: 0xa26469706673582212201c43194de35f430f9e19b6e33648357777af320463401ccd9adb83291d0f148264736f6c634300081a0033\n}\n",
				"bytecode": {
					"linkReferences": {},
					"object": "6080604052348015600e575f80fd5b506101c38061001c5f395ff3fe608060405234801561000f575f80fd5b5060043610610029575f3560e01c8063febb0f7e1461002d575b5f80fd5b610035610037565b005b7fcf34ef537ac33ee1ac626ca1587a0a7e8e51561e5514f8cb36afa1c5102b3bab60405161006490610107565b60405180910390a1610074610076565b565b7fcf34ef537ac33ee1ac626ca1587a0a7e8e51561e5514f8cb36afa1c5102b3bab6040516100a39061016f565b60405180910390a1565b5f82825260208201905092915050565b7f422e6261722063616c6c656400000000000000000000000000000000000000005f82015250565b5f6100f1600c836100ad565b91506100fc826100bd565b602082019050919050565b5f6020820190508181035f83015261011e816100e5565b9050919050565b7f412e6261722063616c6c656400000000000000000000000000000000000000005f82015250565b5f610159600c836100ad565b915061016482610125565b602082019050919050565b5f6020820190508181035f8301526101868161014d565b905091905056fea26469706673582212201c43194de35f430f9e19b6e33648357777af320463401ccd9adb83291d0f148264736f6c634300081a0033",
					"opcodes": "PUSH1 0x80 PUSH1 0x40 MSTORE CALLVALUE DUP1 ISZERO PUSH1 0xE JUMPI PUSH0 DUP1 REVERT JUMPDEST POP PUSH2 0x1C3 DUP1 PUSH2 0x1C PUSH0 CODECOPY PUSH0 RETURN INVALID PUSH1 0x80 PUSH1 0x40 MSTORE CALLVALUE DUP1 ISZERO PUSH2 0xF JUMPI PUSH0 DUP1 REVERT JUMPDEST POP PUSH1 0x4 CALLDATASIZE LT PUSH2 0x29 JUMPI PUSH0 CALLDATALOAD PUSH1 0xE0 SHR DUP1 PUSH4 0xFEBB0F7E EQ PUSH2 0x2D JUMPI JUMPDEST PUSH0 DUP1 REVERT JUMPDEST PUSH2 0x35 PUSH2 0x37 JUMP JUMPDEST STOP JUMPDEST PUSH32 0xCF34EF537AC33EE1AC626CA1587A0A7E8E51561E5514F8CB36AFA1C5102B3BAB PUSH1 0x40 MLOAD PUSH2 0x64 SWAP1 PUSH2 0x107 JUMP JUMPDEST PUSH1 0x40 MLOAD DUP1 SWAP2 SUB SWAP1 LOG1 PUSH2 0x74 PUSH2 0x76 JUMP JUMPDEST JUMP JUMPDEST PUSH32 0xCF34EF537AC33EE1AC626CA1587A0A7E8E51561E5514F8CB36AFA1C5102B3BAB PUSH1 0x40 MLOAD PUSH2 0xA3 SWAP1 PUSH2 0x16F JUMP JUMPDEST PUSH1 0x40 MLOAD DUP1 SWAP2 SUB SWAP1 LOG1 JUMP JUMPDEST PUSH0 DUP3 DUP3 MSTORE PUSH1 0x20 DUP3 ADD SWAP1 POP SWAP3 SWAP2 POP POP JUMP JUMPDEST PUSH32 0x422E6261722063616C6C65640000000000000000000000000000000000000000 PUSH0 DUP3 ADD MSTORE POP JUMP JUMPDEST PUSH0 PUSH2 0xF1 PUSH1 0xC DUP4 PUSH2 0xAD JUMP JUMPDEST SWAP2 POP PUSH2 0xFC DUP3 PUSH2 0xBD JUMP JUMPDEST PUSH1 0x20 DUP3 ADD SWAP1 POP SWAP2 SWAP1 POP JUMP JUMPDEST PUSH0 PUSH1 0x20 DUP3 ADD SWAP1 POP DUP2 DUP2 SUB PUSH0 DUP4 ADD MSTORE PUSH2 0x11E DUP2 PUSH2 0xE5 JUMP JUMPDEST SWAP1 POP SWAP2 SWAP1 POP JUMP JUMPDEST PUSH32 0x412E6261722063616C6C65640000000000000000000000000000000000000000 PUSH0 DUP3 ADD MSTORE POP JUMP JUMPDEST PUSH0 PUSH2 0x159 PUSH1 0xC DUP4 PUSH2 0xAD JUMP JUMPDEST SWAP2 POP PUSH2 0x164 DUP3 PUSH2 0x125 JUMP JUMPDEST PUSH1 0x20 DUP3 ADD SWAP1 POP SWAP2 SWAP1 POP JUMP JUMPDEST PUSH0 PUSH1 0x20 DUP3 ADD SWAP1 POP DUP2 DUP2 SUB PUSH0 DUP4 ADD MSTORE PUSH2 0x186 DUP2 PUSH2 0x14D JUMP JUMPDEST SWAP1 POP SWAP2 SWAP1 POP JUMP INVALID LOG2 PUSH5 0x6970667358 0x22 SLT KECCAK256 SHR NUMBER NOT 0x4D 0xE3 PUSH0 NUMBER 0xF SWAP15 NOT 0xB6 0xE3 CALLDATASIZE BASEFEE CALLDATALOAD PUSH24 0x77AF320463401CCD9ADB83291D0F148264736F6C63430008 BYTE STOP CALLER "
				},
				"gasEstimates": {
					"creation": {
						"codeDepositCost": "90200",
						"executionCost": "139",
						"totalCost": "90339"
					},
					"external": {
						"bar()": "infinite"
					}
				},
				"methodIdentifiers": {
					"bar()": "febb0f7e"
				}
			},
			"storageLayout": {
				"storage": [],
				"types": null
			},
			"userdoc": {
				"kind": "user",
				"methods": {},
				"version": 1
			}
		}
	}
}