{
	"contracts/extend/assemblyBasic.sol": {
		"AssemblyBasic": {
			"abi": [
				{
					"inputs": [
						{
							"internalType": "uint256",
							"name": "x",
							"type": "uint256"
						},
						{
							"internalType": "uint256",
							"name": "y",
							"type": "uint256"
						}
					],
					"name": "addAssembly",
					"outputs": [
						{
							"internalType": "uint256",
							"name": "",
							"type": "uint256"
						}
					],
					"stateMutability": "pure",
					"type": "function"
				},
				{
					"inputs": [
						{
							"internalType": "uint256",
							"name": "x",
							"type": "uint256"
						},
						{
							"internalType": "uint256",
							"name": "y",
							"type": "uint256"
						}
					],
					"name": "addSolidity",
					"outputs": [
						{
							"internalType": "uint256",
							"name": "",
							"type": "uint256"
						}
					],
					"stateMutability": "pure",
					"type": "function"
				},
				{
					"inputs": [
						{
							"internalType": "bytes",
							"name": "data",
							"type": "bytes"
						}
					],
					"name": "bytesToBytes32Array",
					"outputs": [
						{
							"internalType": "bytes32[]",
							"name": "",
							"type": "bytes32[]"
						}
					],
					"stateMutability": "pure",
					"type": "function"
				},
				{
					"inputs": [
						{
							"internalType": "uint256",
							"name": "n",
							"type": "uint256"
						}
					],
					"name": "loopAssembly",
					"outputs": [
						{
							"internalType": "uint256",
							"name": "rst",
							"type": "uint256"
						}
					],
					"stateMutability": "pure",
					"type": "function"
				},
				{
					"inputs": [
						{
							"internalType": "uint256",
							"name": "n",
							"type": "uint256"
						}
					],
					"name": "loopNormal",
					"outputs": [
						{
							"internalType": "uint256",
							"name": "rst",
							"type": "uint256"
						}
					],
					"stateMutability": "pure",
					"type": "function"
				},
				{
					"inputs": [],
					"name": "read1",
					"outputs": [
						{
							"internalType": "uint256",
							"name": "a",
							"type": "uint256"
						},
						{
							"internalType": "uint256",
							"name": "b",
							"type": "uint256"
						},
						{
							"internalType": "uint256",
							"name": "c",
							"type": "uint256"
						}
					],
					"stateMutability": "pure",
					"type": "function"
				},
				{
					"inputs": [],
					"name": "read2",
					"outputs": [
						{
							"internalType": "uint256",
							"name": "a",
							"type": "uint256"
						},
						{
							"internalType": "uint256",
							"name": "b",
							"type": "uint256"
						},
						{
							"internalType": "uint256",
							"name": "c",
							"type": "uint256"
						}
					],
					"stateMutability": "pure",
					"type": "function"
				},
				{
					"inputs": [],
					"name": "testDynamicArray",
					"outputs": [
						{
							"internalType": "uint256",
							"name": "i",
							"type": "uint256"
						}
					],
					"stateMutability": "pure",
					"type": "function"
				}
			],
			"devdoc": {
				"kind": "dev",
				"methods": {},
				"version": 1
			},
			"evm": {
				"assembly": "    /* \"contracts/extend/assemblyBasic.sol\":70:3228  contract AssemblyBasic {... */\n  mstore(0x40, 0x80)\n  callvalue\n  dup1\n  iszero\n  tag_1\n  jumpi\n  revert(0x00, 0x00)\ntag_1:\n  pop\n  dataSize(sub_0)\n  dup1\n  dataOffset(sub_0)\n  0x00\n  codecopy\n  0x00\n  return\nstop\n\nsub_0: assembly {\n        /* \"contracts/extend/assemblyBasic.sol\":70:3228  contract AssemblyBasic {... */\n      mstore(0x40, 0x80)\n      callvalue\n      dup1\n      iszero\n      tag_1\n      jumpi\n      revert(0x00, 0x00)\n    tag_1:\n      pop\n      jumpi(tag_2, lt(calldatasize, 0x04))\n      shr(0xe0, calldataload(0x00))\n      dup1\n      0xab43d318\n      gt\n      tag_11\n      jumpi\n      dup1\n      0xab43d318\n      eq\n      tag_7\n      jumpi\n      dup1\n      0xbbd81203\n      eq\n      tag_8\n      jumpi\n      dup1\n      0xc1a52b50\n      eq\n      tag_9\n      jumpi\n      dup1\n      0xde9bad0c\n      eq\n      tag_10\n      jumpi\n      jump(tag_2)\n    tag_11:\n      dup1\n      0x08bb1114\n      eq\n      tag_3\n      jumpi\n      dup1\n      0x17645523\n      eq\n      tag_4\n      jumpi\n      dup1\n      0x4debc578\n      eq\n      tag_5\n      jumpi\n      dup1\n      0x596c89fa\n      eq\n      tag_6\n      jumpi\n    tag_2:\n      revert(0x00, 0x00)\n        /* \"contracts/extend/assemblyBasic.sol\":401:909  function addAssembly(uint256 x, uint256 y) public pure returns (uint256) {... */\n    tag_3:\n      tag_12\n      0x04\n      dup1\n      calldatasize\n      sub\n      dup2\n      add\n      swap1\n      tag_13\n      swap2\n      swap1\n      tag_14\n      jump\t// in\n    tag_13:\n      tag_15\n      jump\t// in\n    tag_12:\n      mload(0x40)\n      tag_16\n      swap2\n      swap1\n      tag_17\n      jump\t// in\n    tag_16:\n      mload(0x40)\n      dup1\n      swap2\n      sub\n      swap1\n      return\n        /* \"contracts/extend/assemblyBasic.sol\":915:1242  function loopAssembly(uint256 n) public pure returns (uint256 rst) {... */\n    tag_4:\n      tag_18\n      0x04\n      dup1\n      calldatasize\n      sub\n      dup2\n      add\n      swap1\n      tag_19\n      swap2\n      swap1\n      tag_20\n      jump\t// in\n    tag_19:\n      tag_21\n      jump\t// in\n    tag_18:\n      mload(0x40)\n      tag_22\n      swap2\n      swap1\n      tag_17\n      jump\t// in\n    tag_22:\n      mload(0x40)\n      dup1\n      swap2\n      sub\n      swap1\n      return\n        /* \"contracts/extend/assemblyBasic.sol\":2256:3036  function bytesToBytes32Array(bytes memory data)... */\n    tag_5:\n      tag_23\n      0x04\n      dup1\n      calldatasize\n      sub\n      dup2\n      add\n      swap1\n      tag_24\n      swap2\n      swap1\n      tag_25\n      jump\t// in\n    tag_24:\n      tag_26\n      jump\t// in\n    tag_23:\n      mload(0x40)\n      tag_27\n      swap2\n      swap1\n      tag_28\n      jump\t// in\n    tag_27:\n      mload(0x40)\n      dup1\n      swap2\n      sub\n      swap1\n      return\n        /* \"contracts/extend/assemblyBasic.sol\":1248:1638  function read1()... */\n    tag_6:\n      tag_29\n      tag_30\n      jump\t// in\n    tag_29:\n      mload(0x40)\n      tag_31\n      swap4\n      swap3\n      swap2\n      swap1\n      tag_32\n      jump\t// in\n    tag_31:\n      mload(0x40)\n      dup1\n      swap2\n      sub\n      swap1\n      return\n        /* \"contracts/extend/assemblyBasic.sol\":222:368  function loopNormal(uint256 n) public pure returns (uint256 rst) {... */\n    tag_7:\n      tag_33\n      0x04\n      dup1\n      calldatasize\n      sub\n      dup2\n      add\n      swap1\n      tag_34\n      swap2\n      swap1\n      tag_20\n      jump\t// in\n    tag_34:\n      tag_35\n      jump\t// in\n    tag_33:\n      mload(0x40)\n      tag_36\n      swap2\n      swap1\n      tag_17\n      jump\t// in\n    tag_36:\n      mload(0x40)\n      dup1\n      swap2\n      sub\n      swap1\n      return\n        /* \"contracts/extend/assemblyBasic.sol\":2058:2250  function testDynamicArray() external pure returns (uint256 i) {... */\n    tag_8:\n      tag_37\n      tag_38\n      jump\t// in\n    tag_37:\n      mload(0x40)\n      tag_39\n      swap2\n      swap1\n      tag_17\n      jump\t// in\n    tag_39:\n      mload(0x40)\n      dup1\n      swap2\n      sub\n      swap1\n      return\n        /* \"contracts/extend/assemblyBasic.sol\":1644:2052  function read2()... */\n    tag_9:\n      tag_40\n      tag_41\n      jump\t// in\n    tag_40:\n      mload(0x40)\n      tag_42\n      swap4\n      swap3\n      swap2\n      swap1\n      tag_32\n      jump\t// in\n    tag_42:\n      mload(0x40)\n      dup1\n      swap2\n      sub\n      swap1\n      return\n        /* \"contracts/extend/assemblyBasic.sol\":114:216  function addSolidity(uint256 x, uint256 y) public pure returns (uint256) {... */\n    tag_10:\n      tag_43\n      0x04\n      dup1\n      calldatasize\n      sub\n      dup2\n      add\n      swap1\n      tag_44\n      swap2\n      swap1\n      tag_14\n      jump\t// in\n    tag_44:\n      tag_45\n      jump\t// in\n    tag_43:\n      mload(0x40)\n      tag_46\n      swap2\n      swap1\n      tag_17\n      jump\t// in\n    tag_46:\n      mload(0x40)\n      dup1\n      swap2\n      sub\n      swap1\n      return\n        /* \"contracts/extend/assemblyBasic.sol\":401:909  function addAssembly(uint256 x, uint256 y) public pure returns (uint256) {... */\n    tag_15:\n        /* \"contracts/extend/assemblyBasic.sol\":465:472  uint256 */\n      0x00\n        /* \"contracts/extend/assemblyBasic.sol\":560:561  y */\n      dup2\n        /* \"contracts/extend/assemblyBasic.sol\":557:558  x */\n      dup4\n        /* \"contracts/extend/assemblyBasic.sol\":553:562  add(x, y) */\n      add\n        /* \"contracts/extend/assemblyBasic.sol\":696:700  0x40 */\n      0x40\n        /* \"contracts/extend/assemblyBasic.sol\":690:701  mload(0x40) */\n      mload\n        /* \"contracts/extend/assemblyBasic.sol\":789:795  result */\n      dup2\n        /* \"contracts/extend/assemblyBasic.sol\":785:787  fm */\n      dup2\n        /* \"contracts/extend/assemblyBasic.sol\":778:796  mstore(fm, result) */\n      mstore\n        /* \"contracts/extend/assemblyBasic.sol\":871:873  32 */\n      0x20\n        /* \"contracts/extend/assemblyBasic.sol\":867:869  fm */\n      dup2\n        /* \"contracts/extend/assemblyBasic.sol\":860:874  return(fm, 32) */\n      return\n        /* \"contracts/extend/assemblyBasic.sol\":915:1242  function loopAssembly(uint256 n) public pure returns (uint256 rst) {... */\n    tag_21:\n        /* \"contracts/extend/assemblyBasic.sol\":969:980  uint256 rst */\n      0x00\n        /* \"contracts/extend/assemblyBasic.sol\":1046:1047  0 */\n      0x00\n        /* \"contracts/extend/assemblyBasic.sol\":1015:1168  for {... */\n    tag_49:\n        /* \"contracts/extend/assemblyBasic.sol\":1068:1069  n */\n      dup3\n        /* \"contracts/extend/assemblyBasic.sol\":1065:1066  i */\n      dup2\n        /* \"contracts/extend/assemblyBasic.sol\":1062:1070  lt(i, n) */\n      lt\n        /* \"contracts/extend/assemblyBasic.sol\":1015:1168  for {... */\n      iszero\n      tag_51\n      jumpi\n        /* \"contracts/extend/assemblyBasic.sol\":1150:1153  rst */\n      dup2\n        /* \"contracts/extend/assemblyBasic.sol\":1147:1148  i */\n      dup2\n        /* \"contracts/extend/assemblyBasic.sol\":1143:1154  add(i, rst) */\n      add\n        /* \"contracts/extend/assemblyBasic.sol\":1136:1154  rst := add(i, rst) */\n      swap2\n      pop\n        /* \"contracts/extend/assemblyBasic.sol\":1101:1102  1 */\n      0x01\n        /* \"contracts/extend/assemblyBasic.sol\":1098:1099  i */\n      dup2\n        /* \"contracts/extend/assemblyBasic.sol\":1094:1103  add(i, 1) */\n      add\n        /* \"contracts/extend/assemblyBasic.sol\":1089:1103  i := add(i, 1) */\n      swap1\n      pop\n        /* \"contracts/extend/assemblyBasic.sol\":1015:1168  for {... */\n      jump(tag_49)\n    tag_51:\n        /* \"contracts/extend/assemblyBasic.sol\":1019:1061  {... */\n      pop\n        /* \"contracts/extend/assemblyBasic.sol\":1194:1197  rst */\n      dup1\n        /* \"contracts/extend/assemblyBasic.sol\":1189:1192  0x0 */\n      0x00\n        /* \"contracts/extend/assemblyBasic.sol\":1182:1198  mstore(0x0, rst) */\n      mstore\n        /* \"contracts/extend/assemblyBasic.sol\":1223:1225  32 */\n      0x20\n        /* \"contracts/extend/assemblyBasic.sol\":1218:1221  0x0 */\n      0x00\n        /* \"contracts/extend/assemblyBasic.sol\":1211:1226  return(0x0, 32) */\n      return\n        /* \"contracts/extend/assemblyBasic.sol\":2256:3036  function bytesToBytes32Array(bytes memory data)... */\n    tag_26:\n        /* \"contracts/extend/assemblyBasic.sol\":2349:2365  bytes32[] memory */\n      0x60\n        /* \"contracts/extend/assemblyBasic.sol\":2418:2432  uint256 dataNb */\n      0x00\n        /* \"contracts/extend/assemblyBasic.sol\":2449:2451  32 */\n      0x20\n        /* \"contracts/extend/assemblyBasic.sol\":2435:2439  data */\n      dup4\n        /* \"contracts/extend/assemblyBasic.sol\":2435:2446  data.length */\n      mload\n        /* \"contracts/extend/assemblyBasic.sol\":2435:2451  data.length / 32 */\n      tag_53\n      swap2\n      swap1\n      tag_54\n      jump\t// in\n    tag_53:\n        /* \"contracts/extend/assemblyBasic.sol\":2418:2451  uint256 dataNb = data.length / 32 */\n      swap1\n      pop\n        /* \"contracts/extend/assemblyBasic.sol\":2507:2532  bytes32[] memory dataList */\n      0x00\n        /* \"contracts/extend/assemblyBasic.sol\":2549:2555  dataNb */\n      dup2\n        /* \"contracts/extend/assemblyBasic.sol\":2535:2556  new bytes32[](dataNb) */\n      0xffffffffffffffff\n      dup2\n      gt\n      iszero\n      tag_55\n      jumpi\n      tag_56\n      tag_57\n      jump\t// in\n    tag_56:\n    tag_55:\n      mload(0x40)\n      swap1\n      dup1\n      dup3\n      mstore\n      dup1\n      0x20\n      mul\n      0x20\n      add\n      dup3\n      add\n      0x40\n      mstore\n      dup1\n      iszero\n      tag_58\n      jumpi\n      dup2\n      0x20\n      add\n      0x20\n      dup3\n      mul\n      dup1\n      calldatasize\n      dup4\n      calldatacopy\n      dup1\n      dup3\n      add\n      swap2\n      pop\n      pop\n      swap1\n      pop\n    tag_58:\n      pop\n        /* \"contracts/extend/assemblyBasic.sol\":2507:2556  bytes32[] memory dataList = new bytes32[](dataNb) */\n      swap1\n      pop\n        /* \"contracts/extend/assemblyBasic.sol\":2600:2613  uint256 index */\n      0x00\n        /* \"contracts/extend/assemblyBasic.sol\":2616:2617  0 */\n      0x00\n        /* \"contracts/extend/assemblyBasic.sol\":2600:2617  uint256 index = 0 */\n      swap1\n      pop\n        /* \"contracts/extend/assemblyBasic.sol\":2670:2679  uint256 i */\n      0x00\n        /* \"contracts/extend/assemblyBasic.sol\":2682:2684  32 */\n      0x20\n        /* \"contracts/extend/assemblyBasic.sol\":2670:2684  uint256 i = 32 */\n      swap1\n      pop\n        /* \"contracts/extend/assemblyBasic.sol\":2665:2975  for (uint256 i = 32; i <= data.length; i = i + 32) {... */\n    tag_59:\n        /* \"contracts/extend/assemblyBasic.sol\":2691:2695  data */\n      dup6\n        /* \"contracts/extend/assemblyBasic.sol\":2691:2702  data.length */\n      mload\n        /* \"contracts/extend/assemblyBasic.sol\":2686:2687  i */\n      dup2\n        /* \"contracts/extend/assemblyBasic.sol\":2686:2702  i <= data.length */\n      gt\n        /* \"contracts/extend/assemblyBasic.sol\":2665:2975  for (uint256 i = 32; i <= data.length; i = i + 32) {... */\n      tag_60\n      jumpi\n        /* \"contracts/extend/assemblyBasic.sol\":2730:2742  bytes32 temp */\n      0x00\n        /* \"contracts/extend/assemblyBasic.sol\":2845:2846  i */\n      dup2\n        /* \"contracts/extend/assemblyBasic.sol\":2839:2843  data */\n      dup8\n        /* \"contracts/extend/assemblyBasic.sol\":2835:2847  add(data, i) */\n      add\n        /* \"contracts/extend/assemblyBasic.sol\":2829:2848  mload(add(data, i)) */\n      mload\n        /* \"contracts/extend/assemblyBasic.sol\":2821:2848  temp := mload(add(data, i)) */\n      swap1\n      pop\n        /* \"contracts/extend/assemblyBasic.sol\":2939:2943  temp */\n      dup1\n        /* \"contracts/extend/assemblyBasic.sol\":2921:2929  dataList */\n      dup5\n        /* \"contracts/extend/assemblyBasic.sol\":2930:2935  index */\n      dup5\n        /* \"contracts/extend/assemblyBasic.sol\":2921:2936  dataList[index] */\n      dup2\n      mload\n      dup2\n      lt\n      tag_62\n      jumpi\n      tag_63\n      tag_64\n      jump\t// in\n    tag_63:\n    tag_62:\n      0x20\n      mul\n      0x20\n      add\n      add\n        /* \"contracts/extend/assemblyBasic.sol\":2921:2943  dataList[index] = temp */\n      dup2\n      dup2\n      mstore\n      pop\n      pop\n        /* \"contracts/extend/assemblyBasic.sol\":2957:2964  index++ */\n      dup3\n      dup1\n      tag_65\n      swap1\n      tag_66\n      jump\t// in\n    tag_65:\n      swap4\n      pop\n      pop\n        /* \"contracts/extend/assemblyBasic.sol\":2716:2975  {... */\n      pop\n        /* \"contracts/extend/assemblyBasic.sol\":2712:2714  32 */\n      0x20\n        /* \"contracts/extend/assemblyBasic.sol\":2708:2709  i */\n      dup2\n        /* \"contracts/extend/assemblyBasic.sol\":2708:2714  i + 32 */\n      tag_67\n      swap2\n      swap1\n      tag_68\n      jump\t// in\n    tag_67:\n        /* \"contracts/extend/assemblyBasic.sol\":2704:2714  i = i + 32 */\n      swap1\n      pop\n        /* \"contracts/extend/assemblyBasic.sol\":2665:2975  for (uint256 i = 32; i <= data.length; i = i + 32) {... */\n      jump(tag_59)\n    tag_60:\n      pop\n        /* \"contracts/extend/assemblyBasic.sol\":3020:3028  dataList */\n      dup2\n        /* \"contracts/extend/assemblyBasic.sol\":3012:3029  return (dataList) */\n      swap4\n      pop\n      pop\n      pop\n      pop\n        /* \"contracts/extend/assemblyBasic.sol\":2256:3036  function bytesToBytes32Array(bytes memory data)... */\n      swap2\n      swap1\n      pop\n      jump\t// out\n        /* \"contracts/extend/assemblyBasic.sol\":1248:1638  function read1()... */\n    tag_30:\n        /* \"contracts/extend/assemblyBasic.sol\":1325:1334  uint256 a */\n      0x00\n        /* \"contracts/extend/assemblyBasic.sol\":1348:1357  uint256 b */\n      0x00\n        /* \"contracts/extend/assemblyBasic.sol\":1371:1380  uint256 c */\n      0x00\n        /* \"contracts/extend/assemblyBasic.sol\":1405:1426  uint256[3] memory arr */\n      tag_70\n      tag_71\n      jump\t// in\n    tag_70:\n        /* \"contracts/extend/assemblyBasic.sol\":1445:1448  111 */\n      0x6f\n        /* \"contracts/extend/assemblyBasic.sol\":1436:1439  arr */\n      dup2\n        /* \"contracts/extend/assemblyBasic.sol\":1440:1441  0 */\n      0x00\n        /* \"contracts/extend/assemblyBasic.sol\":1436:1442  arr[0] */\n      0x03\n      dup2\n      lt\n      tag_72\n      jumpi\n      tag_73\n      tag_64\n      jump\t// in\n    tag_73:\n    tag_72:\n      0x20\n      mul\n      add\n        /* \"contracts/extend/assemblyBasic.sol\":1436:1448  arr[0] = 111 */\n      dup2\n      dup2\n      mstore\n      pop\n      pop\n        /* \"contracts/extend/assemblyBasic.sol\":1467:1470  222 */\n      0xde\n        /* \"contracts/extend/assemblyBasic.sol\":1458:1461  arr */\n      dup2\n        /* \"contracts/extend/assemblyBasic.sol\":1462:1463  1 */\n      0x01\n        /* \"contracts/extend/assemblyBasic.sol\":1458:1464  arr[1] */\n      0x03\n      dup2\n      lt\n      tag_74\n      jumpi\n      tag_75\n      tag_64\n      jump\t// in\n    tag_75:\n    tag_74:\n      0x20\n      mul\n      add\n        /* \"contracts/extend/assemblyBasic.sol\":1458:1470  arr[1] = 222 */\n      dup2\n      dup2\n      mstore\n      pop\n      pop\n        /* \"contracts/extend/assemblyBasic.sol\":1489:1492  333 */\n      0x014d\n        /* \"contracts/extend/assemblyBasic.sol\":1480:1483  arr */\n      dup2\n        /* \"contracts/extend/assemblyBasic.sol\":1484:1485  2 */\n      0x02\n        /* \"contracts/extend/assemblyBasic.sol\":1480:1486  arr[2] */\n      0x03\n      dup2\n      lt\n      tag_76\n      jumpi\n      tag_77\n      tag_64\n      jump\t// in\n    tag_77:\n    tag_76:\n      0x20\n      mul\n      add\n        /* \"contracts/extend/assemblyBasic.sol\":1480:1492  arr[2] = 333 */\n      dup2\n      dup2\n      mstore\n      pop\n      pop\n        /* \"contracts/extend/assemblyBasic.sol\":1545:1546  0 */\n      0x00\n        /* \"contracts/extend/assemblyBasic.sol\":1540:1543  arr */\n      dup2\n        /* \"contracts/extend/assemblyBasic.sol\":1536:1547  add(arr, 0) */\n      add\n        /* \"contracts/extend/assemblyBasic.sol\":1530:1548  mload(add(arr, 0)) */\n      mload\n        /* \"contracts/extend/assemblyBasic.sol\":1525:1548  a := mload(add(arr, 0)) */\n      swap4\n      pop\n        /* \"contracts/extend/assemblyBasic.sol\":1581:1583  32 */\n      0x20\n        /* \"contracts/extend/assemblyBasic.sol\":1576:1579  arr */\n      dup2\n        /* \"contracts/extend/assemblyBasic.sol\":1572:1584  add(arr, 32) */\n      add\n        /* \"contracts/extend/assemblyBasic.sol\":1566:1585  mload(add(arr, 32)) */\n      mload\n        /* \"contracts/extend/assemblyBasic.sol\":1561:1585  b := mload(add(arr, 32)) */\n      swap3\n      pop\n        /* \"contracts/extend/assemblyBasic.sol\":1618:1620  64 */\n      0x40\n        /* \"contracts/extend/assemblyBasic.sol\":1613:1616  arr */\n      dup2\n        /* \"contracts/extend/assemblyBasic.sol\":1609:1621  add(arr, 64) */\n      add\n        /* \"contracts/extend/assemblyBasic.sol\":1603:1622  mload(add(arr, 64)) */\n      mload\n        /* \"contracts/extend/assemblyBasic.sol\":1598:1622  c := mload(add(arr, 64)) */\n      swap2\n      pop\n        /* \"contracts/extend/assemblyBasic.sol\":1511:1632  {... */\n      pop\n        /* \"contracts/extend/assemblyBasic.sol\":1248:1638  function read1()... */\n      swap1\n      swap2\n      swap3\n      jump\t// out\n        /* \"contracts/extend/assemblyBasic.sol\":222:368  function loopNormal(uint256 n) public pure returns (uint256 rst) {... */\n    tag_35:\n        /* \"contracts/extend/assemblyBasic.sol\":274:285  uint256 rst */\n      0x00\n        /* \"contracts/extend/assemblyBasic.sol\":302:311  uint256 i */\n      0x00\n        /* \"contracts/extend/assemblyBasic.sol\":314:315  0 */\n      0x00\n        /* \"contracts/extend/assemblyBasic.sol\":302:315  uint256 i = 0 */\n      swap1\n      pop\n        /* \"contracts/extend/assemblyBasic.sol\":297:362  for (uint256 i = 0; i < n; i++) {... */\n    tag_79:\n        /* \"contracts/extend/assemblyBasic.sol\":321:322  n */\n      dup3\n        /* \"contracts/extend/assemblyBasic.sol\":317:318  i */\n      dup2\n        /* \"contracts/extend/assemblyBasic.sol\":317:322  i < n */\n      lt\n        /* \"contracts/extend/assemblyBasic.sol\":297:362  for (uint256 i = 0; i < n; i++) {... */\n      iszero\n      tag_80\n      jumpi\n        /* \"contracts/extend/assemblyBasic.sol\":350:351  i */\n      dup1\n        /* \"contracts/extend/assemblyBasic.sol\":343:351  rst += i */\n      dup3\n      tag_82\n      swap2\n      swap1\n      tag_68\n      jump\t// in\n    tag_82:\n      swap2\n      pop\n        /* \"contracts/extend/assemblyBasic.sol\":324:327  i++ */\n      dup1\n      dup1\n      0x01\n      add\n      swap2\n      pop\n      pop\n        /* \"contracts/extend/assemblyBasic.sol\":297:362  for (uint256 i = 0; i < n; i++) {... */\n      jump(tag_79)\n    tag_80:\n      pop\n        /* \"contracts/extend/assemblyBasic.sol\":222:368  function loopNormal(uint256 n) public pure returns (uint256 rst) {... */\n      swap2\n      swap1\n      pop\n      jump\t// out\n        /* \"contracts/extend/assemblyBasic.sol\":2058:2250  function testDynamicArray() external pure returns (uint256 i) {... */\n    tag_38:\n        /* \"contracts/extend/assemblyBasic.sol\":2109:2118  uint256 i */\n      0x00\n        /* \"contracts/extend/assemblyBasic.sol\":2130:2154  uint256[] memory myarray */\n      0x00\n        /* \"contracts/extend/assemblyBasic.sol\":2171:2172  5 */\n      0x05\n        /* \"contracts/extend/assemblyBasic.sol\":2157:2173  new uint256[](5) */\n      0xffffffffffffffff\n      dup2\n      gt\n      iszero\n      tag_84\n      jumpi\n      tag_85\n      tag_57\n      jump\t// in\n    tag_85:\n    tag_84:\n      mload(0x40)\n      swap1\n      dup1\n      dup3\n      mstore\n      dup1\n      0x20\n      mul\n      0x20\n      add\n      dup3\n      add\n      0x40\n      mstore\n      dup1\n      iszero\n      tag_86\n      jumpi\n      dup2\n      0x20\n      add\n      0x20\n      dup3\n      mul\n      dup1\n      calldatasize\n      dup4\n      calldatacopy\n      dup1\n      dup3\n      add\n      swap2\n      pop\n      pop\n      swap1\n      pop\n    tag_86:\n      pop\n        /* \"contracts/extend/assemblyBasic.sol\":2130:2173  uint256[] memory myarray = new uint256[](5) */\n      swap1\n      pop\n        /* \"contracts/extend/assemblyBasic.sol\":2230:2232  32 */\n      0x20\n        /* \"contracts/extend/assemblyBasic.sol\":2221:2228  myarray */\n      dup2\n        /* \"contracts/extend/assemblyBasic.sol\":2217:2233  add(myarray, 32) */\n      add\n        /* \"contracts/extend/assemblyBasic.sol\":2211:2234  mload(add(myarray, 32)) */\n      mload\n        /* \"contracts/extend/assemblyBasic.sol\":2206:2234  i := mload(add(myarray, 32)) */\n      swap2\n      pop\n        /* \"contracts/extend/assemblyBasic.sol\":2192:2244  {... */\n      pop\n        /* \"contracts/extend/assemblyBasic.sol\":2058:2250  function testDynamicArray() external pure returns (uint256 i) {... */\n      swap1\n      jump\t// out\n        /* \"contracts/extend/assemblyBasic.sol\":1644:2052  function read2()... */\n    tag_41:\n        /* \"contracts/extend/assemblyBasic.sol\":1721:1730  uint256 a */\n      0x00\n        /* \"contracts/extend/assemblyBasic.sol\":1744:1753  uint256 b */\n      0x00\n        /* \"contracts/extend/assemblyBasic.sol\":1767:1776  uint256 c */\n      0x00\n        /* \"contracts/extend/assemblyBasic.sol\":1801:1821  uint256[] memory arr */\n      0x00\n        /* \"contracts/extend/assemblyBasic.sol\":1838:1839  3 */\n      0x03\n        /* \"contracts/extend/assemblyBasic.sol\":1824:1840  new uint256[](3) */\n      0xffffffffffffffff\n      dup2\n      gt\n      iszero\n      tag_88\n      jumpi\n      tag_89\n      tag_57\n      jump\t// in\n    tag_89:\n    tag_88:\n      mload(0x40)\n      swap1\n      dup1\n      dup3\n      mstore\n      dup1\n      0x20\n      mul\n      0x20\n      add\n      dup3\n      add\n      0x40\n      mstore\n      dup1\n      iszero\n      tag_90\n      jumpi\n      dup2\n      0x20\n      add\n      0x20\n      dup3\n      mul\n      dup1\n      calldatasize\n      dup4\n      calldatacopy\n      dup1\n      dup3\n      add\n      swap2\n      pop\n      pop\n      swap1\n      pop\n    tag_90:\n      pop\n        /* \"contracts/extend/assemblyBasic.sol\":1801:1840  uint256[] memory arr = new uint256[](3) */\n      swap1\n      pop\n        /* \"contracts/extend/assemblyBasic.sol\":1859:1862  444 */\n      0x01bc\n        /* \"contracts/extend/assemblyBasic.sol\":1850:1853  arr */\n      dup2\n        /* \"contracts/extend/assemblyBasic.sol\":1854:1855  0 */\n      0x00\n        /* \"contracts/extend/assemblyBasic.sol\":1850:1856  arr[0] */\n      dup2\n      mload\n      dup2\n      lt\n      tag_91\n      jumpi\n      tag_92\n      tag_64\n      jump\t// in\n    tag_92:\n    tag_91:\n      0x20\n      mul\n      0x20\n      add\n      add\n        /* \"contracts/extend/assemblyBasic.sol\":1850:1862  arr[0] = 444 */\n      dup2\n      dup2\n      mstore\n      pop\n      pop\n        /* \"contracts/extend/assemblyBasic.sol\":1881:1884  555 */\n      0x022b\n        /* \"contracts/extend/assemblyBasic.sol\":1872:1875  arr */\n      dup2\n        /* \"contracts/extend/assemblyBasic.sol\":1876:1877  1 */\n      0x01\n        /* \"contracts/extend/assemblyBasic.sol\":1872:1878  arr[1] */\n      dup2\n      mload\n      dup2\n      lt\n      tag_93\n      jumpi\n      tag_94\n      tag_64\n      jump\t// in\n    tag_94:\n    tag_93:\n      0x20\n      mul\n      0x20\n      add\n      add\n        /* \"contracts/extend/assemblyBasic.sol\":1872:1884  arr[1] = 555 */\n      dup2\n      dup2\n      mstore\n      pop\n      pop\n        /* \"contracts/extend/assemblyBasic.sol\":1903:1906  666 */\n      0x029a\n        /* \"contracts/extend/assemblyBasic.sol\":1894:1897  arr */\n      dup2\n        /* \"contracts/extend/assemblyBasic.sol\":1898:1899  2 */\n      0x02\n        /* \"contracts/extend/assemblyBasic.sol\":1894:1900  arr[2] */\n      dup2\n      mload\n      dup2\n      lt\n      tag_95\n      jumpi\n      tag_96\n      tag_64\n      jump\t// in\n    tag_96:\n    tag_95:\n      0x20\n      mul\n      0x20\n      add\n      add\n        /* \"contracts/extend/assemblyBasic.sol\":1894:1906  arr[2] = 666 */\n      dup2\n      dup2\n      mstore\n      pop\n      pop\n        /* \"contracts/extend/assemblyBasic.sol\":1959:1960  0 */\n      0x00\n        /* \"contracts/extend/assemblyBasic.sol\":1954:1957  arr */\n      dup2\n        /* \"contracts/extend/assemblyBasic.sol\":1950:1961  add(arr, 0) */\n      add\n        /* \"contracts/extend/assemblyBasic.sol\":1944:1962  mload(add(arr, 0)) */\n      mload\n        /* \"contracts/extend/assemblyBasic.sol\":1939:1962  a := mload(add(arr, 0)) */\n      swap4\n      pop\n        /* \"contracts/extend/assemblyBasic.sol\":1995:1997  32 */\n      0x20\n        /* \"contracts/extend/assemblyBasic.sol\":1990:1993  arr */\n      dup2\n        /* \"contracts/extend/assemblyBasic.sol\":1986:1998  add(arr, 32) */\n      add\n        /* \"contracts/extend/assemblyBasic.sol\":1980:1999  mload(add(arr, 32)) */\n      mload\n        /* \"contracts/extend/assemblyBasic.sol\":1975:1999  b := mload(add(arr, 32)) */\n      swap3\n      pop\n        /* \"contracts/extend/assemblyBasic.sol\":2032:2034  64 */\n      0x40\n        /* \"contracts/extend/assemblyBasic.sol\":2027:2030  arr */\n      dup2\n        /* \"contracts/extend/assemblyBasic.sol\":2023:2035  add(arr, 64) */\n      add\n        /* \"contracts/extend/assemblyBasic.sol\":2017:2036  mload(add(arr, 64)) */\n      mload\n        /* \"contracts/extend/assemblyBasic.sol\":2012:2036  c := mload(add(arr, 64)) */\n      swap2\n      pop\n        /* \"contracts/extend/assemblyBasic.sol\":1925:2046  {... */\n      pop\n        /* \"contracts/extend/assemblyBasic.sol\":1644:2052  function read2()... */\n      swap1\n      swap2\n      swap3\n      jump\t// out\n        /* \"contracts/extend/assemblyBasic.sol\":114:216  function addSolidity(uint256 x, uint256 y) public pure returns (uint256) {... */\n    tag_45:\n        /* \"contracts/extend/assemblyBasic.sol\":178:185  uint256 */\n      0x00\n        /* \"contracts/extend/assemblyBasic.sol\":208:209  y */\n      dup2\n        /* \"contracts/extend/assemblyBasic.sol\":204:205  x */\n      dup4\n        /* \"contracts/extend/assemblyBasic.sol\":204:209  x + y */\n      tag_98\n      swap2\n      swap1\n      tag_68\n      jump\t// in\n    tag_98:\n        /* \"contracts/extend/assemblyBasic.sol\":197:209  return x + y */\n      swap1\n      pop\n        /* \"contracts/extend/assemblyBasic.sol\":114:216  function addSolidity(uint256 x, uint256 y) public pure returns (uint256) {... */\n      swap3\n      swap2\n      pop\n      pop\n      jump\t// out\n    tag_71:\n      mload(0x40)\n      dup1\n      0x60\n      add\n      0x40\n      mstore\n      dup1\n      0x03\n      swap1\n      0x20\n      dup3\n      mul\n      dup1\n      calldatasize\n      dup4\n      calldatacopy\n      dup1\n      dup3\n      add\n      swap2\n      pop\n      pop\n      swap1\n      pop\n      pop\n      swap1\n      jump\t// out\n        /* \"#utility.yul\":7:82   */\n    tag_99:\n        /* \"#utility.yul\":40:46   */\n      0x00\n        /* \"#utility.yul\":73:75   */\n      0x40\n        /* \"#utility.yul\":67:76   */\n      mload\n        /* \"#utility.yul\":57:76   */\n      swap1\n      pop\n        /* \"#utility.yul\":7:82   */\n      swap1\n      jump\t// out\n        /* \"#utility.yul\":88:205   */\n    tag_100:\n        /* \"#utility.yul\":197:198   */\n      0x00\n        /* \"#utility.yul\":194:195   */\n      0x00\n        /* \"#utility.yul\":187:199   */\n      revert\n        /* \"#utility.yul\":211:328   */\n    tag_101:\n        /* \"#utility.yul\":320:321   */\n      0x00\n        /* \"#utility.yul\":317:318   */\n      0x00\n        /* \"#utility.yul\":310:322   */\n      revert\n        /* \"#utility.yul\":334:411   */\n    tag_102:\n        /* \"#utility.yul\":371:378   */\n      0x00\n        /* \"#utility.yul\":400:405   */\n      dup2\n        /* \"#utility.yul\":389:405   */\n      swap1\n      pop\n        /* \"#utility.yul\":334:411   */\n      swap2\n      swap1\n      pop\n      jump\t// out\n        /* \"#utility.yul\":417:539   */\n    tag_103:\n        /* \"#utility.yul\":490:514   */\n      tag_131\n        /* \"#utility.yul\":508:513   */\n      dup2\n        /* \"#utility.yul\":490:514   */\n      tag_102\n      jump\t// in\n    tag_131:\n        /* \"#utility.yul\":483:488   */\n      dup2\n        /* \"#utility.yul\":480:515   */\n      eq\n        /* \"#utility.yul\":470:533   */\n      tag_132\n      jumpi\n        /* \"#utility.yul\":529:530   */\n      0x00\n        /* \"#utility.yul\":526:527   */\n      0x00\n        /* \"#utility.yul\":519:531   */\n      revert\n        /* \"#utility.yul\":470:533   */\n    tag_132:\n        /* \"#utility.yul\":417:539   */\n      pop\n      jump\t// out\n        /* \"#utility.yul\":545:684   */\n    tag_104:\n        /* \"#utility.yul\":591:596   */\n      0x00\n        /* \"#utility.yul\":629:635   */\n      dup2\n        /* \"#utility.yul\":616:636   */\n      calldataload\n        /* \"#utility.yul\":607:636   */\n      swap1\n      pop\n        /* \"#utility.yul\":645:678   */\n      tag_134\n        /* \"#utility.yul\":672:677   */\n      dup2\n        /* \"#utility.yul\":645:678   */\n      tag_103\n      jump\t// in\n    tag_134:\n        /* \"#utility.yul\":545:684   */\n      swap3\n      swap2\n      pop\n      pop\n      jump\t// out\n        /* \"#utility.yul\":690:1164   */\n    tag_14:\n        /* \"#utility.yul\":758:764   */\n      0x00\n        /* \"#utility.yul\":766:772   */\n      0x00\n        /* \"#utility.yul\":815:817   */\n      0x40\n        /* \"#utility.yul\":803:812   */\n      dup4\n        /* \"#utility.yul\":794:801   */\n      dup6\n        /* \"#utility.yul\":790:813   */\n      sub\n        /* \"#utility.yul\":786:818   */\n      slt\n        /* \"#utility.yul\":783:902   */\n      iszero\n      tag_136\n      jumpi\n        /* \"#utility.yul\":821:900   */\n      tag_137\n      tag_100\n      jump\t// in\n    tag_137:\n        /* \"#utility.yul\":783:902   */\n    tag_136:\n        /* \"#utility.yul\":941:942   */\n      0x00\n        /* \"#utility.yul\":966:1019   */\n      tag_138\n        /* \"#utility.yul\":1011:1018   */\n      dup6\n        /* \"#utility.yul\":1002:1008   */\n      dup3\n        /* \"#utility.yul\":991:1000   */\n      dup7\n        /* \"#utility.yul\":987:1009   */\n      add\n        /* \"#utility.yul\":966:1019   */\n      tag_104\n      jump\t// in\n    tag_138:\n        /* \"#utility.yul\":956:1019   */\n      swap3\n      pop\n        /* \"#utility.yul\":912:1029   */\n      pop\n        /* \"#utility.yul\":1068:1070   */\n      0x20\n        /* \"#utility.yul\":1094:1147   */\n      tag_139\n        /* \"#utility.yul\":1139:1146   */\n      dup6\n        /* \"#utility.yul\":1130:1136   */\n      dup3\n        /* \"#utility.yul\":1119:1128   */\n      dup7\n        /* \"#utility.yul\":1115:1137   */\n      add\n        /* \"#utility.yul\":1094:1147   */\n      tag_104\n      jump\t// in\n    tag_139:\n        /* \"#utility.yul\":1084:1147   */\n      swap2\n      pop\n        /* \"#utility.yul\":1039:1157   */\n      pop\n        /* \"#utility.yul\":690:1164   */\n      swap3\n      pop\n      swap3\n      swap1\n      pop\n      jump\t// out\n        /* \"#utility.yul\":1170:1288   */\n    tag_105:\n        /* \"#utility.yul\":1257:1281   */\n      tag_141\n        /* \"#utility.yul\":1275:1280   */\n      dup2\n        /* \"#utility.yul\":1257:1281   */\n      tag_102\n      jump\t// in\n    tag_141:\n        /* \"#utility.yul\":1252:1255   */\n      dup3\n        /* \"#utility.yul\":1245:1282   */\n      mstore\n        /* \"#utility.yul\":1170:1288   */\n      pop\n      pop\n      jump\t// out\n        /* \"#utility.yul\":1294:1516   */\n    tag_17:\n        /* \"#utility.yul\":1387:1391   */\n      0x00\n        /* \"#utility.yul\":1425:1427   */\n      0x20\n        /* \"#utility.yul\":1414:1423   */\n      dup3\n        /* \"#utility.yul\":1410:1428   */\n      add\n        /* \"#utility.yul\":1402:1428   */\n      swap1\n      pop\n        /* \"#utility.yul\":1438:1509   */\n      tag_143\n        /* \"#utility.yul\":1506:1507   */\n      0x00\n        /* \"#utility.yul\":1495:1504   */\n      dup4\n        /* \"#utility.yul\":1491:1508   */\n      add\n        /* \"#utility.yul\":1482:1488   */\n      dup5\n        /* \"#utility.yul\":1438:1509   */\n      tag_105\n      jump\t// in\n    tag_143:\n        /* \"#utility.yul\":1294:1516   */\n      swap3\n      swap2\n      pop\n      pop\n      jump\t// out\n        /* \"#utility.yul\":1522:1851   */\n    tag_20:\n        /* \"#utility.yul\":1581:1587   */\n      0x00\n        /* \"#utility.yul\":1630:1632   */\n      0x20\n        /* \"#utility.yul\":1618:1627   */\n      dup3\n        /* \"#utility.yul\":1609:1616   */\n      dup5\n        /* \"#utility.yul\":1605:1628   */\n      sub\n        /* \"#utility.yul\":1601:1633   */\n      slt\n        /* \"#utility.yul\":1598:1717   */\n      iszero\n      tag_145\n      jumpi\n        /* \"#utility.yul\":1636:1715   */\n      tag_146\n      tag_100\n      jump\t// in\n    tag_146:\n        /* \"#utility.yul\":1598:1717   */\n    tag_145:\n        /* \"#utility.yul\":1756:1757   */\n      0x00\n        /* \"#utility.yul\":1781:1834   */\n      tag_147\n        /* \"#utility.yul\":1826:1833   */\n      dup5\n        /* \"#utility.yul\":1817:1823   */\n      dup3\n        /* \"#utility.yul\":1806:1815   */\n      dup6\n        /* \"#utility.yul\":1802:1824   */\n      add\n        /* \"#utility.yul\":1781:1834   */\n      tag_104\n      jump\t// in\n    tag_147:\n        /* \"#utility.yul\":1771:1834   */\n      swap2\n      pop\n        /* \"#utility.yul\":1727:1844   */\n      pop\n        /* \"#utility.yul\":1522:1851   */\n      swap3\n      swap2\n      pop\n      pop\n      jump\t// out\n        /* \"#utility.yul\":1857:1974   */\n    tag_106:\n        /* \"#utility.yul\":1966:1967   */\n      0x00\n        /* \"#utility.yul\":1963:1964   */\n      0x00\n        /* \"#utility.yul\":1956:1968   */\n      revert\n        /* \"#utility.yul\":1980:2097   */\n    tag_107:\n        /* \"#utility.yul\":2089:2090   */\n      0x00\n        /* \"#utility.yul\":2086:2087   */\n      0x00\n        /* \"#utility.yul\":2079:2091   */\n      revert\n        /* \"#utility.yul\":2103:2205   */\n    tag_108:\n        /* \"#utility.yul\":2144:2150   */\n      0x00\n        /* \"#utility.yul\":2195:2197   */\n      0x1f\n        /* \"#utility.yul\":2191:2198   */\n      not\n        /* \"#utility.yul\":2186:2188   */\n      0x1f\n        /* \"#utility.yul\":2179:2184   */\n      dup4\n        /* \"#utility.yul\":2175:2189   */\n      add\n        /* \"#utility.yul\":2171:2199   */\n      and\n        /* \"#utility.yul\":2161:2199   */\n      swap1\n      pop\n        /* \"#utility.yul\":2103:2205   */\n      swap2\n      swap1\n      pop\n      jump\t// out\n        /* \"#utility.yul\":2211:2391   */\n    tag_57:\n        /* \"#utility.yul\":2259:2336   */\n      0x4e487b7100000000000000000000000000000000000000000000000000000000\n        /* \"#utility.yul\":2256:2257   */\n      0x00\n        /* \"#utility.yul\":2249:2337   */\n      mstore\n        /* \"#utility.yul\":2356:2360   */\n      0x41\n        /* \"#utility.yul\":2353:2354   */\n      0x04\n        /* \"#utility.yul\":2346:2361   */\n      mstore\n        /* \"#utility.yul\":2380:2384   */\n      0x24\n        /* \"#utility.yul\":2377:2378   */\n      0x00\n        /* \"#utility.yul\":2370:2385   */\n      revert\n        /* \"#utility.yul\":2397:2678   */\n    tag_109:\n        /* \"#utility.yul\":2480:2507   */\n      tag_153\n        /* \"#utility.yul\":2502:2506   */\n      dup3\n        /* \"#utility.yul\":2480:2507   */\n      tag_108\n      jump\t// in\n    tag_153:\n        /* \"#utility.yul\":2472:2478   */\n      dup2\n        /* \"#utility.yul\":2468:2508   */\n      add\n        /* \"#utility.yul\":2610:2616   */\n      dup2\n        /* \"#utility.yul\":2598:2608   */\n      dup2\n        /* \"#utility.yul\":2595:2617   */\n      lt\n        /* \"#utility.yul\":2574:2592   */\n      0xffffffffffffffff\n        /* \"#utility.yul\":2562:2572   */\n      dup3\n        /* \"#utility.yul\":2559:2593   */\n      gt\n        /* \"#utility.yul\":2556:2618   */\n      or\n        /* \"#utility.yul\":2553:2641   */\n      iszero\n      tag_154\n      jumpi\n        /* \"#utility.yul\":2621:2639   */\n      tag_155\n      tag_57\n      jump\t// in\n    tag_155:\n        /* \"#utility.yul\":2553:2641   */\n    tag_154:\n        /* \"#utility.yul\":2661:2671   */\n      dup1\n        /* \"#utility.yul\":2657:2659   */\n      0x40\n        /* \"#utility.yul\":2650:2672   */\n      mstore\n        /* \"#utility.yul\":2440:2678   */\n      pop\n        /* \"#utility.yul\":2397:2678   */\n      pop\n      pop\n      jump\t// out\n        /* \"#utility.yul\":2684:2813   */\n    tag_110:\n        /* \"#utility.yul\":2718:2724   */\n      0x00\n        /* \"#utility.yul\":2745:2765   */\n      tag_157\n      tag_99\n      jump\t// in\n    tag_157:\n        /* \"#utility.yul\":2735:2765   */\n      swap1\n      pop\n        /* \"#utility.yul\":2774:2807   */\n      tag_158\n        /* \"#utility.yul\":2802:2806   */\n      dup3\n        /* \"#utility.yul\":2794:2800   */\n      dup3\n        /* \"#utility.yul\":2774:2807   */\n      tag_109\n      jump\t// in\n    tag_158:\n        /* \"#utility.yul\":2684:2813   */\n      swap2\n      swap1\n      pop\n      jump\t// out\n        /* \"#utility.yul\":2819:3126   */\n    tag_111:\n        /* \"#utility.yul\":2880:2884   */\n      0x00\n        /* \"#utility.yul\":2970:2988   */\n      0xffffffffffffffff\n        /* \"#utility.yul\":2962:2968   */\n      dup3\n        /* \"#utility.yul\":2959:2989   */\n      gt\n        /* \"#utility.yul\":2956:3012   */\n      iszero\n      tag_160\n      jumpi\n        /* \"#utility.yul\":2992:3010   */\n      tag_161\n      tag_57\n      jump\t// in\n    tag_161:\n        /* \"#utility.yul\":2956:3012   */\n    tag_160:\n        /* \"#utility.yul\":3030:3059   */\n      tag_162\n        /* \"#utility.yul\":3052:3058   */\n      dup3\n        /* \"#utility.yul\":3030:3059   */\n      tag_108\n      jump\t// in\n    tag_162:\n        /* \"#utility.yul\":3022:3059   */\n      swap1\n      pop\n        /* \"#utility.yul\":3114:3118   */\n      0x20\n        /* \"#utility.yul\":3108:3112   */\n      dup2\n        /* \"#utility.yul\":3104:3119   */\n      add\n        /* \"#utility.yul\":3096:3119   */\n      swap1\n      pop\n        /* \"#utility.yul\":2819:3126   */\n      swap2\n      swap1\n      pop\n      jump\t// out\n        /* \"#utility.yul\":3132:3280   */\n    tag_112:\n        /* \"#utility.yul\":3230:3236   */\n      dup3\n        /* \"#utility.yul\":3225:3228   */\n      dup2\n        /* \"#utility.yul\":3220:3223   */\n      dup4\n        /* \"#utility.yul\":3207:3237   */\n      calldatacopy\n        /* \"#utility.yul\":3271:3272   */\n      0x00\n        /* \"#utility.yul\":3262:3268   */\n      dup4\n        /* \"#utility.yul\":3257:3260   */\n      dup4\n        /* \"#utility.yul\":3253:3269   */\n      add\n        /* \"#utility.yul\":3246:3273   */\n      mstore\n        /* \"#utility.yul\":3132:3280   */\n      pop\n      pop\n      pop\n      jump\t// out\n        /* \"#utility.yul\":3286:3709   */\n    tag_113:\n        /* \"#utility.yul\":3363:3368   */\n      0x00\n        /* \"#utility.yul\":3388:3453   */\n      tag_165\n        /* \"#utility.yul\":3404:3452   */\n      tag_166\n        /* \"#utility.yul\":3445:3451   */\n      dup5\n        /* \"#utility.yul\":3404:3452   */\n      tag_111\n      jump\t// in\n    tag_166:\n        /* \"#utility.yul\":3388:3453   */\n      tag_110\n      jump\t// in\n    tag_165:\n        /* \"#utility.yul\":3379:3453   */\n      swap1\n      pop\n        /* \"#utility.yul\":3476:3482   */\n      dup3\n        /* \"#utility.yul\":3469:3474   */\n      dup2\n        /* \"#utility.yul\":3462:3483   */\n      mstore\n        /* \"#utility.yul\":3514:3518   */\n      0x20\n        /* \"#utility.yul\":3507:3512   */\n      dup2\n        /* \"#utility.yul\":3503:3519   */\n      add\n        /* \"#utility.yul\":3552:3555   */\n      dup5\n        /* \"#utility.yul\":3543:3549   */\n      dup5\n        /* \"#utility.yul\":3538:3541   */\n      dup5\n        /* \"#utility.yul\":3534:3550   */\n      add\n        /* \"#utility.yul\":3531:3556   */\n      gt\n        /* \"#utility.yul\":3528:3640   */\n      iszero\n      tag_167\n      jumpi\n        /* \"#utility.yul\":3559:3638   */\n      tag_168\n      tag_107\n      jump\t// in\n    tag_168:\n        /* \"#utility.yul\":3528:3640   */\n    tag_167:\n        /* \"#utility.yul\":3649:3703   */\n      tag_169\n        /* \"#utility.yul\":3696:3702   */\n      dup5\n        /* \"#utility.yul\":3691:3694   */\n      dup3\n        /* \"#utility.yul\":3686:3689   */\n      dup6\n        /* \"#utility.yul\":3649:3703   */\n      tag_112\n      jump\t// in\n    tag_169:\n        /* \"#utility.yul\":3369:3709   */\n      pop\n        /* \"#utility.yul\":3286:3709   */\n      swap4\n      swap3\n      pop\n      pop\n      pop\n      jump\t// out\n        /* \"#utility.yul\":3728:4066   */\n    tag_114:\n        /* \"#utility.yul\":3783:3788   */\n      0x00\n        /* \"#utility.yul\":3832:3835   */\n      dup3\n        /* \"#utility.yul\":3825:3829   */\n      0x1f\n        /* \"#utility.yul\":3817:3823   */\n      dup4\n        /* \"#utility.yul\":3813:3830   */\n      add\n        /* \"#utility.yul\":3809:3836   */\n      slt\n        /* \"#utility.yul\":3799:3921   */\n      tag_171\n      jumpi\n        /* \"#utility.yul\":3840:3919   */\n      tag_172\n      tag_106\n      jump\t// in\n    tag_172:\n        /* \"#utility.yul\":3799:3921   */\n    tag_171:\n        /* \"#utility.yul\":3957:3963   */\n      dup2\n        /* \"#utility.yul\":3944:3964   */\n      calldataload\n        /* \"#utility.yul\":3982:4060   */\n      tag_173\n        /* \"#utility.yul\":4056:4059   */\n      dup5\n        /* \"#utility.yul\":4048:4054   */\n      dup3\n        /* \"#utility.yul\":4041:4045   */\n      0x20\n        /* \"#utility.yul\":4033:4039   */\n      dup7\n        /* \"#utility.yul\":4029:4046   */\n      add\n        /* \"#utility.yul\":3982:4060   */\n      tag_113\n      jump\t// in\n    tag_173:\n        /* \"#utility.yul\":3973:4060   */\n      swap2\n      pop\n        /* \"#utility.yul\":3789:4066   */\n      pop\n        /* \"#utility.yul\":3728:4066   */\n      swap3\n      swap2\n      pop\n      pop\n      jump\t// out\n        /* \"#utility.yul\":4072:4579   */\n    tag_25:\n        /* \"#utility.yul\":4140:4146   */\n      0x00\n        /* \"#utility.yul\":4189:4191   */\n      0x20\n        /* \"#utility.yul\":4177:4186   */\n      dup3\n        /* \"#utility.yul\":4168:4175   */\n      dup5\n        /* \"#utility.yul\":4164:4187   */\n      sub\n        /* \"#utility.yul\":4160:4192   */\n      slt\n        /* \"#utility.yul\":4157:4276   */\n      iszero\n      tag_175\n      jumpi\n        /* \"#utility.yul\":4195:4274   */\n      tag_176\n      tag_100\n      jump\t// in\n    tag_176:\n        /* \"#utility.yul\":4157:4276   */\n    tag_175:\n        /* \"#utility.yul\":4343:4344   */\n      0x00\n        /* \"#utility.yul\":4332:4341   */\n      dup3\n        /* \"#utility.yul\":4328:4345   */\n      add\n        /* \"#utility.yul\":4315:4346   */\n      calldataload\n        /* \"#utility.yul\":4373:4391   */\n      0xffffffffffffffff\n        /* \"#utility.yul\":4365:4371   */\n      dup2\n        /* \"#utility.yul\":4362:4392   */\n      gt\n        /* \"#utility.yul\":4359:4476   */\n      iszero\n      tag_177\n      jumpi\n        /* \"#utility.yul\":4395:4474   */\n      tag_178\n      tag_101\n      jump\t// in\n    tag_178:\n        /* \"#utility.yul\":4359:4476   */\n    tag_177:\n        /* \"#utility.yul\":4500:4562   */\n      tag_179\n        /* \"#utility.yul\":4554:4561   */\n      dup5\n        /* \"#utility.yul\":4545:4551   */\n      dup3\n        /* \"#utility.yul\":4534:4543   */\n      dup6\n        /* \"#utility.yul\":4530:4552   */\n      add\n        /* \"#utility.yul\":4500:4562   */\n      tag_114\n      jump\t// in\n    tag_179:\n        /* \"#utility.yul\":4490:4562   */\n      swap2\n      pop\n        /* \"#utility.yul\":4286:4572   */\n      pop\n        /* \"#utility.yul\":4072:4579   */\n      swap3\n      swap2\n      pop\n      pop\n      jump\t// out\n        /* \"#utility.yul\":4585:4699   */\n    tag_115:\n        /* \"#utility.yul\":4652:4658   */\n      0x00\n        /* \"#utility.yul\":4686:4691   */\n      dup2\n        /* \"#utility.yul\":4680:4692   */\n      mload\n        /* \"#utility.yul\":4670:4692   */\n      swap1\n      pop\n        /* \"#utility.yul\":4585:4699   */\n      swap2\n      swap1\n      pop\n      jump\t// out\n        /* \"#utility.yul\":4705:4889   */\n    tag_116:\n        /* \"#utility.yul\":4804:4815   */\n      0x00\n        /* \"#utility.yul\":4838:4844   */\n      dup3\n        /* \"#utility.yul\":4833:4836   */\n      dup3\n        /* \"#utility.yul\":4826:4845   */\n      mstore\n        /* \"#utility.yul\":4878:4882   */\n      0x20\n        /* \"#utility.yul\":4873:4876   */\n      dup3\n        /* \"#utility.yul\":4869:4883   */\n      add\n        /* \"#utility.yul\":4854:4883   */\n      swap1\n      pop\n        /* \"#utility.yul\":4705:4889   */\n      swap3\n      swap2\n      pop\n      pop\n      jump\t// out\n        /* \"#utility.yul\":4895:5027   */\n    tag_117:\n        /* \"#utility.yul\":4962:4966   */\n      0x00\n        /* \"#utility.yul\":4985:4988   */\n      dup2\n        /* \"#utility.yul\":4977:4988   */\n      swap1\n      pop\n        /* \"#utility.yul\":5015:5019   */\n      0x20\n        /* \"#utility.yul\":5010:5013   */\n      dup3\n        /* \"#utility.yul\":5006:5020   */\n      add\n        /* \"#utility.yul\":4998:5020   */\n      swap1\n      pop\n        /* \"#utility.yul\":4895:5027   */\n      swap2\n      swap1\n      pop\n      jump\t// out\n        /* \"#utility.yul\":5033:5110   */\n    tag_118:\n        /* \"#utility.yul\":5070:5077   */\n      0x00\n        /* \"#utility.yul\":5099:5104   */\n      dup2\n        /* \"#utility.yul\":5088:5104   */\n      swap1\n      pop\n        /* \"#utility.yul\":5033:5110   */\n      swap2\n      swap1\n      pop\n      jump\t// out\n        /* \"#utility.yul\":5116:5224   */\n    tag_119:\n        /* \"#utility.yul\":5193:5217   */\n      tag_185\n        /* \"#utility.yul\":5211:5216   */\n      dup2\n        /* \"#utility.yul\":5193:5217   */\n      tag_118\n      jump\t// in\n    tag_185:\n        /* \"#utility.yul\":5188:5191   */\n      dup3\n        /* \"#utility.yul\":5181:5218   */\n      mstore\n        /* \"#utility.yul\":5116:5224   */\n      pop\n      pop\n      jump\t// out\n        /* \"#utility.yul\":5230:5409   */\n    tag_120:\n        /* \"#utility.yul\":5299:5309   */\n      0x00\n        /* \"#utility.yul\":5320:5366   */\n      tag_187\n        /* \"#utility.yul\":5362:5365   */\n      dup4\n        /* \"#utility.yul\":5354:5360   */\n      dup4\n        /* \"#utility.yul\":5320:5366   */\n      tag_119\n      jump\t// in\n    tag_187:\n        /* \"#utility.yul\":5398:5402   */\n      0x20\n        /* \"#utility.yul\":5393:5396   */\n      dup4\n        /* \"#utility.yul\":5389:5403   */\n      add\n        /* \"#utility.yul\":5375:5403   */\n      swap1\n      pop\n        /* \"#utility.yul\":5230:5409   */\n      swap3\n      swap2\n      pop\n      pop\n      jump\t// out\n        /* \"#utility.yul\":5415:5528   */\n    tag_121:\n        /* \"#utility.yul\":5485:5489   */\n      0x00\n        /* \"#utility.yul\":5517:5521   */\n      0x20\n        /* \"#utility.yul\":5512:5515   */\n      dup3\n        /* \"#utility.yul\":5508:5522   */\n      add\n        /* \"#utility.yul\":5500:5522   */\n      swap1\n      pop\n        /* \"#utility.yul\":5415:5528   */\n      swap2\n      swap1\n      pop\n      jump\t// out\n        /* \"#utility.yul\":5564:6296   */\n    tag_122:\n        /* \"#utility.yul\":5683:5686   */\n      0x00\n        /* \"#utility.yul\":5712:5766   */\n      tag_190\n        /* \"#utility.yul\":5760:5765   */\n      dup3\n        /* \"#utility.yul\":5712:5766   */\n      tag_115\n      jump\t// in\n    tag_190:\n        /* \"#utility.yul\":5782:5868   */\n      tag_191\n        /* \"#utility.yul\":5861:5867   */\n      dup2\n        /* \"#utility.yul\":5856:5859   */\n      dup6\n        /* \"#utility.yul\":5782:5868   */\n      tag_116\n      jump\t// in\n    tag_191:\n        /* \"#utility.yul\":5775:5868   */\n      swap4\n      pop\n        /* \"#utility.yul\":5892:5948   */\n      tag_192\n        /* \"#utility.yul\":5942:5947   */\n      dup4\n        /* \"#utility.yul\":5892:5948   */\n      tag_117\n      jump\t// in\n    tag_192:\n        /* \"#utility.yul\":5971:5978   */\n      dup1\n        /* \"#utility.yul\":6002:6003   */\n      0x00\n        /* \"#utility.yul\":5987:6271   */\n    tag_193:\n        /* \"#utility.yul\":6012:6018   */\n      dup4\n        /* \"#utility.yul\":6009:6010   */\n      dup2\n        /* \"#utility.yul\":6006:6019   */\n      lt\n        /* \"#utility.yul\":5987:6271   */\n      iszero\n      tag_195\n      jumpi\n        /* \"#utility.yul\":6088:6094   */\n      dup2\n        /* \"#utility.yul\":6082:6095   */\n      mload\n        /* \"#utility.yul\":6115:6178   */\n      tag_196\n        /* \"#utility.yul\":6174:6177   */\n      dup9\n        /* \"#utility.yul\":6159:6172   */\n      dup3\n        /* \"#utility.yul\":6115:6178   */\n      tag_120\n      jump\t// in\n    tag_196:\n        /* \"#utility.yul\":6108:6178   */\n      swap8\n      pop\n        /* \"#utility.yul\":6201:6261   */\n      tag_197\n        /* \"#utility.yul\":6254:6260   */\n      dup4\n        /* \"#utility.yul\":6201:6261   */\n      tag_121\n      jump\t// in\n    tag_197:\n        /* \"#utility.yul\":6191:6261   */\n      swap3\n      pop\n        /* \"#utility.yul\":6047:6271   */\n      pop\n        /* \"#utility.yul\":6034:6035   */\n      0x01\n        /* \"#utility.yul\":6031:6032   */\n      dup2\n        /* \"#utility.yul\":6027:6036   */\n      add\n        /* \"#utility.yul\":6022:6036   */\n      swap1\n      pop\n        /* \"#utility.yul\":5987:6271   */\n      jump(tag_193)\n    tag_195:\n        /* \"#utility.yul\":5991:6005   */\n      pop\n        /* \"#utility.yul\":6287:6290   */\n      dup6\n        /* \"#utility.yul\":6280:6290   */\n      swap4\n      pop\n        /* \"#utility.yul\":5688:6296   */\n      pop\n      pop\n      pop\n        /* \"#utility.yul\":5564:6296   */\n      swap3\n      swap2\n      pop\n      pop\n      jump\t// out\n        /* \"#utility.yul\":6302:6675   */\n    tag_28:\n        /* \"#utility.yul\":6445:6449   */\n      0x00\n        /* \"#utility.yul\":6483:6485   */\n      0x20\n        /* \"#utility.yul\":6472:6481   */\n      dup3\n        /* \"#utility.yul\":6468:6486   */\n      add\n        /* \"#utility.yul\":6460:6486   */\n      swap1\n      pop\n        /* \"#utility.yul\":6532:6541   */\n      dup2\n        /* \"#utility.yul\":6526:6530   */\n      dup2\n        /* \"#utility.yul\":6522:6542   */\n      sub\n        /* \"#utility.yul\":6518:6519   */\n      0x00\n        /* \"#utility.yul\":6507:6516   */\n      dup4\n        /* \"#utility.yul\":6503:6520   */\n      add\n        /* \"#utility.yul\":6496:6543   */\n      mstore\n        /* \"#utility.yul\":6560:6668   */\n      tag_199\n        /* \"#utility.yul\":6663:6667   */\n      dup2\n        /* \"#utility.yul\":6654:6660   */\n      dup5\n        /* \"#utility.yul\":6560:6668   */\n      tag_122\n      jump\t// in\n    tag_199:\n        /* \"#utility.yul\":6552:6668   */\n      swap1\n      pop\n        /* \"#utility.yul\":6302:6675   */\n      swap3\n      swap2\n      pop\n      pop\n      jump\t// out\n        /* \"#utility.yul\":6681:7123   */\n    tag_32:\n        /* \"#utility.yul\":6830:6834   */\n      0x00\n        /* \"#utility.yul\":6868:6870   */\n      0x60\n        /* \"#utility.yul\":6857:6866   */\n      dup3\n        /* \"#utility.yul\":6853:6871   */\n      add\n        /* \"#utility.yul\":6845:6871   */\n      swap1\n      pop\n        /* \"#utility.yul\":6881:6952   */\n      tag_201\n        /* \"#utility.yul\":6949:6950   */\n      0x00\n        /* \"#utility.yul\":6938:6947   */\n      dup4\n        /* \"#utility.yul\":6934:6951   */\n      add\n        /* \"#utility.yul\":6925:6931   */\n      dup7\n        /* \"#utility.yul\":6881:6952   */\n      tag_105\n      jump\t// in\n    tag_201:\n        /* \"#utility.yul\":6962:7034   */\n      tag_202\n        /* \"#utility.yul\":7030:7032   */\n      0x20\n        /* \"#utility.yul\":7019:7028   */\n      dup4\n        /* \"#utility.yul\":7015:7033   */\n      add\n        /* \"#utility.yul\":7006:7012   */\n      dup6\n        /* \"#utility.yul\":6962:7034   */\n      tag_105\n      jump\t// in\n    tag_202:\n        /* \"#utility.yul\":7044:7116   */\n      tag_203\n        /* \"#utility.yul\":7112:7114   */\n      0x40\n        /* \"#utility.yul\":7101:7110   */\n      dup4\n        /* \"#utility.yul\":7097:7115   */\n      add\n        /* \"#utility.yul\":7088:7094   */\n      dup5\n        /* \"#utility.yul\":7044:7116   */\n      tag_105\n      jump\t// in\n    tag_203:\n        /* \"#utility.yul\":6681:7123   */\n      swap5\n      swap4\n      pop\n      pop\n      pop\n      pop\n      jump\t// out\n        /* \"#utility.yul\":7129:7309   */\n    tag_123:\n        /* \"#utility.yul\":7177:7254   */\n      0x4e487b7100000000000000000000000000000000000000000000000000000000\n        /* \"#utility.yul\":7174:7175   */\n      0x00\n        /* \"#utility.yul\":7167:7255   */\n      mstore\n        /* \"#utility.yul\":7274:7278   */\n      0x12\n        /* \"#utility.yul\":7271:7272   */\n      0x04\n        /* \"#utility.yul\":7264:7279   */\n      mstore\n        /* \"#utility.yul\":7298:7302   */\n      0x24\n        /* \"#utility.yul\":7295:7296   */\n      0x00\n        /* \"#utility.yul\":7288:7303   */\n      revert\n        /* \"#utility.yul\":7315:7495   */\n    tag_124:\n        /* \"#utility.yul\":7363:7440   */\n      0x4e487b7100000000000000000000000000000000000000000000000000000000\n        /* \"#utility.yul\":7360:7361   */\n      0x00\n        /* \"#utility.yul\":7353:7441   */\n      mstore\n        /* \"#utility.yul\":7460:7464   */\n      0x11\n        /* \"#utility.yul\":7457:7458   */\n      0x04\n        /* \"#utility.yul\":7450:7465   */\n      mstore\n        /* \"#utility.yul\":7484:7488   */\n      0x24\n        /* \"#utility.yul\":7481:7482   */\n      0x00\n        /* \"#utility.yul\":7474:7489   */\n      revert\n        /* \"#utility.yul\":7501:7686   */\n    tag_54:\n        /* \"#utility.yul\":7541:7542   */\n      0x00\n        /* \"#utility.yul\":7558:7578   */\n      tag_207\n        /* \"#utility.yul\":7576:7577   */\n      dup3\n        /* \"#utility.yul\":7558:7578   */\n      tag_102\n      jump\t// in\n    tag_207:\n        /* \"#utility.yul\":7553:7578   */\n      swap2\n      pop\n        /* \"#utility.yul\":7592:7612   */\n      tag_208\n        /* \"#utility.yul\":7610:7611   */\n      dup4\n        /* \"#utility.yul\":7592:7612   */\n      tag_102\n      jump\t// in\n    tag_208:\n        /* \"#utility.yul\":7587:7612   */\n      swap3\n      pop\n        /* \"#utility.yul\":7631:7632   */\n      dup3\n        /* \"#utility.yul\":7621:7656   */\n      tag_209\n      jumpi\n        /* \"#utility.yul\":7636:7654   */\n      tag_210\n      tag_123\n      jump\t// in\n    tag_210:\n        /* \"#utility.yul\":7621:7656   */\n    tag_209:\n        /* \"#utility.yul\":7678:7679   */\n      dup3\n        /* \"#utility.yul\":7675:7676   */\n      dup3\n        /* \"#utility.yul\":7671:7680   */\n      div\n        /* \"#utility.yul\":7666:7680   */\n      swap1\n      pop\n        /* \"#utility.yul\":7501:7686   */\n      swap3\n      swap2\n      pop\n      pop\n      jump\t// out\n        /* \"#utility.yul\":7692:7872   */\n    tag_64:\n        /* \"#utility.yul\":7740:7817   */\n      0x4e487b7100000000000000000000000000000000000000000000000000000000\n        /* \"#utility.yul\":7737:7738   */\n      0x00\n        /* \"#utility.yul\":7730:7818   */\n      mstore\n        /* \"#utility.yul\":7837:7841   */\n      0x32\n        /* \"#utility.yul\":7834:7835   */\n      0x04\n        /* \"#utility.yul\":7827:7842   */\n      mstore\n        /* \"#utility.yul\":7861:7865   */\n      0x24\n        /* \"#utility.yul\":7858:7859   */\n      0x00\n        /* \"#utility.yul\":7851:7866   */\n      revert\n        /* \"#utility.yul\":7878:8111   */\n    tag_66:\n        /* \"#utility.yul\":7917:7920   */\n      0x00\n        /* \"#utility.yul\":7940:7964   */\n      tag_213\n        /* \"#utility.yul\":7958:7963   */\n      dup3\n        /* \"#utility.yul\":7940:7964   */\n      tag_102\n      jump\t// in\n    tag_213:\n        /* \"#utility.yul\":7931:7964   */\n      swap2\n      pop\n        /* \"#utility.yul\":7986:8052   */\n      0xffffffffffffffffffffffffffffffffffffffffffffffffffffffffffffffff\n        /* \"#utility.yul\":7979:7984   */\n      dup3\n        /* \"#utility.yul\":7976:8053   */\n      sub\n        /* \"#utility.yul\":7973:8076   */\n      tag_214\n      jumpi\n        /* \"#utility.yul\":8056:8074   */\n      tag_215\n      tag_124\n      jump\t// in\n    tag_215:\n        /* \"#utility.yul\":7973:8076   */\n    tag_214:\n        /* \"#utility.yul\":8103:8104   */\n      0x01\n        /* \"#utility.yul\":8096:8101   */\n      dup3\n        /* \"#utility.yul\":8092:8105   */\n      add\n        /* \"#utility.yul\":8085:8105   */\n      swap1\n      pop\n        /* \"#utility.yul\":7878:8111   */\n      swap2\n      swap1\n      pop\n      jump\t// out\n        /* \"#utility.yul\":8117:8308   */\n    tag_68:\n        /* \"#utility.yul\":8157:8160   */\n      0x00\n        /* \"#utility.yul\":8176:8196   */\n      tag_217\n        /* \"#utility.yul\":8194:8195   */\n      dup3\n        /* \"#utility.yul\":8176:8196   */\n      tag_102\n      jump\t// in\n    tag_217:\n        /* \"#utility.yul\":8171:8196   */\n      swap2\n      pop\n        /* \"#utility.yul\":8210:8230   */\n      tag_218\n        /* \"#utility.yul\":8228:8229   */\n      dup4\n        /* \"#utility.yul\":8210:8230   */\n      tag_102\n      jump\t// in\n    tag_218:\n        /* \"#utility.yul\":8205:8230   */\n      swap3\n      pop\n        /* \"#utility.yul\":8253:8254   */\n      dup3\n        /* \"#utility.yul\":8250:8251   */\n      dup3\n        /* \"#utility.yul\":8246:8255   */\n      add\n        /* \"#utility.yul\":8239:8255   */\n      swap1\n      pop\n        /* \"#utility.yul\":8274:8277   */\n      dup1\n        /* \"#utility.yul\":8271:8272   */\n      dup3\n        /* \"#utility.yul\":8268:8278   */\n      gt\n        /* \"#utility.yul\":8265:8301   */\n      iszero\n      tag_219\n      jumpi\n        /* \"#utility.yul\":8281:8299   */\n      tag_220\n      tag_124\n      jump\t// in\n    tag_220:\n        /* \"#utility.yul\":8265:8301   */\n    tag_219:\n        /* \"#utility.yul\":8117:8308   */\n      swap3\n      swap2\n      pop\n      pop\n      jump\t// out\n\n    auxdata: 0xa26469706673582212209985191a83b9c8bf7e4150554f7a68bc083749737ca2e77d6db19d73e010262b64736f6c634300081c0033\n}\n",
				"bytecode": {
					"linkReferences": {},
					"object": "6080604052348015600e575f5ffd5b506109b98061001c5f395ff3fe608060405234801561000f575f5ffd5b5060043610610086575f3560e01c8063ab43d31811610059578063ab43d3181461013a578063bbd812031461016a578063c1a52b5014610188578063de9bad0c146101a857610086565b806308bb11141461008a57806317645523146100ba5780634debc578146100ea578063596c89fa1461011a575b5f5ffd5b6100a4600480360381019061009f9190610529565b6101d8565b6040516100b19190610576565b60405180910390f35b6100d460048036038101906100cf919061058f565b6101e7565b6040516100e19190610576565b60405180910390f35b61010460048036038101906100ff91906106f6565b61020b565b60405161011191906107fd565b60405180910390f35b6101226102d2565b6040516101319392919061081d565b60405180910390f35b610154600480360381019061014f919061058f565b610354565b6040516101619190610576565b60405180910390f35b610172610383565b60405161017f9190610576565b60405180910390f35b6101906103dc565b60405161019f9392919061081d565b60405180910390f35b6101c260048036038101906101bd9190610529565b6104ae565b6040516101cf9190610576565b60405180910390f35b5f818301604051818152602081f35b5f5f5b828110156102025781810191506001810190506101ea565b50805f5260205ff35b60605f6020835161021c91906108ac565b90505f8167ffffffffffffffff811115610239576102386105d2565b5b6040519080825280602002602001820160405280156102675781602001602082028036833780820191505090505b5090505f5f90505f602090505b855181116102c6575f81870151905080848481518110610297576102966108dc565b5b60200260200101818152505082806102ae90610909565b935050506020816102bf9190610950565b9050610274565b50819350505050919050565b5f5f5f6102dd6104c3565b606f815f600381106102f2576102f16108dc565b5b60200201818152505060de81600160038110610311576103106108dc565b5b60200201818152505061014d81600260038110610331576103306108dc565b5b6020020181815250505f8101519350602081015192506040810151915050909192565b5f5f5f90505b8281101561037d57808261036e9190610950565b9150808060010191505061035a565b50919050565b5f5f600567ffffffffffffffff8111156103a05761039f6105d2565b5b6040519080825280602002602001820160405280156103ce5781602001602082028036833780820191505090505b509050602081015191505090565b5f5f5f5f600367ffffffffffffffff8111156103fb576103fa6105d2565b5b6040519080825280602002602001820160405280156104295781602001602082028036833780820191505090505b5090506101bc815f81518110610442576104416108dc565b5b60200260200101818152505061022b81600181518110610465576104646108dc565b5b60200260200101818152505061029a81600281518110610488576104876108dc565b5b6020026020010181815250505f8101519350602081015192506040810151915050909192565b5f81836104bb9190610950565b905092915050565b6040518060600160405280600390602082028036833780820191505090505090565b5f604051905090565b5f5ffd5b5f5ffd5b5f819050919050565b610508816104f6565b8114610512575f5ffd5b50565b5f81359050610523816104ff565b92915050565b5f5f6040838503121561053f5761053e6104ee565b5b5f61054c85828601610515565b925050602061055d85828601610515565b9150509250929050565b610570816104f6565b82525050565b5f6020820190506105895f830184610567565b92915050565b5f602082840312156105a4576105a36104ee565b5b5f6105b184828501610515565b91505092915050565b5f5ffd5b5f5ffd5b5f601f19601f8301169050919050565b7f4e487b71000000000000000000000000000000000000000000000000000000005f52604160045260245ffd5b610608826105c2565b810181811067ffffffffffffffff82111715610627576106266105d2565b5b80604052505050565b5f6106396104e5565b905061064582826105ff565b919050565b5f67ffffffffffffffff821115610664576106636105d2565b5b61066d826105c2565b9050602081019050919050565b828183375f83830152505050565b5f61069a6106958461064a565b610630565b9050828152602081018484840111156106b6576106b56105be565b5b6106c184828561067a565b509392505050565b5f82601f8301126106dd576106dc6105ba565b5b81356106ed848260208601610688565b91505092915050565b5f6020828403121561070b5761070a6104ee565b5b5f82013567ffffffffffffffff811115610728576107276104f2565b5b610734848285016106c9565b91505092915050565b5f81519050919050565b5f82825260208201905092915050565b5f819050602082019050919050565b5f819050919050565b61077881610766565b82525050565b5f610789838361076f565b60208301905092915050565b5f602082019050919050565b5f6107ab8261073d565b6107b58185610747565b93506107c083610757565b805f5b838110156107f05781516107d7888261077e565b97506107e283610795565b9250506001810190506107c3565b5085935050505092915050565b5f6020820190508181035f83015261081581846107a1565b905092915050565b5f6060820190506108305f830186610567565b61083d6020830185610567565b61084a6040830184610567565b949350505050565b7f4e487b71000000000000000000000000000000000000000000000000000000005f52601260045260245ffd5b7f4e487b71000000000000000000000000000000000000000000000000000000005f52601160045260245ffd5b5f6108b6826104f6565b91506108c1836104f6565b9250826108d1576108d0610852565b5b828204905092915050565b7f4e487b71000000000000000000000000000000000000000000000000000000005f52603260045260245ffd5b5f610913826104f6565b91507fffffffffffffffffffffffffffffffffffffffffffffffffffffffffffffffff82036109455761094461087f565b5b600182019050919050565b5f61095a826104f6565b9150610965836104f6565b925082820190508082111561097d5761097c61087f565b5b9291505056fea26469706673582212209985191a83b9c8bf7e4150554f7a68bc083749737ca2e77d6db19d73e010262b64736f6c634300081c0033",
					"opcodes": "PUSH1 0x80 PUSH1 0x40 MSTORE CALLVALUE DUP1 ISZERO PUSH1 0xE JUMPI PUSH0 PUSH0 REVERT JUMPDEST POP PUSH2 0x9B9 DUP1 PUSH2 0x1C PUSH0 CODECOPY PUSH0 RETURN INVALID PUSH1 0x80 PUSH1 0x40 MSTORE CALLVALUE DUP1 ISZERO PUSH2 0xF JUMPI PUSH0 PUSH0 REVERT JUMPDEST POP PUSH1 0x4 CALLDATASIZE LT PUSH2 0x86 JUMPI PUSH0 CALLDATALOAD PUSH1 0xE0 SHR DUP1 PUSH4 0xAB43D318 GT PUSH2 0x59 JUMPI DUP1 PUSH4 0xAB43D318 EQ PUSH2 0x13A JUMPI DUP1 PUSH4 0xBBD81203 EQ PUSH2 0x16A JUMPI DUP1 PUSH4 0xC1A52B50 EQ PUSH2 0x188 JUMPI DUP1 PUSH4 0xDE9BAD0C EQ PUSH2 0x1A8 JUMPI PUSH2 0x86 JUMP JUMPDEST DUP1 PUSH4 0x8BB1114 EQ PUSH2 0x8A JUMPI DUP1 PUSH4 0x17645523 EQ PUSH2 0xBA JUMPI DUP1 PUSH4 0x4DEBC578 EQ PUSH2 0xEA JUMPI DUP1 PUSH4 0x596C89FA EQ PUSH2 0x11A JUMPI JUMPDEST PUSH0 PUSH0 REVERT JUMPDEST PUSH2 0xA4 PUSH1 0x4 DUP1 CALLDATASIZE SUB DUP2 ADD SWAP1 PUSH2 0x9F SWAP2 SWAP1 PUSH2 0x529 JUMP JUMPDEST PUSH2 0x1D8 JUMP JUMPDEST PUSH1 0x40 MLOAD PUSH2 0xB1 SWAP2 SWAP1 PUSH2 0x576 JUMP JUMPDEST PUSH1 0x40 MLOAD DUP1 SWAP2 SUB SWAP1 RETURN JUMPDEST PUSH2 0xD4 PUSH1 0x4 DUP1 CALLDATASIZE SUB DUP2 ADD SWAP1 PUSH2 0xCF SWAP2 SWAP1 PUSH2 0x58F JUMP JUMPDEST PUSH2 0x1E7 JUMP JUMPDEST PUSH1 0x40 MLOAD PUSH2 0xE1 SWAP2 SWAP1 PUSH2 0x576 JUMP JUMPDEST PUSH1 0x40 MLOAD DUP1 SWAP2 SUB SWAP1 RETURN JUMPDEST PUSH2 0x104 PUSH1 0x4 DUP1 CALLDATASIZE SUB DUP2 ADD SWAP1 PUSH2 0xFF SWAP2 SWAP1 PUSH2 0x6F6 JUMP JUMPDEST PUSH2 0x20B JUMP JUMPDEST PUSH1 0x40 MLOAD PUSH2 0x111 SWAP2 SWAP1 PUSH2 0x7FD JUMP JUMPDEST PUSH1 0x40 MLOAD DUP1 SWAP2 SUB SWAP1 RETURN JUMPDEST PUSH2 0x122 PUSH2 0x2D2 JUMP JUMPDEST PUSH1 0x40 MLOAD PUSH2 0x131 SWAP4 SWAP3 SWAP2 SWAP1 PUSH2 0x81D JUMP JUMPDEST PUSH1 0x40 MLOAD DUP1 SWAP2 SUB SWAP1 RETURN JUMPDEST PUSH2 0x154 PUSH1 0x4 DUP1 CALLDATASIZE SUB DUP2 ADD SWAP1 PUSH2 0x14F SWAP2 SWAP1 PUSH2 0x58F JUMP JUMPDEST PUSH2 0x354 JUMP JUMPDEST PUSH1 0x40 MLOAD PUSH2 0x161 SWAP2 SWAP1 PUSH2 0x576 JUMP JUMPDEST PUSH1 0x40 MLOAD DUP1 SWAP2 SUB SWAP1 RETURN JUMPDEST PUSH2 0x172 PUSH2 0x383 JUMP JUMPDEST PUSH1 0x40 MLOAD PUSH2 0x17F SWAP2 SWAP1 PUSH2 0x576 JUMP JUMPDEST PUSH1 0x40 MLOAD DUP1 SWAP2 SUB SWAP1 RETURN JUMPDEST PUSH2 0x190 PUSH2 0x3DC JUMP JUMPDEST PUSH1 0x40 MLOAD PUSH2 0x19F SWAP4 SWAP3 SWAP2 SWAP1 PUSH2 0x81D JUMP JUMPDEST PUSH1 0x40 MLOAD DUP1 SWAP2 SUB SWAP1 RETURN JUMPDEST PUSH2 0x1C2 PUSH1 0x4 DUP1 CALLDATASIZE SUB DUP2 ADD SWAP1 PUSH2 0x1BD SWAP2 SWAP1 PUSH2 0x529 JUMP JUMPDEST PUSH2 0x4AE JUMP JUMPDEST PUSH1 0x40 MLOAD PUSH2 0x1CF SWAP2 SWAP1 PUSH2 0x576 JUMP JUMPDEST PUSH1 0x40 MLOAD DUP1 SWAP2 SUB SWAP1 RETURN JUMPDEST PUSH0 DUP2 DUP4 ADD PUSH1 0x40 MLOAD DUP2 DUP2 MSTORE PUSH1 0x20 DUP2 RETURN JUMPDEST PUSH0 PUSH0 JUMPDEST DUP3 DUP2 LT ISZERO PUSH2 0x202 JUMPI DUP2 DUP2 ADD SWAP2 POP PUSH1 0x1 DUP2 ADD SWAP1 POP PUSH2 0x1EA JUMP JUMPDEST POP DUP1 PUSH0 MSTORE PUSH1 0x20 PUSH0 RETURN JUMPDEST PUSH1 0x60 PUSH0 PUSH1 0x20 DUP4 MLOAD PUSH2 0x21C SWAP2 SWAP1 PUSH2 0x8AC JUMP JUMPDEST SWAP1 POP PUSH0 DUP2 PUSH8 0xFFFFFFFFFFFFFFFF DUP2 GT ISZERO PUSH2 0x239 JUMPI PUSH2 0x238 PUSH2 0x5D2 JUMP JUMPDEST JUMPDEST PUSH1 0x40 MLOAD SWAP1 DUP1 DUP3 MSTORE DUP1 PUSH1 0x20 MUL PUSH1 0x20 ADD DUP3 ADD PUSH1 0x40 MSTORE DUP1 ISZERO PUSH2 0x267 JUMPI DUP2 PUSH1 0x20 ADD PUSH1 0x20 DUP3 MUL DUP1 CALLDATASIZE DUP4 CALLDATACOPY DUP1 DUP3 ADD SWAP2 POP POP SWAP1 POP JUMPDEST POP SWAP1 POP PUSH0 PUSH0 SWAP1 POP PUSH0 PUSH1 0x20 SWAP1 POP JUMPDEST DUP6 MLOAD DUP2 GT PUSH2 0x2C6 JUMPI PUSH0 DUP2 DUP8 ADD MLOAD SWAP1 POP DUP1 DUP5 DUP5 DUP2 MLOAD DUP2 LT PUSH2 0x297 JUMPI PUSH2 0x296 PUSH2 0x8DC JUMP JUMPDEST JUMPDEST PUSH1 0x20 MUL PUSH1 0x20 ADD ADD DUP2 DUP2 MSTORE POP POP DUP3 DUP1 PUSH2 0x2AE SWAP1 PUSH2 0x909 JUMP JUMPDEST SWAP4 POP POP POP PUSH1 0x20 DUP2 PUSH2 0x2BF SWAP2 SWAP1 PUSH2 0x950 JUMP JUMPDEST SWAP1 POP PUSH2 0x274 JUMP JUMPDEST POP DUP2 SWAP4 POP POP POP POP SWAP2 SWAP1 POP JUMP JUMPDEST PUSH0 PUSH0 PUSH0 PUSH2 0x2DD PUSH2 0x4C3 JUMP JUMPDEST PUSH1 0x6F DUP2 PUSH0 PUSH1 0x3 DUP2 LT PUSH2 0x2F2 JUMPI PUSH2 0x2F1 PUSH2 0x8DC JUMP JUMPDEST JUMPDEST PUSH1 0x20 MUL ADD DUP2 DUP2 MSTORE POP POP PUSH1 0xDE DUP2 PUSH1 0x1 PUSH1 0x3 DUP2 LT PUSH2 0x311 JUMPI PUSH2 0x310 PUSH2 0x8DC JUMP JUMPDEST JUMPDEST PUSH1 0x20 MUL ADD DUP2 DUP2 MSTORE POP POP PUSH2 0x14D DUP2 PUSH1 0x2 PUSH1 0x3 DUP2 LT PUSH2 0x331 JUMPI PUSH2 0x330 PUSH2 0x8DC JUMP JUMPDEST JUMPDEST PUSH1 0x20 MUL ADD DUP2 DUP2 MSTORE POP POP PUSH0 DUP2 ADD MLOAD SWAP4 POP PUSH1 0x20 DUP2 ADD MLOAD SWAP3 POP PUSH1 0x40 DUP2 ADD MLOAD SWAP2 POP POP SWAP1 SWAP2 SWAP3 JUMP JUMPDEST PUSH0 PUSH0 PUSH0 SWAP1 POP JUMPDEST DUP3 DUP2 LT ISZERO PUSH2 0x37D JUMPI DUP1 DUP3 PUSH2 0x36E SWAP2 SWAP1 PUSH2 0x950 JUMP JUMPDEST SWAP2 POP DUP1 DUP1 PUSH1 0x1 ADD SWAP2 POP POP PUSH2 0x35A JUMP JUMPDEST POP SWAP2 SWAP1 POP JUMP JUMPDEST PUSH0 PUSH0 PUSH1 0x5 PUSH8 0xFFFFFFFFFFFFFFFF DUP2 GT ISZERO PUSH2 0x3A0 JUMPI PUSH2 0x39F PUSH2 0x5D2 JUMP JUMPDEST JUMPDEST PUSH1 0x40 MLOAD SWAP1 DUP1 DUP3 MSTORE DUP1 PUSH1 0x20 MUL PUSH1 0x20 ADD DUP3 ADD PUSH1 0x40 MSTORE DUP1 ISZERO PUSH2 0x3CE JUMPI DUP2 PUSH1 0x20 ADD PUSH1 0x20 DUP3 MUL DUP1 CALLDATASIZE DUP4 CALLDATACOPY DUP1 DUP3 ADD SWAP2 POP POP SWAP1 POP JUMPDEST POP SWAP1 POP PUSH1 0x20 DUP2 ADD MLOAD SWAP2 POP POP SWAP1 JUMP JUMPDEST PUSH0 PUSH0 PUSH0 PUSH0 PUSH1 0x3 PUSH8 0xFFFFFFFFFFFFFFFF DUP2 GT ISZERO PUSH2 0x3FB JUMPI PUSH2 0x3FA PUSH2 0x5D2 JUMP JUMPDEST JUMPDEST PUSH1 0x40 MLOAD SWAP1 DUP1 DUP3 MSTORE DUP1 PUSH1 0x20 MUL PUSH1 0x20 ADD DUP3 ADD PUSH1 0x40 MSTORE DUP1 ISZERO PUSH2 0x429 JUMPI DUP2 PUSH1 0x20 ADD PUSH1 0x20 DUP3 MUL DUP1 CALLDATASIZE DUP4 CALLDATACOPY DUP1 DUP3 ADD SWAP2 POP POP SWAP1 POP JUMPDEST POP SWAP1 POP PUSH2 0x1BC DUP2 PUSH0 DUP2 MLOAD DUP2 LT PUSH2 0x442 JUMPI PUSH2 0x441 PUSH2 0x8DC JUMP JUMPDEST JUMPDEST PUSH1 0x20 MUL PUSH1 0x20 ADD ADD DUP2 DUP2 MSTORE POP POP PUSH2 0x22B DUP2 PUSH1 0x1 DUP2 MLOAD DUP2 LT PUSH2 0x465 JUMPI PUSH2 0x464 PUSH2 0x8DC JUMP JUMPDEST JUMPDEST PUSH1 0x20 MUL PUSH1 0x20 ADD ADD DUP2 DUP2 MSTORE POP POP PUSH2 0x29A DUP2 PUSH1 0x2 DUP2 MLOAD DUP2 LT PUSH2 0x488 JUMPI PUSH2 0x487 PUSH2 0x8DC JUMP JUMPDEST JUMPDEST PUSH1 0x20 MUL PUSH1 0x20 ADD ADD DUP2 DUP2 MSTORE POP POP PUSH0 DUP2 ADD MLOAD SWAP4 POP PUSH1 0x20 DUP2 ADD MLOAD SWAP3 POP PUSH1 0x40 DUP2 ADD MLOAD SWAP2 POP POP SWAP1 SWAP2 SWAP3 JUMP JUMPDEST PUSH0 DUP2 DUP4 PUSH2 0x4BB SWAP2 SWAP1 PUSH2 0x950 JUMP JUMPDEST SWAP1 POP SWAP3 SWAP2 POP POP JUMP JUMPDEST PUSH1 0x40 MLOAD DUP1 PUSH1 0x60 ADD PUSH1 0x40 MSTORE DUP1 PUSH1 0x3 SWAP1 PUSH1 0x20 DUP3 MUL DUP1 CALLDATASIZE DUP4 CALLDATACOPY DUP1 DUP3 ADD SWAP2 POP POP SWAP1 POP POP SWAP1 JUMP JUMPDEST PUSH0 PUSH1 0x40 MLOAD SWAP1 POP SWAP1 JUMP JUMPDEST PUSH0 PUSH0 REVERT JUMPDEST PUSH0 PUSH0 REVERT JUMPDEST PUSH0 DUP2 SWAP1 POP SWAP2 SWAP1 POP JUMP JUMPDEST PUSH2 0x508 DUP2 PUSH2 0x4F6 JUMP JUMPDEST DUP2 EQ PUSH2 0x512 JUMPI PUSH0 PUSH0 REVERT JUMPDEST POP JUMP JUMPDEST PUSH0 DUP2 CALLDATALOAD SWAP1 POP PUSH2 0x523 DUP2 PUSH2 0x4FF JUMP JUMPDEST SWAP3 SWAP2 POP POP JUMP JUMPDEST PUSH0 PUSH0 PUSH1 0x40 DUP4 DUP6 SUB SLT ISZERO PUSH2 0x53F JUMPI PUSH2 0x53E PUSH2 0x4EE JUMP JUMPDEST JUMPDEST PUSH0 PUSH2 0x54C DUP6 DUP3 DUP7 ADD PUSH2 0x515 JUMP JUMPDEST SWAP3 POP POP PUSH1 0x20 PUSH2 0x55D DUP6 DUP3 DUP7 ADD PUSH2 0x515 JUMP JUMPDEST SWAP2 POP POP SWAP3 POP SWAP3 SWAP1 POP JUMP JUMPDEST PUSH2 0x570 DUP2 PUSH2 0x4F6 JUMP JUMPDEST DUP3 MSTORE POP POP JUMP JUMPDEST PUSH0 PUSH1 0x20 DUP3 ADD SWAP1 POP PUSH2 0x589 PUSH0 DUP4 ADD DUP5 PUSH2 0x567 JUMP JUMPDEST SWAP3 SWAP2 POP POP JUMP JUMPDEST PUSH0 PUSH1 0x20 DUP3 DUP5 SUB SLT ISZERO PUSH2 0x5A4 JUMPI PUSH2 0x5A3 PUSH2 0x4EE JUMP JUMPDEST JUMPDEST PUSH0 PUSH2 0x5B1 DUP5 DUP3 DUP6 ADD PUSH2 0x515 JUMP JUMPDEST SWAP2 POP POP SWAP3 SWAP2 POP POP JUMP JUMPDEST PUSH0 PUSH0 REVERT JUMPDEST PUSH0 PUSH0 REVERT JUMPDEST PUSH0 PUSH1 0x1F NOT PUSH1 0x1F DUP4 ADD AND SWAP1 POP SWAP2 SWAP1 POP JUMP JUMPDEST PUSH32 0x4E487B7100000000000000000000000000000000000000000000000000000000 PUSH0 MSTORE PUSH1 0x41 PUSH1 0x4 MSTORE PUSH1 0x24 PUSH0 REVERT JUMPDEST PUSH2 0x608 DUP3 PUSH2 0x5C2 JUMP JUMPDEST DUP2 ADD DUP2 DUP2 LT PUSH8 0xFFFFFFFFFFFFFFFF DUP3 GT OR ISZERO PUSH2 0x627 JUMPI PUSH2 0x626 PUSH2 0x5D2 JUMP JUMPDEST JUMPDEST DUP1 PUSH1 0x40 MSTORE POP POP POP JUMP JUMPDEST PUSH0 PUSH2 0x639 PUSH2 0x4E5 JUMP JUMPDEST SWAP1 POP PUSH2 0x645 DUP3 DUP3 PUSH2 0x5FF JUMP JUMPDEST SWAP2 SWAP1 POP JUMP JUMPDEST PUSH0 PUSH8 0xFFFFFFFFFFFFFFFF DUP3 GT ISZERO PUSH2 0x664 JUMPI PUSH2 0x663 PUSH2 0x5D2 JUMP JUMPDEST JUMPDEST PUSH2 0x66D DUP3 PUSH2 0x5C2 JUMP JUMPDEST SWAP1 POP PUSH1 0x20 DUP2 ADD SWAP1 POP SWAP2 SWAP1 POP JUMP JUMPDEST DUP3 DUP2 DUP4 CALLDATACOPY PUSH0 DUP4 DUP4 ADD MSTORE POP POP POP JUMP JUMPDEST PUSH0 PUSH2 0x69A PUSH2 0x695 DUP5 PUSH2 0x64A JUMP JUMPDEST PUSH2 0x630 JUMP JUMPDEST SWAP1 POP DUP3 DUP2 MSTORE PUSH1 0x20 DUP2 ADD DUP5 DUP5 DUP5 ADD GT ISZERO PUSH2 0x6B6 JUMPI PUSH2 0x6B5 PUSH2 0x5BE JUMP JUMPDEST JUMPDEST PUSH2 0x6C1 DUP5 DUP3 DUP6 PUSH2 0x67A JUMP JUMPDEST POP SWAP4 SWAP3 POP POP POP JUMP JUMPDEST PUSH0 DUP3 PUSH1 0x1F DUP4 ADD SLT PUSH2 0x6DD JUMPI PUSH2 0x6DC PUSH2 0x5BA JUMP JUMPDEST JUMPDEST DUP2 CALLDATALOAD PUSH2 0x6ED DUP5 DUP3 PUSH1 0x20 DUP7 ADD PUSH2 0x688 JUMP JUMPDEST SWAP2 POP POP SWAP3 SWAP2 POP POP JUMP JUMPDEST PUSH0 PUSH1 0x20 DUP3 DUP5 SUB SLT ISZERO PUSH2 0x70B JUMPI PUSH2 0x70A PUSH2 0x4EE JUMP JUMPDEST JUMPDEST PUSH0 DUP3 ADD CALLDATALOAD PUSH8 0xFFFFFFFFFFFFFFFF DUP2 GT ISZERO PUSH2 0x728 JUMPI PUSH2 0x727 PUSH2 0x4F2 JUMP JUMPDEST JUMPDEST PUSH2 0x734 DUP5 DUP3 DUP6 ADD PUSH2 0x6C9 JUMP JUMPDEST SWAP2 POP POP SWAP3 SWAP2 POP POP JUMP JUMPDEST PUSH0 DUP2 MLOAD SWAP1 POP SWAP2 SWAP1 POP JUMP JUMPDEST PUSH0 DUP3 DUP3 MSTORE PUSH1 0x20 DUP3 ADD SWAP1 POP SWAP3 SWAP2 POP POP JUMP JUMPDEST PUSH0 DUP2 SWAP1 POP PUSH1 0x20 DUP3 ADD SWAP1 POP SWAP2 SWAP1 POP JUMP JUMPDEST PUSH0 DUP2 SWAP1 POP SWAP2 SWAP1 POP JUMP JUMPDEST PUSH2 0x778 DUP2 PUSH2 0x766 JUMP JUMPDEST DUP3 MSTORE POP POP JUMP JUMPDEST PUSH0 PUSH2 0x789 DUP4 DUP4 PUSH2 0x76F JUMP JUMPDEST PUSH1 0x20 DUP4 ADD SWAP1 POP SWAP3 SWAP2 POP POP JUMP JUMPDEST PUSH0 PUSH1 0x20 DUP3 ADD SWAP1 POP SWAP2 SWAP1 POP JUMP JUMPDEST PUSH0 PUSH2 0x7AB DUP3 PUSH2 0x73D JUMP JUMPDEST PUSH2 0x7B5 DUP2 DUP6 PUSH2 0x747 JUMP JUMPDEST SWAP4 POP PUSH2 0x7C0 DUP4 PUSH2 0x757 JUMP JUMPDEST DUP1 PUSH0 JUMPDEST DUP4 DUP2 LT ISZERO PUSH2 0x7F0 JUMPI DUP2 MLOAD PUSH2 0x7D7 DUP9 DUP3 PUSH2 0x77E JUMP JUMPDEST SWAP8 POP PUSH2 0x7E2 DUP4 PUSH2 0x795 JUMP JUMPDEST SWAP3 POP POP PUSH1 0x1 DUP2 ADD SWAP1 POP PUSH2 0x7C3 JUMP JUMPDEST POP DUP6 SWAP4 POP POP POP POP SWAP3 SWAP2 POP POP JUMP JUMPDEST PUSH0 PUSH1 0x20 DUP3 ADD SWAP1 POP DUP2 DUP2 SUB PUSH0 DUP4 ADD MSTORE PUSH2 0x815 DUP2 DUP5 PUSH2 0x7A1 JUMP JUMPDEST SWAP1 POP SWAP3 SWAP2 POP POP JUMP JUMPDEST PUSH0 PUSH1 0x60 DUP3 ADD SWAP1 POP PUSH2 0x830 PUSH0 DUP4 ADD DUP7 PUSH2 0x567 JUMP JUMPDEST PUSH2 0x83D PUSH1 0x20 DUP4 ADD DUP6 PUSH2 0x567 JUMP JUMPDEST PUSH2 0x84A PUSH1 0x40 DUP4 ADD DUP5 PUSH2 0x567 JUMP JUMPDEST SWAP5 SWAP4 POP POP POP POP JUMP JUMPDEST PUSH32 0x4E487B7100000000000000000000000000000000000000000000000000000000 PUSH0 MSTORE PUSH1 0x12 PUSH1 0x4 MSTORE PUSH1 0x24 PUSH0 REVERT JUMPDEST PUSH32 0x4E487B7100000000000000000000000000000000000000000000000000000000 PUSH0 MSTORE PUSH1 0x11 PUSH1 0x4 MSTORE PUSH1 0x24 PUSH0 REVERT JUMPDEST PUSH0 PUSH2 0x8B6 DUP3 PUSH2 0x4F6 JUMP JUMPDEST SWAP2 POP PUSH2 0x8C1 DUP4 PUSH2 0x4F6 JUMP JUMPDEST SWAP3 POP DUP3 PUSH2 0x8D1 JUMPI PUSH2 0x8D0 PUSH2 0x852 JUMP JUMPDEST JUMPDEST DUP3 DUP3 DIV SWAP1 POP SWAP3 SWAP2 POP POP JUMP JUMPDEST PUSH32 0x4E487B7100000000000000000000000000000000000000000000000000000000 PUSH0 MSTORE PUSH1 0x32 PUSH1 0x4 MSTORE PUSH1 0x24 PUSH0 REVERT JUMPDEST PUSH0 PUSH2 0x913 DUP3 PUSH2 0x4F6 JUMP JUMPDEST SWAP2 POP PUSH32 0xFFFFFFFFFFFFFFFFFFFFFFFFFFFFFFFFFFFFFFFFFFFFFFFFFFFFFFFFFFFFFFFF DUP3 SUB PUSH2 0x945 JUMPI PUSH2 0x944 PUSH2 0x87F JUMP JUMPDEST JUMPDEST PUSH1 0x1 DUP3 ADD SWAP1 POP SWAP2 SWAP1 POP JUMP JUMPDEST PUSH0 PUSH2 0x95A DUP3 PUSH2 0x4F6 JUMP JUMPDEST SWAP2 POP PUSH2 0x965 DUP4 PUSH2 0x4F6 JUMP JUMPDEST SWAP3 POP DUP3 DUP3 ADD SWAP1 POP DUP1 DUP3 GT ISZERO PUSH2 0x97D JUMPI PUSH2 0x97C PUSH2 0x87F JUMP JUMPDEST JUMPDEST SWAP3 SWAP2 POP POP JUMP INVALID LOG2 PUSH5 0x6970667358 0x22 SLT KECCAK256 SWAP10 DUP6 NOT BYTE DUP4 0xB9 0xC8 0xBF PUSH31 0x4150554F7A68BC083749737CA2E77D6DB19D73E010262B64736F6C63430008 SHR STOP CALLER "
				},
				"gasEstimates": {
					"creation": {
						"codeDepositCost": "497800",
						"executionCost": "528",
						"totalCost": "498328"
					},
					"external": {
						"addAssembly(uint256,uint256)": "infinite",
						"addSolidity(uint256,uint256)": "infinite",
						"bytesToBytes32Array(bytes)": "infinite",
						"loopAssembly(uint256)": "infinite",
						"loopNormal(uint256)": "infinite",
						"read1()": "infinite",
						"read2()": "infinite",
						"testDynamicArray()": "infinite"
					},
					"internal": {
						"isContract(address)": "infinite"
					}
				},
				"methodIdentifiers": {
					"addAssembly(uint256,uint256)": "08bb1114",
					"addSolidity(uint256,uint256)": "de9bad0c",
					"bytesToBytes32Array(bytes)": "4debc578",
					"loopAssembly(uint256)": "17645523",
					"loopNormal(uint256)": "ab43d318",
					"read1()": "596c89fa",
					"read2()": "c1a52b50",
					"testDynamicArray()": "bbd81203"
				}
			},
			"storageLayout": {
				"storage": [],
				"types": null
			},
			"userdoc": {
				"kind": "user",
				"methods": {},
				"version": 1
			}
		}
	}
}