{
	"contracts/8_LocalStorageVarible.sol": {
		"LocalStorageVariable": {
			"abi": [
				{
					"inputs": [],
					"name": "getData1",
					"outputs": [
						{
							"internalType": "int256[]",
							"name": "",
							"type": "int256[]"
						}
					],
					"stateMutability": "view",
					"type": "function"
				},
				{
					"inputs": [],
					"name": "getData2",
					"outputs": [
						{
							"internalType": "int256[]",
							"name": "",
							"type": "int256[]"
						}
					],
					"stateMutability": "view",
					"type": "function"
				},
				{
					"inputs": [
						{
							"internalType": "int256",
							"name": "d",
							"type": "int256"
						}
					],
					"name": "insertData1",
					"outputs": [],
					"stateMutability": "nonpayable",
					"type": "function"
				},
				{
					"inputs": [
						{
							"internalType": "int256",
							"name": "d",
							"type": "int256"
						}
					],
					"name": "insertData2",
					"outputs": [],
					"stateMutability": "nonpayable",
					"type": "function"
				},
				{
					"inputs": [],
					"name": "setData1ToData2",
					"outputs": [],
					"stateMutability": "nonpayable",
					"type": "function"
				},
				{
					"inputs": [
						{
							"internalType": "int256[]",
							"name": "pd",
							"type": "int256[]"
						}
					],
					"name": "testSecondRule",
					"outputs": [
						{
							"internalType": "int256[]",
							"name": "",
							"type": "int256[]"
						}
					],
					"stateMutability": "nonpayable",
					"type": "function"
				}
			],
			"devdoc": {
				"kind": "dev",
				"methods": {},
				"version": 1
			},
			"evm": {
				"assembly": "    /* \"contracts/8_LocalStorageVarible.sol\":66:1154  contract LocalStorageVariable{... */\n  mstore(0x40, 0x80)\n  callvalue\n  dup1\n  iszero\n  tag_1\n  jumpi\n  0x00\n  dup1\n  revert\ntag_1:\n  pop\n  dataSize(sub_0)\n  dup1\n  dataOffset(sub_0)\n  0x00\n  codecopy\n  0x00\n  return\nstop\n\nsub_0: assembly {\n        /* \"contracts/8_LocalStorageVarible.sol\":66:1154  contract LocalStorageVariable{... */\n      mstore(0x40, 0x80)\n      callvalue\n      dup1\n      iszero\n      tag_1\n      jumpi\n      0x00\n      dup1\n      revert\n    tag_1:\n      pop\n      jumpi(tag_2, lt(calldatasize, 0x04))\n      shr(0xe0, calldataload(0x00))\n      dup1\n      0x53042bd1\n      eq\n      tag_3\n      jumpi\n      dup1\n      0x9944cc71\n      eq\n      tag_4\n      jumpi\n      dup1\n      0xa898fd70\n      eq\n      tag_5\n      jumpi\n      dup1\n      0xc3b85ae2\n      eq\n      tag_6\n      jumpi\n      dup1\n      0xef062d94\n      eq\n      tag_7\n      jumpi\n      dup1\n      0xf8bea455\n      eq\n      tag_8\n      jumpi\n    tag_2:\n      0x00\n      dup1\n      revert\n        /* \"contracts/8_LocalStorageVarible.sol\":375:449  function insertData1(int256 d)public {... */\n    tag_3:\n      tag_9\n      0x04\n      dup1\n      calldatasize\n      sub\n      dup2\n      add\n      swap1\n      tag_10\n      swap2\n      swap1\n      tag_11\n      jump\t// in\n    tag_10:\n      tag_12\n      jump\t// in\n    tag_9:\n      stop\n        /* \"contracts/8_LocalStorageVarible.sol\":193:278  function getData1() public view returns(int256[] memory){... */\n    tag_4:\n      tag_13\n      tag_14\n      jump\t// in\n    tag_13:\n      mload(0x40)\n      tag_15\n      swap2\n      swap1\n      tag_16\n      jump\t// in\n    tag_15:\n      mload(0x40)\n      dup1\n      swap2\n      sub\n      swap1\n      return\n        /* \"contracts/8_LocalStorageVarible.sol\":284:369  function getData2() public view returns(int256[] memory){... */\n    tag_5:\n      tag_17\n      tag_18\n      jump\t// in\n    tag_17:\n      mload(0x40)\n      tag_19\n      swap2\n      swap1\n      tag_16\n      jump\t// in\n    tag_19:\n      mload(0x40)\n      dup1\n      swap2\n      sub\n      swap1\n      return\n        /* \"contracts/8_LocalStorageVarible.sol\":768:1151  function testSecondRule(int256[] calldata pd)public  returns(int256[] memory){... */\n    tag_6:\n      tag_20\n      0x04\n      dup1\n      calldatasize\n      sub\n      dup2\n      add\n      swap1\n      tag_21\n      swap2\n      swap1\n      tag_22\n      jump\t// in\n    tag_21:\n      tag_23\n      jump\t// in\n    tag_20:\n      mload(0x40)\n      tag_24\n      swap2\n      swap1\n      tag_16\n      jump\t// in\n    tag_24:\n      mload(0x40)\n      dup1\n      swap2\n      sub\n      swap1\n      return\n        /* \"contracts/8_LocalStorageVarible.sol\":455:529  function insertData2(int256 d)public {... */\n    tag_7:\n      tag_25\n      0x04\n      dup1\n      calldatasize\n      sub\n      dup2\n      add\n      swap1\n      tag_26\n      swap2\n      swap1\n      tag_11\n      jump\t// in\n    tag_26:\n      tag_27\n      jump\t// in\n    tag_25:\n      stop\n        /* \"contracts/8_LocalStorageVarible.sol\":535:762  function setData1ToData2()public {... */\n    tag_8:\n      tag_28\n      tag_29\n      jump\t// in\n    tag_28:\n      stop\n        /* \"contracts/8_LocalStorageVarible.sol\":375:449  function insertData1(int256 d)public {... */\n    tag_12:\n        /* \"contracts/8_LocalStorageVarible.sol\":429:434  data1 */\n      0x00\n        /* \"contracts/8_LocalStorageVarible.sol\":440:441  d */\n      dup2\n        /* \"contracts/8_LocalStorageVarible.sol\":429:442  data1.push(d) */\n      swap1\n      dup1\n      0x01\n      dup2\n      sload\n      add\n      dup1\n      dup3\n      sstore\n      dup1\n      swap2\n      pop\n      pop\n      0x01\n      swap1\n      sub\n      swap1\n      0x00\n      mstore\n      keccak256(0x00, 0x20)\n      add\n      0x00\n      swap1\n      swap2\n      swap1\n      swap2\n      swap1\n      swap2\n      pop\n      sstore\n        /* \"contracts/8_LocalStorageVarible.sol\":375:449  function insertData1(int256 d)public {... */\n      pop\n      jump\t// out\n        /* \"contracts/8_LocalStorageVarible.sol\":193:278  function getData1() public view returns(int256[] memory){... */\n    tag_14:\n        /* \"contracts/8_LocalStorageVarible.sol\":233:248  int256[] memory */\n      0x60\n        /* \"contracts/8_LocalStorageVarible.sol\":266:271  data1 */\n      0x00\n        /* \"contracts/8_LocalStorageVarible.sol\":259:271  return data1 */\n      dup1\n      sload\n      dup1\n      0x20\n      mul\n      0x20\n      add\n      mload(0x40)\n      swap1\n      dup2\n      add\n      0x40\n      mstore\n      dup1\n      swap3\n      swap2\n      swap1\n      dup2\n      dup2\n      mstore\n      0x20\n      add\n      dup3\n      dup1\n      sload\n      dup1\n      iszero\n      tag_33\n      jumpi\n      0x20\n      mul\n      dup3\n      add\n      swap2\n      swap1\n      0x00\n      mstore\n      keccak256(0x00, 0x20)\n      swap1\n    tag_34:\n      dup2\n      sload\n      dup2\n      mstore\n      0x20\n      add\n      swap1\n      0x01\n      add\n      swap1\n      dup1\n      dup4\n      gt\n      tag_34\n      jumpi\n    tag_33:\n      pop\n      pop\n      pop\n      pop\n      pop\n      swap1\n      pop\n        /* \"contracts/8_LocalStorageVarible.sol\":193:278  function getData1() public view returns(int256[] memory){... */\n      swap1\n      jump\t// out\n        /* \"contracts/8_LocalStorageVarible.sol\":284:369  function getData2() public view returns(int256[] memory){... */\n    tag_18:\n        /* \"contracts/8_LocalStorageVarible.sol\":324:339  int256[] memory */\n      0x60\n        /* \"contracts/8_LocalStorageVarible.sol\":357:362  data2 */\n      0x01\n        /* \"contracts/8_LocalStorageVarible.sol\":350:362  return data2 */\n      dup1\n      sload\n      dup1\n      0x20\n      mul\n      0x20\n      add\n      mload(0x40)\n      swap1\n      dup2\n      add\n      0x40\n      mstore\n      dup1\n      swap3\n      swap2\n      swap1\n      dup2\n      dup2\n      mstore\n      0x20\n      add\n      dup3\n      dup1\n      sload\n      dup1\n      iszero\n      tag_36\n      jumpi\n      0x20\n      mul\n      dup3\n      add\n      swap2\n      swap1\n      0x00\n      mstore\n      keccak256(0x00, 0x20)\n      swap1\n    tag_37:\n      dup2\n      sload\n      dup2\n      mstore\n      0x20\n      add\n      swap1\n      0x01\n      add\n      swap1\n      dup1\n      dup4\n      gt\n      tag_37\n      jumpi\n    tag_36:\n      pop\n      pop\n      pop\n      pop\n      pop\n      swap1\n      pop\n        /* \"contracts/8_LocalStorageVarible.sol\":284:369  function getData2() public view returns(int256[] memory){... */\n      swap1\n      jump\t// out\n        /* \"contracts/8_LocalStorageVarible.sol\":768:1151  function testSecondRule(int256[] calldata pd)public  returns(int256[] memory){... */\n    tag_23:\n        /* \"contracts/8_LocalStorageVarible.sol\":829:844  int256[] memory */\n      0x60\n        /* \"contracts/8_LocalStorageVarible.sol\":855:873  int256[] memory td */\n      dup1\n        /* \"contracts/8_LocalStorageVarible.sol\":886:891  data1 */\n      0x00\n        /* \"contracts/8_LocalStorageVarible.sol\":883:891  td=data1 */\n      dup1\n      sload\n      dup1\n      0x20\n      mul\n      0x20\n      add\n      mload(0x40)\n      swap1\n      dup2\n      add\n      0x40\n      mstore\n      dup1\n      swap3\n      swap2\n      swap1\n      dup2\n      dup2\n      mstore\n      0x20\n      add\n      dup3\n      dup1\n      sload\n      dup1\n      iszero\n      tag_39\n      jumpi\n      0x20\n      mul\n      dup3\n      add\n      swap2\n      swap1\n      0x00\n      mstore\n      keccak256(0x00, 0x20)\n      swap1\n    tag_40:\n      dup2\n      sload\n      dup2\n      mstore\n      0x20\n      add\n      swap1\n      0x01\n      add\n      swap1\n      dup1\n      dup4\n      gt\n      tag_40\n      jumpi\n    tag_39:\n      pop\n      pop\n      pop\n      pop\n      pop\n      swap1\n      pop\n        /* \"contracts/8_LocalStorageVarible.sol\":952:954  pd */\n      dup4\n      dup4\n        /* \"contracts/8_LocalStorageVarible.sol\":946:951  data1 */\n      0x00\n        /* \"contracts/8_LocalStorageVarible.sol\":946:954  data1=pd */\n      swap2\n      swap1\n      tag_41\n      swap3\n      swap2\n      swap1\n      tag_42\n      jump\t// in\n    tag_41:\n      pop\n        /* \"contracts/8_LocalStorageVarible.sol\":999:1020  int256[] calldata cdt */\n      calldatasize\n      0x00\n        /* \"contracts/8_LocalStorageVarible.sol\":1021:1023  pd */\n      dup6\n      dup6\n        /* \"contracts/8_LocalStorageVarible.sol\":999:1023  int256[] calldata cdt=pd */\n      swap2\n      pop\n      swap2\n      pop\n        /* \"contracts/8_LocalStorageVarible.sol\":1142:1144  td */\n      dup3\n        /* \"contracts/8_LocalStorageVarible.sol\":1135:1144  return td */\n      swap4\n      pop\n      pop\n      pop\n      pop\n        /* \"contracts/8_LocalStorageVarible.sol\":768:1151  function testSecondRule(int256[] calldata pd)public  returns(int256[] memory){... */\n      swap3\n      swap2\n      pop\n      pop\n      jump\t// out\n        /* \"contracts/8_LocalStorageVarible.sol\":455:529  function insertData2(int256 d)public {... */\n    tag_27:\n        /* \"contracts/8_LocalStorageVarible.sol\":509:514  data2 */\n      0x01\n        /* \"contracts/8_LocalStorageVarible.sol\":520:521  d */\n      dup2\n        /* \"contracts/8_LocalStorageVarible.sol\":509:522  data2.push(d) */\n      swap1\n      dup1\n      0x01\n      dup2\n      sload\n      add\n      dup1\n      dup3\n      sstore\n      dup1\n      swap2\n      pop\n      pop\n      0x01\n      swap1\n      sub\n      swap1\n      0x00\n      mstore\n      keccak256(0x00, 0x20)\n      add\n      0x00\n      swap1\n      swap2\n      swap1\n      swap2\n      swap1\n      swap2\n      pop\n      sstore\n        /* \"contracts/8_LocalStorageVarible.sol\":455:529  function insertData2(int256 d)public {... */\n      pop\n      jump\t// out\n        /* \"contracts/8_LocalStorageVarible.sol\":535:762  function setData1ToData2()public {... */\n    tag_29:\n        /* \"contracts/8_LocalStorageVarible.sol\":750:755  data2 */\n      0x01\n        /* \"contracts/8_LocalStorageVarible.sol\":744:749  data1 */\n      0x00\n        /* \"contracts/8_LocalStorageVarible.sol\":744:755  data1=data2 */\n      swap1\n      dup1\n      sload\n      tag_46\n      swap3\n      swap2\n      swap1\n      tag_47\n      jump\t// in\n    tag_46:\n      pop\n        /* \"contracts/8_LocalStorageVarible.sol\":535:762  function setData1ToData2()public {... */\n      jump\t// out\n    tag_42:\n      dup3\n      dup1\n      sload\n      dup3\n      dup3\n      sstore\n      swap1\n      0x00\n      mstore\n      keccak256(0x00, 0x20)\n      swap1\n      dup2\n      add\n      swap3\n      dup3\n      iszero\n      tag_48\n      jumpi\n      swap2\n      0x20\n      mul\n      dup3\n      add\n    tag_49:\n      dup3\n      dup2\n      gt\n      iszero\n      tag_50\n      jumpi\n      dup3\n      calldataload\n      dup3\n      sstore\n      swap2\n      0x20\n      add\n      swap2\n      swap1\n      0x01\n      add\n      swap1\n      jump(tag_49)\n    tag_50:\n    tag_48:\n      pop\n      swap1\n      pop\n      tag_51\n      swap2\n      swap1\n      tag_52\n      jump\t// in\n    tag_51:\n      pop\n      swap1\n      jump\t// out\n    tag_47:\n      dup3\n      dup1\n      sload\n      dup3\n      dup3\n      sstore\n      swap1\n      0x00\n      mstore\n      keccak256(0x00, 0x20)\n      swap1\n      dup2\n      add\n      swap3\n      dup3\n      iszero\n      tag_53\n      jumpi\n      0x00\n      mstore\n      keccak256(0x00, 0x20)\n      swap2\n      dup3\n      add\n    tag_54:\n      dup3\n      dup2\n      gt\n      iszero\n      tag_55\n      jumpi\n      dup3\n      sload\n      dup3\n      sstore\n      swap2\n      0x01\n      add\n      swap2\n      swap1\n      0x01\n      add\n      swap1\n      jump(tag_54)\n    tag_55:\n    tag_53:\n      pop\n      swap1\n      pop\n      tag_56\n      swap2\n      swap1\n      tag_52\n      jump\t// in\n    tag_56:\n      pop\n      swap1\n      jump\t// out\n    tag_52:\n    tag_57:\n      dup1\n      dup3\n      gt\n      iszero\n      tag_58\n      jumpi\n      0x00\n      dup2\n      0x00\n      swap1\n      sstore\n      pop\n      0x01\n      add\n      jump(tag_57)\n    tag_58:\n      pop\n      swap1\n      jump\t// out\n        /* \"#utility.yul\":88:205   */\n    tag_60:\n        /* \"#utility.yul\":197:198   */\n      0x00\n        /* \"#utility.yul\":194:195   */\n      dup1\n        /* \"#utility.yul\":187:199   */\n      revert\n        /* \"#utility.yul\":211:328   */\n    tag_61:\n        /* \"#utility.yul\":320:321   */\n      0x00\n        /* \"#utility.yul\":317:318   */\n      dup1\n        /* \"#utility.yul\":310:322   */\n      revert\n        /* \"#utility.yul\":334:410   */\n    tag_62:\n        /* \"#utility.yul\":370:377   */\n      0x00\n        /* \"#utility.yul\":399:404   */\n      dup2\n        /* \"#utility.yul\":388:404   */\n      swap1\n      pop\n        /* \"#utility.yul\":334:410   */\n      swap2\n      swap1\n      pop\n      jump\t// out\n        /* \"#utility.yul\":416:536   */\n    tag_63:\n        /* \"#utility.yul\":488:511   */\n      tag_82\n        /* \"#utility.yul\":505:510   */\n      dup2\n        /* \"#utility.yul\":488:511   */\n      tag_62\n      jump\t// in\n    tag_82:\n        /* \"#utility.yul\":481:486   */\n      dup2\n        /* \"#utility.yul\":478:512   */\n      eq\n        /* \"#utility.yul\":468:530   */\n      tag_83\n      jumpi\n        /* \"#utility.yul\":526:527   */\n      0x00\n        /* \"#utility.yul\":523:524   */\n      dup1\n        /* \"#utility.yul\":516:528   */\n      revert\n        /* \"#utility.yul\":468:530   */\n    tag_83:\n        /* \"#utility.yul\":416:536   */\n      pop\n      jump\t// out\n        /* \"#utility.yul\":542:679   */\n    tag_64:\n        /* \"#utility.yul\":587:592   */\n      0x00\n        /* \"#utility.yul\":625:631   */\n      dup2\n        /* \"#utility.yul\":612:632   */\n      calldataload\n        /* \"#utility.yul\":603:632   */\n      swap1\n      pop\n        /* \"#utility.yul\":641:673   */\n      tag_85\n        /* \"#utility.yul\":667:672   */\n      dup2\n        /* \"#utility.yul\":641:673   */\n      tag_63\n      jump\t// in\n    tag_85:\n        /* \"#utility.yul\":542:679   */\n      swap3\n      swap2\n      pop\n      pop\n      jump\t// out\n        /* \"#utility.yul\":685:1012   */\n    tag_11:\n        /* \"#utility.yul\":743:749   */\n      0x00\n        /* \"#utility.yul\":792:794   */\n      0x20\n        /* \"#utility.yul\":780:789   */\n      dup3\n        /* \"#utility.yul\":771:778   */\n      dup5\n        /* \"#utility.yul\":767:790   */\n      sub\n        /* \"#utility.yul\":763:795   */\n      slt\n        /* \"#utility.yul\":760:879   */\n      iszero\n      tag_87\n      jumpi\n        /* \"#utility.yul\":798:877   */\n      tag_88\n      tag_60\n      jump\t// in\n    tag_88:\n        /* \"#utility.yul\":760:879   */\n    tag_87:\n        /* \"#utility.yul\":918:919   */\n      0x00\n        /* \"#utility.yul\":943:995   */\n      tag_89\n        /* \"#utility.yul\":987:994   */\n      dup5\n        /* \"#utility.yul\":978:984   */\n      dup3\n        /* \"#utility.yul\":967:976   */\n      dup6\n        /* \"#utility.yul\":963:985   */\n      add\n        /* \"#utility.yul\":943:995   */\n      tag_64\n      jump\t// in\n    tag_89:\n        /* \"#utility.yul\":933:995   */\n      swap2\n      pop\n        /* \"#utility.yul\":889:1005   */\n      pop\n        /* \"#utility.yul\":685:1012   */\n      swap3\n      swap2\n      pop\n      pop\n      jump\t// out\n        /* \"#utility.yul\":1018:1131   */\n    tag_65:\n        /* \"#utility.yul\":1084:1090   */\n      0x00\n        /* \"#utility.yul\":1118:1123   */\n      dup2\n        /* \"#utility.yul\":1112:1124   */\n      mload\n        /* \"#utility.yul\":1102:1124   */\n      swap1\n      pop\n        /* \"#utility.yul\":1018:1131   */\n      swap2\n      swap1\n      pop\n      jump\t// out\n        /* \"#utility.yul\":1137:1320   */\n    tag_66:\n        /* \"#utility.yul\":1235:1246   */\n      0x00\n        /* \"#utility.yul\":1269:1275   */\n      dup3\n        /* \"#utility.yul\":1264:1267   */\n      dup3\n        /* \"#utility.yul\":1257:1276   */\n      mstore\n        /* \"#utility.yul\":1309:1313   */\n      0x20\n        /* \"#utility.yul\":1304:1307   */\n      dup3\n        /* \"#utility.yul\":1300:1314   */\n      add\n        /* \"#utility.yul\":1285:1314   */\n      swap1\n      pop\n        /* \"#utility.yul\":1137:1320   */\n      swap3\n      swap2\n      pop\n      pop\n      jump\t// out\n        /* \"#utility.yul\":1326:1457   */\n    tag_67:\n        /* \"#utility.yul\":1392:1396   */\n      0x00\n        /* \"#utility.yul\":1415:1418   */\n      dup2\n        /* \"#utility.yul\":1407:1418   */\n      swap1\n      pop\n        /* \"#utility.yul\":1445:1449   */\n      0x20\n        /* \"#utility.yul\":1440:1443   */\n      dup3\n        /* \"#utility.yul\":1436:1450   */\n      add\n        /* \"#utility.yul\":1428:1450   */\n      swap1\n      pop\n        /* \"#utility.yul\":1326:1457   */\n      swap2\n      swap1\n      pop\n      jump\t// out\n        /* \"#utility.yul\":1463:1568   */\n    tag_68:\n        /* \"#utility.yul\":1538:1561   */\n      tag_94\n        /* \"#utility.yul\":1555:1560   */\n      dup2\n        /* \"#utility.yul\":1538:1561   */\n      tag_62\n      jump\t// in\n    tag_94:\n        /* \"#utility.yul\":1533:1536   */\n      dup3\n        /* \"#utility.yul\":1526:1562   */\n      mstore\n        /* \"#utility.yul\":1463:1568   */\n      pop\n      pop\n      jump\t// out\n        /* \"#utility.yul\":1574:1749   */\n    tag_69:\n        /* \"#utility.yul\":1641:1651   */\n      0x00\n        /* \"#utility.yul\":1662:1706   */\n      tag_96\n        /* \"#utility.yul\":1702:1705   */\n      dup4\n        /* \"#utility.yul\":1694:1700   */\n      dup4\n        /* \"#utility.yul\":1662:1706   */\n      tag_68\n      jump\t// in\n    tag_96:\n        /* \"#utility.yul\":1738:1742   */\n      0x20\n        /* \"#utility.yul\":1733:1736   */\n      dup4\n        /* \"#utility.yul\":1729:1743   */\n      add\n        /* \"#utility.yul\":1715:1743   */\n      swap1\n      pop\n        /* \"#utility.yul\":1574:1749   */\n      swap3\n      swap2\n      pop\n      pop\n      jump\t// out\n        /* \"#utility.yul\":1755:1867   */\n    tag_70:\n        /* \"#utility.yul\":1824:1828   */\n      0x00\n        /* \"#utility.yul\":1856:1860   */\n      0x20\n        /* \"#utility.yul\":1851:1854   */\n      dup3\n        /* \"#utility.yul\":1847:1861   */\n      add\n        /* \"#utility.yul\":1839:1861   */\n      swap1\n      pop\n        /* \"#utility.yul\":1755:1867   */\n      swap2\n      swap1\n      pop\n      jump\t// out\n        /* \"#utility.yul\":1901:2625   */\n    tag_71:\n        /* \"#utility.yul\":2018:2021   */\n      0x00\n        /* \"#utility.yul\":2047:2100   */\n      tag_99\n        /* \"#utility.yul\":2094:2099   */\n      dup3\n        /* \"#utility.yul\":2047:2100   */\n      tag_65\n      jump\t// in\n    tag_99:\n        /* \"#utility.yul\":2116:2201   */\n      tag_100\n        /* \"#utility.yul\":2194:2200   */\n      dup2\n        /* \"#utility.yul\":2189:2192   */\n      dup6\n        /* \"#utility.yul\":2116:2201   */\n      tag_66\n      jump\t// in\n    tag_100:\n        /* \"#utility.yul\":2109:2201   */\n      swap4\n      pop\n        /* \"#utility.yul\":2225:2280   */\n      tag_101\n        /* \"#utility.yul\":2274:2279   */\n      dup4\n        /* \"#utility.yul\":2225:2280   */\n      tag_67\n      jump\t// in\n    tag_101:\n        /* \"#utility.yul\":2303:2310   */\n      dup1\n        /* \"#utility.yul\":2334:2335   */\n      0x00\n        /* \"#utility.yul\":2319:2600   */\n    tag_102:\n        /* \"#utility.yul\":2344:2350   */\n      dup4\n        /* \"#utility.yul\":2341:2342   */\n      dup2\n        /* \"#utility.yul\":2338:2351   */\n      lt\n        /* \"#utility.yul\":2319:2600   */\n      iszero\n      tag_104\n      jumpi\n        /* \"#utility.yul\":2420:2426   */\n      dup2\n        /* \"#utility.yul\":2414:2427   */\n      mload\n        /* \"#utility.yul\":2447:2508   */\n      tag_105\n        /* \"#utility.yul\":2504:2507   */\n      dup9\n        /* \"#utility.yul\":2489:2502   */\n      dup3\n        /* \"#utility.yul\":2447:2508   */\n      tag_69\n      jump\t// in\n    tag_105:\n        /* \"#utility.yul\":2440:2508   */\n      swap8\n      pop\n        /* \"#utility.yul\":2531:2590   */\n      tag_106\n        /* \"#utility.yul\":2583:2589   */\n      dup4\n        /* \"#utility.yul\":2531:2590   */\n      tag_70\n      jump\t// in\n    tag_106:\n        /* \"#utility.yul\":2521:2590   */\n      swap3\n      pop\n        /* \"#utility.yul\":2379:2600   */\n      pop\n        /* \"#utility.yul\":2366:2367   */\n      0x01\n        /* \"#utility.yul\":2363:2364   */\n      dup2\n        /* \"#utility.yul\":2359:2368   */\n      add\n        /* \"#utility.yul\":2354:2368   */\n      swap1\n      pop\n        /* \"#utility.yul\":2319:2600   */\n      jump(tag_102)\n    tag_104:\n        /* \"#utility.yul\":2323:2337   */\n      pop\n        /* \"#utility.yul\":2616:2619   */\n      dup6\n        /* \"#utility.yul\":2609:2619   */\n      swap4\n      pop\n        /* \"#utility.yul\":2023:2625   */\n      pop\n      pop\n      pop\n        /* \"#utility.yul\":1901:2625   */\n      swap3\n      swap2\n      pop\n      pop\n      jump\t// out\n        /* \"#utility.yul\":2631:3000   */\n    tag_16:\n        /* \"#utility.yul\":2772:2776   */\n      0x00\n        /* \"#utility.yul\":2810:2812   */\n      0x20\n        /* \"#utility.yul\":2799:2808   */\n      dup3\n        /* \"#utility.yul\":2795:2813   */\n      add\n        /* \"#utility.yul\":2787:2813   */\n      swap1\n      pop\n        /* \"#utility.yul\":2859:2868   */\n      dup2\n        /* \"#utility.yul\":2853:2857   */\n      dup2\n        /* \"#utility.yul\":2849:2869   */\n      sub\n        /* \"#utility.yul\":2845:2846   */\n      0x00\n        /* \"#utility.yul\":2834:2843   */\n      dup4\n        /* \"#utility.yul\":2830:2847   */\n      add\n        /* \"#utility.yul\":2823:2870   */\n      mstore\n        /* \"#utility.yul\":2887:2993   */\n      tag_108\n        /* \"#utility.yul\":2988:2992   */\n      dup2\n        /* \"#utility.yul\":2979:2985   */\n      dup5\n        /* \"#utility.yul\":2887:2993   */\n      tag_71\n      jump\t// in\n    tag_108:\n        /* \"#utility.yul\":2879:2993   */\n      swap1\n      pop\n        /* \"#utility.yul\":2631:3000   */\n      swap3\n      swap2\n      pop\n      pop\n      jump\t// out\n        /* \"#utility.yul\":3006:3123   */\n    tag_72:\n        /* \"#utility.yul\":3115:3116   */\n      0x00\n        /* \"#utility.yul\":3112:3113   */\n      dup1\n        /* \"#utility.yul\":3105:3117   */\n      revert\n        /* \"#utility.yul\":3129:3246   */\n    tag_73:\n        /* \"#utility.yul\":3238:3239   */\n      0x00\n        /* \"#utility.yul\":3235:3236   */\n      dup1\n        /* \"#utility.yul\":3228:3240   */\n      revert\n        /* \"#utility.yul\":3252:3369   */\n    tag_74:\n        /* \"#utility.yul\":3361:3362   */\n      0x00\n        /* \"#utility.yul\":3358:3359   */\n      dup1\n        /* \"#utility.yul\":3351:3363   */\n      revert\n        /* \"#utility.yul\":3391:3958   */\n    tag_75:\n        /* \"#utility.yul\":3463:3471   */\n      0x00\n        /* \"#utility.yul\":3473:3479   */\n      dup1\n        /* \"#utility.yul\":3523:3526   */\n      dup4\n        /* \"#utility.yul\":3516:3520   */\n      0x1f\n        /* \"#utility.yul\":3508:3514   */\n      dup5\n        /* \"#utility.yul\":3504:3521   */\n      add\n        /* \"#utility.yul\":3500:3527   */\n      slt\n        /* \"#utility.yul\":3490:3612   */\n      tag_113\n      jumpi\n        /* \"#utility.yul\":3531:3610   */\n      tag_114\n      tag_72\n      jump\t// in\n    tag_114:\n        /* \"#utility.yul\":3490:3612   */\n    tag_113:\n        /* \"#utility.yul\":3644:3650   */\n      dup3\n        /* \"#utility.yul\":3631:3651   */\n      calldataload\n        /* \"#utility.yul\":3621:3651   */\n      swap1\n      pop\n        /* \"#utility.yul\":3674:3692   */\n      0xffffffffffffffff\n        /* \"#utility.yul\":3666:3672   */\n      dup2\n        /* \"#utility.yul\":3663:3693   */\n      gt\n        /* \"#utility.yul\":3660:3777   */\n      iszero\n      tag_115\n      jumpi\n        /* \"#utility.yul\":3696:3775   */\n      tag_116\n      tag_73\n      jump\t// in\n    tag_116:\n        /* \"#utility.yul\":3660:3777   */\n    tag_115:\n        /* \"#utility.yul\":3810:3814   */\n      0x20\n        /* \"#utility.yul\":3802:3808   */\n      dup4\n        /* \"#utility.yul\":3798:3815   */\n      add\n        /* \"#utility.yul\":3786:3815   */\n      swap2\n      pop\n        /* \"#utility.yul\":3864:3867   */\n      dup4\n        /* \"#utility.yul\":3856:3860   */\n      0x20\n        /* \"#utility.yul\":3848:3854   */\n      dup3\n        /* \"#utility.yul\":3844:3861   */\n      mul\n        /* \"#utility.yul\":3834:3842   */\n      dup4\n        /* \"#utility.yul\":3830:3862   */\n      add\n        /* \"#utility.yul\":3827:3868   */\n      gt\n        /* \"#utility.yul\":3824:3952   */\n      iszero\n      tag_117\n      jumpi\n        /* \"#utility.yul\":3871:3950   */\n      tag_118\n      tag_74\n      jump\t// in\n    tag_118:\n        /* \"#utility.yul\":3824:3952   */\n    tag_117:\n        /* \"#utility.yul\":3391:3958   */\n      swap3\n      pop\n      swap3\n      swap1\n      pop\n      jump\t// out\n        /* \"#utility.yul\":3964:4521   */\n    tag_22:\n        /* \"#utility.yul\":4049:4055   */\n      0x00\n        /* \"#utility.yul\":4057:4063   */\n      dup1\n        /* \"#utility.yul\":4106:4108   */\n      0x20\n        /* \"#utility.yul\":4094:4103   */\n      dup4\n        /* \"#utility.yul\":4085:4092   */\n      dup6\n        /* \"#utility.yul\":4081:4104   */\n      sub\n        /* \"#utility.yul\":4077:4109   */\n      slt\n        /* \"#utility.yul\":4074:4193   */\n      iszero\n      tag_120\n      jumpi\n        /* \"#utility.yul\":4112:4191   */\n      tag_121\n      tag_60\n      jump\t// in\n    tag_121:\n        /* \"#utility.yul\":4074:4193   */\n    tag_120:\n        /* \"#utility.yul\":4260:4261   */\n      0x00\n        /* \"#utility.yul\":4249:4258   */\n      dup4\n        /* \"#utility.yul\":4245:4262   */\n      add\n        /* \"#utility.yul\":4232:4263   */\n      calldataload\n        /* \"#utility.yul\":4290:4308   */\n      0xffffffffffffffff\n        /* \"#utility.yul\":4282:4288   */\n      dup2\n        /* \"#utility.yul\":4279:4309   */\n      gt\n        /* \"#utility.yul\":4276:4393   */\n      iszero\n      tag_122\n      jumpi\n        /* \"#utility.yul\":4312:4391   */\n      tag_123\n      tag_61\n      jump\t// in\n    tag_123:\n        /* \"#utility.yul\":4276:4393   */\n    tag_122:\n        /* \"#utility.yul\":4425:4504   */\n      tag_124\n        /* \"#utility.yul\":4496:4503   */\n      dup6\n        /* \"#utility.yul\":4487:4493   */\n      dup3\n        /* \"#utility.yul\":4476:4485   */\n      dup7\n        /* \"#utility.yul\":4472:4494   */\n      add\n        /* \"#utility.yul\":4425:4504   */\n      tag_75\n      jump\t// in\n    tag_124:\n        /* \"#utility.yul\":4407:4504   */\n      swap3\n      pop\n      swap3\n      pop\n        /* \"#utility.yul\":4203:4514   */\n      pop\n        /* \"#utility.yul\":3964:4521   */\n      swap3\n      pop\n      swap3\n      swap1\n      pop\n      jump\t// out\n\n    auxdata: 0xa26469706673582212205a0eb2026b794ee2a07362d38aaee67696a8a17d2dbedcaed153ad3123237d8064736f6c63430008120033\n}\n",
				"bytecode": {
					"linkReferences": {},
					"object": "608060405234801561001057600080fd5b506105a0806100206000396000f3fe608060405234801561001057600080fd5b50600436106100625760003560e01c806353042bd1146100675780639944cc7114610083578063a898fd70146100a1578063c3b85ae2146100bf578063ef062d94146100ef578063f8bea4551461010b575b600080fd5b610081600480360381019061007c91906103ab565b610115565b005b61008b610141565b6040516100989190610496565b60405180910390f35b6100a9610199565b6040516100b69190610496565b60405180910390f35b6100d960048036038101906100d4919061051d565b6101f1565b6040516100e69190610496565b60405180910390f35b610109600480360381019061010491906103ab565b61026e565b005b61011361029a565b005b600081908060018154018082558091505060019003906000526020600020016000909190919091505550565b6060600080548060200260200160405190810160405280929190818152602001828054801561018f57602002820191906000526020600020905b81548152602001906001019080831161017b575b5050505050905090565b606060018054806020026020016040519081016040528092919081815260200182805480156101e757602002820191906000526020600020905b8154815260200190600101908083116101d3575b5050505050905090565b606080600080548060200260200160405190810160405280929190818152602001828054801561024057602002820191906000526020600020905b81548152602001906001019080831161022c575b505050505090508383600091906102589291906102af565b5036600085859150915082935050505092915050565b600181908060018154018082558091505060019003906000526020600020016000909190919091505550565b600160009080546102ac9291906102fc565b50565b8280548282559060005260206000209081019282156102eb579160200282015b828111156102ea5782358255916020019190600101906102cf565b5b5090506102f8919061034e565b5090565b82805482825590600052602060002090810192821561033d5760005260206000209182015b8281111561033c578254825591600101919060010190610321565b5b50905061034a919061034e565b5090565b5b8082111561036757600081600090555060010161034f565b5090565b600080fd5b600080fd5b6000819050919050565b61038881610375565b811461039357600080fd5b50565b6000813590506103a58161037f565b92915050565b6000602082840312156103c1576103c061036b565b5b60006103cf84828501610396565b91505092915050565b600081519050919050565b600082825260208201905092915050565b6000819050602082019050919050565b61040d81610375565b82525050565b600061041f8383610404565b60208301905092915050565b6000602082019050919050565b6000610443826103d8565b61044d81856103e3565b9350610458836103f4565b8060005b838110156104895781516104708882610413565b975061047b8361042b565b92505060018101905061045c565b5085935050505092915050565b600060208201905081810360008301526104b08184610438565b905092915050565b600080fd5b600080fd5b600080fd5b60008083601f8401126104dd576104dc6104b8565b5b8235905067ffffffffffffffff8111156104fa576104f96104bd565b5b602083019150836020820283011115610516576105156104c2565b5b9250929050565b600080602083850312156105345761053361036b565b5b600083013567ffffffffffffffff81111561055257610551610370565b5b61055e858286016104c7565b9250925050925092905056fea26469706673582212205a0eb2026b794ee2a07362d38aaee67696a8a17d2dbedcaed153ad3123237d8064736f6c63430008120033",
					"opcodes": "PUSH1 0x80 PUSH1 0x40 MSTORE CALLVALUE DUP1 ISZERO PUSH2 0x10 JUMPI PUSH1 0x0 DUP1 REVERT JUMPDEST POP PUSH2 0x5A0 DUP1 PUSH2 0x20 PUSH1 0x0 CODECOPY PUSH1 0x0 RETURN INVALID PUSH1 0x80 PUSH1 0x40 MSTORE CALLVALUE DUP1 ISZERO PUSH2 0x10 JUMPI PUSH1 0x0 DUP1 REVERT JUMPDEST POP PUSH1 0x4 CALLDATASIZE LT PUSH2 0x62 JUMPI PUSH1 0x0 CALLDATALOAD PUSH1 0xE0 SHR DUP1 PUSH4 0x53042BD1 EQ PUSH2 0x67 JUMPI DUP1 PUSH4 0x9944CC71 EQ PUSH2 0x83 JUMPI DUP1 PUSH4 0xA898FD70 EQ PUSH2 0xA1 JUMPI DUP1 PUSH4 0xC3B85AE2 EQ PUSH2 0xBF JUMPI DUP1 PUSH4 0xEF062D94 EQ PUSH2 0xEF JUMPI DUP1 PUSH4 0xF8BEA455 EQ PUSH2 0x10B JUMPI JUMPDEST PUSH1 0x0 DUP1 REVERT JUMPDEST PUSH2 0x81 PUSH1 0x4 DUP1 CALLDATASIZE SUB DUP2 ADD SWAP1 PUSH2 0x7C SWAP2 SWAP1 PUSH2 0x3AB JUMP JUMPDEST PUSH2 0x115 JUMP JUMPDEST STOP JUMPDEST PUSH2 0x8B PUSH2 0x141 JUMP JUMPDEST PUSH1 0x40 MLOAD PUSH2 0x98 SWAP2 SWAP1 PUSH2 0x496 JUMP JUMPDEST PUSH1 0x40 MLOAD DUP1 SWAP2 SUB SWAP1 RETURN JUMPDEST PUSH2 0xA9 PUSH2 0x199 JUMP JUMPDEST PUSH1 0x40 MLOAD PUSH2 0xB6 SWAP2 SWAP1 PUSH2 0x496 JUMP JUMPDEST PUSH1 0x40 MLOAD DUP1 SWAP2 SUB SWAP1 RETURN JUMPDEST PUSH2 0xD9 PUSH1 0x4 DUP1 CALLDATASIZE SUB DUP2 ADD SWAP1 PUSH2 0xD4 SWAP2 SWAP1 PUSH2 0x51D JUMP JUMPDEST PUSH2 0x1F1 JUMP JUMPDEST PUSH1 0x40 MLOAD PUSH2 0xE6 SWAP2 SWAP1 PUSH2 0x496 JUMP JUMPDEST PUSH1 0x40 MLOAD DUP1 SWAP2 SUB SWAP1 RETURN JUMPDEST PUSH2 0x109 PUSH1 0x4 DUP1 CALLDATASIZE SUB DUP2 ADD SWAP1 PUSH2 0x104 SWAP2 SWAP1 PUSH2 0x3AB JUMP JUMPDEST PUSH2 0x26E JUMP JUMPDEST STOP JUMPDEST PUSH2 0x113 PUSH2 0x29A JUMP JUMPDEST STOP JUMPDEST PUSH1 0x0 DUP2 SWAP1 DUP1 PUSH1 0x1 DUP2 SLOAD ADD DUP1 DUP3 SSTORE DUP1 SWAP2 POP POP PUSH1 0x1 SWAP1 SUB SWAP1 PUSH1 0x0 MSTORE PUSH1 0x20 PUSH1 0x0 KECCAK256 ADD PUSH1 0x0 SWAP1 SWAP2 SWAP1 SWAP2 SWAP1 SWAP2 POP SSTORE POP JUMP JUMPDEST PUSH1 0x60 PUSH1 0x0 DUP1 SLOAD DUP1 PUSH1 0x20 MUL PUSH1 0x20 ADD PUSH1 0x40 MLOAD SWAP1 DUP2 ADD PUSH1 0x40 MSTORE DUP1 SWAP3 SWAP2 SWAP1 DUP2 DUP2 MSTORE PUSH1 0x20 ADD DUP3 DUP1 SLOAD DUP1 ISZERO PUSH2 0x18F JUMPI PUSH1 0x20 MUL DUP3 ADD SWAP2 SWAP1 PUSH1 0x0 MSTORE PUSH1 0x20 PUSH1 0x0 KECCAK256 SWAP1 JUMPDEST DUP2 SLOAD DUP2 MSTORE PUSH1 0x20 ADD SWAP1 PUSH1 0x1 ADD SWAP1 DUP1 DUP4 GT PUSH2 0x17B JUMPI JUMPDEST POP POP POP POP POP SWAP1 POP SWAP1 JUMP JUMPDEST PUSH1 0x60 PUSH1 0x1 DUP1 SLOAD DUP1 PUSH1 0x20 MUL PUSH1 0x20 ADD PUSH1 0x40 MLOAD SWAP1 DUP2 ADD PUSH1 0x40 MSTORE DUP1 SWAP3 SWAP2 SWAP1 DUP2 DUP2 MSTORE PUSH1 0x20 ADD DUP3 DUP1 SLOAD DUP1 ISZERO PUSH2 0x1E7 JUMPI PUSH1 0x20 MUL DUP3 ADD SWAP2 SWAP1 PUSH1 0x0 MSTORE PUSH1 0x20 PUSH1 0x0 KECCAK256 SWAP1 JUMPDEST DUP2 SLOAD DUP2 MSTORE PUSH1 0x20 ADD SWAP1 PUSH1 0x1 ADD SWAP1 DUP1 DUP4 GT PUSH2 0x1D3 JUMPI JUMPDEST POP POP POP POP POP SWAP1 POP SWAP1 JUMP JUMPDEST PUSH1 0x60 DUP1 PUSH1 0x0 DUP1 SLOAD DUP1 PUSH1 0x20 MUL PUSH1 0x20 ADD PUSH1 0x40 MLOAD SWAP1 DUP2 ADD PUSH1 0x40 MSTORE DUP1 SWAP3 SWAP2 SWAP1 DUP2 DUP2 MSTORE PUSH1 0x20 ADD DUP3 DUP1 SLOAD DUP1 ISZERO PUSH2 0x240 JUMPI PUSH1 0x20 MUL DUP3 ADD SWAP2 SWAP1 PUSH1 0x0 MSTORE PUSH1 0x20 PUSH1 0x0 KECCAK256 SWAP1 JUMPDEST DUP2 SLOAD DUP2 MSTORE PUSH1 0x20 ADD SWAP1 PUSH1 0x1 ADD SWAP1 DUP1 DUP4 GT PUSH2 0x22C JUMPI JUMPDEST POP POP POP POP POP SWAP1 POP DUP4 DUP4 PUSH1 0x0 SWAP2 SWAP1 PUSH2 0x258 SWAP3 SWAP2 SWAP1 PUSH2 0x2AF JUMP JUMPDEST POP CALLDATASIZE PUSH1 0x0 DUP6 DUP6 SWAP2 POP SWAP2 POP DUP3 SWAP4 POP POP POP POP SWAP3 SWAP2 POP POP JUMP JUMPDEST PUSH1 0x1 DUP2 SWAP1 DUP1 PUSH1 0x1 DUP2 SLOAD ADD DUP1 DUP3 SSTORE DUP1 SWAP2 POP POP PUSH1 0x1 SWAP1 SUB SWAP1 PUSH1 0x0 MSTORE PUSH1 0x20 PUSH1 0x0 KECCAK256 ADD PUSH1 0x0 SWAP1 SWAP2 SWAP1 SWAP2 SWAP1 SWAP2 POP SSTORE POP JUMP JUMPDEST PUSH1 0x1 PUSH1 0x0 SWAP1 DUP1 SLOAD PUSH2 0x2AC SWAP3 SWAP2 SWAP1 PUSH2 0x2FC JUMP JUMPDEST POP JUMP JUMPDEST DUP3 DUP1 SLOAD DUP3 DUP3 SSTORE SWAP1 PUSH1 0x0 MSTORE PUSH1 0x20 PUSH1 0x0 KECCAK256 SWAP1 DUP2 ADD SWAP3 DUP3 ISZERO PUSH2 0x2EB JUMPI SWAP2 PUSH1 0x20 MUL DUP3 ADD JUMPDEST DUP3 DUP2 GT ISZERO PUSH2 0x2EA JUMPI DUP3 CALLDATALOAD DUP3 SSTORE SWAP2 PUSH1 0x20 ADD SWAP2 SWAP1 PUSH1 0x1 ADD SWAP1 PUSH2 0x2CF JUMP JUMPDEST JUMPDEST POP SWAP1 POP PUSH2 0x2F8 SWAP2 SWAP1 PUSH2 0x34E JUMP JUMPDEST POP SWAP1 JUMP JUMPDEST DUP3 DUP1 SLOAD DUP3 DUP3 SSTORE SWAP1 PUSH1 0x0 MSTORE PUSH1 0x20 PUSH1 0x0 KECCAK256 SWAP1 DUP2 ADD SWAP3 DUP3 ISZERO PUSH2 0x33D JUMPI PUSH1 0x0 MSTORE PUSH1 0x20 PUSH1 0x0 KECCAK256 SWAP2 DUP3 ADD JUMPDEST DUP3 DUP2 GT ISZERO PUSH2 0x33C JUMPI DUP3 SLOAD DUP3 SSTORE SWAP2 PUSH1 0x1 ADD SWAP2 SWAP1 PUSH1 0x1 ADD SWAP1 PUSH2 0x321 JUMP JUMPDEST JUMPDEST POP SWAP1 POP PUSH2 0x34A SWAP2 SWAP1 PUSH2 0x34E JUMP JUMPDEST POP SWAP1 JUMP JUMPDEST JUMPDEST DUP1 DUP3 GT ISZERO PUSH2 0x367 JUMPI PUSH1 0x0 DUP2 PUSH1 0x0 SWAP1 SSTORE POP PUSH1 0x1 ADD PUSH2 0x34F JUMP JUMPDEST POP SWAP1 JUMP JUMPDEST PUSH1 0x0 DUP1 REVERT JUMPDEST PUSH1 0x0 DUP1 REVERT JUMPDEST PUSH1 0x0 DUP2 SWAP1 POP SWAP2 SWAP1 POP JUMP JUMPDEST PUSH2 0x388 DUP2 PUSH2 0x375 JUMP JUMPDEST DUP2 EQ PUSH2 0x393 JUMPI PUSH1 0x0 DUP1 REVERT JUMPDEST POP JUMP JUMPDEST PUSH1 0x0 DUP2 CALLDATALOAD SWAP1 POP PUSH2 0x3A5 DUP2 PUSH2 0x37F JUMP JUMPDEST SWAP3 SWAP2 POP POP JUMP JUMPDEST PUSH1 0x0 PUSH1 0x20 DUP3 DUP5 SUB SLT ISZERO PUSH2 0x3C1 JUMPI PUSH2 0x3C0 PUSH2 0x36B JUMP JUMPDEST JUMPDEST PUSH1 0x0 PUSH2 0x3CF DUP5 DUP3 DUP6 ADD PUSH2 0x396 JUMP JUMPDEST SWAP2 POP POP SWAP3 SWAP2 POP POP JUMP JUMPDEST PUSH1 0x0 DUP2 MLOAD SWAP1 POP SWAP2 SWAP1 POP JUMP JUMPDEST PUSH1 0x0 DUP3 DUP3 MSTORE PUSH1 0x20 DUP3 ADD SWAP1 POP SWAP3 SWAP2 POP POP JUMP JUMPDEST PUSH1 0x0 DUP2 SWAP1 POP PUSH1 0x20 DUP3 ADD SWAP1 POP SWAP2 SWAP1 POP JUMP JUMPDEST PUSH2 0x40D DUP2 PUSH2 0x375 JUMP JUMPDEST DUP3 MSTORE POP POP JUMP JUMPDEST PUSH1 0x0 PUSH2 0x41F DUP4 DUP4 PUSH2 0x404 JUMP JUMPDEST PUSH1 0x20 DUP4 ADD SWAP1 POP SWAP3 SWAP2 POP POP JUMP JUMPDEST PUSH1 0x0 PUSH1 0x20 DUP3 ADD SWAP1 POP SWAP2 SWAP1 POP JUMP JUMPDEST PUSH1 0x0 PUSH2 0x443 DUP3 PUSH2 0x3D8 JUMP JUMPDEST PUSH2 0x44D DUP2 DUP6 PUSH2 0x3E3 JUMP JUMPDEST SWAP4 POP PUSH2 0x458 DUP4 PUSH2 0x3F4 JUMP JUMPDEST DUP1 PUSH1 0x0 JUMPDEST DUP4 DUP2 LT ISZERO PUSH2 0x489 JUMPI DUP2 MLOAD PUSH2 0x470 DUP9 DUP3 PUSH2 0x413 JUMP JUMPDEST SWAP8 POP PUSH2 0x47B DUP4 PUSH2 0x42B JUMP JUMPDEST SWAP3 POP POP PUSH1 0x1 DUP2 ADD SWAP1 POP PUSH2 0x45C JUMP JUMPDEST POP DUP6 SWAP4 POP POP POP POP SWAP3 SWAP2 POP POP JUMP JUMPDEST PUSH1 0x0 PUSH1 0x20 DUP3 ADD SWAP1 POP DUP2 DUP2 SUB PUSH1 0x0 DUP4 ADD MSTORE PUSH2 0x4B0 DUP2 DUP5 PUSH2 0x438 JUMP JUMPDEST SWAP1 POP SWAP3 SWAP2 POP POP JUMP JUMPDEST PUSH1 0x0 DUP1 REVERT JUMPDEST PUSH1 0x0 DUP1 REVERT JUMPDEST PUSH1 0x0 DUP1 REVERT JUMPDEST PUSH1 0x0 DUP1 DUP4 PUSH1 0x1F DUP5 ADD SLT PUSH2 0x4DD JUMPI PUSH2 0x4DC PUSH2 0x4B8 JUMP JUMPDEST JUMPDEST DUP3 CALLDATALOAD SWAP1 POP PUSH8 0xFFFFFFFFFFFFFFFF DUP2 GT ISZERO PUSH2 0x4FA JUMPI PUSH2 0x4F9 PUSH2 0x4BD JUMP JUMPDEST JUMPDEST PUSH1 0x20 DUP4 ADD SWAP2 POP DUP4 PUSH1 0x20 DUP3 MUL DUP4 ADD GT ISZERO PUSH2 0x516 JUMPI PUSH2 0x515 PUSH2 0x4C2 JUMP JUMPDEST JUMPDEST SWAP3 POP SWAP3 SWAP1 POP JUMP JUMPDEST PUSH1 0x0 DUP1 PUSH1 0x20 DUP4 DUP6 SUB SLT ISZERO PUSH2 0x534 JUMPI PUSH2 0x533 PUSH2 0x36B JUMP JUMPDEST JUMPDEST PUSH1 0x0 DUP4 ADD CALLDATALOAD PUSH8 0xFFFFFFFFFFFFFFFF DUP2 GT ISZERO PUSH2 0x552 JUMPI PUSH2 0x551 PUSH2 0x370 JUMP JUMPDEST JUMPDEST PUSH2 0x55E DUP6 DUP3 DUP7 ADD PUSH2 0x4C7 JUMP JUMPDEST SWAP3 POP SWAP3 POP POP SWAP3 POP SWAP3 SWAP1 POP JUMP INVALID LOG2 PUSH5 0x6970667358 0x22 SLT KECCAK256 GAS 0xE 0xB2 MUL PUSH12 0x794EE2A07362D38AAEE67696 0xA8 LOG1 PUSH30 0x2DBEDCAED153AD3123237D8064736F6C6343000812003300000000000000 "
				},
				"gasEstimates": {
					"creation": {
						"codeDepositCost": "288000",
						"executionCost": "324",
						"totalCost": "288324"
					},
					"external": {
						"getData1()": "infinite",
						"getData2()": "infinite",
						"insertData1(int256)": "46807",
						"insertData2(int256)": "46895",
						"setData1ToData2()": "infinite",
						"testSecondRule(int256[])": "infinite"
					}
				},
				"methodIdentifiers": {
					"getData1()": "9944cc71",
					"getData2()": "a898fd70",
					"insertData1(int256)": "53042bd1",
					"insertData2(int256)": "ef062d94",
					"setData1ToData2()": "f8bea455",
					"testSecondRule(int256[])": "c3b85ae2"
				}
			},
			"storageLayout": {
				"storage": [
					{
						"astId": 4,
						"contract": "contracts/8_LocalStorageVarible.sol:LocalStorageVariable",
						"label": "data1",
						"offset": 0,
						"slot": "0",
						"type": "t_array(t_int256)dyn_storage"
					},
					{
						"astId": 7,
						"contract": "contracts/8_LocalStorageVarible.sol:LocalStorageVariable",
						"label": "data2",
						"offset": 0,
						"slot": "1",
						"type": "t_array(t_int256)dyn_storage"
					}
				],
				"types": {
					"t_array(t_int256)dyn_storage": {
						"base": "t_int256",
						"encoding": "dynamic_array",
						"label": "int256[]",
						"numberOfBytes": "32"
					},
					"t_int256": {
						"encoding": "inplace",
						"label": "int256",
						"numberOfBytes": "32"
					}
				}
			},
			"userdoc": {
				"kind": "user",
				"methods": {},
				"version": 1
			}
		}
	}
}