{
	"contracts/todo.sol": {
		"Todo": {
			"abi": [
				{
					"inputs": [],
					"stateMutability": "nonpayable",
					"type": "constructor"
				},
				{
					"inputs": [
						{
							"internalType": "string",
							"name": "_content",
							"type": "string"
						}
					],
					"name": "add",
					"outputs": [],
					"stateMutability": "nonpayable",
					"type": "function"
				},
				{
					"inputs": [
						{
							"internalType": "uint256",
							"name": "_id",
							"type": "uint256"
						}
					],
					"name": "get",
					"outputs": [
						{
							"components": [
								{
									"internalType": "string",
									"name": "content",
									"type": "string"
								},
								{
									"internalType": "bool",
									"name": "status",
									"type": "bool"
								}
							],
							"internalType": "struct Todo.Task",
							"name": "",
							"type": "tuple"
						}
					],
					"stateMutability": "view",
					"type": "function"
				},
				{
					"inputs": [],
					"name": "list",
					"outputs": [
						{
							"components": [
								{
									"internalType": "string",
									"name": "content",
									"type": "string"
								},
								{
									"internalType": "bool",
									"name": "status",
									"type": "bool"
								}
							],
							"internalType": "struct Todo.Task[]",
							"name": "",
							"type": "tuple[]"
						}
					],
					"stateMutability": "view",
					"type": "function"
				},
				{
					"inputs": [],
					"name": "owner",
					"outputs": [
						{
							"internalType": "address",
							"name": "",
							"type": "address"
						}
					],
					"stateMutability": "view",
					"type": "function"
				},
				{
					"inputs": [
						{
							"internalType": "uint256",
							"name": "_id",
							"type": "uint256"
						}
					],
					"name": "remove",
					"outputs": [],
					"stateMutability": "nonpayable",
					"type": "function"
				},
				{
					"inputs": [
						{
							"internalType": "uint256",
							"name": "_id",
							"type": "uint256"
						}
					],
					"name": "toggle",
					"outputs": [],
					"stateMutability": "nonpayable",
					"type": "function"
				},
				{
					"inputs": [
						{
							"internalType": "uint256",
							"name": "_id",
							"type": "uint256"
						},
						{
							"internalType": "string",
							"name": "_content",
							"type": "string"
						}
					],
					"name": "update",
					"outputs": [],
					"stateMutability": "nonpayable",
					"type": "function"
				}
			],
			"devdoc": {
				"kind": "dev",
				"methods": {},
				"version": 1
			},
			"evm": {
				"assembly": "    /* \"contracts/todo.sol\":65:1071  contract Todo{... */\n  mstore(0x40, 0x80)\n    /* \"contracts/todo.sol\":199:247  constructor(){... */\n  callvalue\n  dup1\n  iszero\n  tag_1\n  jumpi\n  0x00\n  dup1\n  revert\ntag_1:\n  pop\n    /* \"contracts/todo.sol\":230:240  msg.sender */\n  caller\n    /* \"contracts/todo.sol\":222:227  owner */\n  0x00\n  dup1\n    /* \"contracts/todo.sol\":222:240  owner = msg.sender */\n  0x0100\n  exp\n  dup2\n  sload\n  dup2\n  0xffffffffffffffffffffffffffffffffffffffff\n  mul\n  not\n  and\n  swap1\n  dup4\n  0xffffffffffffffffffffffffffffffffffffffff\n  and\n  mul\n  or\n  swap1\n  sstore\n  pop\n    /* \"contracts/todo.sol\":65:1071  contract Todo{... */\n  dataSize(sub_0)\n  dup1\n  dataOffset(sub_0)\n  0x00\n  codecopy\n  0x00\n  return\nstop\n\nsub_0: assembly {\n        /* \"contracts/todo.sol\":65:1071  contract Todo{... */\n      mstore(0x40, 0x80)\n      callvalue\n      dup1\n      iszero\n      tag_1\n      jumpi\n      0x00\n      dup1\n      revert\n    tag_1:\n      pop\n      jumpi(tag_2, lt(calldatasize, 0x04))\n      shr(0xe0, calldataload(0x00))\n      dup1\n      0x8da5cb5b\n      gt\n      tag_10\n      jumpi\n      dup1\n      0x8da5cb5b\n      eq\n      tag_6\n      jumpi\n      dup1\n      0x9507d39a\n      eq\n      tag_7\n      jumpi\n      dup1\n      0xb0c8f9dc\n      eq\n      tag_8\n      jumpi\n      dup1\n      0xf745630f\n      eq\n      tag_9\n      jumpi\n      jump(tag_2)\n    tag_10:\n      dup1\n      0x0f560cd7\n      eq\n      tag_3\n      jumpi\n      dup1\n      0x4cc82215\n      eq\n      tag_4\n      jumpi\n      dup1\n      0x751ef753\n      eq\n      tag_5\n      jumpi\n    tag_2:\n      0x00\n      dup1\n      revert\n        /* \"contracts/todo.sol\":521:638  function list() public view returns (Task[] memory) {... */\n    tag_3:\n      tag_11\n      tag_12\n      jump\t// in\n    tag_11:\n      mload(0x40)\n      tag_13\n      swap2\n      swap1\n      tag_14\n      jump\t// in\n    tag_13:\n      mload(0x40)\n      dup1\n      swap2\n      sub\n      swap1\n      return\n        /* \"contracts/todo.sol\":918:1069  function remove(uint _id) public {... */\n    tag_4:\n      tag_15\n      0x04\n      dup1\n      calldatasize\n      sub\n      dup2\n      add\n      swap1\n      tag_16\n      swap2\n      swap1\n      tag_17\n      jump\t// in\n    tag_16:\n      tag_18\n      jump\t// in\n    tag_15:\n      stop\n        /* \"contracts/todo.sol\":644:770  function toggle(uint _id) public {... */\n    tag_5:\n      tag_19\n      0x04\n      dup1\n      calldatasize\n      sub\n      dup2\n      add\n      swap1\n      tag_20\n      swap2\n      swap1\n      tag_17\n      jump\t// in\n    tag_20:\n      tag_21\n      jump\t// in\n    tag_19:\n      stop\n        /* \"contracts/todo.sol\":84:105  address public  owner */\n    tag_6:\n      tag_22\n      tag_23\n      jump\t// in\n    tag_22:\n      mload(0x40)\n      tag_24\n      swap2\n      swap1\n      tag_25\n      jump\t// in\n    tag_24:\n      mload(0x40)\n      dup1\n      swap2\n      sub\n      swap1\n      return\n        /* \"contracts/todo.sol\":388:515  function get(uint _id) public view returns (Task memory) {... */\n    tag_7:\n      tag_26\n      0x04\n      dup1\n      calldatasize\n      sub\n      dup2\n      add\n      swap1\n      tag_27\n      swap2\n      swap1\n      tag_17\n      jump\t// in\n    tag_27:\n      tag_28\n      jump\t// in\n    tag_26:\n      mload(0x40)\n      tag_29\n      swap2\n      swap1\n      tag_30\n      jump\t// in\n    tag_29:\n      mload(0x40)\n      dup1\n      swap2\n      sub\n      swap1\n      return\n        /* \"contracts/todo.sol\":253:382  function add(string memory _content) public {... */\n    tag_8:\n      tag_31\n      0x04\n      dup1\n      calldatasize\n      sub\n      dup2\n      add\n      swap1\n      tag_32\n      swap2\n      swap1\n      tag_33\n      jump\t// in\n    tag_32:\n      tag_34\n      jump\t// in\n    tag_31:\n      stop\n        /* \"contracts/todo.sol\":776:912  function update(uint _id,string memory _content) public {... */\n    tag_9:\n      tag_35\n      0x04\n      dup1\n      calldatasize\n      sub\n      dup2\n      add\n      swap1\n      tag_36\n      swap2\n      swap1\n      tag_37\n      jump\t// in\n    tag_36:\n      tag_38\n      jump\t// in\n    tag_35:\n      stop\n        /* \"contracts/todo.sol\":521:638  function list() public view returns (Task[] memory) {... */\n    tag_12:\n        /* \"contracts/todo.sol\":558:571  Task[] memory */\n      0x60\n        /* \"contracts/todo.sol\":598:608  msg.sender */\n      caller\n        /* \"contracts/todo.sol\":591:608  owner==msg.sender */\n      0xffffffffffffffffffffffffffffffffffffffff\n      and\n        /* \"contracts/todo.sol\":591:596  owner */\n      0x00\n      dup1\n      sload\n      swap1\n      0x0100\n      exp\n      swap1\n      div\n      0xffffffffffffffffffffffffffffffffffffffff\n      and\n        /* \"contracts/todo.sol\":591:608  owner==msg.sender */\n      0xffffffffffffffffffffffffffffffffffffffff\n      and\n      eq\n        /* \"contracts/todo.sol\":583:609  require(owner==msg.sender) */\n      tag_40\n      jumpi\n      0x00\n      dup1\n      revert\n    tag_40:\n        /* \"contracts/todo.sol\":626:631  tasks */\n      0x01\n        /* \"contracts/todo.sol\":619:631  return tasks */\n      dup1\n      sload\n      dup1\n      0x20\n      mul\n      0x20\n      add\n      mload(0x40)\n      swap1\n      dup2\n      add\n      0x40\n      mstore\n      dup1\n      swap3\n      swap2\n      swap1\n      dup2\n      dup2\n      mstore\n      0x20\n      add\n      0x00\n      swap1\n    tag_41:\n      dup3\n      dup3\n      lt\n      iszero\n      tag_42\n      jumpi\n      dup4\n      dup3\n      swap1\n      0x00\n      mstore\n      keccak256(0x00, 0x20)\n      swap1\n      0x02\n      mul\n      add\n      mload(0x40)\n      dup1\n      0x40\n      add\n      0x40\n      mstore\n      swap1\n      dup2\n      0x00\n      dup3\n      add\n      dup1\n      sload\n      tag_44\n      swap1\n      tag_45\n      jump\t// in\n    tag_44:\n      dup1\n      0x1f\n      add\n      0x20\n      dup1\n      swap2\n      div\n      mul\n      0x20\n      add\n      mload(0x40)\n      swap1\n      dup2\n      add\n      0x40\n      mstore\n      dup1\n      swap3\n      swap2\n      swap1\n      dup2\n      dup2\n      mstore\n      0x20\n      add\n      dup3\n      dup1\n      sload\n      tag_46\n      swap1\n      tag_45\n      jump\t// in\n    tag_46:\n      dup1\n      iszero\n      tag_47\n      jumpi\n      dup1\n      0x1f\n      lt\n      tag_48\n      jumpi\n      0x0100\n      dup1\n      dup4\n      sload\n      div\n      mul\n      dup4\n      mstore\n      swap2\n      0x20\n      add\n      swap2\n      jump(tag_47)\n    tag_48:\n      dup3\n      add\n      swap2\n      swap1\n      0x00\n      mstore\n      keccak256(0x00, 0x20)\n      swap1\n    tag_49:\n      dup2\n      sload\n      dup2\n      mstore\n      swap1\n      0x01\n      add\n      swap1\n      0x20\n      add\n      dup1\n      dup4\n      gt\n      tag_49\n      jumpi\n      dup3\n      swap1\n      sub\n      0x1f\n      and\n      dup3\n      add\n      swap2\n    tag_47:\n      pop\n      pop\n      pop\n      pop\n      pop\n      dup2\n      mstore\n      0x20\n      add\n      0x01\n      dup3\n      add\n      0x00\n      swap1\n      sload\n      swap1\n      0x0100\n      exp\n      swap1\n      div\n      0xff\n      and\n      iszero\n      iszero\n      iszero\n      iszero\n      dup2\n      mstore\n      pop\n      pop\n      dup2\n      mstore\n      0x20\n      add\n      swap1\n      0x01\n      add\n      swap1\n      jump(tag_41)\n    tag_42:\n      pop\n      pop\n      pop\n      pop\n      swap1\n      pop\n        /* \"contracts/todo.sol\":521:638  function list() public view returns (Task[] memory) {... */\n      swap1\n      jump\t// out\n        /* \"contracts/todo.sol\":918:1069  function remove(uint _id) public {... */\n    tag_18:\n        /* \"contracts/todo.sol\":966:972  uint i */\n      0x00\n        /* \"contracts/todo.sol\":973:976  _id */\n      dup2\n        /* \"contracts/todo.sol\":966:976  uint i=_id */\n      swap1\n      pop\n        /* \"contracts/todo.sol\":961:1042  for (uint i=_id;i<tasks.length-1;i++){... */\n    tag_51:\n        /* \"contracts/todo.sol\":992:993  1 */\n      0x01\n        /* \"contracts/todo.sol\":979:984  tasks */\n      dup1\n        /* \"contracts/todo.sol\":979:991  tasks.length */\n      dup1\n      sload\n      swap1\n      pop\n        /* \"contracts/todo.sol\":979:993  tasks.length-1 */\n      tag_54\n      swap2\n      swap1\n      tag_55\n      jump\t// in\n    tag_54:\n        /* \"contracts/todo.sol\":977:978  i */\n      dup2\n        /* \"contracts/todo.sol\":977:993  i<tasks.length-1 */\n      lt\n        /* \"contracts/todo.sol\":961:1042  for (uint i=_id;i<tasks.length-1;i++){... */\n      iszero\n      tag_52\n      jumpi\n        /* \"contracts/todo.sol\":1021:1026  tasks */\n      0x01\n        /* \"contracts/todo.sol\":1029:1030  1 */\n      dup1\n        /* \"contracts/todo.sol\":1027:1028  i */\n      dup3\n        /* \"contracts/todo.sol\":1027:1030  i+1 */\n      tag_56\n      swap2\n      swap1\n      tag_57\n      jump\t// in\n    tag_56:\n        /* \"contracts/todo.sol\":1021:1031  tasks[i+1] */\n      dup2\n      sload\n      dup2\n      lt\n      tag_58\n      jumpi\n      tag_59\n      tag_60\n      jump\t// in\n    tag_59:\n    tag_58:\n      swap1\n      0x00\n      mstore\n      keccak256(0x00, 0x20)\n      swap1\n      0x02\n      mul\n      add\n        /* \"contracts/todo.sol\":1012:1017  tasks */\n      0x01\n        /* \"contracts/todo.sol\":1018:1019  i */\n      dup3\n        /* \"contracts/todo.sol\":1012:1020  tasks[i] */\n      dup2\n      sload\n      dup2\n      lt\n      tag_62\n      jumpi\n      tag_63\n      tag_60\n      jump\t// in\n    tag_63:\n    tag_62:\n      swap1\n      0x00\n      mstore\n      keccak256(0x00, 0x20)\n      swap1\n      0x02\n      mul\n      add\n        /* \"contracts/todo.sol\":1012:1031  tasks[i]=tasks[i+1] */\n      0x00\n      dup3\n      add\n      dup2\n      0x00\n      add\n      swap1\n      dup2\n      tag_65\n      swap2\n      swap1\n      tag_66\n      jump\t// in\n    tag_65:\n      pop\n      0x01\n      dup3\n      add\n      0x00\n      swap1\n      sload\n      swap1\n      0x0100\n      exp\n      swap1\n      div\n      0xff\n      and\n      dup2\n      0x01\n      add\n      exp(0x0100, 0x00)\n      dup2\n      sload\n      dup2\n      0xff\n      mul\n      not\n      and\n      swap1\n      dup4\n      iszero\n      iszero\n      mul\n      or\n      swap1\n      sstore\n      pop\n      swap1\n      pop\n      pop\n        /* \"contracts/todo.sol\":994:997  i++ */\n      dup1\n      dup1\n      0x01\n      add\n      swap2\n      pop\n      pop\n        /* \"contracts/todo.sol\":961:1042  for (uint i=_id;i<tasks.length-1;i++){... */\n      jump(tag_51)\n    tag_52:\n      pop\n        /* \"contracts/todo.sol\":1051:1056  tasks */\n      0x01\n        /* \"contracts/todo.sol\":1051:1062  tasks.pop() */\n      dup1\n      sload\n      dup1\n      tag_67\n      jumpi\n      tag_68\n      tag_69\n      jump\t// in\n    tag_68:\n    tag_67:\n      0x01\n      swap1\n      sub\n      dup2\n      dup2\n      swap1\n      0x00\n      mstore\n      keccak256(0x00, 0x20)\n      swap1\n      0x02\n      mul\n      add\n      0x00\n      dup1\n      dup3\n      add\n      0x00\n      tag_71\n      swap2\n      swap1\n      tag_72\n      jump\t// in\n    tag_71:\n      0x01\n      dup3\n      add\n      exp(0x0100, 0x00)\n      dup2\n      sload\n      swap1\n      0xff\n      mul\n      not\n      and\n      swap1\n      sstore\n      pop\n      pop\n      swap1\n      sstore\n        /* \"contracts/todo.sol\":918:1069  function remove(uint _id) public {... */\n      pop\n      jump\t// out\n        /* \"contracts/todo.sol\":644:770  function toggle(uint _id) public {... */\n    tag_21:\n        /* \"contracts/todo.sol\":702:712  msg.sender */\n      caller\n        /* \"contracts/todo.sol\":695:712  owner==msg.sender */\n      0xffffffffffffffffffffffffffffffffffffffff\n      and\n        /* \"contracts/todo.sol\":695:700  owner */\n      0x00\n      dup1\n      sload\n      swap1\n      0x0100\n      exp\n      swap1\n      div\n      0xffffffffffffffffffffffffffffffffffffffff\n      and\n        /* \"contracts/todo.sol\":695:712  owner==msg.sender */\n      0xffffffffffffffffffffffffffffffffffffffff\n      and\n      eq\n        /* \"contracts/todo.sol\":687:713  require(owner==msg.sender) */\n      tag_74\n      jumpi\n      0x00\n      dup1\n      revert\n    tag_74:\n        /* \"contracts/todo.sol\":745:750  tasks */\n      0x01\n        /* \"contracts/todo.sol\":751:754  _id */\n      dup2\n        /* \"contracts/todo.sol\":745:755  tasks[_id] */\n      dup2\n      sload\n      dup2\n      lt\n      tag_75\n      jumpi\n      tag_76\n      tag_60\n      jump\t// in\n    tag_76:\n    tag_75:\n      swap1\n      0x00\n      mstore\n      keccak256(0x00, 0x20)\n      swap1\n      0x02\n      mul\n      add\n        /* \"contracts/todo.sol\":745:762  tasks[_id].status */\n      0x01\n      add\n      0x00\n      swap1\n      sload\n      swap1\n      0x0100\n      exp\n      swap1\n      div\n      0xff\n      and\n        /* \"contracts/todo.sol\":743:763  !(tasks[_id].status) */\n      iszero\n        /* \"contracts/todo.sol\":723:728  tasks */\n      0x01\n        /* \"contracts/todo.sol\":729:732  _id */\n      dup3\n        /* \"contracts/todo.sol\":723:733  tasks[_id] */\n      dup2\n      sload\n      dup2\n      lt\n      tag_78\n      jumpi\n      tag_79\n      tag_60\n      jump\t// in\n    tag_79:\n    tag_78:\n      swap1\n      0x00\n      mstore\n      keccak256(0x00, 0x20)\n      swap1\n      0x02\n      mul\n      add\n        /* \"contracts/todo.sol\":723:740  tasks[_id].status */\n      0x01\n      add\n      0x00\n        /* \"contracts/todo.sol\":723:763  tasks[_id].status = !(tasks[_id].status) */\n      0x0100\n      exp\n      dup2\n      sload\n      dup2\n      0xff\n      mul\n      not\n      and\n      swap1\n      dup4\n      iszero\n      iszero\n      mul\n      or\n      swap1\n      sstore\n      pop\n        /* \"contracts/todo.sol\":644:770  function toggle(uint _id) public {... */\n      pop\n      jump\t// out\n        /* \"contracts/todo.sol\":84:105  address public  owner */\n    tag_23:\n      0x00\n      dup1\n      sload\n      swap1\n      0x0100\n      exp\n      swap1\n      div\n      0xffffffffffffffffffffffffffffffffffffffff\n      and\n      dup2\n      jump\t// out\n        /* \"contracts/todo.sol\":388:515  function get(uint _id) public view returns (Task memory) {... */\n    tag_28:\n        /* \"contracts/todo.sol\":432:443  Task memory */\n      tag_81\n      tag_82\n      jump\t// in\n    tag_81:\n        /* \"contracts/todo.sol\":470:480  msg.sender */\n      caller\n        /* \"contracts/todo.sol\":463:480  owner==msg.sender */\n      0xffffffffffffffffffffffffffffffffffffffff\n      and\n        /* \"contracts/todo.sol\":463:468  owner */\n      0x00\n      dup1\n      sload\n      swap1\n      0x0100\n      exp\n      swap1\n      div\n      0xffffffffffffffffffffffffffffffffffffffff\n      and\n        /* \"contracts/todo.sol\":463:480  owner==msg.sender */\n      0xffffffffffffffffffffffffffffffffffffffff\n      and\n      eq\n        /* \"contracts/todo.sol\":455:481  require(owner==msg.sender) */\n      tag_84\n      jumpi\n      0x00\n      dup1\n      revert\n    tag_84:\n        /* \"contracts/todo.sol\":498:503  tasks */\n      0x01\n        /* \"contracts/todo.sol\":504:507  _id */\n      dup3\n        /* \"contracts/todo.sol\":498:508  tasks[_id] */\n      dup2\n      sload\n      dup2\n      lt\n      tag_85\n      jumpi\n      tag_86\n      tag_60\n      jump\t// in\n    tag_86:\n    tag_85:\n      swap1\n      0x00\n      mstore\n      keccak256(0x00, 0x20)\n      swap1\n      0x02\n      mul\n      add\n        /* \"contracts/todo.sol\":491:508  return tasks[_id] */\n      mload(0x40)\n      dup1\n      0x40\n      add\n      0x40\n      mstore\n      swap1\n      dup2\n      0x00\n      dup3\n      add\n      dup1\n      sload\n      tag_88\n      swap1\n      tag_45\n      jump\t// in\n    tag_88:\n      dup1\n      0x1f\n      add\n      0x20\n      dup1\n      swap2\n      div\n      mul\n      0x20\n      add\n      mload(0x40)\n      swap1\n      dup2\n      add\n      0x40\n      mstore\n      dup1\n      swap3\n      swap2\n      swap1\n      dup2\n      dup2\n      mstore\n      0x20\n      add\n      dup3\n      dup1\n      sload\n      tag_89\n      swap1\n      tag_45\n      jump\t// in\n    tag_89:\n      dup1\n      iszero\n      tag_90\n      jumpi\n      dup1\n      0x1f\n      lt\n      tag_91\n      jumpi\n      0x0100\n      dup1\n      dup4\n      sload\n      div\n      mul\n      dup4\n      mstore\n      swap2\n      0x20\n      add\n      swap2\n      jump(tag_90)\n    tag_91:\n      dup3\n      add\n      swap2\n      swap1\n      0x00\n      mstore\n      keccak256(0x00, 0x20)\n      swap1\n    tag_92:\n      dup2\n      sload\n      dup2\n      mstore\n      swap1\n      0x01\n      add\n      swap1\n      0x20\n      add\n      dup1\n      dup4\n      gt\n      tag_92\n      jumpi\n      dup3\n      swap1\n      sub\n      0x1f\n      and\n      dup3\n      add\n      swap2\n    tag_90:\n      pop\n      pop\n      pop\n      pop\n      pop\n      dup2\n      mstore\n      0x20\n      add\n      0x01\n      dup3\n      add\n      0x00\n      swap1\n      sload\n      swap1\n      0x0100\n      exp\n      swap1\n      div\n      0xff\n      and\n      iszero\n      iszero\n      iszero\n      iszero\n      dup2\n      mstore\n      pop\n      pop\n      swap1\n      pop\n        /* \"contracts/todo.sol\":388:515  function get(uint _id) public view returns (Task memory) {... */\n      swap2\n      swap1\n      pop\n      jump\t// out\n        /* \"contracts/todo.sol\":253:382  function add(string memory _content) public {... */\n    tag_34:\n        /* \"contracts/todo.sol\":322:332  msg.sender */\n      caller\n        /* \"contracts/todo.sol\":315:332  owner==msg.sender */\n      0xffffffffffffffffffffffffffffffffffffffff\n      and\n        /* \"contracts/todo.sol\":315:320  owner */\n      0x00\n      dup1\n      sload\n      swap1\n      0x0100\n      exp\n      swap1\n      div\n      0xffffffffffffffffffffffffffffffffffffffff\n      and\n        /* \"contracts/todo.sol\":315:332  owner==msg.sender */\n      0xffffffffffffffffffffffffffffffffffffffff\n      and\n      eq\n        /* \"contracts/todo.sol\":307:333  require(owner==msg.sender) */\n      tag_94\n      jumpi\n      0x00\n      dup1\n      revert\n    tag_94:\n        /* \"contracts/todo.sol\":343:348  tasks */\n      0x01\n        /* \"contracts/todo.sol\":354:374  Task(_content,false) */\n      mload(0x40)\n      dup1\n      0x40\n      add\n      0x40\n      mstore\n      dup1\n        /* \"contracts/todo.sol\":359:367  _content */\n      dup4\n        /* \"contracts/todo.sol\":354:374  Task(_content,false) */\n      dup2\n      mstore\n      0x20\n      add\n        /* \"contracts/todo.sol\":368:373  false */\n      0x00\n        /* \"contracts/todo.sol\":354:374  Task(_content,false) */\n      iszero\n      iszero\n      dup2\n      mstore\n      pop\n        /* \"contracts/todo.sol\":343:375  tasks.push(Task(_content,false)) */\n      swap1\n      dup1\n      0x01\n      dup2\n      sload\n      add\n      dup1\n      dup3\n      sstore\n      dup1\n      swap2\n      pop\n      pop\n      0x01\n      swap1\n      sub\n      swap1\n      0x00\n      mstore\n      keccak256(0x00, 0x20)\n      swap1\n      0x02\n      mul\n      add\n      0x00\n      swap1\n      swap2\n      swap1\n      swap2\n      swap1\n      swap2\n      pop\n      0x00\n      dup3\n      add\n      mload\n      dup2\n      0x00\n      add\n      swap1\n      dup2\n      tag_96\n      swap2\n      swap1\n      tag_97\n      jump\t// in\n    tag_96:\n      pop\n      0x20\n      dup3\n      add\n      mload\n      dup2\n      0x01\n      add\n      exp(0x0100, 0x00)\n      dup2\n      sload\n      dup2\n      0xff\n      mul\n      not\n      and\n      swap1\n      dup4\n      iszero\n      iszero\n      mul\n      or\n      swap1\n      sstore\n      pop\n      pop\n      pop\n        /* \"contracts/todo.sol\":253:382  function add(string memory _content) public {... */\n      pop\n      jump\t// out\n        /* \"contracts/todo.sol\":776:912  function update(uint _id,string memory _content) public {... */\n    tag_38:\n        /* \"contracts/todo.sol\":857:867  msg.sender */\n      caller\n        /* \"contracts/todo.sol\":850:867  owner==msg.sender */\n      0xffffffffffffffffffffffffffffffffffffffff\n      and\n        /* \"contracts/todo.sol\":850:855  owner */\n      0x00\n      dup1\n      sload\n      swap1\n      0x0100\n      exp\n      swap1\n      div\n      0xffffffffffffffffffffffffffffffffffffffff\n      and\n        /* \"contracts/todo.sol\":850:867  owner==msg.sender */\n      0xffffffffffffffffffffffffffffffffffffffff\n      and\n      eq\n        /* \"contracts/todo.sol\":842:868  require(owner==msg.sender) */\n      tag_99\n      jumpi\n      0x00\n      dup1\n      revert\n    tag_99:\n        /* \"contracts/todo.sol\":897:905  _content */\n      dup1\n        /* \"contracts/todo.sol\":878:883  tasks */\n      0x01\n        /* \"contracts/todo.sol\":884:887  _id */\n      dup4\n        /* \"contracts/todo.sol\":878:888  tasks[_id] */\n      dup2\n      sload\n      dup2\n      lt\n      tag_100\n      jumpi\n      tag_101\n      tag_60\n      jump\t// in\n    tag_101:\n    tag_100:\n      swap1\n      0x00\n      mstore\n      keccak256(0x00, 0x20)\n      swap1\n      0x02\n      mul\n      add\n        /* \"contracts/todo.sol\":878:896  tasks[_id].content */\n      0x00\n      add\n        /* \"contracts/todo.sol\":878:905  tasks[_id].content=_content */\n      swap1\n      dup2\n      tag_103\n      swap2\n      swap1\n      tag_97\n      jump\t// in\n    tag_103:\n      pop\n        /* \"contracts/todo.sol\":776:912  function update(uint _id,string memory _content) public {... */\n      pop\n      pop\n      jump\t// out\n    tag_72:\n      pop\n      dup1\n      sload\n      tag_104\n      swap1\n      tag_45\n      jump\t// in\n    tag_104:\n      0x00\n      dup3\n      sstore\n      dup1\n      0x1f\n      lt\n      tag_106\n      jumpi\n      pop\n      jump(tag_105)\n    tag_106:\n      0x1f\n      add\n      0x20\n      swap1\n      div\n      swap1\n      0x00\n      mstore\n      keccak256(0x00, 0x20)\n      swap1\n      dup2\n      add\n      swap1\n      tag_107\n      swap2\n      swap1\n      tag_108\n      jump\t// in\n    tag_107:\n    tag_105:\n      pop\n      jump\t// out\n    tag_82:\n      mload(0x40)\n      dup1\n      0x40\n      add\n      0x40\n      mstore\n      dup1\n      0x60\n      dup2\n      mstore\n      0x20\n      add\n      iszero(iszero(0x00))\n      dup2\n      mstore\n      pop\n      swap1\n      jump\t// out\n    tag_108:\n    tag_109:\n      dup1\n      dup3\n      gt\n      iszero\n      tag_110\n      jumpi\n      0x00\n      dup2\n      0x00\n      swap1\n      sstore\n      pop\n      0x01\n      add\n      jump(tag_109)\n    tag_110:\n      pop\n      swap1\n      jump\t// out\n        /* \"#utility.yul\":7:141   */\n    tag_111:\n        /* \"#utility.yul\":94:100   */\n      0x00\n        /* \"#utility.yul\":128:133   */\n      dup2\n        /* \"#utility.yul\":122:134   */\n      mload\n        /* \"#utility.yul\":112:134   */\n      swap1\n      pop\n        /* \"#utility.yul\":7:141   */\n      swap2\n      swap1\n      pop\n      jump\t// out\n        /* \"#utility.yul\":147:351   */\n    tag_112:\n        /* \"#utility.yul\":266:277   */\n      0x00\n        /* \"#utility.yul\":300:306   */\n      dup3\n        /* \"#utility.yul\":295:298   */\n      dup3\n        /* \"#utility.yul\":288:307   */\n      mstore\n        /* \"#utility.yul\":340:344   */\n      0x20\n        /* \"#utility.yul\":335:338   */\n      dup3\n        /* \"#utility.yul\":331:345   */\n      add\n        /* \"#utility.yul\":316:345   */\n      swap1\n      pop\n        /* \"#utility.yul\":147:351   */\n      swap3\n      swap2\n      pop\n      pop\n      jump\t// out\n        /* \"#utility.yul\":357:509   */\n    tag_113:\n        /* \"#utility.yul\":444:448   */\n      0x00\n        /* \"#utility.yul\":467:470   */\n      dup2\n        /* \"#utility.yul\":459:470   */\n      swap1\n      pop\n        /* \"#utility.yul\":497:501   */\n      0x20\n        /* \"#utility.yul\":492:495   */\n      dup3\n        /* \"#utility.yul\":488:502   */\n      add\n        /* \"#utility.yul\":480:502   */\n      swap1\n      pop\n        /* \"#utility.yul\":357:509   */\n      swap2\n      swap1\n      pop\n      jump\t// out\n        /* \"#utility.yul\":515:614   */\n    tag_114:\n        /* \"#utility.yul\":567:573   */\n      0x00\n        /* \"#utility.yul\":601:606   */\n      dup2\n        /* \"#utility.yul\":595:607   */\n      mload\n        /* \"#utility.yul\":585:607   */\n      swap1\n      pop\n        /* \"#utility.yul\":515:614   */\n      swap2\n      swap1\n      pop\n      jump\t// out\n        /* \"#utility.yul\":620:779   */\n    tag_115:\n        /* \"#utility.yul\":694:705   */\n      0x00\n        /* \"#utility.yul\":728:734   */\n      dup3\n        /* \"#utility.yul\":723:726   */\n      dup3\n        /* \"#utility.yul\":716:735   */\n      mstore\n        /* \"#utility.yul\":768:772   */\n      0x20\n        /* \"#utility.yul\":763:766   */\n      dup3\n        /* \"#utility.yul\":759:773   */\n      add\n        /* \"#utility.yul\":744:773   */\n      swap1\n      pop\n        /* \"#utility.yul\":620:779   */\n      swap3\n      swap2\n      pop\n      pop\n      jump\t// out\n        /* \"#utility.yul\":785:924   */\n    tag_116:\n        /* \"#utility.yul\":874:880   */\n      dup3\n        /* \"#utility.yul\":869:872   */\n      dup2\n        /* \"#utility.yul\":864:867   */\n      dup4\n        /* \"#utility.yul\":858:881   */\n      mcopy\n        /* \"#utility.yul\":915:916   */\n      0x00\n        /* \"#utility.yul\":906:912   */\n      dup4\n        /* \"#utility.yul\":901:904   */\n      dup4\n        /* \"#utility.yul\":897:913   */\n      add\n        /* \"#utility.yul\":890:917   */\n      mstore\n        /* \"#utility.yul\":785:924   */\n      pop\n      pop\n      pop\n      jump\t// out\n        /* \"#utility.yul\":930:1032   */\n    tag_117:\n        /* \"#utility.yul\":971:977   */\n      0x00\n        /* \"#utility.yul\":1022:1024   */\n      0x1f\n        /* \"#utility.yul\":1018:1025   */\n      not\n        /* \"#utility.yul\":1013:1015   */\n      0x1f\n        /* \"#utility.yul\":1006:1011   */\n      dup4\n        /* \"#utility.yul\":1002:1016   */\n      add\n        /* \"#utility.yul\":998:1026   */\n      and\n        /* \"#utility.yul\":988:1026   */\n      swap1\n      pop\n        /* \"#utility.yul\":930:1032   */\n      swap2\n      swap1\n      pop\n      jump\t// out\n        /* \"#utility.yul\":1038:1395   */\n    tag_118:\n        /* \"#utility.yul\":1116:1119   */\n      0x00\n        /* \"#utility.yul\":1144:1183   */\n      tag_171\n        /* \"#utility.yul\":1177:1182   */\n      dup3\n        /* \"#utility.yul\":1144:1183   */\n      tag_114\n      jump\t// in\n    tag_171:\n        /* \"#utility.yul\":1199:1260   */\n      tag_172\n        /* \"#utility.yul\":1253:1259   */\n      dup2\n        /* \"#utility.yul\":1248:1251   */\n      dup6\n        /* \"#utility.yul\":1199:1260   */\n      tag_115\n      jump\t// in\n    tag_172:\n        /* \"#utility.yul\":1192:1260   */\n      swap4\n      pop\n        /* \"#utility.yul\":1269:1334   */\n      tag_173\n        /* \"#utility.yul\":1327:1333   */\n      dup2\n        /* \"#utility.yul\":1322:1325   */\n      dup6\n        /* \"#utility.yul\":1315:1319   */\n      0x20\n        /* \"#utility.yul\":1308:1313   */\n      dup7\n        /* \"#utility.yul\":1304:1320   */\n      add\n        /* \"#utility.yul\":1269:1334   */\n      tag_116\n      jump\t// in\n    tag_173:\n        /* \"#utility.yul\":1359:1388   */\n      tag_174\n        /* \"#utility.yul\":1381:1387   */\n      dup2\n        /* \"#utility.yul\":1359:1388   */\n      tag_117\n      jump\t// in\n    tag_174:\n        /* \"#utility.yul\":1354:1357   */\n      dup5\n        /* \"#utility.yul\":1350:1389   */\n      add\n        /* \"#utility.yul\":1343:1389   */\n      swap2\n      pop\n        /* \"#utility.yul\":1120:1395   */\n      pop\n        /* \"#utility.yul\":1038:1395   */\n      swap3\n      swap2\n      pop\n      pop\n      jump\t// out\n        /* \"#utility.yul\":1401:1491   */\n    tag_119:\n        /* \"#utility.yul\":1435:1442   */\n      0x00\n        /* \"#utility.yul\":1478:1483   */\n      dup2\n        /* \"#utility.yul\":1471:1484   */\n      iszero\n        /* \"#utility.yul\":1464:1485   */\n      iszero\n        /* \"#utility.yul\":1453:1485   */\n      swap1\n      pop\n        /* \"#utility.yul\":1401:1491   */\n      swap2\n      swap1\n      pop\n      jump\t// out\n        /* \"#utility.yul\":1497:1596   */\n    tag_120:\n        /* \"#utility.yul\":1568:1589   */\n      tag_177\n        /* \"#utility.yul\":1583:1588   */\n      dup2\n        /* \"#utility.yul\":1568:1589   */\n      tag_119\n      jump\t// in\n    tag_177:\n        /* \"#utility.yul\":1563:1566   */\n      dup3\n        /* \"#utility.yul\":1556:1590   */\n      mstore\n        /* \"#utility.yul\":1497:1596   */\n      pop\n      pop\n      jump\t// out\n        /* \"#utility.yul\":1646:2231   */\n    tag_121:\n        /* \"#utility.yul\":1745:1748   */\n      0x00\n        /* \"#utility.yul\":1781:1785   */\n      0x40\n        /* \"#utility.yul\":1776:1779   */\n      dup4\n        /* \"#utility.yul\":1772:1786   */\n      add\n        /* \"#utility.yul\":1871:1875   */\n      0x00\n        /* \"#utility.yul\":1864:1869   */\n      dup4\n        /* \"#utility.yul\":1860:1876   */\n      add\n        /* \"#utility.yul\":1854:1877   */\n      mload\n        /* \"#utility.yul\":1924:1927   */\n      dup5\n        /* \"#utility.yul\":1918:1922   */\n      dup3\n        /* \"#utility.yul\":1914:1928   */\n      sub\n        /* \"#utility.yul\":1907:1911   */\n      0x00\n        /* \"#utility.yul\":1902:1905   */\n      dup7\n        /* \"#utility.yul\":1898:1912   */\n      add\n        /* \"#utility.yul\":1891:1929   */\n      mstore\n        /* \"#utility.yul\":1950:2023   */\n      tag_179\n        /* \"#utility.yul\":2018:2022   */\n      dup3\n        /* \"#utility.yul\":2004:2016   */\n      dup3\n        /* \"#utility.yul\":1950:2023   */\n      tag_118\n      jump\t// in\n    tag_179:\n        /* \"#utility.yul\":1942:2023   */\n      swap2\n      pop\n        /* \"#utility.yul\":1796:2034   */\n      pop\n        /* \"#utility.yul\":2118:2122   */\n      0x20\n        /* \"#utility.yul\":2111:2116   */\n      dup4\n        /* \"#utility.yul\":2107:2123   */\n      add\n        /* \"#utility.yul\":2101:2124   */\n      mload\n        /* \"#utility.yul\":2137:2194   */\n      tag_180\n        /* \"#utility.yul\":2188:2192   */\n      0x20\n        /* \"#utility.yul\":2183:2186   */\n      dup7\n        /* \"#utility.yul\":2179:2193   */\n      add\n        /* \"#utility.yul\":2165:2177   */\n      dup3\n        /* \"#utility.yul\":2137:2194   */\n      tag_120\n      jump\t// in\n    tag_180:\n        /* \"#utility.yul\":2044:2204   */\n      pop\n        /* \"#utility.yul\":2221:2225   */\n      dup1\n        /* \"#utility.yul\":2214:2225   */\n      swap2\n      pop\n        /* \"#utility.yul\":1750:2231   */\n      pop\n        /* \"#utility.yul\":1646:2231   */\n      swap3\n      swap2\n      pop\n      pop\n      jump\t// out\n        /* \"#utility.yul\":2237:2473   */\n    tag_122:\n        /* \"#utility.yul\":2346:2356   */\n      0x00\n        /* \"#utility.yul\":2381:2467   */\n      tag_182\n        /* \"#utility.yul\":2463:2466   */\n      dup4\n        /* \"#utility.yul\":2455:2461   */\n      dup4\n        /* \"#utility.yul\":2381:2467   */\n      tag_121\n      jump\t// in\n    tag_182:\n        /* \"#utility.yul\":2367:2467   */\n      swap1\n      pop\n        /* \"#utility.yul\":2237:2473   */\n      swap3\n      swap2\n      pop\n      pop\n      jump\t// out\n        /* \"#utility.yul\":2479:2612   */\n    tag_123:\n        /* \"#utility.yul\":2569:2573   */\n      0x00\n        /* \"#utility.yul\":2601:2605   */\n      0x20\n        /* \"#utility.yul\":2596:2599   */\n      dup3\n        /* \"#utility.yul\":2592:2606   */\n      add\n        /* \"#utility.yul\":2584:2606   */\n      swap1\n      pop\n        /* \"#utility.yul\":2479:2612   */\n      swap2\n      swap1\n      pop\n      jump\t// out\n        /* \"#utility.yul\":2666:3737   */\n    tag_124:\n        /* \"#utility.yul\":2825:2828   */\n      0x00\n        /* \"#utility.yul\":2854:2928   */\n      tag_185\n        /* \"#utility.yul\":2922:2927   */\n      dup3\n        /* \"#utility.yul\":2854:2928   */\n      tag_111\n      jump\t// in\n    tag_185:\n        /* \"#utility.yul\":2944:3050   */\n      tag_186\n        /* \"#utility.yul\":3043:3049   */\n      dup2\n        /* \"#utility.yul\":3038:3041   */\n      dup6\n        /* \"#utility.yul\":2944:3050   */\n      tag_112\n      jump\t// in\n    tag_186:\n        /* \"#utility.yul\":2937:3050   */\n      swap4\n      pop\n        /* \"#utility.yul\":3076:3079   */\n      dup4\n        /* \"#utility.yul\":3121:3125   */\n      0x20\n        /* \"#utility.yul\":3113:3119   */\n      dup3\n        /* \"#utility.yul\":3109:3126   */\n      mul\n        /* \"#utility.yul\":3104:3107   */\n      dup6\n        /* \"#utility.yul\":3100:3127   */\n      add\n        /* \"#utility.yul\":3151:3227   */\n      tag_187\n        /* \"#utility.yul\":3221:3226   */\n      dup6\n        /* \"#utility.yul\":3151:3227   */\n      tag_113\n      jump\t// in\n    tag_187:\n        /* \"#utility.yul\":3250:3257   */\n      dup1\n        /* \"#utility.yul\":3281:3282   */\n      0x00\n        /* \"#utility.yul\":3266:3692   */\n    tag_188:\n        /* \"#utility.yul\":3291:3297   */\n      dup6\n        /* \"#utility.yul\":3288:3289   */\n      dup2\n        /* \"#utility.yul\":3285:3298   */\n      lt\n        /* \"#utility.yul\":3266:3692   */\n      iszero\n      tag_190\n      jumpi\n        /* \"#utility.yul\":3362:3371   */\n      dup5\n        /* \"#utility.yul\":3356:3360   */\n      dup5\n        /* \"#utility.yul\":3352:3372   */\n      sub\n        /* \"#utility.yul\":3347:3350   */\n      dup10\n        /* \"#utility.yul\":3340:3373   */\n      mstore\n        /* \"#utility.yul\":3413:3419   */\n      dup2\n        /* \"#utility.yul\":3407:3420   */\n      mload\n        /* \"#utility.yul\":3441:3545   */\n      tag_191\n        /* \"#utility.yul\":3540:3544   */\n      dup6\n        /* \"#utility.yul\":3525:3538   */\n      dup3\n        /* \"#utility.yul\":3441:3545   */\n      tag_122\n      jump\t// in\n    tag_191:\n        /* \"#utility.yul\":3433:3545   */\n      swap5\n      pop\n        /* \"#utility.yul\":3568:3648   */\n      tag_192\n        /* \"#utility.yul\":3641:3647   */\n      dup4\n        /* \"#utility.yul\":3568:3648   */\n      tag_123\n      jump\t// in\n    tag_192:\n        /* \"#utility.yul\":3558:3648   */\n      swap3\n      pop\n        /* \"#utility.yul\":3677:3681   */\n      0x20\n        /* \"#utility.yul\":3672:3675   */\n      dup11\n        /* \"#utility.yul\":3668:3682   */\n      add\n        /* \"#utility.yul\":3661:3682   */\n      swap10\n      pop\n        /* \"#utility.yul\":3326:3692   */\n      pop\n        /* \"#utility.yul\":3313:3314   */\n      0x01\n        /* \"#utility.yul\":3310:3311   */\n      dup2\n        /* \"#utility.yul\":3306:3315   */\n      add\n        /* \"#utility.yul\":3301:3315   */\n      swap1\n      pop\n        /* \"#utility.yul\":3266:3692   */\n      jump(tag_188)\n    tag_190:\n        /* \"#utility.yul\":3270:3284   */\n      pop\n        /* \"#utility.yul\":3708:3712   */\n      dup3\n        /* \"#utility.yul\":3701:3712   */\n      swap8\n      pop\n        /* \"#utility.yul\":3728:3731   */\n      dup8\n        /* \"#utility.yul\":3721:3731   */\n      swap6\n      pop\n        /* \"#utility.yul\":2830:3737   */\n      pop\n      pop\n      pop\n      pop\n      pop\n        /* \"#utility.yul\":2666:3737   */\n      swap3\n      swap2\n      pop\n      pop\n      jump\t// out\n        /* \"#utility.yul\":3743:4196   */\n    tag_14:\n        /* \"#utility.yul\":3926:3930   */\n      0x00\n        /* \"#utility.yul\":3964:3966   */\n      0x20\n        /* \"#utility.yul\":3953:3962   */\n      dup3\n        /* \"#utility.yul\":3949:3967   */\n      add\n        /* \"#utility.yul\":3941:3967   */\n      swap1\n      pop\n        /* \"#utility.yul\":4013:4022   */\n      dup2\n        /* \"#utility.yul\":4007:4011   */\n      dup2\n        /* \"#utility.yul\":4003:4023   */\n      sub\n        /* \"#utility.yul\":3999:4000   */\n      0x00\n        /* \"#utility.yul\":3988:3997   */\n      dup4\n        /* \"#utility.yul\":3984:4001   */\n      add\n        /* \"#utility.yul\":3977:4024   */\n      mstore\n        /* \"#utility.yul\":4041:4189   */\n      tag_194\n        /* \"#utility.yul\":4184:4188   */\n      dup2\n        /* \"#utility.yul\":4175:4181   */\n      dup5\n        /* \"#utility.yul\":4041:4189   */\n      tag_124\n      jump\t// in\n    tag_194:\n        /* \"#utility.yul\":4033:4189   */\n      swap1\n      pop\n        /* \"#utility.yul\":3743:4196   */\n      swap3\n      swap2\n      pop\n      pop\n      jump\t// out\n        /* \"#utility.yul\":4202:4277   */\n    tag_125:\n        /* \"#utility.yul\":4235:4241   */\n      0x00\n        /* \"#utility.yul\":4268:4270   */\n      0x40\n        /* \"#utility.yul\":4262:4271   */\n      mload\n        /* \"#utility.yul\":4252:4271   */\n      swap1\n      pop\n        /* \"#utility.yul\":4202:4277   */\n      swap1\n      jump\t// out\n        /* \"#utility.yul\":4283:4400   */\n    tag_126:\n        /* \"#utility.yul\":4392:4393   */\n      0x00\n        /* \"#utility.yul\":4389:4390   */\n      dup1\n        /* \"#utility.yul\":4382:4394   */\n      revert\n        /* \"#utility.yul\":4406:4523   */\n    tag_127:\n        /* \"#utility.yul\":4515:4516   */\n      0x00\n        /* \"#utility.yul\":4512:4513   */\n      dup1\n        /* \"#utility.yul\":4505:4517   */\n      revert\n        /* \"#utility.yul\":4529:4606   */\n    tag_128:\n        /* \"#utility.yul\":4566:4573   */\n      0x00\n        /* \"#utility.yul\":4595:4600   */\n      dup2\n        /* \"#utility.yul\":4584:4600   */\n      swap1\n      pop\n        /* \"#utility.yul\":4529:4606   */\n      swap2\n      swap1\n      pop\n      jump\t// out\n        /* \"#utility.yul\":4612:4734   */\n    tag_129:\n        /* \"#utility.yul\":4685:4709   */\n      tag_200\n        /* \"#utility.yul\":4703:4708   */\n      dup2\n        /* \"#utility.yul\":4685:4709   */\n      tag_128\n      jump\t// in\n    tag_200:\n        /* \"#utility.yul\":4678:4683   */\n      dup2\n        /* \"#utility.yul\":4675:4710   */\n      eq\n        /* \"#utility.yul\":4665:4728   */\n      tag_201\n      jumpi\n        /* \"#utility.yul\":4724:4725   */\n      0x00\n        /* \"#utility.yul\":4721:4722   */\n      dup1\n        /* \"#utility.yul\":4714:4726   */\n      revert\n        /* \"#utility.yul\":4665:4728   */\n    tag_201:\n        /* \"#utility.yul\":4612:4734   */\n      pop\n      jump\t// out\n        /* \"#utility.yul\":4740:4879   */\n    tag_130:\n        /* \"#utility.yul\":4786:4791   */\n      0x00\n        /* \"#utility.yul\":4824:4830   */\n      dup2\n        /* \"#utility.yul\":4811:4831   */\n      calldataload\n        /* \"#utility.yul\":4802:4831   */\n      swap1\n      pop\n        /* \"#utility.yul\":4840:4873   */\n      tag_203\n        /* \"#utility.yul\":4867:4872   */\n      dup2\n        /* \"#utility.yul\":4840:4873   */\n      tag_129\n      jump\t// in\n    tag_203:\n        /* \"#utility.yul\":4740:4879   */\n      swap3\n      swap2\n      pop\n      pop\n      jump\t// out\n        /* \"#utility.yul\":4885:5214   */\n    tag_17:\n        /* \"#utility.yul\":4944:4950   */\n      0x00\n        /* \"#utility.yul\":4993:4995   */\n      0x20\n        /* \"#utility.yul\":4981:4990   */\n      dup3\n        /* \"#utility.yul\":4972:4979   */\n      dup5\n        /* \"#utility.yul\":4968:4991   */\n      sub\n        /* \"#utility.yul\":4964:4996   */\n      slt\n        /* \"#utility.yul\":4961:5080   */\n      iszero\n      tag_205\n      jumpi\n        /* \"#utility.yul\":4999:5078   */\n      tag_206\n      tag_126\n      jump\t// in\n    tag_206:\n        /* \"#utility.yul\":4961:5080   */\n    tag_205:\n        /* \"#utility.yul\":5119:5120   */\n      0x00\n        /* \"#utility.yul\":5144:5197   */\n      tag_207\n        /* \"#utility.yul\":5189:5196   */\n      dup5\n        /* \"#utility.yul\":5180:5186   */\n      dup3\n        /* \"#utility.yul\":5169:5178   */\n      dup6\n        /* \"#utility.yul\":5165:5187   */\n      add\n        /* \"#utility.yul\":5144:5197   */\n      tag_130\n      jump\t// in\n    tag_207:\n        /* \"#utility.yul\":5134:5197   */\n      swap2\n      pop\n        /* \"#utility.yul\":5090:5207   */\n      pop\n        /* \"#utility.yul\":4885:5214   */\n      swap3\n      swap2\n      pop\n      pop\n      jump\t// out\n        /* \"#utility.yul\":5220:5346   */\n    tag_131:\n        /* \"#utility.yul\":5257:5264   */\n      0x00\n        /* \"#utility.yul\":5297:5339   */\n      0xffffffffffffffffffffffffffffffffffffffff\n        /* \"#utility.yul\":5290:5295   */\n      dup3\n        /* \"#utility.yul\":5286:5340   */\n      and\n        /* \"#utility.yul\":5275:5340   */\n      swap1\n      pop\n        /* \"#utility.yul\":5220:5346   */\n      swap2\n      swap1\n      pop\n      jump\t// out\n        /* \"#utility.yul\":5352:5448   */\n    tag_132:\n        /* \"#utility.yul\":5389:5396   */\n      0x00\n        /* \"#utility.yul\":5418:5442   */\n      tag_210\n        /* \"#utility.yul\":5436:5441   */\n      dup3\n        /* \"#utility.yul\":5418:5442   */\n      tag_131\n      jump\t// in\n    tag_210:\n        /* \"#utility.yul\":5407:5442   */\n      swap1\n      pop\n        /* \"#utility.yul\":5352:5448   */\n      swap2\n      swap1\n      pop\n      jump\t// out\n        /* \"#utility.yul\":5454:5572   */\n    tag_133:\n        /* \"#utility.yul\":5541:5565   */\n      tag_212\n        /* \"#utility.yul\":5559:5564   */\n      dup2\n        /* \"#utility.yul\":5541:5565   */\n      tag_132\n      jump\t// in\n    tag_212:\n        /* \"#utility.yul\":5536:5539   */\n      dup3\n        /* \"#utility.yul\":5529:5566   */\n      mstore\n        /* \"#utility.yul\":5454:5572   */\n      pop\n      pop\n      jump\t// out\n        /* \"#utility.yul\":5578:5800   */\n    tag_25:\n        /* \"#utility.yul\":5671:5675   */\n      0x00\n        /* \"#utility.yul\":5709:5711   */\n      0x20\n        /* \"#utility.yul\":5698:5707   */\n      dup3\n        /* \"#utility.yul\":5694:5712   */\n      add\n        /* \"#utility.yul\":5686:5712   */\n      swap1\n      pop\n        /* \"#utility.yul\":5722:5793   */\n      tag_214\n        /* \"#utility.yul\":5790:5791   */\n      0x00\n        /* \"#utility.yul\":5779:5788   */\n      dup4\n        /* \"#utility.yul\":5775:5792   */\n      add\n        /* \"#utility.yul\":5766:5772   */\n      dup5\n        /* \"#utility.yul\":5722:5793   */\n      tag_133\n      jump\t// in\n    tag_214:\n        /* \"#utility.yul\":5578:5800   */\n      swap3\n      swap2\n      pop\n      pop\n      jump\t// out\n        /* \"#utility.yul\":5850:6445   */\n    tag_134:\n        /* \"#utility.yul\":5959:5962   */\n      0x00\n        /* \"#utility.yul\":5995:5999   */\n      0x40\n        /* \"#utility.yul\":5990:5993   */\n      dup4\n        /* \"#utility.yul\":5986:6000   */\n      add\n        /* \"#utility.yul\":6085:6089   */\n      0x00\n        /* \"#utility.yul\":6078:6083   */\n      dup4\n        /* \"#utility.yul\":6074:6090   */\n      add\n        /* \"#utility.yul\":6068:6091   */\n      mload\n        /* \"#utility.yul\":6138:6141   */\n      dup5\n        /* \"#utility.yul\":6132:6136   */\n      dup3\n        /* \"#utility.yul\":6128:6142   */\n      sub\n        /* \"#utility.yul\":6121:6125   */\n      0x00\n        /* \"#utility.yul\":6116:6119   */\n      dup7\n        /* \"#utility.yul\":6112:6126   */\n      add\n        /* \"#utility.yul\":6105:6143   */\n      mstore\n        /* \"#utility.yul\":6164:6237   */\n      tag_216\n        /* \"#utility.yul\":6232:6236   */\n      dup3\n        /* \"#utility.yul\":6218:6230   */\n      dup3\n        /* \"#utility.yul\":6164:6237   */\n      tag_118\n      jump\t// in\n    tag_216:\n        /* \"#utility.yul\":6156:6237   */\n      swap2\n      pop\n        /* \"#utility.yul\":6010:6248   */\n      pop\n        /* \"#utility.yul\":6332:6336   */\n      0x20\n        /* \"#utility.yul\":6325:6330   */\n      dup4\n        /* \"#utility.yul\":6321:6337   */\n      add\n        /* \"#utility.yul\":6315:6338   */\n      mload\n        /* \"#utility.yul\":6351:6408   */\n      tag_217\n        /* \"#utility.yul\":6402:6406   */\n      0x20\n        /* \"#utility.yul\":6397:6400   */\n      dup7\n        /* \"#utility.yul\":6393:6407   */\n      add\n        /* \"#utility.yul\":6379:6391   */\n      dup3\n        /* \"#utility.yul\":6351:6408   */\n      tag_120\n      jump\t// in\n    tag_217:\n        /* \"#utility.yul\":6258:6418   */\n      pop\n        /* \"#utility.yul\":6435:6439   */\n      dup1\n        /* \"#utility.yul\":6428:6439   */\n      swap2\n      pop\n        /* \"#utility.yul\":5964:6445   */\n      pop\n        /* \"#utility.yul\":5850:6445   */\n      swap3\n      swap2\n      pop\n      pop\n      jump\t// out\n        /* \"#utility.yul\":6451:6804   */\n    tag_30:\n        /* \"#utility.yul\":6584:6588   */\n      0x00\n        /* \"#utility.yul\":6622:6624   */\n      0x20\n        /* \"#utility.yul\":6611:6620   */\n      dup3\n        /* \"#utility.yul\":6607:6625   */\n      add\n        /* \"#utility.yul\":6599:6625   */\n      swap1\n      pop\n        /* \"#utility.yul\":6671:6680   */\n      dup2\n        /* \"#utility.yul\":6665:6669   */\n      dup2\n        /* \"#utility.yul\":6661:6681   */\n      sub\n        /* \"#utility.yul\":6657:6658   */\n      0x00\n        /* \"#utility.yul\":6646:6655   */\n      dup4\n        /* \"#utility.yul\":6642:6659   */\n      add\n        /* \"#utility.yul\":6635:6682   */\n      mstore\n        /* \"#utility.yul\":6699:6797   */\n      tag_219\n        /* \"#utility.yul\":6792:6796   */\n      dup2\n        /* \"#utility.yul\":6783:6789   */\n      dup5\n        /* \"#utility.yul\":6699:6797   */\n      tag_134\n      jump\t// in\n    tag_219:\n        /* \"#utility.yul\":6691:6797   */\n      swap1\n      pop\n        /* \"#utility.yul\":6451:6804   */\n      swap3\n      swap2\n      pop\n      pop\n      jump\t// out\n        /* \"#utility.yul\":6810:6927   */\n    tag_135:\n        /* \"#utility.yul\":6919:6920   */\n      0x00\n        /* \"#utility.yul\":6916:6917   */\n      dup1\n        /* \"#utility.yul\":6909:6921   */\n      revert\n        /* \"#utility.yul\":6933:7050   */\n    tag_136:\n        /* \"#utility.yul\":7042:7043   */\n      0x00\n        /* \"#utility.yul\":7039:7040   */\n      dup1\n        /* \"#utility.yul\":7032:7044   */\n      revert\n        /* \"#utility.yul\":7056:7236   */\n    tag_137:\n        /* \"#utility.yul\":7104:7181   */\n      0x4e487b7100000000000000000000000000000000000000000000000000000000\n        /* \"#utility.yul\":7101:7102   */\n      0x00\n        /* \"#utility.yul\":7094:7182   */\n      mstore\n        /* \"#utility.yul\":7201:7205   */\n      0x41\n        /* \"#utility.yul\":7198:7199   */\n      0x04\n        /* \"#utility.yul\":7191:7206   */\n      mstore\n        /* \"#utility.yul\":7225:7229   */\n      0x24\n        /* \"#utility.yul\":7222:7223   */\n      0x00\n        /* \"#utility.yul\":7215:7230   */\n      revert\n        /* \"#utility.yul\":7242:7523   */\n    tag_138:\n        /* \"#utility.yul\":7325:7352   */\n      tag_224\n        /* \"#utility.yul\":7347:7351   */\n      dup3\n        /* \"#utility.yul\":7325:7352   */\n      tag_117\n      jump\t// in\n    tag_224:\n        /* \"#utility.yul\":7317:7323   */\n      dup2\n        /* \"#utility.yul\":7313:7353   */\n      add\n        /* \"#utility.yul\":7455:7461   */\n      dup2\n        /* \"#utility.yul\":7443:7453   */\n      dup2\n        /* \"#utility.yul\":7440:7462   */\n      lt\n        /* \"#utility.yul\":7419:7437   */\n      0xffffffffffffffff\n        /* \"#utility.yul\":7407:7417   */\n      dup3\n        /* \"#utility.yul\":7404:7438   */\n      gt\n        /* \"#utility.yul\":7401:7463   */\n      or\n        /* \"#utility.yul\":7398:7486   */\n      iszero\n      tag_225\n      jumpi\n        /* \"#utility.yul\":7466:7484   */\n      tag_226\n      tag_137\n      jump\t// in\n    tag_226:\n        /* \"#utility.yul\":7398:7486   */\n    tag_225:\n        /* \"#utility.yul\":7506:7516   */\n      dup1\n        /* \"#utility.yul\":7502:7504   */\n      0x40\n        /* \"#utility.yul\":7495:7517   */\n      mstore\n        /* \"#utility.yul\":7285:7523   */\n      pop\n        /* \"#utility.yul\":7242:7523   */\n      pop\n      pop\n      jump\t// out\n        /* \"#utility.yul\":7529:7658   */\n    tag_139:\n        /* \"#utility.yul\":7563:7569   */\n      0x00\n        /* \"#utility.yul\":7590:7610   */\n      tag_228\n      tag_125\n      jump\t// in\n    tag_228:\n        /* \"#utility.yul\":7580:7610   */\n      swap1\n      pop\n        /* \"#utility.yul\":7619:7652   */\n      tag_229\n        /* \"#utility.yul\":7647:7651   */\n      dup3\n        /* \"#utility.yul\":7639:7645   */\n      dup3\n        /* \"#utility.yul\":7619:7652   */\n      tag_138\n      jump\t// in\n    tag_229:\n        /* \"#utility.yul\":7529:7658   */\n      swap2\n      swap1\n      pop\n      jump\t// out\n        /* \"#utility.yul\":7664:7972   */\n    tag_140:\n        /* \"#utility.yul\":7726:7730   */\n      0x00\n        /* \"#utility.yul\":7816:7834   */\n      0xffffffffffffffff\n        /* \"#utility.yul\":7808:7814   */\n      dup3\n        /* \"#utility.yul\":7805:7835   */\n      gt\n        /* \"#utility.yul\":7802:7858   */\n      iszero\n      tag_231\n      jumpi\n        /* \"#utility.yul\":7838:7856   */\n      tag_232\n      tag_137\n      jump\t// in\n    tag_232:\n        /* \"#utility.yul\":7802:7858   */\n    tag_231:\n        /* \"#utility.yul\":7876:7905   */\n      tag_233\n        /* \"#utility.yul\":7898:7904   */\n      dup3\n        /* \"#utility.yul\":7876:7905   */\n      tag_117\n      jump\t// in\n    tag_233:\n        /* \"#utility.yul\":7868:7905   */\n      swap1\n      pop\n        /* \"#utility.yul\":7960:7964   */\n      0x20\n        /* \"#utility.yul\":7954:7958   */\n      dup2\n        /* \"#utility.yul\":7950:7965   */\n      add\n        /* \"#utility.yul\":7942:7965   */\n      swap1\n      pop\n        /* \"#utility.yul\":7664:7972   */\n      swap2\n      swap1\n      pop\n      jump\t// out\n        /* \"#utility.yul\":7978:8126   */\n    tag_141:\n        /* \"#utility.yul\":8076:8082   */\n      dup3\n        /* \"#utility.yul\":8071:8074   */\n      dup2\n        /* \"#utility.yul\":8066:8069   */\n      dup4\n        /* \"#utility.yul\":8053:8083   */\n      calldatacopy\n        /* \"#utility.yul\":8117:8118   */\n      0x00\n        /* \"#utility.yul\":8108:8114   */\n      dup4\n        /* \"#utility.yul\":8103:8106   */\n      dup4\n        /* \"#utility.yul\":8099:8115   */\n      add\n        /* \"#utility.yul\":8092:8119   */\n      mstore\n        /* \"#utility.yul\":7978:8126   */\n      pop\n      pop\n      pop\n      jump\t// out\n        /* \"#utility.yul\":8132:8557   */\n    tag_142:\n        /* \"#utility.yul\":8210:8215   */\n      0x00\n        /* \"#utility.yul\":8235:8301   */\n      tag_236\n        /* \"#utility.yul\":8251:8300   */\n      tag_237\n        /* \"#utility.yul\":8293:8299   */\n      dup5\n        /* \"#utility.yul\":8251:8300   */\n      tag_140\n      jump\t// in\n    tag_237:\n        /* \"#utility.yul\":8235:8301   */\n      tag_139\n      jump\t// in\n    tag_236:\n        /* \"#utility.yul\":8226:8301   */\n      swap1\n      pop\n        /* \"#utility.yul\":8324:8330   */\n      dup3\n        /* \"#utility.yul\":8317:8322   */\n      dup2\n        /* \"#utility.yul\":8310:8331   */\n      mstore\n        /* \"#utility.yul\":8362:8366   */\n      0x20\n        /* \"#utility.yul\":8355:8360   */\n      dup2\n        /* \"#utility.yul\":8351:8367   */\n      add\n        /* \"#utility.yul\":8400:8403   */\n      dup5\n        /* \"#utility.yul\":8391:8397   */\n      dup5\n        /* \"#utility.yul\":8386:8389   */\n      dup5\n        /* \"#utility.yul\":8382:8398   */\n      add\n        /* \"#utility.yul\":8379:8404   */\n      gt\n        /* \"#utility.yul\":8376:8488   */\n      iszero\n      tag_238\n      jumpi\n        /* \"#utility.yul\":8407:8486   */\n      tag_239\n      tag_136\n      jump\t// in\n    tag_239:\n        /* \"#utility.yul\":8376:8488   */\n    tag_238:\n        /* \"#utility.yul\":8497:8551   */\n      tag_240\n        /* \"#utility.yul\":8544:8550   */\n      dup5\n        /* \"#utility.yul\":8539:8542   */\n      dup3\n        /* \"#utility.yul\":8534:8537   */\n      dup6\n        /* \"#utility.yul\":8497:8551   */\n      tag_141\n      jump\t// in\n    tag_240:\n        /* \"#utility.yul\":8216:8557   */\n      pop\n        /* \"#utility.yul\":8132:8557   */\n      swap4\n      swap3\n      pop\n      pop\n      pop\n      jump\t// out\n        /* \"#utility.yul\":8577:8917   */\n    tag_143:\n        /* \"#utility.yul\":8633:8638   */\n      0x00\n        /* \"#utility.yul\":8682:8685   */\n      dup3\n        /* \"#utility.yul\":8675:8679   */\n      0x1f\n        /* \"#utility.yul\":8667:8673   */\n      dup4\n        /* \"#utility.yul\":8663:8680   */\n      add\n        /* \"#utility.yul\":8659:8686   */\n      slt\n        /* \"#utility.yul\":8649:8771   */\n      tag_242\n      jumpi\n        /* \"#utility.yul\":8690:8769   */\n      tag_243\n      tag_135\n      jump\t// in\n    tag_243:\n        /* \"#utility.yul\":8649:8771   */\n    tag_242:\n        /* \"#utility.yul\":8807:8813   */\n      dup2\n        /* \"#utility.yul\":8794:8814   */\n      calldataload\n        /* \"#utility.yul\":8832:8911   */\n      tag_244\n        /* \"#utility.yul\":8907:8910   */\n      dup5\n        /* \"#utility.yul\":8899:8905   */\n      dup3\n        /* \"#utility.yul\":8892:8896   */\n      0x20\n        /* \"#utility.yul\":8884:8890   */\n      dup7\n        /* \"#utility.yul\":8880:8897   */\n      add\n        /* \"#utility.yul\":8832:8911   */\n      tag_142\n      jump\t// in\n    tag_244:\n        /* \"#utility.yul\":8823:8911   */\n      swap2\n      pop\n        /* \"#utility.yul\":8639:8917   */\n      pop\n        /* \"#utility.yul\":8577:8917   */\n      swap3\n      swap2\n      pop\n      pop\n      jump\t// out\n        /* \"#utility.yul\":8923:9432   */\n    tag_33:\n        /* \"#utility.yul\":8992:8998   */\n      0x00\n        /* \"#utility.yul\":9041:9043   */\n      0x20\n        /* \"#utility.yul\":9029:9038   */\n      dup3\n        /* \"#utility.yul\":9020:9027   */\n      dup5\n        /* \"#utility.yul\":9016:9039   */\n      sub\n        /* \"#utility.yul\":9012:9044   */\n      slt\n        /* \"#utility.yul\":9009:9128   */\n      iszero\n      tag_246\n      jumpi\n        /* \"#utility.yul\":9047:9126   */\n      tag_247\n      tag_126\n      jump\t// in\n    tag_247:\n        /* \"#utility.yul\":9009:9128   */\n    tag_246:\n        /* \"#utility.yul\":9195:9196   */\n      0x00\n        /* \"#utility.yul\":9184:9193   */\n      dup3\n        /* \"#utility.yul\":9180:9197   */\n      add\n        /* \"#utility.yul\":9167:9198   */\n      calldataload\n        /* \"#utility.yul\":9225:9243   */\n      0xffffffffffffffff\n        /* \"#utility.yul\":9217:9223   */\n      dup2\n        /* \"#utility.yul\":9214:9244   */\n      gt\n        /* \"#utility.yul\":9211:9328   */\n      iszero\n      tag_248\n      jumpi\n        /* \"#utility.yul\":9247:9326   */\n      tag_249\n      tag_127\n      jump\t// in\n    tag_249:\n        /* \"#utility.yul\":9211:9328   */\n    tag_248:\n        /* \"#utility.yul\":9352:9415   */\n      tag_250\n        /* \"#utility.yul\":9407:9414   */\n      dup5\n        /* \"#utility.yul\":9398:9404   */\n      dup3\n        /* \"#utility.yul\":9387:9396   */\n      dup6\n        /* \"#utility.yul\":9383:9405   */\n      add\n        /* \"#utility.yul\":9352:9415   */\n      tag_143\n      jump\t// in\n    tag_250:\n        /* \"#utility.yul\":9342:9415   */\n      swap2\n      pop\n        /* \"#utility.yul\":9138:9425   */\n      pop\n        /* \"#utility.yul\":8923:9432   */\n      swap3\n      swap2\n      pop\n      pop\n      jump\t// out\n        /* \"#utility.yul\":9438:10092   */\n    tag_37:\n        /* \"#utility.yul\":9516:9522   */\n      0x00\n        /* \"#utility.yul\":9524:9530   */\n      dup1\n        /* \"#utility.yul\":9573:9575   */\n      0x40\n        /* \"#utility.yul\":9561:9570   */\n      dup4\n        /* \"#utility.yul\":9552:9559   */\n      dup6\n        /* \"#utility.yul\":9548:9571   */\n      sub\n        /* \"#utility.yul\":9544:9576   */\n      slt\n        /* \"#utility.yul\":9541:9660   */\n      iszero\n      tag_252\n      jumpi\n        /* \"#utility.yul\":9579:9658   */\n      tag_253\n      tag_126\n      jump\t// in\n    tag_253:\n        /* \"#utility.yul\":9541:9660   */\n    tag_252:\n        /* \"#utility.yul\":9699:9700   */\n      0x00\n        /* \"#utility.yul\":9724:9777   */\n      tag_254\n        /* \"#utility.yul\":9769:9776   */\n      dup6\n        /* \"#utility.yul\":9760:9766   */\n      dup3\n        /* \"#utility.yul\":9749:9758   */\n      dup7\n        /* \"#utility.yul\":9745:9767   */\n      add\n        /* \"#utility.yul\":9724:9777   */\n      tag_130\n      jump\t// in\n    tag_254:\n        /* \"#utility.yul\":9714:9777   */\n      swap3\n      pop\n        /* \"#utility.yul\":9670:9787   */\n      pop\n        /* \"#utility.yul\":9854:9856   */\n      0x20\n        /* \"#utility.yul\":9843:9852   */\n      dup4\n        /* \"#utility.yul\":9839:9857   */\n      add\n        /* \"#utility.yul\":9826:9858   */\n      calldataload\n        /* \"#utility.yul\":9885:9903   */\n      0xffffffffffffffff\n        /* \"#utility.yul\":9877:9883   */\n      dup2\n        /* \"#utility.yul\":9874:9904   */\n      gt\n        /* \"#utility.yul\":9871:9988   */\n      iszero\n      tag_255\n      jumpi\n        /* \"#utility.yul\":9907:9986   */\n      tag_256\n      tag_127\n      jump\t// in\n    tag_256:\n        /* \"#utility.yul\":9871:9988   */\n    tag_255:\n        /* \"#utility.yul\":10012:10075   */\n      tag_257\n        /* \"#utility.yul\":10067:10074   */\n      dup6\n        /* \"#utility.yul\":10058:10064   */\n      dup3\n        /* \"#utility.yul\":10047:10056   */\n      dup7\n        /* \"#utility.yul\":10043:10065   */\n      add\n        /* \"#utility.yul\":10012:10075   */\n      tag_143\n      jump\t// in\n    tag_257:\n        /* \"#utility.yul\":10002:10075   */\n      swap2\n      pop\n        /* \"#utility.yul\":9797:10085   */\n      pop\n        /* \"#utility.yul\":9438:10092   */\n      swap3\n      pop\n      swap3\n      swap1\n      pop\n      jump\t// out\n        /* \"#utility.yul\":10098:10278   */\n    tag_144:\n        /* \"#utility.yul\":10146:10223   */\n      0x4e487b7100000000000000000000000000000000000000000000000000000000\n        /* \"#utility.yul\":10143:10144   */\n      0x00\n        /* \"#utility.yul\":10136:10224   */\n      mstore\n        /* \"#utility.yul\":10243:10247   */\n      0x22\n        /* \"#utility.yul\":10240:10241   */\n      0x04\n        /* \"#utility.yul\":10233:10248   */\n      mstore\n        /* \"#utility.yul\":10267:10271   */\n      0x24\n        /* \"#utility.yul\":10264:10265   */\n      0x00\n        /* \"#utility.yul\":10257:10272   */\n      revert\n        /* \"#utility.yul\":10284:10604   */\n    tag_45:\n        /* \"#utility.yul\":10328:10334   */\n      0x00\n        /* \"#utility.yul\":10365:10366   */\n      0x02\n        /* \"#utility.yul\":10359:10363   */\n      dup3\n        /* \"#utility.yul\":10355:10367   */\n      div\n        /* \"#utility.yul\":10345:10367   */\n      swap1\n      pop\n        /* \"#utility.yul\":10412:10413   */\n      0x01\n        /* \"#utility.yul\":10406:10410   */\n      dup3\n        /* \"#utility.yul\":10402:10414   */\n      and\n        /* \"#utility.yul\":10433:10451   */\n      dup1\n        /* \"#utility.yul\":10423:10504   */\n      tag_260\n      jumpi\n        /* \"#utility.yul\":10489:10493   */\n      0x7f\n        /* \"#utility.yul\":10481:10487   */\n      dup3\n        /* \"#utility.yul\":10477:10494   */\n      and\n        /* \"#utility.yul\":10467:10494   */\n      swap2\n      pop\n        /* \"#utility.yul\":10423:10504   */\n    tag_260:\n        /* \"#utility.yul\":10551:10553   */\n      0x20\n        /* \"#utility.yul\":10543:10549   */\n      dup3\n        /* \"#utility.yul\":10540:10554   */\n      lt\n        /* \"#utility.yul\":10520:10538   */\n      dup2\n        /* \"#utility.yul\":10517:10555   */\n      sub\n        /* \"#utility.yul\":10514:10598   */\n      tag_261\n      jumpi\n        /* \"#utility.yul\":10570:10588   */\n      tag_262\n      tag_144\n      jump\t// in\n    tag_262:\n        /* \"#utility.yul\":10514:10598   */\n    tag_261:\n        /* \"#utility.yul\":10335:10604   */\n      pop\n        /* \"#utility.yul\":10284:10604   */\n      swap2\n      swap1\n      pop\n      jump\t// out\n        /* \"#utility.yul\":10610:10790   */\n    tag_145:\n        /* \"#utility.yul\":10658:10735   */\n      0x4e487b7100000000000000000000000000000000000000000000000000000000\n        /* \"#utility.yul\":10655:10656   */\n      0x00\n        /* \"#utility.yul\":10648:10736   */\n      mstore\n        /* \"#utility.yul\":10755:10759   */\n      0x11\n        /* \"#utility.yul\":10752:10753   */\n      0x04\n        /* \"#utility.yul\":10745:10760   */\n      mstore\n        /* \"#utility.yul\":10779:10783   */\n      0x24\n        /* \"#utility.yul\":10776:10777   */\n      0x00\n        /* \"#utility.yul\":10769:10784   */\n      revert\n        /* \"#utility.yul\":10796:10990   */\n    tag_55:\n        /* \"#utility.yul\":10836:10840   */\n      0x00\n        /* \"#utility.yul\":10856:10876   */\n      tag_265\n        /* \"#utility.yul\":10874:10875   */\n      dup3\n        /* \"#utility.yul\":10856:10876   */\n      tag_128\n      jump\t// in\n    tag_265:\n        /* \"#utility.yul\":10851:10876   */\n      swap2\n      pop\n        /* \"#utility.yul\":10890:10910   */\n      tag_266\n        /* \"#utility.yul\":10908:10909   */\n      dup4\n        /* \"#utility.yul\":10890:10910   */\n      tag_128\n      jump\t// in\n    tag_266:\n        /* \"#utility.yul\":10885:10910   */\n      swap3\n      pop\n        /* \"#utility.yul\":10934:10935   */\n      dup3\n        /* \"#utility.yul\":10931:10932   */\n      dup3\n        /* \"#utility.yul\":10927:10936   */\n      sub\n        /* \"#utility.yul\":10919:10936   */\n      swap1\n      pop\n        /* \"#utility.yul\":10958:10959   */\n      dup2\n        /* \"#utility.yul\":10952:10956   */\n      dup2\n        /* \"#utility.yul\":10949:10960   */\n      gt\n        /* \"#utility.yul\":10946:10983   */\n      iszero\n      tag_267\n      jumpi\n        /* \"#utility.yul\":10963:10981   */\n      tag_268\n      tag_145\n      jump\t// in\n    tag_268:\n        /* \"#utility.yul\":10946:10983   */\n    tag_267:\n        /* \"#utility.yul\":10796:10990   */\n      swap3\n      swap2\n      pop\n      pop\n      jump\t// out\n        /* \"#utility.yul\":10996:11187   */\n    tag_57:\n        /* \"#utility.yul\":11036:11039   */\n      0x00\n        /* \"#utility.yul\":11055:11075   */\n      tag_270\n        /* \"#utility.yul\":11073:11074   */\n      dup3\n        /* \"#utility.yul\":11055:11075   */\n      tag_128\n      jump\t// in\n    tag_270:\n        /* \"#utility.yul\":11050:11075   */\n      swap2\n      pop\n        /* \"#utility.yul\":11089:11109   */\n      tag_271\n        /* \"#utility.yul\":11107:11108   */\n      dup4\n        /* \"#utility.yul\":11089:11109   */\n      tag_128\n      jump\t// in\n    tag_271:\n        /* \"#utility.yul\":11084:11109   */\n      swap3\n      pop\n        /* \"#utility.yul\":11132:11133   */\n      dup3\n        /* \"#utility.yul\":11129:11130   */\n      dup3\n        /* \"#utility.yul\":11125:11134   */\n      add\n        /* \"#utility.yul\":11118:11134   */\n      swap1\n      pop\n        /* \"#utility.yul\":11153:11156   */\n      dup1\n        /* \"#utility.yul\":11150:11151   */\n      dup3\n        /* \"#utility.yul\":11147:11157   */\n      gt\n        /* \"#utility.yul\":11144:11180   */\n      iszero\n      tag_272\n      jumpi\n        /* \"#utility.yul\":11160:11178   */\n      tag_273\n      tag_145\n      jump\t// in\n    tag_273:\n        /* \"#utility.yul\":11144:11180   */\n    tag_272:\n        /* \"#utility.yul\":10996:11187   */\n      swap3\n      swap2\n      pop\n      pop\n      jump\t// out\n        /* \"#utility.yul\":11193:11373   */\n    tag_60:\n        /* \"#utility.yul\":11241:11318   */\n      0x4e487b7100000000000000000000000000000000000000000000000000000000\n        /* \"#utility.yul\":11238:11239   */\n      0x00\n        /* \"#utility.yul\":11231:11319   */\n      mstore\n        /* \"#utility.yul\":11338:11342   */\n      0x32\n        /* \"#utility.yul\":11335:11336   */\n      0x04\n        /* \"#utility.yul\":11328:11343   */\n      mstore\n        /* \"#utility.yul\":11362:11366   */\n      0x24\n        /* \"#utility.yul\":11359:11360   */\n      0x00\n        /* \"#utility.yul\":11352:11367   */\n      revert\n        /* \"#utility.yul\":11379:11528   */\n    tag_146:\n        /* \"#utility.yul\":11428:11434   */\n      0x00\n        /* \"#utility.yul\":11462:11467   */\n      dup2\n        /* \"#utility.yul\":11456:11468   */\n      sload\n        /* \"#utility.yul\":11446:11468   */\n      swap1\n      pop\n        /* \"#utility.yul\":11488:11521   */\n      tag_276\n        /* \"#utility.yul\":11514:11520   */\n      dup2\n        /* \"#utility.yul\":11488:11521   */\n      tag_45\n      jump\t// in\n    tag_276:\n        /* \"#utility.yul\":11478:11521   */\n      swap1\n      pop\n        /* \"#utility.yul\":11379:11528   */\n      swap2\n      swap1\n      pop\n      jump\t// out\n        /* \"#utility.yul\":11534:11675   */\n    tag_147:\n        /* \"#utility.yul\":11583:11587   */\n      0x00\n        /* \"#utility.yul\":11606:11609   */\n      dup2\n        /* \"#utility.yul\":11598:11609   */\n      swap1\n      pop\n        /* \"#utility.yul\":11629:11632   */\n      dup2\n        /* \"#utility.yul\":11626:11627   */\n      0x00\n        /* \"#utility.yul\":11619:11633   */\n      mstore\n        /* \"#utility.yul\":11663:11667   */\n      0x20\n        /* \"#utility.yul\":11660:11661   */\n      0x00\n        /* \"#utility.yul\":11650:11668   */\n      keccak256\n        /* \"#utility.yul\":11642:11668   */\n      swap1\n      pop\n        /* \"#utility.yul\":11534:11675   */\n      swap2\n      swap1\n      pop\n      jump\t// out\n        /* \"#utility.yul\":11681:11774   */\n    tag_148:\n        /* \"#utility.yul\":11718:11724   */\n      0x00\n        /* \"#utility.yul\":11765:11767   */\n      0x20\n        /* \"#utility.yul\":11760:11762   */\n      0x1f\n        /* \"#utility.yul\":11753:11758   */\n      dup4\n        /* \"#utility.yul\":11749:11763   */\n      add\n        /* \"#utility.yul\":11745:11768   */\n      div\n        /* \"#utility.yul\":11735:11768   */\n      swap1\n      pop\n        /* \"#utility.yul\":11681:11774   */\n      swap2\n      swap1\n      pop\n      jump\t// out\n        /* \"#utility.yul\":11780:11887   */\n    tag_149:\n        /* \"#utility.yul\":11824:11832   */\n      0x00\n        /* \"#utility.yul\":11874:11879   */\n      dup3\n        /* \"#utility.yul\":11868:11872   */\n      dup3\n        /* \"#utility.yul\":11864:11880   */\n      shl\n        /* \"#utility.yul\":11843:11880   */\n      swap1\n      pop\n        /* \"#utility.yul\":11780:11887   */\n      swap3\n      swap2\n      pop\n      pop\n      jump\t// out\n        /* \"#utility.yul\":11893:12286   */\n    tag_150:\n        /* \"#utility.yul\":11962:11968   */\n      0x00\n        /* \"#utility.yul\":12012:12013   */\n      0x08\n        /* \"#utility.yul\":12000:12010   */\n      dup4\n        /* \"#utility.yul\":11996:12014   */\n      mul\n        /* \"#utility.yul\":12035:12132   */\n      tag_281\n        /* \"#utility.yul\":12065:12131   */\n      0xffffffffffffffffffffffffffffffffffffffffffffffffffffffffffffffff\n        /* \"#utility.yul\":12054:12063   */\n      dup3\n        /* \"#utility.yul\":12035:12132   */\n      tag_149\n      jump\t// in\n    tag_281:\n        /* \"#utility.yul\":12153:12192   */\n      tag_282\n        /* \"#utility.yul\":12183:12191   */\n      dup7\n        /* \"#utility.yul\":12172:12181   */\n      dup4\n        /* \"#utility.yul\":12153:12192   */\n      tag_149\n      jump\t// in\n    tag_282:\n        /* \"#utility.yul\":12141:12192   */\n      swap6\n      pop\n        /* \"#utility.yul\":12225:12229   */\n      dup1\n        /* \"#utility.yul\":12221:12230   */\n      not\n        /* \"#utility.yul\":12214:12219   */\n      dup5\n        /* \"#utility.yul\":12210:12231   */\n      and\n        /* \"#utility.yul\":12201:12231   */\n      swap4\n      pop\n        /* \"#utility.yul\":12274:12278   */\n      dup1\n        /* \"#utility.yul\":12264:12272   */\n      dup7\n        /* \"#utility.yul\":12260:12279   */\n      and\n        /* \"#utility.yul\":12253:12258   */\n      dup5\n        /* \"#utility.yul\":12250:12280   */\n      or\n        /* \"#utility.yul\":12240:12280   */\n      swap3\n      pop\n        /* \"#utility.yul\":11969:12286   */\n      pop\n      pop\n        /* \"#utility.yul\":11893:12286   */\n      swap4\n      swap3\n      pop\n      pop\n      pop\n      jump\t// out\n        /* \"#utility.yul\":12292:12352   */\n    tag_151:\n        /* \"#utility.yul\":12320:12323   */\n      0x00\n        /* \"#utility.yul\":12341:12346   */\n      dup2\n        /* \"#utility.yul\":12334:12346   */\n      swap1\n      pop\n        /* \"#utility.yul\":12292:12352   */\n      swap2\n      swap1\n      pop\n      jump\t// out\n        /* \"#utility.yul\":12358:12500   */\n    tag_152:\n        /* \"#utility.yul\":12408:12417   */\n      0x00\n        /* \"#utility.yul\":12441:12494   */\n      tag_285\n        /* \"#utility.yul\":12459:12493   */\n      tag_286\n        /* \"#utility.yul\":12468:12492   */\n      tag_287\n        /* \"#utility.yul\":12486:12491   */\n      dup5\n        /* \"#utility.yul\":12468:12492   */\n      tag_128\n      jump\t// in\n    tag_287:\n        /* \"#utility.yul\":12459:12493   */\n      tag_151\n      jump\t// in\n    tag_286:\n        /* \"#utility.yul\":12441:12494   */\n      tag_128\n      jump\t// in\n    tag_285:\n        /* \"#utility.yul\":12428:12494   */\n      swap1\n      pop\n        /* \"#utility.yul\":12358:12500   */\n      swap2\n      swap1\n      pop\n      jump\t// out\n        /* \"#utility.yul\":12506:12581   */\n    tag_153:\n        /* \"#utility.yul\":12549:12552   */\n      0x00\n        /* \"#utility.yul\":12570:12575   */\n      dup2\n        /* \"#utility.yul\":12563:12575   */\n      swap1\n      pop\n        /* \"#utility.yul\":12506:12581   */\n      swap2\n      swap1\n      pop\n      jump\t// out\n        /* \"#utility.yul\":12587:12856   */\n    tag_154:\n        /* \"#utility.yul\":12697:12736   */\n      tag_290\n        /* \"#utility.yul\":12728:12735   */\n      dup4\n        /* \"#utility.yul\":12697:12736   */\n      tag_152\n      jump\t// in\n    tag_290:\n        /* \"#utility.yul\":12758:12849   */\n      tag_291\n        /* \"#utility.yul\":12807:12848   */\n      tag_292\n        /* \"#utility.yul\":12831:12847   */\n      dup3\n        /* \"#utility.yul\":12807:12848   */\n      tag_153\n      jump\t// in\n    tag_292:\n        /* \"#utility.yul\":12799:12805   */\n      dup5\n        /* \"#utility.yul\":12792:12796   */\n      dup5\n        /* \"#utility.yul\":12786:12797   */\n      sload\n        /* \"#utility.yul\":12758:12849   */\n      tag_150\n      jump\t// in\n    tag_291:\n        /* \"#utility.yul\":12752:12756   */\n      dup3\n        /* \"#utility.yul\":12745:12850   */\n      sstore\n        /* \"#utility.yul\":12663:12856   */\n      pop\n        /* \"#utility.yul\":12587:12856   */\n      pop\n      pop\n      pop\n      jump\t// out\n        /* \"#utility.yul\":12862:12935   */\n    tag_155:\n        /* \"#utility.yul\":12907:12910   */\n      0x00\n        /* \"#utility.yul\":12862:12935   */\n      swap1\n      jump\t// out\n        /* \"#utility.yul\":12941:13130   */\n    tag_156:\n        /* \"#utility.yul\":13018:13050   */\n      tag_295\n      tag_155\n      jump\t// in\n    tag_295:\n        /* \"#utility.yul\":13059:13124   */\n      tag_296\n        /* \"#utility.yul\":13117:13123   */\n      dup2\n        /* \"#utility.yul\":13109:13115   */\n      dup5\n        /* \"#utility.yul\":13103:13107   */\n      dup5\n        /* \"#utility.yul\":13059:13124   */\n      tag_154\n      jump\t// in\n    tag_296:\n        /* \"#utility.yul\":12994:13130   */\n      pop\n        /* \"#utility.yul\":12941:13130   */\n      pop\n      pop\n      jump\t// out\n        /* \"#utility.yul\":13136:13322   */\n    tag_157:\n        /* \"#utility.yul\":13196:13316   */\n    tag_298:\n        /* \"#utility.yul\":13213:13216   */\n      dup2\n        /* \"#utility.yul\":13206:13211   */\n      dup2\n        /* \"#utility.yul\":13203:13217   */\n      lt\n        /* \"#utility.yul\":13196:13316   */\n      iszero\n      tag_300\n      jumpi\n        /* \"#utility.yul\":13267:13306   */\n      tag_301\n        /* \"#utility.yul\":13304:13305   */\n      0x00\n        /* \"#utility.yul\":13297:13302   */\n      dup3\n        /* \"#utility.yul\":13267:13306   */\n      tag_156\n      jump\t// in\n    tag_301:\n        /* \"#utility.yul\":13240:13241   */\n      0x01\n        /* \"#utility.yul\":13233:13238   */\n      dup2\n        /* \"#utility.yul\":13229:13242   */\n      add\n        /* \"#utility.yul\":13220:13242   */\n      swap1\n      pop\n        /* \"#utility.yul\":13196:13316   */\n      jump(tag_298)\n    tag_300:\n        /* \"#utility.yul\":13136:13322   */\n      pop\n      pop\n      jump\t// out\n        /* \"#utility.yul\":13328:13871   */\n    tag_158:\n        /* \"#utility.yul\":13429:13431   */\n      0x1f\n        /* \"#utility.yul\":13424:13427   */\n      dup3\n        /* \"#utility.yul\":13421:13432   */\n      gt\n        /* \"#utility.yul\":13418:13864   */\n      iszero\n      tag_303\n      jumpi\n        /* \"#utility.yul\":13463:13501   */\n      tag_304\n        /* \"#utility.yul\":13495:13500   */\n      dup2\n        /* \"#utility.yul\":13463:13501   */\n      tag_147\n      jump\t// in\n    tag_304:\n        /* \"#utility.yul\":13547:13576   */\n      tag_305\n        /* \"#utility.yul\":13565:13575   */\n      dup5\n        /* \"#utility.yul\":13547:13576   */\n      tag_148\n      jump\t// in\n    tag_305:\n        /* \"#utility.yul\":13537:13545   */\n      dup2\n        /* \"#utility.yul\":13533:13577   */\n      add\n        /* \"#utility.yul\":13730:13732   */\n      0x20\n        /* \"#utility.yul\":13718:13728   */\n      dup6\n        /* \"#utility.yul\":13715:13733   */\n      lt\n        /* \"#utility.yul\":13712:13761   */\n      iszero\n      tag_306\n      jumpi\n        /* \"#utility.yul\":13751:13759   */\n      dup2\n        /* \"#utility.yul\":13736:13759   */\n      swap1\n      pop\n        /* \"#utility.yul\":13712:13761   */\n    tag_306:\n        /* \"#utility.yul\":13774:13854   */\n      tag_307\n        /* \"#utility.yul\":13830:13852   */\n      tag_308\n        /* \"#utility.yul\":13848:13851   */\n      dup6\n        /* \"#utility.yul\":13830:13852   */\n      tag_148\n      jump\t// in\n    tag_308:\n        /* \"#utility.yul\":13820:13828   */\n      dup4\n        /* \"#utility.yul\":13816:13853   */\n      add\n        /* \"#utility.yul\":13803:13814   */\n      dup3\n        /* \"#utility.yul\":13774:13854   */\n      tag_157\n      jump\t// in\n    tag_307:\n        /* \"#utility.yul\":13433:13864   */\n      pop\n      pop\n        /* \"#utility.yul\":13418:13864   */\n    tag_303:\n        /* \"#utility.yul\":13328:13871   */\n      pop\n      pop\n      pop\n      jump\t// out\n        /* \"#utility.yul\":13877:13994   */\n    tag_159:\n        /* \"#utility.yul\":13931:13939   */\n      0x00\n        /* \"#utility.yul\":13981:13986   */\n      dup3\n        /* \"#utility.yul\":13975:13979   */\n      dup3\n        /* \"#utility.yul\":13971:13987   */\n      shr\n        /* \"#utility.yul\":13950:13987   */\n      swap1\n      pop\n        /* \"#utility.yul\":13877:13994   */\n      swap3\n      swap2\n      pop\n      pop\n      jump\t// out\n        /* \"#utility.yul\":14000:14169   */\n    tag_160:\n        /* \"#utility.yul\":14044:14050   */\n      0x00\n        /* \"#utility.yul\":14077:14128   */\n      tag_311\n        /* \"#utility.yul\":14125:14126   */\n      0x00\n        /* \"#utility.yul\":14121:14127   */\n      not\n        /* \"#utility.yul\":14113:14118   */\n      dup5\n        /* \"#utility.yul\":14110:14111   */\n      0x08\n        /* \"#utility.yul\":14106:14119   */\n      mul\n        /* \"#utility.yul\":14077:14128   */\n      tag_159\n      jump\t// in\n    tag_311:\n        /* \"#utility.yul\":14073:14129   */\n      not\n        /* \"#utility.yul\":14158:14162   */\n      dup1\n        /* \"#utility.yul\":14152:14156   */\n      dup4\n        /* \"#utility.yul\":14148:14163   */\n      and\n        /* \"#utility.yul\":14138:14163   */\n      swap2\n      pop\n        /* \"#utility.yul\":14051:14169   */\n      pop\n        /* \"#utility.yul\":14000:14169   */\n      swap3\n      swap2\n      pop\n      pop\n      jump\t// out\n        /* \"#utility.yul\":14174:14469   */\n    tag_161:\n        /* \"#utility.yul\":14250:14254   */\n      0x00\n        /* \"#utility.yul\":14396:14425   */\n      tag_313\n        /* \"#utility.yul\":14421:14424   */\n      dup4\n        /* \"#utility.yul\":14415:14419   */\n      dup4\n        /* \"#utility.yul\":14396:14425   */\n      tag_160\n      jump\t// in\n    tag_313:\n        /* \"#utility.yul\":14388:14425   */\n      swap2\n      pop\n        /* \"#utility.yul\":14458:14461   */\n      dup3\n        /* \"#utility.yul\":14455:14456   */\n      0x02\n        /* \"#utility.yul\":14451:14462   */\n      mul\n        /* \"#utility.yul\":14445:14449   */\n      dup3\n        /* \"#utility.yul\":14442:14463   */\n      or\n        /* \"#utility.yul\":14434:14463   */\n      swap1\n      pop\n        /* \"#utility.yul\":14174:14469   */\n      swap3\n      swap2\n      pop\n      pop\n      jump\t// out\n        /* \"#utility.yul\":14474:15925   */\n    tag_66:\n        /* \"#utility.yul\":14585:14588   */\n      dup2\n        /* \"#utility.yul\":14579:14583   */\n      dup2\n        /* \"#utility.yul\":14576:14589   */\n      sub\n        /* \"#utility.yul\":14573:14599   */\n      tag_315\n      jumpi\n        /* \"#utility.yul\":14592:14597   */\n      pop\n      pop\n      jump(tag_314)\n        /* \"#utility.yul\":14573:14599   */\n    tag_315:\n        /* \"#utility.yul\":14623:14657   */\n      tag_316\n        /* \"#utility.yul\":14653:14656   */\n      dup3\n        /* \"#utility.yul\":14623:14657   */\n      tag_146\n      jump\t// in\n    tag_316:\n        /* \"#utility.yul\":14722:14740   */\n      0xffffffffffffffff\n        /* \"#utility.yul\":14714:14720   */\n      dup2\n        /* \"#utility.yul\":14711:14741   */\n      gt\n        /* \"#utility.yul\":14708:14764   */\n      iszero\n      tag_317\n      jumpi\n        /* \"#utility.yul\":14744:14762   */\n      tag_318\n      tag_137\n      jump\t// in\n    tag_318:\n        /* \"#utility.yul\":14708:14764   */\n    tag_317:\n        /* \"#utility.yul\":14788:14826   */\n      tag_319\n        /* \"#utility.yul\":14820:14824   */\n      dup3\n        /* \"#utility.yul\":14814:14825   */\n      sload\n        /* \"#utility.yul\":14788:14826   */\n      tag_45\n      jump\t// in\n    tag_319:\n        /* \"#utility.yul\":14873:14940   */\n      tag_320\n        /* \"#utility.yul\":14933:14939   */\n      dup3\n        /* \"#utility.yul\":14925:14931   */\n      dup3\n        /* \"#utility.yul\":14919:14923   */\n      dup6\n        /* \"#utility.yul\":14873:14940   */\n      tag_158\n      jump\t// in\n    tag_320:\n        /* \"#utility.yul\":14967:14968   */\n      0x00\n        /* \"#utility.yul\":14996:14998   */\n      0x1f\n        /* \"#utility.yul\":14988:14994   */\n      dup4\n        /* \"#utility.yul\":14985:14999   */\n      gt\n        /* \"#utility.yul\":15013:15014   */\n      0x01\n        /* \"#utility.yul\":15008:15680   */\n      dup2\n      eq\n      tag_322\n      jumpi\n        /* \"#utility.yul\":15724:15725   */\n      0x00\n        /* \"#utility.yul\":15741:15747   */\n      dup5\n        /* \"#utility.yul\":15738:15815   */\n      iszero\n      tag_323\n      jumpi\n        /* \"#utility.yul\":15790:15799   */\n      dup3\n        /* \"#utility.yul\":15785:15788   */\n      dup8\n        /* \"#utility.yul\":15781:15800   */\n      add\n        /* \"#utility.yul\":15775:15801   */\n      sload\n        /* \"#utility.yul\":15766:15801   */\n      swap1\n      pop\n        /* \"#utility.yul\":15738:15815   */\n    tag_323:\n        /* \"#utility.yul\":15841:15908   */\n      tag_324\n        /* \"#utility.yul\":15901:15907   */\n      dup6\n        /* \"#utility.yul\":15894:15899   */\n      dup3\n        /* \"#utility.yul\":15841:15908   */\n      tag_161\n      jump\t// in\n    tag_324:\n        /* \"#utility.yul\":15835:15839   */\n      dup7\n        /* \"#utility.yul\":15828:15909   */\n      sstore\n        /* \"#utility.yul\":15697:15919   */\n      pop\n        /* \"#utility.yul\":14978:15919   */\n      jump(tag_321)\n        /* \"#utility.yul\":15008:15680   */\n    tag_322:\n        /* \"#utility.yul\":15060:15064   */\n      0x1f\n        /* \"#utility.yul\":15056:15065   */\n      not\n        /* \"#utility.yul\":15048:15054   */\n      dup5\n        /* \"#utility.yul\":15044:15066   */\n      and\n        /* \"#utility.yul\":15086:15122   */\n      tag_325\n        /* \"#utility.yul\":15118:15121   */\n      dup8\n        /* \"#utility.yul\":15086:15122   */\n      tag_147\n      jump\t// in\n    tag_325:\n        /* \"#utility.yul\":15079:15122   */\n      swap7\n      pop\n        /* \"#utility.yul\":15149:15186   */\n      tag_326\n        /* \"#utility.yul\":15181:15185   */\n      dup7\n        /* \"#utility.yul\":15149:15186   */\n      tag_147\n      jump\t// in\n    tag_326:\n        /* \"#utility.yul\":15208:15209   */\n      0x00\n        /* \"#utility.yul\":15222:15429   */\n    tag_327:\n        /* \"#utility.yul\":15236:15243   */\n      dup3\n        /* \"#utility.yul\":15233:15234   */\n      dup2\n        /* \"#utility.yul\":15230:15244   */\n      lt\n        /* \"#utility.yul\":15222:15429   */\n      iszero\n      tag_329\n      jumpi\n        /* \"#utility.yul\":15315:15324   */\n      dup5\n        /* \"#utility.yul\":15310:15313   */\n      dup10\n        /* \"#utility.yul\":15306:15325   */\n      add\n        /* \"#utility.yul\":15300:15326   */\n      sload\n        /* \"#utility.yul\":15292:15298   */\n      dup3\n        /* \"#utility.yul\":15285:15327   */\n      sstore\n        /* \"#utility.yul\":15366:15367   */\n      0x01\n        /* \"#utility.yul\":15358:15364   */\n      dup3\n        /* \"#utility.yul\":15354:15368   */\n      add\n        /* \"#utility.yul\":15344:15368   */\n      swap2\n      pop\n        /* \"#utility.yul\":15413:15414   */\n      0x01\n        /* \"#utility.yul\":15402:15411   */\n      dup6\n        /* \"#utility.yul\":15398:15415   */\n      add\n        /* \"#utility.yul\":15385:15415   */\n      swap5\n      pop\n        /* \"#utility.yul\":15259:15263   */\n      0x20\n        /* \"#utility.yul\":15256:15257   */\n      dup2\n        /* \"#utility.yul\":15252:15264   */\n      add\n        /* \"#utility.yul\":15247:15264   */\n      swap1\n      pop\n        /* \"#utility.yul\":15222:15429   */\n      jump(tag_327)\n    tag_329:\n        /* \"#utility.yul\":15457:15463   */\n      dup7\n        /* \"#utility.yul\":15448:15455   */\n      dup4\n        /* \"#utility.yul\":15445:15464   */\n      lt\n        /* \"#utility.yul\":15442:15621   */\n      iszero\n      tag_330\n      jumpi\n        /* \"#utility.yul\":15515:15524   */\n      dup5\n        /* \"#utility.yul\":15510:15513   */\n      dup10\n        /* \"#utility.yul\":15506:15525   */\n      add\n        /* \"#utility.yul\":15500:15526   */\n      sload\n        /* \"#utility.yul\":15558:15606   */\n      tag_331\n        /* \"#utility.yul\":15600:15604   */\n      0x1f\n        /* \"#utility.yul\":15592:15598   */\n      dup10\n        /* \"#utility.yul\":15588:15605   */\n      and\n        /* \"#utility.yul\":15577:15586   */\n      dup3\n        /* \"#utility.yul\":15558:15606   */\n      tag_160\n      jump\t// in\n    tag_331:\n        /* \"#utility.yul\":15550:15556   */\n      dup4\n        /* \"#utility.yul\":15543:15607   */\n      sstore\n        /* \"#utility.yul\":15465:15621   */\n      pop\n        /* \"#utility.yul\":15442:15621   */\n    tag_330:\n        /* \"#utility.yul\":15667:15668   */\n      0x01\n        /* \"#utility.yul\":15663:15664   */\n      0x02\n        /* \"#utility.yul\":15655:15661   */\n      dup9\n        /* \"#utility.yul\":15651:15665   */\n      mul\n        /* \"#utility.yul\":15647:15669   */\n      add\n        /* \"#utility.yul\":15641:15645   */\n      dup9\n        /* \"#utility.yul\":15634:15670   */\n      sstore\n        /* \"#utility.yul\":15015:15680   */\n      pop\n      pop\n      pop\n        /* \"#utility.yul\":14978:15919   */\n    tag_321:\n      pop\n        /* \"#utility.yul\":14563:15925   */\n      pop\n      pop\n      pop\n        /* \"#utility.yul\":14474:15925   */\n      pop\n      pop\n    tag_314:\n      jump\t// out\n        /* \"#utility.yul\":15931:16111   */\n    tag_69:\n        /* \"#utility.yul\":15979:16056   */\n      0x4e487b7100000000000000000000000000000000000000000000000000000000\n        /* \"#utility.yul\":15976:15977   */\n      0x00\n        /* \"#utility.yul\":15969:16057   */\n      mstore\n        /* \"#utility.yul\":16076:16080   */\n      0x31\n        /* \"#utility.yul\":16073:16074   */\n      0x04\n        /* \"#utility.yul\":16066:16081   */\n      mstore\n        /* \"#utility.yul\":16100:16104   */\n      0x24\n        /* \"#utility.yul\":16097:16098   */\n      0x00\n        /* \"#utility.yul\":16090:16105   */\n      revert\n        /* \"#utility.yul\":16117:17512   */\n    tag_97:\n        /* \"#utility.yul\":16234:16271   */\n      tag_334\n        /* \"#utility.yul\":16267:16270   */\n      dup3\n        /* \"#utility.yul\":16234:16271   */\n      tag_114\n      jump\t// in\n    tag_334:\n        /* \"#utility.yul\":16336:16354   */\n      0xffffffffffffffff\n        /* \"#utility.yul\":16328:16334   */\n      dup2\n        /* \"#utility.yul\":16325:16355   */\n      gt\n        /* \"#utility.yul\":16322:16378   */\n      iszero\n      tag_335\n      jumpi\n        /* \"#utility.yul\":16358:16376   */\n      tag_336\n      tag_137\n      jump\t// in\n    tag_336:\n        /* \"#utility.yul\":16322:16378   */\n    tag_335:\n        /* \"#utility.yul\":16402:16440   */\n      tag_337\n        /* \"#utility.yul\":16434:16438   */\n      dup3\n        /* \"#utility.yul\":16428:16439   */\n      sload\n        /* \"#utility.yul\":16402:16440   */\n      tag_45\n      jump\t// in\n    tag_337:\n        /* \"#utility.yul\":16487:16554   */\n      tag_338\n        /* \"#utility.yul\":16547:16553   */\n      dup3\n        /* \"#utility.yul\":16539:16545   */\n      dup3\n        /* \"#utility.yul\":16533:16537   */\n      dup6\n        /* \"#utility.yul\":16487:16554   */\n      tag_158\n      jump\t// in\n    tag_338:\n        /* \"#utility.yul\":16581:16582   */\n      0x00\n        /* \"#utility.yul\":16605:16609   */\n      0x20\n        /* \"#utility.yul\":16592:16609   */\n      swap1\n      pop\n        /* \"#utility.yul\":16637:16639   */\n      0x1f\n        /* \"#utility.yul\":16629:16635   */\n      dup4\n        /* \"#utility.yul\":16626:16640   */\n      gt\n        /* \"#utility.yul\":16654:16655   */\n      0x01\n        /* \"#utility.yul\":16649:17267   */\n      dup2\n      eq\n      tag_340\n      jumpi\n        /* \"#utility.yul\":17311:17312   */\n      0x00\n        /* \"#utility.yul\":17328:17334   */\n      dup5\n        /* \"#utility.yul\":17325:17402   */\n      iszero\n      tag_341\n      jumpi\n        /* \"#utility.yul\":17377:17386   */\n      dup3\n        /* \"#utility.yul\":17372:17375   */\n      dup8\n        /* \"#utility.yul\":17368:17387   */\n      add\n        /* \"#utility.yul\":17362:17388   */\n      mload\n        /* \"#utility.yul\":17353:17388   */\n      swap1\n      pop\n        /* \"#utility.yul\":17325:17402   */\n    tag_341:\n        /* \"#utility.yul\":17428:17495   */\n      tag_342\n        /* \"#utility.yul\":17488:17494   */\n      dup6\n        /* \"#utility.yul\":17481:17486   */\n      dup3\n        /* \"#utility.yul\":17428:17495   */\n      tag_161\n      jump\t// in\n    tag_342:\n        /* \"#utility.yul\":17422:17426   */\n      dup7\n        /* \"#utility.yul\":17415:17496   */\n      sstore\n        /* \"#utility.yul\":17284:17506   */\n      pop\n        /* \"#utility.yul\":16619:17506   */\n      jump(tag_339)\n        /* \"#utility.yul\":16649:17267   */\n    tag_340:\n        /* \"#utility.yul\":16701:16705   */\n      0x1f\n        /* \"#utility.yul\":16697:16706   */\n      not\n        /* \"#utility.yul\":16689:16695   */\n      dup5\n        /* \"#utility.yul\":16685:16707   */\n      and\n        /* \"#utility.yul\":16735:16772   */\n      tag_343\n        /* \"#utility.yul\":16767:16771   */\n      dup7\n        /* \"#utility.yul\":16735:16772   */\n      tag_147\n      jump\t// in\n    tag_343:\n        /* \"#utility.yul\":16794:16795   */\n      0x00\n        /* \"#utility.yul\":16808:17016   */\n    tag_344:\n        /* \"#utility.yul\":16822:16829   */\n      dup3\n        /* \"#utility.yul\":16819:16820   */\n      dup2\n        /* \"#utility.yul\":16816:16830   */\n      lt\n        /* \"#utility.yul\":16808:17016   */\n      iszero\n      tag_346\n      jumpi\n        /* \"#utility.yul\":16901:16910   */\n      dup5\n        /* \"#utility.yul\":16896:16899   */\n      dup10\n        /* \"#utility.yul\":16892:16911   */\n      add\n        /* \"#utility.yul\":16886:16912   */\n      mload\n        /* \"#utility.yul\":16878:16884   */\n      dup3\n        /* \"#utility.yul\":16871:16913   */\n      sstore\n        /* \"#utility.yul\":16952:16953   */\n      0x01\n        /* \"#utility.yul\":16944:16950   */\n      dup3\n        /* \"#utility.yul\":16940:16954   */\n      add\n        /* \"#utility.yul\":16930:16954   */\n      swap2\n      pop\n        /* \"#utility.yul\":16999:17001   */\n      0x20\n        /* \"#utility.yul\":16988:16997   */\n      dup6\n        /* \"#utility.yul\":16984:17002   */\n      add\n        /* \"#utility.yul\":16971:17002   */\n      swap5\n      pop\n        /* \"#utility.yul\":16845:16849   */\n      0x20\n        /* \"#utility.yul\":16842:16843   */\n      dup2\n        /* \"#utility.yul\":16838:16850   */\n      add\n        /* \"#utility.yul\":16833:16850   */\n      swap1\n      pop\n        /* \"#utility.yul\":16808:17016   */\n      jump(tag_344)\n    tag_346:\n        /* \"#utility.yul\":17044:17050   */\n      dup7\n        /* \"#utility.yul\":17035:17042   */\n      dup4\n        /* \"#utility.yul\":17032:17051   */\n      lt\n        /* \"#utility.yul\":17029:17208   */\n      iszero\n      tag_347\n      jumpi\n        /* \"#utility.yul\":17102:17111   */\n      dup5\n        /* \"#utility.yul\":17097:17100   */\n      dup10\n        /* \"#utility.yul\":17093:17112   */\n      add\n        /* \"#utility.yul\":17087:17113   */\n      mload\n        /* \"#utility.yul\":17145:17193   */\n      tag_348\n        /* \"#utility.yul\":17187:17191   */\n      0x1f\n        /* \"#utility.yul\":17179:17185   */\n      dup10\n        /* \"#utility.yul\":17175:17192   */\n      and\n        /* \"#utility.yul\":17164:17173   */\n      dup3\n        /* \"#utility.yul\":17145:17193   */\n      tag_160\n      jump\t// in\n    tag_348:\n        /* \"#utility.yul\":17137:17143   */\n      dup4\n        /* \"#utility.yul\":17130:17194   */\n      sstore\n        /* \"#utility.yul\":17052:17208   */\n      pop\n        /* \"#utility.yul\":17029:17208   */\n    tag_347:\n        /* \"#utility.yul\":17254:17255   */\n      0x01\n        /* \"#utility.yul\":17250:17251   */\n      0x02\n        /* \"#utility.yul\":17242:17248   */\n      dup9\n        /* \"#utility.yul\":17238:17252   */\n      mul\n        /* \"#utility.yul\":17234:17256   */\n      add\n        /* \"#utility.yul\":17228:17232   */\n      dup9\n        /* \"#utility.yul\":17221:17257   */\n      sstore\n        /* \"#utility.yul\":16656:17267   */\n      pop\n      pop\n      pop\n        /* \"#utility.yul\":16619:17506   */\n    tag_339:\n      pop\n        /* \"#utility.yul\":16209:17512   */\n      pop\n      pop\n      pop\n        /* \"#utility.yul\":16117:17512   */\n      pop\n      pop\n      jump\t// out\n\n    auxdata: 0xa2646970667358221220d77ac93bd317e98afdbb39d96171d8bec06c8e634f784777d1a114097437404664736f6c634300081a0033\n}\n",
				"bytecode": {
					"linkReferences": {},
					"object": "6080604052348015600e575f80fd5b50335f806101000a81548173ffffffffffffffffffffffffffffffffffffffff021916908373ffffffffffffffffffffffffffffffffffffffff1602179055506111168061005b5f395ff3fe608060405234801561000f575f80fd5b506004361061007b575f3560e01c80638da5cb5b116100595780638da5cb5b146100d55780639507d39a146100f3578063b0c8f9dc14610123578063f745630f1461013f5761007b565b80630f560cd71461007f5780634cc822151461009d578063751ef753146100b9575b5f80fd5b61008761015b565b6040516100949190610922565b60405180910390f35b6100b760048036038101906100b29190610986565b6102b6565b005b6100d360048036038101906100ce9190610986565b6103ba565b005b6100dd61047d565b6040516100ea91906109f0565b60405180910390f35b61010d60048036038101906101089190610986565b6104a0565b60405161011a9190610a43565b60405180910390f35b61013d60048036038101906101389190610b8f565b6105d9565b005b61015960048036038101906101549190610bd6565b6106a6565b005b60603373ffffffffffffffffffffffffffffffffffffffff165f8054906101000a900473ffffffffffffffffffffffffffffffffffffffff1673ffffffffffffffffffffffffffffffffffffffff16146101b3575f80fd5b6001805480602002602001604051908101604052809291908181526020015f905b828210156102ad578382905f5260205f2090600202016040518060400160405290815f8201805461020490610c5d565b80601f016020809104026020016040519081016040528092919081815260200182805461023090610c5d565b801561027b5780601f106102525761010080835404028352916020019161027b565b820191905f5260205f20905b81548152906001019060200180831161025e57829003601f168201915b50505050508152602001600182015f9054906101000a900460ff161515151581525050815260200190600101906101d4565b50505050905090565b5f8190505b600180805490506102cc9190610cba565b81101561036c57600180826102e19190610ced565b815481106102f2576102f1610d20565b5b905f5260205f2090600202016001828154811061031257610311610d20565b5b905f5260205f2090600202015f8201815f0190816103309190610eff565b50600182015f9054906101000a900460ff16816001015f6101000a81548160ff02191690831515021790555090505080806001019150506102bb565b50600180548061037f5761037e610fe4565b5b600190038181905f5260205f2090600202015f8082015f6103a09190610730565b600182015f6101000a81549060ff02191690555050905550565b3373ffffffffffffffffffffffffffffffffffffffff165f8054906101000a900473ffffffffffffffffffffffffffffffffffffffff1673ffffffffffffffffffffffffffffffffffffffff1614610410575f80fd5b6001818154811061042457610423610d20565b5b905f5260205f2090600202016001015f9054906101000a900460ff16156001828154811061045557610454610d20565b5b905f5260205f2090600202016001015f6101000a81548160ff02191690831515021790555050565b5f8054906101000a900473ffffffffffffffffffffffffffffffffffffffff1681565b6104a861076d565b3373ffffffffffffffffffffffffffffffffffffffff165f8054906101000a900473ffffffffffffffffffffffffffffffffffffffff1673ffffffffffffffffffffffffffffffffffffffff16146104fe575f80fd5b6001828154811061051257610511610d20565b5b905f5260205f2090600202016040518060400160405290815f8201805461053890610c5d565b80601f016020809104026020016040519081016040528092919081815260200182805461056490610c5d565b80156105af5780601f10610586576101008083540402835291602001916105af565b820191905f5260205f20905b81548152906001019060200180831161059257829003601f168201915b50505050508152602001600182015f9054906101000a900460ff1615151515815250509050919050565b3373ffffffffffffffffffffffffffffffffffffffff165f8054906101000a900473ffffffffffffffffffffffffffffffffffffffff1673ffffffffffffffffffffffffffffffffffffffff161461062f575f80fd5b600160405180604001604052808381526020015f1515815250908060018154018082558091505060019003905f5260205f2090600202015f909190919091505f820151815f0190816106819190611011565b506020820151816001015f6101000a81548160ff021916908315150217905550505050565b3373ffffffffffffffffffffffffffffffffffffffff165f8054906101000a900473ffffffffffffffffffffffffffffffffffffffff1673ffffffffffffffffffffffffffffffffffffffff16146106fc575f80fd5b806001838154811061071157610710610d20565b5b905f5260205f2090600202015f01908161072b9190611011565b505050565b50805461073c90610c5d565b5f825580601f1061074d575061076a565b601f0160209004905f5260205f20908101906107699190610788565b5b50565b6040518060400160405280606081526020015f151581525090565b5b8082111561079f575f815f905550600101610789565b5090565b5f81519050919050565b5f82825260208201905092915050565b5f819050602082019050919050565b5f81519050919050565b5f82825260208201905092915050565b8281835e5f83830152505050565b5f601f19601f8301169050919050565b5f61080e826107cc565b61081881856107d6565b93506108288185602086016107e6565b610831816107f4565b840191505092915050565b5f8115159050919050565b6108508161083c565b82525050565b5f604083015f8301518482035f8601526108708282610804565b91505060208301516108856020860182610847565b508091505092915050565b5f61089b8383610856565b905092915050565b5f602082019050919050565b5f6108b9826107a3565b6108c381856107ad565b9350836020820285016108d5856107bd565b805f5b8581101561091057848403895281516108f18582610890565b94506108fc836108a3565b925060208a019950506001810190506108d8565b50829750879550505050505092915050565b5f6020820190508181035f83015261093a81846108af565b905092915050565b5f604051905090565b5f80fd5b5f80fd5b5f819050919050565b61096581610953565b811461096f575f80fd5b50565b5f813590506109808161095c565b92915050565b5f6020828403121561099b5761099a61094b565b5b5f6109a884828501610972565b91505092915050565b5f73ffffffffffffffffffffffffffffffffffffffff82169050919050565b5f6109da826109b1565b9050919050565b6109ea816109d0565b82525050565b5f602082019050610a035f8301846109e1565b92915050565b5f604083015f8301518482035f860152610a238282610804565b9150506020830151610a386020860182610847565b508091505092915050565b5f6020820190508181035f830152610a5b8184610a09565b905092915050565b5f80fd5b5f80fd5b7f4e487b71000000000000000000000000000000000000000000000000000000005f52604160045260245ffd5b610aa1826107f4565b810181811067ffffffffffffffff82111715610ac057610abf610a6b565b5b80604052505050565b5f610ad2610942565b9050610ade8282610a98565b919050565b5f67ffffffffffffffff821115610afd57610afc610a6b565b5b610b06826107f4565b9050602081019050919050565b828183375f83830152505050565b5f610b33610b2e84610ae3565b610ac9565b905082815260208101848484011115610b4f57610b4e610a67565b5b610b5a848285610b13565b509392505050565b5f82601f830112610b7657610b75610a63565b5b8135610b86848260208601610b21565b91505092915050565b5f60208284031215610ba457610ba361094b565b5b5f82013567ffffffffffffffff811115610bc157610bc061094f565b5b610bcd84828501610b62565b91505092915050565b5f8060408385031215610bec57610beb61094b565b5b5f610bf985828601610972565b925050602083013567ffffffffffffffff811115610c1a57610c1961094f565b5b610c2685828601610b62565b9150509250929050565b7f4e487b71000000000000000000000000000000000000000000000000000000005f52602260045260245ffd5b5f6002820490506001821680610c7457607f821691505b602082108103610c8757610c86610c30565b5b50919050565b7f4e487b71000000000000000000000000000000000000000000000000000000005f52601160045260245ffd5b5f610cc482610953565b9150610ccf83610953565b9250828203905081811115610ce757610ce6610c8d565b5b92915050565b5f610cf782610953565b9150610d0283610953565b9250828201905080821115610d1a57610d19610c8d565b5b92915050565b7f4e487b71000000000000000000000000000000000000000000000000000000005f52603260045260245ffd5b5f81549050610d5b81610c5d565b9050919050565b5f819050815f5260205f209050919050565b5f6020601f8301049050919050565b5f82821b905092915050565b5f60088302610dbe7fffffffffffffffffffffffffffffffffffffffffffffffffffffffffffffffff82610d83565b610dc88683610d83565b95508019841693508086168417925050509392505050565b5f819050919050565b5f610e03610dfe610df984610953565b610de0565b610953565b9050919050565b5f819050919050565b610e1c83610de9565b610e30610e2882610e0a565b848454610d8f565b825550505050565b5f90565b610e44610e38565b610e4f818484610e13565b505050565b5b81811015610e7257610e675f82610e3c565b600181019050610e55565b5050565b601f821115610eb757610e8881610d62565b610e9184610d74565b81016020851015610ea0578190505b610eb4610eac85610d74565b830182610e54565b50505b505050565b5f82821c905092915050565b5f610ed75f1984600802610ebc565b1980831691505092915050565b5f610eef8383610ec8565b9150826002028217905092915050565b818103610f0d575050610fe2565b610f1682610d4d565b67ffffffffffffffff811115610f2f57610f2e610a6b565b5b610f398254610c5d565b610f44828285610e76565b5f601f831160018114610f71575f8415610f5f578287015490505b610f698582610ee4565b865550610fdb565b601f198416610f7f87610d62565b9650610f8a86610d62565b5f5b82811015610fb157848901548255600182019150600185019450602081019050610f8c565b86831015610fce5784890154610fca601f891682610ec8565b8355505b6001600288020188555050505b5050505050505b565b7f4e487b71000000000000000000000000000000000000000000000000000000005f52603160045260245ffd5b61101a826107cc565b67ffffffffffffffff81111561103357611032610a6b565b5b61103d8254610c5d565b611048828285610e76565b5f60209050601f831160018114611079575f8415611067578287015190505b6110718582610ee4565b8655506110d8565b601f19841661108786610d62565b5f5b828110156110ae57848901518255600182019150602085019450602081019050611089565b868310156110cb57848901516110c7601f891682610ec8565b8355505b6001600288020188555050505b50505050505056fea2646970667358221220d77ac93bd317e98afdbb39d96171d8bec06c8e634f784777d1a114097437404664736f6c634300081a0033",
					"opcodes": "PUSH1 0x80 PUSH1 0x40 MSTORE CALLVALUE DUP1 ISZERO PUSH1 0xE JUMPI PUSH0 DUP1 REVERT JUMPDEST POP CALLER PUSH0 DUP1 PUSH2 0x100 EXP DUP2 SLOAD DUP2 PUSH20 0xFFFFFFFFFFFFFFFFFFFFFFFFFFFFFFFFFFFFFFFF MUL NOT AND SWAP1 DUP4 PUSH20 0xFFFFFFFFFFFFFFFFFFFFFFFFFFFFFFFFFFFFFFFF AND MUL OR SWAP1 SSTORE POP PUSH2 0x1116 DUP1 PUSH2 0x5B PUSH0 CODECOPY PUSH0 RETURN INVALID PUSH1 0x80 PUSH1 0x40 MSTORE CALLVALUE DUP1 ISZERO PUSH2 0xF JUMPI PUSH0 DUP1 REVERT JUMPDEST POP PUSH1 0x4 CALLDATASIZE LT PUSH2 0x7B JUMPI PUSH0 CALLDATALOAD PUSH1 0xE0 SHR DUP1 PUSH4 0x8DA5CB5B GT PUSH2 0x59 JUMPI DUP1 PUSH4 0x8DA5CB5B EQ PUSH2 0xD5 JUMPI DUP1 PUSH4 0x9507D39A EQ PUSH2 0xF3 JUMPI DUP1 PUSH4 0xB0C8F9DC EQ PUSH2 0x123 JUMPI DUP1 PUSH4 0xF745630F EQ PUSH2 0x13F JUMPI PUSH2 0x7B JUMP JUMPDEST DUP1 PUSH4 0xF560CD7 EQ PUSH2 0x7F JUMPI DUP1 PUSH4 0x4CC82215 EQ PUSH2 0x9D JUMPI DUP1 PUSH4 0x751EF753 EQ PUSH2 0xB9 JUMPI JUMPDEST PUSH0 DUP1 REVERT JUMPDEST PUSH2 0x87 PUSH2 0x15B JUMP JUMPDEST PUSH1 0x40 MLOAD PUSH2 0x94 SWAP2 SWAP1 PUSH2 0x922 JUMP JUMPDEST PUSH1 0x40 MLOAD DUP1 SWAP2 SUB SWAP1 RETURN JUMPDEST PUSH2 0xB7 PUSH1 0x4 DUP1 CALLDATASIZE SUB DUP2 ADD SWAP1 PUSH2 0xB2 SWAP2 SWAP1 PUSH2 0x986 JUMP JUMPDEST PUSH2 0x2B6 JUMP JUMPDEST STOP JUMPDEST PUSH2 0xD3 PUSH1 0x4 DUP1 CALLDATASIZE SUB DUP2 ADD SWAP1 PUSH2 0xCE SWAP2 SWAP1 PUSH2 0x986 JUMP JUMPDEST PUSH2 0x3BA JUMP JUMPDEST STOP JUMPDEST PUSH2 0xDD PUSH2 0x47D JUMP JUMPDEST PUSH1 0x40 MLOAD PUSH2 0xEA SWAP2 SWAP1 PUSH2 0x9F0 JUMP JUMPDEST PUSH1 0x40 MLOAD DUP1 SWAP2 SUB SWAP1 RETURN JUMPDEST PUSH2 0x10D PUSH1 0x4 DUP1 CALLDATASIZE SUB DUP2 ADD SWAP1 PUSH2 0x108 SWAP2 SWAP1 PUSH2 0x986 JUMP JUMPDEST PUSH2 0x4A0 JUMP JUMPDEST PUSH1 0x40 MLOAD PUSH2 0x11A SWAP2 SWAP1 PUSH2 0xA43 JUMP JUMPDEST PUSH1 0x40 MLOAD DUP1 SWAP2 SUB SWAP1 RETURN JUMPDEST PUSH2 0x13D PUSH1 0x4 DUP1 CALLDATASIZE SUB DUP2 ADD SWAP1 PUSH2 0x138 SWAP2 SWAP1 PUSH2 0xB8F JUMP JUMPDEST PUSH2 0x5D9 JUMP JUMPDEST STOP JUMPDEST PUSH2 0x159 PUSH1 0x4 DUP1 CALLDATASIZE SUB DUP2 ADD SWAP1 PUSH2 0x154 SWAP2 SWAP1 PUSH2 0xBD6 JUMP JUMPDEST PUSH2 0x6A6 JUMP JUMPDEST STOP JUMPDEST PUSH1 0x60 CALLER PUSH20 0xFFFFFFFFFFFFFFFFFFFFFFFFFFFFFFFFFFFFFFFF AND PUSH0 DUP1 SLOAD SWAP1 PUSH2 0x100 EXP SWAP1 DIV PUSH20 0xFFFFFFFFFFFFFFFFFFFFFFFFFFFFFFFFFFFFFFFF AND PUSH20 0xFFFFFFFFFFFFFFFFFFFFFFFFFFFFFFFFFFFFFFFF AND EQ PUSH2 0x1B3 JUMPI PUSH0 DUP1 REVERT JUMPDEST PUSH1 0x1 DUP1 SLOAD DUP1 PUSH1 0x20 MUL PUSH1 0x20 ADD PUSH1 0x40 MLOAD SWAP1 DUP2 ADD PUSH1 0x40 MSTORE DUP1 SWAP3 SWAP2 SWAP1 DUP2 DUP2 MSTORE PUSH1 0x20 ADD PUSH0 SWAP1 JUMPDEST DUP3 DUP3 LT ISZERO PUSH2 0x2AD JUMPI DUP4 DUP3 SWAP1 PUSH0 MSTORE PUSH1 0x20 PUSH0 KECCAK256 SWAP1 PUSH1 0x2 MUL ADD PUSH1 0x40 MLOAD DUP1 PUSH1 0x40 ADD PUSH1 0x40 MSTORE SWAP1 DUP2 PUSH0 DUP3 ADD DUP1 SLOAD PUSH2 0x204 SWAP1 PUSH2 0xC5D JUMP JUMPDEST DUP1 PUSH1 0x1F ADD PUSH1 0x20 DUP1 SWAP2 DIV MUL PUSH1 0x20 ADD PUSH1 0x40 MLOAD SWAP1 DUP2 ADD PUSH1 0x40 MSTORE DUP1 SWAP3 SWAP2 SWAP1 DUP2 DUP2 MSTORE PUSH1 0x20 ADD DUP3 DUP1 SLOAD PUSH2 0x230 SWAP1 PUSH2 0xC5D JUMP JUMPDEST DUP1 ISZERO PUSH2 0x27B JUMPI DUP1 PUSH1 0x1F LT PUSH2 0x252 JUMPI PUSH2 0x100 DUP1 DUP4 SLOAD DIV MUL DUP4 MSTORE SWAP2 PUSH1 0x20 ADD SWAP2 PUSH2 0x27B JUMP JUMPDEST DUP3 ADD SWAP2 SWAP1 PUSH0 MSTORE PUSH1 0x20 PUSH0 KECCAK256 SWAP1 JUMPDEST DUP2 SLOAD DUP2 MSTORE SWAP1 PUSH1 0x1 ADD SWAP1 PUSH1 0x20 ADD DUP1 DUP4 GT PUSH2 0x25E JUMPI DUP3 SWAP1 SUB PUSH1 0x1F AND DUP3 ADD SWAP2 JUMPDEST POP POP POP POP POP DUP2 MSTORE PUSH1 0x20 ADD PUSH1 0x1 DUP3 ADD PUSH0 SWAP1 SLOAD SWAP1 PUSH2 0x100 EXP SWAP1 DIV PUSH1 0xFF AND ISZERO ISZERO ISZERO ISZERO DUP2 MSTORE POP POP DUP2 MSTORE PUSH1 0x20 ADD SWAP1 PUSH1 0x1 ADD SWAP1 PUSH2 0x1D4 JUMP JUMPDEST POP POP POP POP SWAP1 POP SWAP1 JUMP JUMPDEST PUSH0 DUP2 SWAP1 POP JUMPDEST PUSH1 0x1 DUP1 DUP1 SLOAD SWAP1 POP PUSH2 0x2CC SWAP2 SWAP1 PUSH2 0xCBA JUMP JUMPDEST DUP2 LT ISZERO PUSH2 0x36C JUMPI PUSH1 0x1 DUP1 DUP3 PUSH2 0x2E1 SWAP2 SWAP1 PUSH2 0xCED JUMP JUMPDEST DUP2 SLOAD DUP2 LT PUSH2 0x2F2 JUMPI PUSH2 0x2F1 PUSH2 0xD20 JUMP JUMPDEST JUMPDEST SWAP1 PUSH0 MSTORE PUSH1 0x20 PUSH0 KECCAK256 SWAP1 PUSH1 0x2 MUL ADD PUSH1 0x1 DUP3 DUP2 SLOAD DUP2 LT PUSH2 0x312 JUMPI PUSH2 0x311 PUSH2 0xD20 JUMP JUMPDEST JUMPDEST SWAP1 PUSH0 MSTORE PUSH1 0x20 PUSH0 KECCAK256 SWAP1 PUSH1 0x2 MUL ADD PUSH0 DUP3 ADD DUP2 PUSH0 ADD SWAP1 DUP2 PUSH2 0x330 SWAP2 SWAP1 PUSH2 0xEFF JUMP JUMPDEST POP PUSH1 0x1 DUP3 ADD PUSH0 SWAP1 SLOAD SWAP1 PUSH2 0x100 EXP SWAP1 DIV PUSH1 0xFF AND DUP2 PUSH1 0x1 ADD PUSH0 PUSH2 0x100 EXP DUP2 SLOAD DUP2 PUSH1 0xFF MUL NOT AND SWAP1 DUP4 ISZERO ISZERO MUL OR SWAP1 SSTORE POP SWAP1 POP POP DUP1 DUP1 PUSH1 0x1 ADD SWAP2 POP POP PUSH2 0x2BB JUMP JUMPDEST POP PUSH1 0x1 DUP1 SLOAD DUP1 PUSH2 0x37F JUMPI PUSH2 0x37E PUSH2 0xFE4 JUMP JUMPDEST JUMPDEST PUSH1 0x1 SWAP1 SUB DUP2 DUP2 SWAP1 PUSH0 MSTORE PUSH1 0x20 PUSH0 KECCAK256 SWAP1 PUSH1 0x2 MUL ADD PUSH0 DUP1 DUP3 ADD PUSH0 PUSH2 0x3A0 SWAP2 SWAP1 PUSH2 0x730 JUMP JUMPDEST PUSH1 0x1 DUP3 ADD PUSH0 PUSH2 0x100 EXP DUP2 SLOAD SWAP1 PUSH1 0xFF MUL NOT AND SWAP1 SSTORE POP POP SWAP1 SSTORE POP JUMP JUMPDEST CALLER PUSH20 0xFFFFFFFFFFFFFFFFFFFFFFFFFFFFFFFFFFFFFFFF AND PUSH0 DUP1 SLOAD SWAP1 PUSH2 0x100 EXP SWAP1 DIV PUSH20 0xFFFFFFFFFFFFFFFFFFFFFFFFFFFFFFFFFFFFFFFF AND PUSH20 0xFFFFFFFFFFFFFFFFFFFFFFFFFFFFFFFFFFFFFFFF AND EQ PUSH2 0x410 JUMPI PUSH0 DUP1 REVERT JUMPDEST PUSH1 0x1 DUP2 DUP2 SLOAD DUP2 LT PUSH2 0x424 JUMPI PUSH2 0x423 PUSH2 0xD20 JUMP JUMPDEST JUMPDEST SWAP1 PUSH0 MSTORE PUSH1 0x20 PUSH0 KECCAK256 SWAP1 PUSH1 0x2 MUL ADD PUSH1 0x1 ADD PUSH0 SWAP1 SLOAD SWAP1 PUSH2 0x100 EXP SWAP1 DIV PUSH1 0xFF AND ISZERO PUSH1 0x1 DUP3 DUP2 SLOAD DUP2 LT PUSH2 0x455 JUMPI PUSH2 0x454 PUSH2 0xD20 JUMP JUMPDEST JUMPDEST SWAP1 PUSH0 MSTORE PUSH1 0x20 PUSH0 KECCAK256 SWAP1 PUSH1 0x2 MUL ADD PUSH1 0x1 ADD PUSH0 PUSH2 0x100 EXP DUP2 SLOAD DUP2 PUSH1 0xFF MUL NOT AND SWAP1 DUP4 ISZERO ISZERO MUL OR SWAP1 SSTORE POP POP JUMP JUMPDEST PUSH0 DUP1 SLOAD SWAP1 PUSH2 0x100 EXP SWAP1 DIV PUSH20 0xFFFFFFFFFFFFFFFFFFFFFFFFFFFFFFFFFFFFFFFF AND DUP2 JUMP JUMPDEST PUSH2 0x4A8 PUSH2 0x76D JUMP JUMPDEST CALLER PUSH20 0xFFFFFFFFFFFFFFFFFFFFFFFFFFFFFFFFFFFFFFFF AND PUSH0 DUP1 SLOAD SWAP1 PUSH2 0x100 EXP SWAP1 DIV PUSH20 0xFFFFFFFFFFFFFFFFFFFFFFFFFFFFFFFFFFFFFFFF AND PUSH20 0xFFFFFFFFFFFFFFFFFFFFFFFFFFFFFFFFFFFFFFFF AND EQ PUSH2 0x4FE JUMPI PUSH0 DUP1 REVERT JUMPDEST PUSH1 0x1 DUP3 DUP2 SLOAD DUP2 LT PUSH2 0x512 JUMPI PUSH2 0x511 PUSH2 0xD20 JUMP JUMPDEST JUMPDEST SWAP1 PUSH0 MSTORE PUSH1 0x20 PUSH0 KECCAK256 SWAP1 PUSH1 0x2 MUL ADD PUSH1 0x40 MLOAD DUP1 PUSH1 0x40 ADD PUSH1 0x40 MSTORE SWAP1 DUP2 PUSH0 DUP3 ADD DUP1 SLOAD PUSH2 0x538 SWAP1 PUSH2 0xC5D JUMP JUMPDEST DUP1 PUSH1 0x1F ADD PUSH1 0x20 DUP1 SWAP2 DIV MUL PUSH1 0x20 ADD PUSH1 0x40 MLOAD SWAP1 DUP2 ADD PUSH1 0x40 MSTORE DUP1 SWAP3 SWAP2 SWAP1 DUP2 DUP2 MSTORE PUSH1 0x20 ADD DUP3 DUP1 SLOAD PUSH2 0x564 SWAP1 PUSH2 0xC5D JUMP JUMPDEST DUP1 ISZERO PUSH2 0x5AF JUMPI DUP1 PUSH1 0x1F LT PUSH2 0x586 JUMPI PUSH2 0x100 DUP1 DUP4 SLOAD DIV MUL DUP4 MSTORE SWAP2 PUSH1 0x20 ADD SWAP2 PUSH2 0x5AF JUMP JUMPDEST DUP3 ADD SWAP2 SWAP1 PUSH0 MSTORE PUSH1 0x20 PUSH0 KECCAK256 SWAP1 JUMPDEST DUP2 SLOAD DUP2 MSTORE SWAP1 PUSH1 0x1 ADD SWAP1 PUSH1 0x20 ADD DUP1 DUP4 GT PUSH2 0x592 JUMPI DUP3 SWAP1 SUB PUSH1 0x1F AND DUP3 ADD SWAP2 JUMPDEST POP POP POP POP POP DUP2 MSTORE PUSH1 0x20 ADD PUSH1 0x1 DUP3 ADD PUSH0 SWAP1 SLOAD SWAP1 PUSH2 0x100 EXP SWAP1 DIV PUSH1 0xFF AND ISZERO ISZERO ISZERO ISZERO DUP2 MSTORE POP POP SWAP1 POP SWAP2 SWAP1 POP JUMP JUMPDEST CALLER PUSH20 0xFFFFFFFFFFFFFFFFFFFFFFFFFFFFFFFFFFFFFFFF AND PUSH0 DUP1 SLOAD SWAP1 PUSH2 0x100 EXP SWAP1 DIV PUSH20 0xFFFFFFFFFFFFFFFFFFFFFFFFFFFFFFFFFFFFFFFF AND PUSH20 0xFFFFFFFFFFFFFFFFFFFFFFFFFFFFFFFFFFFFFFFF AND EQ PUSH2 0x62F JUMPI PUSH0 DUP1 REVERT JUMPDEST PUSH1 0x1 PUSH1 0x40 MLOAD DUP1 PUSH1 0x40 ADD PUSH1 0x40 MSTORE DUP1 DUP4 DUP2 MSTORE PUSH1 0x20 ADD PUSH0 ISZERO ISZERO DUP2 MSTORE POP SWAP1 DUP1 PUSH1 0x1 DUP2 SLOAD ADD DUP1 DUP3 SSTORE DUP1 SWAP2 POP POP PUSH1 0x1 SWAP1 SUB SWAP1 PUSH0 MSTORE PUSH1 0x20 PUSH0 KECCAK256 SWAP1 PUSH1 0x2 MUL ADD PUSH0 SWAP1 SWAP2 SWAP1 SWAP2 SWAP1 SWAP2 POP PUSH0 DUP3 ADD MLOAD DUP2 PUSH0 ADD SWAP1 DUP2 PUSH2 0x681 SWAP2 SWAP1 PUSH2 0x1011 JUMP JUMPDEST POP PUSH1 0x20 DUP3 ADD MLOAD DUP2 PUSH1 0x1 ADD PUSH0 PUSH2 0x100 EXP DUP2 SLOAD DUP2 PUSH1 0xFF MUL NOT AND SWAP1 DUP4 ISZERO ISZERO MUL OR SWAP1 SSTORE POP POP POP POP JUMP JUMPDEST CALLER PUSH20 0xFFFFFFFFFFFFFFFFFFFFFFFFFFFFFFFFFFFFFFFF AND PUSH0 DUP1 SLOAD SWAP1 PUSH2 0x100 EXP SWAP1 DIV PUSH20 0xFFFFFFFFFFFFFFFFFFFFFFFFFFFFFFFFFFFFFFFF AND PUSH20 0xFFFFFFFFFFFFFFFFFFFFFFFFFFFFFFFFFFFFFFFF AND EQ PUSH2 0x6FC JUMPI PUSH0 DUP1 REVERT JUMPDEST DUP1 PUSH1 0x1 DUP4 DUP2 SLOAD DUP2 LT PUSH2 0x711 JUMPI PUSH2 0x710 PUSH2 0xD20 JUMP JUMPDEST JUMPDEST SWAP1 PUSH0 MSTORE PUSH1 0x20 PUSH0 KECCAK256 SWAP1 PUSH1 0x2 MUL ADD PUSH0 ADD SWAP1 DUP2 PUSH2 0x72B SWAP2 SWAP1 PUSH2 0x1011 JUMP JUMPDEST POP POP POP JUMP JUMPDEST POP DUP1 SLOAD PUSH2 0x73C SWAP1 PUSH2 0xC5D JUMP JUMPDEST PUSH0 DUP3 SSTORE DUP1 PUSH1 0x1F LT PUSH2 0x74D JUMPI POP PUSH2 0x76A JUMP JUMPDEST PUSH1 0x1F ADD PUSH1 0x20 SWAP1 DIV SWAP1 PUSH0 MSTORE PUSH1 0x20 PUSH0 KECCAK256 SWAP1 DUP2 ADD SWAP1 PUSH2 0x769 SWAP2 SWAP1 PUSH2 0x788 JUMP JUMPDEST JUMPDEST POP JUMP JUMPDEST PUSH1 0x40 MLOAD DUP1 PUSH1 0x40 ADD PUSH1 0x40 MSTORE DUP1 PUSH1 0x60 DUP2 MSTORE PUSH1 0x20 ADD PUSH0 ISZERO ISZERO DUP2 MSTORE POP SWAP1 JUMP JUMPDEST JUMPDEST DUP1 DUP3 GT ISZERO PUSH2 0x79F JUMPI PUSH0 DUP2 PUSH0 SWAP1 SSTORE POP PUSH1 0x1 ADD PUSH2 0x789 JUMP JUMPDEST POP SWAP1 JUMP JUMPDEST PUSH0 DUP2 MLOAD SWAP1 POP SWAP2 SWAP1 POP JUMP JUMPDEST PUSH0 DUP3 DUP3 MSTORE PUSH1 0x20 DUP3 ADD SWAP1 POP SWAP3 SWAP2 POP POP JUMP JUMPDEST PUSH0 DUP2 SWAP1 POP PUSH1 0x20 DUP3 ADD SWAP1 POP SWAP2 SWAP1 POP JUMP JUMPDEST PUSH0 DUP2 MLOAD SWAP1 POP SWAP2 SWAP1 POP JUMP JUMPDEST PUSH0 DUP3 DUP3 MSTORE PUSH1 0x20 DUP3 ADD SWAP1 POP SWAP3 SWAP2 POP POP JUMP JUMPDEST DUP3 DUP2 DUP4 MCOPY PUSH0 DUP4 DUP4 ADD MSTORE POP POP POP JUMP JUMPDEST PUSH0 PUSH1 0x1F NOT PUSH1 0x1F DUP4 ADD AND SWAP1 POP SWAP2 SWAP1 POP JUMP JUMPDEST PUSH0 PUSH2 0x80E DUP3 PUSH2 0x7CC JUMP JUMPDEST PUSH2 0x818 DUP2 DUP6 PUSH2 0x7D6 JUMP JUMPDEST SWAP4 POP PUSH2 0x828 DUP2 DUP6 PUSH1 0x20 DUP7 ADD PUSH2 0x7E6 JUMP JUMPDEST PUSH2 0x831 DUP2 PUSH2 0x7F4 JUMP JUMPDEST DUP5 ADD SWAP2 POP POP SWAP3 SWAP2 POP POP JUMP JUMPDEST PUSH0 DUP2 ISZERO ISZERO SWAP1 POP SWAP2 SWAP1 POP JUMP JUMPDEST PUSH2 0x850 DUP2 PUSH2 0x83C JUMP JUMPDEST DUP3 MSTORE POP POP JUMP JUMPDEST PUSH0 PUSH1 0x40 DUP4 ADD PUSH0 DUP4 ADD MLOAD DUP5 DUP3 SUB PUSH0 DUP7 ADD MSTORE PUSH2 0x870 DUP3 DUP3 PUSH2 0x804 JUMP JUMPDEST SWAP2 POP POP PUSH1 0x20 DUP4 ADD MLOAD PUSH2 0x885 PUSH1 0x20 DUP7 ADD DUP3 PUSH2 0x847 JUMP JUMPDEST POP DUP1 SWAP2 POP POP SWAP3 SWAP2 POP POP JUMP JUMPDEST PUSH0 PUSH2 0x89B DUP4 DUP4 PUSH2 0x856 JUMP JUMPDEST SWAP1 POP SWAP3 SWAP2 POP POP JUMP JUMPDEST PUSH0 PUSH1 0x20 DUP3 ADD SWAP1 POP SWAP2 SWAP1 POP JUMP JUMPDEST PUSH0 PUSH2 0x8B9 DUP3 PUSH2 0x7A3 JUMP JUMPDEST PUSH2 0x8C3 DUP2 DUP6 PUSH2 0x7AD JUMP JUMPDEST SWAP4 POP DUP4 PUSH1 0x20 DUP3 MUL DUP6 ADD PUSH2 0x8D5 DUP6 PUSH2 0x7BD JUMP JUMPDEST DUP1 PUSH0 JUMPDEST DUP6 DUP2 LT ISZERO PUSH2 0x910 JUMPI DUP5 DUP5 SUB DUP10 MSTORE DUP2 MLOAD PUSH2 0x8F1 DUP6 DUP3 PUSH2 0x890 JUMP JUMPDEST SWAP5 POP PUSH2 0x8FC DUP4 PUSH2 0x8A3 JUMP JUMPDEST SWAP3 POP PUSH1 0x20 DUP11 ADD SWAP10 POP POP PUSH1 0x1 DUP2 ADD SWAP1 POP PUSH2 0x8D8 JUMP JUMPDEST POP DUP3 SWAP8 POP DUP8 SWAP6 POP POP POP POP POP POP SWAP3 SWAP2 POP POP JUMP JUMPDEST PUSH0 PUSH1 0x20 DUP3 ADD SWAP1 POP DUP2 DUP2 SUB PUSH0 DUP4 ADD MSTORE PUSH2 0x93A DUP2 DUP5 PUSH2 0x8AF JUMP JUMPDEST SWAP1 POP SWAP3 SWAP2 POP POP JUMP JUMPDEST PUSH0 PUSH1 0x40 MLOAD SWAP1 POP SWAP1 JUMP JUMPDEST PUSH0 DUP1 REVERT JUMPDEST PUSH0 DUP1 REVERT JUMPDEST PUSH0 DUP2 SWAP1 POP SWAP2 SWAP1 POP JUMP JUMPDEST PUSH2 0x965 DUP2 PUSH2 0x953 JUMP JUMPDEST DUP2 EQ PUSH2 0x96F JUMPI PUSH0 DUP1 REVERT JUMPDEST POP JUMP JUMPDEST PUSH0 DUP2 CALLDATALOAD SWAP1 POP PUSH2 0x980 DUP2 PUSH2 0x95C JUMP JUMPDEST SWAP3 SWAP2 POP POP JUMP JUMPDEST PUSH0 PUSH1 0x20 DUP3 DUP5 SUB SLT ISZERO PUSH2 0x99B JUMPI PUSH2 0x99A PUSH2 0x94B JUMP JUMPDEST JUMPDEST PUSH0 PUSH2 0x9A8 DUP5 DUP3 DUP6 ADD PUSH2 0x972 JUMP JUMPDEST SWAP2 POP POP SWAP3 SWAP2 POP POP JUMP JUMPDEST PUSH0 PUSH20 0xFFFFFFFFFFFFFFFFFFFFFFFFFFFFFFFFFFFFFFFF DUP3 AND SWAP1 POP SWAP2 SWAP1 POP JUMP JUMPDEST PUSH0 PUSH2 0x9DA DUP3 PUSH2 0x9B1 JUMP JUMPDEST SWAP1 POP SWAP2 SWAP1 POP JUMP JUMPDEST PUSH2 0x9EA DUP2 PUSH2 0x9D0 JUMP JUMPDEST DUP3 MSTORE POP POP JUMP JUMPDEST PUSH0 PUSH1 0x20 DUP3 ADD SWAP1 POP PUSH2 0xA03 PUSH0 DUP4 ADD DUP5 PUSH2 0x9E1 JUMP JUMPDEST SWAP3 SWAP2 POP POP JUMP JUMPDEST PUSH0 PUSH1 0x40 DUP4 ADD PUSH0 DUP4 ADD MLOAD DUP5 DUP3 SUB PUSH0 DUP7 ADD MSTORE PUSH2 0xA23 DUP3 DUP3 PUSH2 0x804 JUMP JUMPDEST SWAP2 POP POP PUSH1 0x20 DUP4 ADD MLOAD PUSH2 0xA38 PUSH1 0x20 DUP7 ADD DUP3 PUSH2 0x847 JUMP JUMPDEST POP DUP1 SWAP2 POP POP SWAP3 SWAP2 POP POP JUMP JUMPDEST PUSH0 PUSH1 0x20 DUP3 ADD SWAP1 POP DUP2 DUP2 SUB PUSH0 DUP4 ADD MSTORE PUSH2 0xA5B DUP2 DUP5 PUSH2 0xA09 JUMP JUMPDEST SWAP1 POP SWAP3 SWAP2 POP POP JUMP JUMPDEST PUSH0 DUP1 REVERT JUMPDEST PUSH0 DUP1 REVERT JUMPDEST PUSH32 0x4E487B7100000000000000000000000000000000000000000000000000000000 PUSH0 MSTORE PUSH1 0x41 PUSH1 0x4 MSTORE PUSH1 0x24 PUSH0 REVERT JUMPDEST PUSH2 0xAA1 DUP3 PUSH2 0x7F4 JUMP JUMPDEST DUP2 ADD DUP2 DUP2 LT PUSH8 0xFFFFFFFFFFFFFFFF DUP3 GT OR ISZERO PUSH2 0xAC0 JUMPI PUSH2 0xABF PUSH2 0xA6B JUMP JUMPDEST JUMPDEST DUP1 PUSH1 0x40 MSTORE POP POP POP JUMP JUMPDEST PUSH0 PUSH2 0xAD2 PUSH2 0x942 JUMP JUMPDEST SWAP1 POP PUSH2 0xADE DUP3 DUP3 PUSH2 0xA98 JUMP JUMPDEST SWAP2 SWAP1 POP JUMP JUMPDEST PUSH0 PUSH8 0xFFFFFFFFFFFFFFFF DUP3 GT ISZERO PUSH2 0xAFD JUMPI PUSH2 0xAFC PUSH2 0xA6B JUMP JUMPDEST JUMPDEST PUSH2 0xB06 DUP3 PUSH2 0x7F4 JUMP JUMPDEST SWAP1 POP PUSH1 0x20 DUP2 ADD SWAP1 POP SWAP2 SWAP1 POP JUMP JUMPDEST DUP3 DUP2 DUP4 CALLDATACOPY PUSH0 DUP4 DUP4 ADD MSTORE POP POP POP JUMP JUMPDEST PUSH0 PUSH2 0xB33 PUSH2 0xB2E DUP5 PUSH2 0xAE3 JUMP JUMPDEST PUSH2 0xAC9 JUMP JUMPDEST SWAP1 POP DUP3 DUP2 MSTORE PUSH1 0x20 DUP2 ADD DUP5 DUP5 DUP5 ADD GT ISZERO PUSH2 0xB4F JUMPI PUSH2 0xB4E PUSH2 0xA67 JUMP JUMPDEST JUMPDEST PUSH2 0xB5A DUP5 DUP3 DUP6 PUSH2 0xB13 JUMP JUMPDEST POP SWAP4 SWAP3 POP POP POP JUMP JUMPDEST PUSH0 DUP3 PUSH1 0x1F DUP4 ADD SLT PUSH2 0xB76 JUMPI PUSH2 0xB75 PUSH2 0xA63 JUMP JUMPDEST JUMPDEST DUP2 CALLDATALOAD PUSH2 0xB86 DUP5 DUP3 PUSH1 0x20 DUP7 ADD PUSH2 0xB21 JUMP JUMPDEST SWAP2 POP POP SWAP3 SWAP2 POP POP JUMP JUMPDEST PUSH0 PUSH1 0x20 DUP3 DUP5 SUB SLT ISZERO PUSH2 0xBA4 JUMPI PUSH2 0xBA3 PUSH2 0x94B JUMP JUMPDEST JUMPDEST PUSH0 DUP3 ADD CALLDATALOAD PUSH8 0xFFFFFFFFFFFFFFFF DUP2 GT ISZERO PUSH2 0xBC1 JUMPI PUSH2 0xBC0 PUSH2 0x94F JUMP JUMPDEST JUMPDEST PUSH2 0xBCD DUP5 DUP3 DUP6 ADD PUSH2 0xB62 JUMP JUMPDEST SWAP2 POP POP SWAP3 SWAP2 POP POP JUMP JUMPDEST PUSH0 DUP1 PUSH1 0x40 DUP4 DUP6 SUB SLT ISZERO PUSH2 0xBEC JUMPI PUSH2 0xBEB PUSH2 0x94B JUMP JUMPDEST JUMPDEST PUSH0 PUSH2 0xBF9 DUP6 DUP3 DUP7 ADD PUSH2 0x972 JUMP JUMPDEST SWAP3 POP POP PUSH1 0x20 DUP4 ADD CALLDATALOAD PUSH8 0xFFFFFFFFFFFFFFFF DUP2 GT ISZERO PUSH2 0xC1A JUMPI PUSH2 0xC19 PUSH2 0x94F JUMP JUMPDEST JUMPDEST PUSH2 0xC26 DUP6 DUP3 DUP7 ADD PUSH2 0xB62 JUMP JUMPDEST SWAP2 POP POP SWAP3 POP SWAP3 SWAP1 POP JUMP JUMPDEST PUSH32 0x4E487B7100000000000000000000000000000000000000000000000000000000 PUSH0 MSTORE PUSH1 0x22 PUSH1 0x4 MSTORE PUSH1 0x24 PUSH0 REVERT JUMPDEST PUSH0 PUSH1 0x2 DUP3 DIV SWAP1 POP PUSH1 0x1 DUP3 AND DUP1 PUSH2 0xC74 JUMPI PUSH1 0x7F DUP3 AND SWAP2 POP JUMPDEST PUSH1 0x20 DUP3 LT DUP2 SUB PUSH2 0xC87 JUMPI PUSH2 0xC86 PUSH2 0xC30 JUMP JUMPDEST JUMPDEST POP SWAP2 SWAP1 POP JUMP JUMPDEST PUSH32 0x4E487B7100000000000000000000000000000000000000000000000000000000 PUSH0 MSTORE PUSH1 0x11 PUSH1 0x4 MSTORE PUSH1 0x24 PUSH0 REVERT JUMPDEST PUSH0 PUSH2 0xCC4 DUP3 PUSH2 0x953 JUMP JUMPDEST SWAP2 POP PUSH2 0xCCF DUP4 PUSH2 0x953 JUMP JUMPDEST SWAP3 POP DUP3 DUP3 SUB SWAP1 POP DUP2 DUP2 GT ISZERO PUSH2 0xCE7 JUMPI PUSH2 0xCE6 PUSH2 0xC8D JUMP JUMPDEST JUMPDEST SWAP3 SWAP2 POP POP JUMP JUMPDEST PUSH0 PUSH2 0xCF7 DUP3 PUSH2 0x953 JUMP JUMPDEST SWAP2 POP PUSH2 0xD02 DUP4 PUSH2 0x953 JUMP JUMPDEST SWAP3 POP DUP3 DUP3 ADD SWAP1 POP DUP1 DUP3 GT ISZERO PUSH2 0xD1A JUMPI PUSH2 0xD19 PUSH2 0xC8D JUMP JUMPDEST JUMPDEST SWAP3 SWAP2 POP POP JUMP JUMPDEST PUSH32 0x4E487B7100000000000000000000000000000000000000000000000000000000 PUSH0 MSTORE PUSH1 0x32 PUSH1 0x4 MSTORE PUSH1 0x24 PUSH0 REVERT JUMPDEST PUSH0 DUP2 SLOAD SWAP1 POP PUSH2 0xD5B DUP2 PUSH2 0xC5D JUMP JUMPDEST SWAP1 POP SWAP2 SWAP1 POP JUMP JUMPDEST PUSH0 DUP2 SWAP1 POP DUP2 PUSH0 MSTORE PUSH1 0x20 PUSH0 KECCAK256 SWAP1 POP SWAP2 SWAP1 POP JUMP JUMPDEST PUSH0 PUSH1 0x20 PUSH1 0x1F DUP4 ADD DIV SWAP1 POP SWAP2 SWAP1 POP JUMP JUMPDEST PUSH0 DUP3 DUP3 SHL SWAP1 POP SWAP3 SWAP2 POP POP JUMP JUMPDEST PUSH0 PUSH1 0x8 DUP4 MUL PUSH2 0xDBE PUSH32 0xFFFFFFFFFFFFFFFFFFFFFFFFFFFFFFFFFFFFFFFFFFFFFFFFFFFFFFFFFFFFFFFF DUP3 PUSH2 0xD83 JUMP JUMPDEST PUSH2 0xDC8 DUP7 DUP4 PUSH2 0xD83 JUMP JUMPDEST SWAP6 POP DUP1 NOT DUP5 AND SWAP4 POP DUP1 DUP7 AND DUP5 OR SWAP3 POP POP POP SWAP4 SWAP3 POP POP POP JUMP JUMPDEST PUSH0 DUP2 SWAP1 POP SWAP2 SWAP1 POP JUMP JUMPDEST PUSH0 PUSH2 0xE03 PUSH2 0xDFE PUSH2 0xDF9 DUP5 PUSH2 0x953 JUMP JUMPDEST PUSH2 0xDE0 JUMP JUMPDEST PUSH2 0x953 JUMP JUMPDEST SWAP1 POP SWAP2 SWAP1 POP JUMP JUMPDEST PUSH0 DUP2 SWAP1 POP SWAP2 SWAP1 POP JUMP JUMPDEST PUSH2 0xE1C DUP4 PUSH2 0xDE9 JUMP JUMPDEST PUSH2 0xE30 PUSH2 0xE28 DUP3 PUSH2 0xE0A JUMP JUMPDEST DUP5 DUP5 SLOAD PUSH2 0xD8F JUMP JUMPDEST DUP3 SSTORE POP POP POP POP JUMP JUMPDEST PUSH0 SWAP1 JUMP JUMPDEST PUSH2 0xE44 PUSH2 0xE38 JUMP JUMPDEST PUSH2 0xE4F DUP2 DUP5 DUP5 PUSH2 0xE13 JUMP JUMPDEST POP POP POP JUMP JUMPDEST JUMPDEST DUP2 DUP2 LT ISZERO PUSH2 0xE72 JUMPI PUSH2 0xE67 PUSH0 DUP3 PUSH2 0xE3C JUMP JUMPDEST PUSH1 0x1 DUP2 ADD SWAP1 POP PUSH2 0xE55 JUMP JUMPDEST POP POP JUMP JUMPDEST PUSH1 0x1F DUP3 GT ISZERO PUSH2 0xEB7 JUMPI PUSH2 0xE88 DUP2 PUSH2 0xD62 JUMP JUMPDEST PUSH2 0xE91 DUP5 PUSH2 0xD74 JUMP JUMPDEST DUP2 ADD PUSH1 0x20 DUP6 LT ISZERO PUSH2 0xEA0 JUMPI DUP2 SWAP1 POP JUMPDEST PUSH2 0xEB4 PUSH2 0xEAC DUP6 PUSH2 0xD74 JUMP JUMPDEST DUP4 ADD DUP3 PUSH2 0xE54 JUMP JUMPDEST POP POP JUMPDEST POP POP POP JUMP JUMPDEST PUSH0 DUP3 DUP3 SHR SWAP1 POP SWAP3 SWAP2 POP POP JUMP JUMPDEST PUSH0 PUSH2 0xED7 PUSH0 NOT DUP5 PUSH1 0x8 MUL PUSH2 0xEBC JUMP JUMPDEST NOT DUP1 DUP4 AND SWAP2 POP POP SWAP3 SWAP2 POP POP JUMP JUMPDEST PUSH0 PUSH2 0xEEF DUP4 DUP4 PUSH2 0xEC8 JUMP JUMPDEST SWAP2 POP DUP3 PUSH1 0x2 MUL DUP3 OR SWAP1 POP SWAP3 SWAP2 POP POP JUMP JUMPDEST DUP2 DUP2 SUB PUSH2 0xF0D JUMPI POP POP PUSH2 0xFE2 JUMP JUMPDEST PUSH2 0xF16 DUP3 PUSH2 0xD4D JUMP JUMPDEST PUSH8 0xFFFFFFFFFFFFFFFF DUP2 GT ISZERO PUSH2 0xF2F JUMPI PUSH2 0xF2E PUSH2 0xA6B JUMP JUMPDEST JUMPDEST PUSH2 0xF39 DUP3 SLOAD PUSH2 0xC5D JUMP JUMPDEST PUSH2 0xF44 DUP3 DUP3 DUP6 PUSH2 0xE76 JUMP JUMPDEST PUSH0 PUSH1 0x1F DUP4 GT PUSH1 0x1 DUP2 EQ PUSH2 0xF71 JUMPI PUSH0 DUP5 ISZERO PUSH2 0xF5F JUMPI DUP3 DUP8 ADD SLOAD SWAP1 POP JUMPDEST PUSH2 0xF69 DUP6 DUP3 PUSH2 0xEE4 JUMP JUMPDEST DUP7 SSTORE POP PUSH2 0xFDB JUMP JUMPDEST PUSH1 0x1F NOT DUP5 AND PUSH2 0xF7F DUP8 PUSH2 0xD62 JUMP JUMPDEST SWAP7 POP PUSH2 0xF8A DUP7 PUSH2 0xD62 JUMP JUMPDEST PUSH0 JUMPDEST DUP3 DUP2 LT ISZERO PUSH2 0xFB1 JUMPI DUP5 DUP10 ADD SLOAD DUP3 SSTORE PUSH1 0x1 DUP3 ADD SWAP2 POP PUSH1 0x1 DUP6 ADD SWAP5 POP PUSH1 0x20 DUP2 ADD SWAP1 POP PUSH2 0xF8C JUMP JUMPDEST DUP7 DUP4 LT ISZERO PUSH2 0xFCE JUMPI DUP5 DUP10 ADD SLOAD PUSH2 0xFCA PUSH1 0x1F DUP10 AND DUP3 PUSH2 0xEC8 JUMP JUMPDEST DUP4 SSTORE POP JUMPDEST PUSH1 0x1 PUSH1 0x2 DUP9 MUL ADD DUP9 SSTORE POP POP POP JUMPDEST POP POP POP POP POP POP JUMPDEST JUMP JUMPDEST PUSH32 0x4E487B7100000000000000000000000000000000000000000000000000000000 PUSH0 MSTORE PUSH1 0x31 PUSH1 0x4 MSTORE PUSH1 0x24 PUSH0 REVERT JUMPDEST PUSH2 0x101A DUP3 PUSH2 0x7CC JUMP JUMPDEST PUSH8 0xFFFFFFFFFFFFFFFF DUP2 GT ISZERO PUSH2 0x1033 JUMPI PUSH2 0x1032 PUSH2 0xA6B JUMP JUMPDEST JUMPDEST PUSH2 0x103D DUP3 SLOAD PUSH2 0xC5D JUMP JUMPDEST PUSH2 0x1048 DUP3 DUP3 DUP6 PUSH2 0xE76 JUMP JUMPDEST PUSH0 PUSH1 0x20 SWAP1 POP PUSH1 0x1F DUP4 GT PUSH1 0x1 DUP2 EQ PUSH2 0x1079 JUMPI PUSH0 DUP5 ISZERO PUSH2 0x1067 JUMPI DUP3 DUP8 ADD MLOAD SWAP1 POP JUMPDEST PUSH2 0x1071 DUP6 DUP3 PUSH2 0xEE4 JUMP JUMPDEST DUP7 SSTORE POP PUSH2 0x10D8 JUMP JUMPDEST PUSH1 0x1F NOT DUP5 AND PUSH2 0x1087 DUP7 PUSH2 0xD62 JUMP JUMPDEST PUSH0 JUMPDEST DUP3 DUP2 LT ISZERO PUSH2 0x10AE JUMPI DUP5 DUP10 ADD MLOAD DUP3 SSTORE PUSH1 0x1 DUP3 ADD SWAP2 POP PUSH1 0x20 DUP6 ADD SWAP5 POP PUSH1 0x20 DUP2 ADD SWAP1 POP PUSH2 0x1089 JUMP JUMPDEST DUP7 DUP4 LT ISZERO PUSH2 0x10CB JUMPI DUP5 DUP10 ADD MLOAD PUSH2 0x10C7 PUSH1 0x1F DUP10 AND DUP3 PUSH2 0xEC8 JUMP JUMPDEST DUP4 SSTORE POP JUMPDEST PUSH1 0x1 PUSH1 0x2 DUP9 MUL ADD DUP9 SSTORE POP POP POP JUMPDEST POP POP POP POP POP POP JUMP INVALID LOG2 PUSH5 0x6970667358 0x22 SLT KECCAK256 0xD7 PUSH27 0xC93BD317E98AFDBB39D96171D8BEC06C8E634F784777D1A1140974 CALLDATACOPY BLOCKHASH CHAINID PUSH5 0x736F6C6343 STOP ADDMOD BYTE STOP CALLER "
				},
				"gasEstimates": {
					"creation": {
						"codeDepositCost": "874800",
						"executionCost": "25172",
						"totalCost": "899972"
					},
					"external": {
						"add(string)": "infinite",
						"get(uint256)": "infinite",
						"list()": "infinite",
						"owner()": "2505",
						"remove(uint256)": "infinite",
						"toggle(uint256)": "33406",
						"update(uint256,string)": "infinite"
					}
				},
				"methodIdentifiers": {
					"add(string)": "b0c8f9dc",
					"get(uint256)": "9507d39a",
					"list()": "0f560cd7",
					"owner()": "8da5cb5b",
					"remove(uint256)": "4cc82215",
					"toggle(uint256)": "751ef753",
					"update(uint256,string)": "f745630f"
				}
			},
			"storageLayout": {
				"storage": [
					{
						"astId": 3,
						"contract": "contracts/todo.sol:Todo",
						"label": "owner",
						"offset": 0,
						"slot": "0",
						"type": "t_address"
					},
					{
						"astId": 7,
						"contract": "contracts/todo.sol:Todo",
						"label": "tasks",
						"offset": 0,
						"slot": "1",
						"type": "t_array(t_struct(Task)12_storage)dyn_storage"
					}
				],
				"types": {
					"t_address": {
						"encoding": "inplace",
						"label": "address",
						"numberOfBytes": "20"
					},
					"t_array(t_struct(Task)12_storage)dyn_storage": {
						"base": "t_struct(Task)12_storage",
						"encoding": "dynamic_array",
						"label": "struct Todo.Task[]",
						"numberOfBytes": "32"
					},
					"t_bool": {
						"encoding": "inplace",
						"label": "bool",
						"numberOfBytes": "1"
					},
					"t_string_storage": {
						"encoding": "bytes",
						"label": "string",
						"numberOfBytes": "32"
					},
					"t_struct(Task)12_storage": {
						"encoding": "inplace",
						"label": "struct Todo.Task",
						"members": [
							{
								"astId": 9,
								"contract": "contracts/todo.sol:Todo",
								"label": "content",
								"offset": 0,
								"slot": "0",
								"type": "t_string_storage"
							},
							{
								"astId": 11,
								"contract": "contracts/todo.sol:Todo",
								"label": "status",
								"offset": 0,
								"slot": "1",
								"type": "t_bool"
							}
						],
						"numberOfBytes": "64"
					}
				}
			},
			"userdoc": {
				"kind": "user",
				"methods": {},
				"version": 1
			}
		}
	}
}