{
	"contracts/todo.sol": {
		"Todo": {
			"abi": [
				{
					"inputs": [],
					"stateMutability": "nonpayable",
					"type": "constructor"
				},
				{
					"inputs": [
						{
							"internalType": "string",
							"name": "_content",
							"type": "string"
						}
					],
					"name": "add",
					"outputs": [],
					"stateMutability": "nonpayable",
					"type": "function"
				},
				{
					"inputs": [
						{
							"internalType": "uint256",
							"name": "_id",
							"type": "uint256"
						}
					],
					"name": "get",
					"outputs": [],
					"stateMutability": "nonpayable",
					"type": "function"
				},
				{
					"inputs": [],
					"name": "list",
					"outputs": [],
					"stateMutability": "nonpayable",
					"type": "function"
				},
				{
					"inputs": [],
					"name": "remove",
					"outputs": [],
					"stateMutability": "nonpayable",
					"type": "function"
				},
				{
					"inputs": [],
					"name": "update",
					"outputs": [],
					"stateMutability": "nonpayable",
					"type": "function"
				}
			],
			"devdoc": {
				"kind": "dev",
				"methods": {},
				"version": 1
			},
			"evm": {
				"assembly": "    /* \"contracts/todo.sol\":65:430  contract Todo{... */\n  mstore(0x40, 0x80)\n    /* \"contracts/todo.sol\":173:194  constructor(){... */\n  callvalue\n  dup1\n  iszero\n  tag_1\n  jumpi\n  0x00\n  dup1\n  revert\ntag_1:\n  pop\n    /* \"contracts/todo.sol\":65:430  contract Todo{... */\n  dataSize(sub_0)\n  dup1\n  dataOffset(sub_0)\n  0x00\n  codecopy\n  0x00\n  return\nstop\n\nsub_0: assembly {\n        /* \"contracts/todo.sol\":65:430  contract Todo{... */\n      mstore(0x40, 0x80)\n      callvalue\n      dup1\n      iszero\n      tag_1\n      jumpi\n      0x00\n      dup1\n      revert\n    tag_1:\n      pop\n      jumpi(tag_2, lt(calldatasize, 0x04))\n      shr(0xe0, calldataload(0x00))\n      dup1\n      0x0f560cd7\n      eq\n      tag_3\n      jumpi\n      dup1\n      0x9507d39a\n      eq\n      tag_4\n      jumpi\n      dup1\n      0xa2e62045\n      eq\n      tag_5\n      jumpi\n      dup1\n      0xa7f43779\n      eq\n      tag_6\n      jumpi\n      dup1\n      0xb0c8f9dc\n      eq\n      tag_7\n      jumpi\n    tag_2:\n      0x00\n      dup1\n      revert\n        /* \"contracts/todo.sol\":337:362  function list() public {} */\n    tag_3:\n      tag_8\n      tag_9\n      jump\t// in\n    tag_8:\n      stop\n        /* \"contracts/todo.sol\":299:331  function get(uint _id) public {} */\n    tag_4:\n      tag_10\n      0x04\n      dup1\n      calldatasize\n      sub\n      dup2\n      add\n      swap1\n      tag_11\n      swap2\n      swap1\n      tag_12\n      jump\t// in\n    tag_11:\n      tag_13\n      jump\t// in\n    tag_10:\n      stop\n        /* \"contracts/todo.sol\":368:395  function update() public {} */\n    tag_5:\n      tag_14\n      tag_15\n      jump\t// in\n    tag_14:\n      stop\n        /* \"contracts/todo.sol\":401:428  function remove() public {} */\n    tag_6:\n      tag_16\n      tag_17\n      jump\t// in\n    tag_16:\n      stop\n        /* \"contracts/todo.sol\":200:293  function add(string memory _content) public {... */\n    tag_7:\n      tag_18\n      0x04\n      dup1\n      calldatasize\n      sub\n      dup2\n      add\n      swap1\n      tag_19\n      swap2\n      swap1\n      tag_20\n      jump\t// in\n    tag_19:\n      tag_21\n      jump\t// in\n    tag_18:\n      stop\n        /* \"contracts/todo.sol\":337:362  function list() public {} */\n    tag_9:\n      jump\t// out\n        /* \"contracts/todo.sol\":299:331  function get(uint _id) public {} */\n    tag_13:\n      pop\n      jump\t// out\n        /* \"contracts/todo.sol\":368:395  function update() public {} */\n    tag_15:\n      jump\t// out\n        /* \"contracts/todo.sol\":401:428  function remove() public {} */\n    tag_17:\n      jump\t// out\n        /* \"contracts/todo.sol\":200:293  function add(string memory _content) public {... */\n    tag_21:\n        /* \"contracts/todo.sol\":254:259  tasks */\n      0x00\n        /* \"contracts/todo.sol\":265:285  Task(_content,false) */\n      mload(0x40)\n      dup1\n      0x40\n      add\n      0x40\n      mstore\n      dup1\n        /* \"contracts/todo.sol\":270:278  _content */\n      dup4\n        /* \"contracts/todo.sol\":265:285  Task(_content,false) */\n      dup2\n      mstore\n      0x20\n      add\n        /* \"contracts/todo.sol\":279:284  false */\n      0x00\n        /* \"contracts/todo.sol\":265:285  Task(_content,false) */\n      iszero\n      iszero\n      dup2\n      mstore\n      pop\n        /* \"contracts/todo.sol\":254:286  tasks.push(Task(_content,false)) */\n      swap1\n      dup1\n      0x01\n      dup2\n      sload\n      add\n      dup1\n      dup3\n      sstore\n      dup1\n      swap2\n      pop\n      pop\n      0x01\n      swap1\n      sub\n      swap1\n      0x00\n      mstore\n      keccak256(0x00, 0x20)\n      swap1\n      0x02\n      mul\n      add\n      0x00\n      swap1\n      swap2\n      swap1\n      swap2\n      swap1\n      swap2\n      pop\n      0x00\n      dup3\n      add\n      mload\n      dup2\n      0x00\n      add\n      swap1\n      dup2\n      tag_28\n      swap2\n      swap1\n      tag_29\n      jump\t// in\n    tag_28:\n      pop\n      0x20\n      dup3\n      add\n      mload\n      dup2\n      0x01\n      add\n      exp(0x0100, 0x00)\n      dup2\n      sload\n      dup2\n      0xff\n      mul\n      not\n      and\n      swap1\n      dup4\n      iszero\n      iszero\n      mul\n      or\n      swap1\n      sstore\n      pop\n      pop\n      pop\n        /* \"contracts/todo.sol\":200:293  function add(string memory _content) public {... */\n      pop\n      jump\t// out\n        /* \"#utility.yul\":7:82   */\n    tag_30:\n        /* \"#utility.yul\":40:46   */\n      0x00\n        /* \"#utility.yul\":73:75   */\n      0x40\n        /* \"#utility.yul\":67:76   */\n      mload\n        /* \"#utility.yul\":57:76   */\n      swap1\n      pop\n        /* \"#utility.yul\":7:82   */\n      swap1\n      jump\t// out\n        /* \"#utility.yul\":88:205   */\n    tag_31:\n        /* \"#utility.yul\":197:198   */\n      0x00\n        /* \"#utility.yul\":194:195   */\n      dup1\n        /* \"#utility.yul\":187:199   */\n      revert\n        /* \"#utility.yul\":211:328   */\n    tag_32:\n        /* \"#utility.yul\":320:321   */\n      0x00\n        /* \"#utility.yul\":317:318   */\n      dup1\n        /* \"#utility.yul\":310:322   */\n      revert\n        /* \"#utility.yul\":334:411   */\n    tag_33:\n        /* \"#utility.yul\":371:378   */\n      0x00\n        /* \"#utility.yul\":400:405   */\n      dup2\n        /* \"#utility.yul\":389:405   */\n      swap1\n      pop\n        /* \"#utility.yul\":334:411   */\n      swap2\n      swap1\n      pop\n      jump\t// out\n        /* \"#utility.yul\":417:539   */\n    tag_34:\n        /* \"#utility.yul\":490:514   */\n      tag_70\n        /* \"#utility.yul\":508:513   */\n      dup2\n        /* \"#utility.yul\":490:514   */\n      tag_33\n      jump\t// in\n    tag_70:\n        /* \"#utility.yul\":483:488   */\n      dup2\n        /* \"#utility.yul\":480:515   */\n      eq\n        /* \"#utility.yul\":470:533   */\n      tag_71\n      jumpi\n        /* \"#utility.yul\":529:530   */\n      0x00\n        /* \"#utility.yul\":526:527   */\n      dup1\n        /* \"#utility.yul\":519:531   */\n      revert\n        /* \"#utility.yul\":470:533   */\n    tag_71:\n        /* \"#utility.yul\":417:539   */\n      pop\n      jump\t// out\n        /* \"#utility.yul\":545:684   */\n    tag_35:\n        /* \"#utility.yul\":591:596   */\n      0x00\n        /* \"#utility.yul\":629:635   */\n      dup2\n        /* \"#utility.yul\":616:636   */\n      calldataload\n        /* \"#utility.yul\":607:636   */\n      swap1\n      pop\n        /* \"#utility.yul\":645:678   */\n      tag_73\n        /* \"#utility.yul\":672:677   */\n      dup2\n        /* \"#utility.yul\":645:678   */\n      tag_34\n      jump\t// in\n    tag_73:\n        /* \"#utility.yul\":545:684   */\n      swap3\n      swap2\n      pop\n      pop\n      jump\t// out\n        /* \"#utility.yul\":690:1019   */\n    tag_12:\n        /* \"#utility.yul\":749:755   */\n      0x00\n        /* \"#utility.yul\":798:800   */\n      0x20\n        /* \"#utility.yul\":786:795   */\n      dup3\n        /* \"#utility.yul\":777:784   */\n      dup5\n        /* \"#utility.yul\":773:796   */\n      sub\n        /* \"#utility.yul\":769:801   */\n      slt\n        /* \"#utility.yul\":766:885   */\n      iszero\n      tag_75\n      jumpi\n        /* \"#utility.yul\":804:883   */\n      tag_76\n      tag_31\n      jump\t// in\n    tag_76:\n        /* \"#utility.yul\":766:885   */\n    tag_75:\n        /* \"#utility.yul\":924:925   */\n      0x00\n        /* \"#utility.yul\":949:1002   */\n      tag_77\n        /* \"#utility.yul\":994:1001   */\n      dup5\n        /* \"#utility.yul\":985:991   */\n      dup3\n        /* \"#utility.yul\":974:983   */\n      dup6\n        /* \"#utility.yul\":970:992   */\n      add\n        /* \"#utility.yul\":949:1002   */\n      tag_35\n      jump\t// in\n    tag_77:\n        /* \"#utility.yul\":939:1002   */\n      swap2\n      pop\n        /* \"#utility.yul\":895:1012   */\n      pop\n        /* \"#utility.yul\":690:1019   */\n      swap3\n      swap2\n      pop\n      pop\n      jump\t// out\n        /* \"#utility.yul\":1025:1142   */\n    tag_36:\n        /* \"#utility.yul\":1134:1135   */\n      0x00\n        /* \"#utility.yul\":1131:1132   */\n      dup1\n        /* \"#utility.yul\":1124:1136   */\n      revert\n        /* \"#utility.yul\":1148:1265   */\n    tag_37:\n        /* \"#utility.yul\":1257:1258   */\n      0x00\n        /* \"#utility.yul\":1254:1255   */\n      dup1\n        /* \"#utility.yul\":1247:1259   */\n      revert\n        /* \"#utility.yul\":1271:1373   */\n    tag_38:\n        /* \"#utility.yul\":1312:1318   */\n      0x00\n        /* \"#utility.yul\":1363:1365   */\n      0x1f\n        /* \"#utility.yul\":1359:1366   */\n      not\n        /* \"#utility.yul\":1354:1356   */\n      0x1f\n        /* \"#utility.yul\":1347:1352   */\n      dup4\n        /* \"#utility.yul\":1343:1357   */\n      add\n        /* \"#utility.yul\":1339:1367   */\n      and\n        /* \"#utility.yul\":1329:1367   */\n      swap1\n      pop\n        /* \"#utility.yul\":1271:1373   */\n      swap2\n      swap1\n      pop\n      jump\t// out\n        /* \"#utility.yul\":1379:1559   */\n    tag_39:\n        /* \"#utility.yul\":1427:1504   */\n      0x4e487b7100000000000000000000000000000000000000000000000000000000\n        /* \"#utility.yul\":1424:1425   */\n      0x00\n        /* \"#utility.yul\":1417:1505   */\n      mstore\n        /* \"#utility.yul\":1524:1528   */\n      0x41\n        /* \"#utility.yul\":1521:1522   */\n      0x04\n        /* \"#utility.yul\":1514:1529   */\n      mstore\n        /* \"#utility.yul\":1548:1552   */\n      0x24\n        /* \"#utility.yul\":1545:1546   */\n      0x00\n        /* \"#utility.yul\":1538:1553   */\n      revert\n        /* \"#utility.yul\":1565:1846   */\n    tag_40:\n        /* \"#utility.yul\":1648:1675   */\n      tag_83\n        /* \"#utility.yul\":1670:1674   */\n      dup3\n        /* \"#utility.yul\":1648:1675   */\n      tag_38\n      jump\t// in\n    tag_83:\n        /* \"#utility.yul\":1640:1646   */\n      dup2\n        /* \"#utility.yul\":1636:1676   */\n      add\n        /* \"#utility.yul\":1778:1784   */\n      dup2\n        /* \"#utility.yul\":1766:1776   */\n      dup2\n        /* \"#utility.yul\":1763:1785   */\n      lt\n        /* \"#utility.yul\":1742:1760   */\n      0xffffffffffffffff\n        /* \"#utility.yul\":1730:1740   */\n      dup3\n        /* \"#utility.yul\":1727:1761   */\n      gt\n        /* \"#utility.yul\":1724:1786   */\n      or\n        /* \"#utility.yul\":1721:1809   */\n      iszero\n      tag_84\n      jumpi\n        /* \"#utility.yul\":1789:1807   */\n      tag_85\n      tag_39\n      jump\t// in\n    tag_85:\n        /* \"#utility.yul\":1721:1809   */\n    tag_84:\n        /* \"#utility.yul\":1829:1839   */\n      dup1\n        /* \"#utility.yul\":1825:1827   */\n      0x40\n        /* \"#utility.yul\":1818:1840   */\n      mstore\n        /* \"#utility.yul\":1608:1846   */\n      pop\n        /* \"#utility.yul\":1565:1846   */\n      pop\n      pop\n      jump\t// out\n        /* \"#utility.yul\":1852:1981   */\n    tag_41:\n        /* \"#utility.yul\":1886:1892   */\n      0x00\n        /* \"#utility.yul\":1913:1933   */\n      tag_87\n      tag_30\n      jump\t// in\n    tag_87:\n        /* \"#utility.yul\":1903:1933   */\n      swap1\n      pop\n        /* \"#utility.yul\":1942:1975   */\n      tag_88\n        /* \"#utility.yul\":1970:1974   */\n      dup3\n        /* \"#utility.yul\":1962:1968   */\n      dup3\n        /* \"#utility.yul\":1942:1975   */\n      tag_40\n      jump\t// in\n    tag_88:\n        /* \"#utility.yul\":1852:1981   */\n      swap2\n      swap1\n      pop\n      jump\t// out\n        /* \"#utility.yul\":1987:2295   */\n    tag_42:\n        /* \"#utility.yul\":2049:2053   */\n      0x00\n        /* \"#utility.yul\":2139:2157   */\n      0xffffffffffffffff\n        /* \"#utility.yul\":2131:2137   */\n      dup3\n        /* \"#utility.yul\":2128:2158   */\n      gt\n        /* \"#utility.yul\":2125:2181   */\n      iszero\n      tag_90\n      jumpi\n        /* \"#utility.yul\":2161:2179   */\n      tag_91\n      tag_39\n      jump\t// in\n    tag_91:\n        /* \"#utility.yul\":2125:2181   */\n    tag_90:\n        /* \"#utility.yul\":2199:2228   */\n      tag_92\n        /* \"#utility.yul\":2221:2227   */\n      dup3\n        /* \"#utility.yul\":2199:2228   */\n      tag_38\n      jump\t// in\n    tag_92:\n        /* \"#utility.yul\":2191:2228   */\n      swap1\n      pop\n        /* \"#utility.yul\":2283:2287   */\n      0x20\n        /* \"#utility.yul\":2277:2281   */\n      dup2\n        /* \"#utility.yul\":2273:2288   */\n      add\n        /* \"#utility.yul\":2265:2288   */\n      swap1\n      pop\n        /* \"#utility.yul\":1987:2295   */\n      swap2\n      swap1\n      pop\n      jump\t// out\n        /* \"#utility.yul\":2301:2449   */\n    tag_43:\n        /* \"#utility.yul\":2399:2405   */\n      dup3\n        /* \"#utility.yul\":2394:2397   */\n      dup2\n        /* \"#utility.yul\":2389:2392   */\n      dup4\n        /* \"#utility.yul\":2376:2406   */\n      calldatacopy\n        /* \"#utility.yul\":2440:2441   */\n      0x00\n        /* \"#utility.yul\":2431:2437   */\n      dup4\n        /* \"#utility.yul\":2426:2429   */\n      dup4\n        /* \"#utility.yul\":2422:2438   */\n      add\n        /* \"#utility.yul\":2415:2442   */\n      mstore\n        /* \"#utility.yul\":2301:2449   */\n      pop\n      pop\n      pop\n      jump\t// out\n        /* \"#utility.yul\":2455:2880   */\n    tag_44:\n        /* \"#utility.yul\":2533:2538   */\n      0x00\n        /* \"#utility.yul\":2558:2624   */\n      tag_95\n        /* \"#utility.yul\":2574:2623   */\n      tag_96\n        /* \"#utility.yul\":2616:2622   */\n      dup5\n        /* \"#utility.yul\":2574:2623   */\n      tag_42\n      jump\t// in\n    tag_96:\n        /* \"#utility.yul\":2558:2624   */\n      tag_41\n      jump\t// in\n    tag_95:\n        /* \"#utility.yul\":2549:2624   */\n      swap1\n      pop\n        /* \"#utility.yul\":2647:2653   */\n      dup3\n        /* \"#utility.yul\":2640:2645   */\n      dup2\n        /* \"#utility.yul\":2633:2654   */\n      mstore\n        /* \"#utility.yul\":2685:2689   */\n      0x20\n        /* \"#utility.yul\":2678:2683   */\n      dup2\n        /* \"#utility.yul\":2674:2690   */\n      add\n        /* \"#utility.yul\":2723:2726   */\n      dup5\n        /* \"#utility.yul\":2714:2720   */\n      dup5\n        /* \"#utility.yul\":2709:2712   */\n      dup5\n        /* \"#utility.yul\":2705:2721   */\n      add\n        /* \"#utility.yul\":2702:2727   */\n      gt\n        /* \"#utility.yul\":2699:2811   */\n      iszero\n      tag_97\n      jumpi\n        /* \"#utility.yul\":2730:2809   */\n      tag_98\n      tag_37\n      jump\t// in\n    tag_98:\n        /* \"#utility.yul\":2699:2811   */\n    tag_97:\n        /* \"#utility.yul\":2820:2874   */\n      tag_99\n        /* \"#utility.yul\":2867:2873   */\n      dup5\n        /* \"#utility.yul\":2862:2865   */\n      dup3\n        /* \"#utility.yul\":2857:2860   */\n      dup6\n        /* \"#utility.yul\":2820:2874   */\n      tag_43\n      jump\t// in\n    tag_99:\n        /* \"#utility.yul\":2539:2880   */\n      pop\n        /* \"#utility.yul\":2455:2880   */\n      swap4\n      swap3\n      pop\n      pop\n      pop\n      jump\t// out\n        /* \"#utility.yul\":2900:3240   */\n    tag_45:\n        /* \"#utility.yul\":2956:2961   */\n      0x00\n        /* \"#utility.yul\":3005:3008   */\n      dup3\n        /* \"#utility.yul\":2998:3002   */\n      0x1f\n        /* \"#utility.yul\":2990:2996   */\n      dup4\n        /* \"#utility.yul\":2986:3003   */\n      add\n        /* \"#utility.yul\":2982:3009   */\n      slt\n        /* \"#utility.yul\":2972:3094   */\n      tag_101\n      jumpi\n        /* \"#utility.yul\":3013:3092   */\n      tag_102\n      tag_36\n      jump\t// in\n    tag_102:\n        /* \"#utility.yul\":2972:3094   */\n    tag_101:\n        /* \"#utility.yul\":3130:3136   */\n      dup2\n        /* \"#utility.yul\":3117:3137   */\n      calldataload\n        /* \"#utility.yul\":3155:3234   */\n      tag_103\n        /* \"#utility.yul\":3230:3233   */\n      dup5\n        /* \"#utility.yul\":3222:3228   */\n      dup3\n        /* \"#utility.yul\":3215:3219   */\n      0x20\n        /* \"#utility.yul\":3207:3213   */\n      dup7\n        /* \"#utility.yul\":3203:3220   */\n      add\n        /* \"#utility.yul\":3155:3234   */\n      tag_44\n      jump\t// in\n    tag_103:\n        /* \"#utility.yul\":3146:3234   */\n      swap2\n      pop\n        /* \"#utility.yul\":2962:3240   */\n      pop\n        /* \"#utility.yul\":2900:3240   */\n      swap3\n      swap2\n      pop\n      pop\n      jump\t// out\n        /* \"#utility.yul\":3246:3755   */\n    tag_20:\n        /* \"#utility.yul\":3315:3321   */\n      0x00\n        /* \"#utility.yul\":3364:3366   */\n      0x20\n        /* \"#utility.yul\":3352:3361   */\n      dup3\n        /* \"#utility.yul\":3343:3350   */\n      dup5\n        /* \"#utility.yul\":3339:3362   */\n      sub\n        /* \"#utility.yul\":3335:3367   */\n      slt\n        /* \"#utility.yul\":3332:3451   */\n      iszero\n      tag_105\n      jumpi\n        /* \"#utility.yul\":3370:3449   */\n      tag_106\n      tag_31\n      jump\t// in\n    tag_106:\n        /* \"#utility.yul\":3332:3451   */\n    tag_105:\n        /* \"#utility.yul\":3518:3519   */\n      0x00\n        /* \"#utility.yul\":3507:3516   */\n      dup3\n        /* \"#utility.yul\":3503:3520   */\n      add\n        /* \"#utility.yul\":3490:3521   */\n      calldataload\n        /* \"#utility.yul\":3548:3566   */\n      0xffffffffffffffff\n        /* \"#utility.yul\":3540:3546   */\n      dup2\n        /* \"#utility.yul\":3537:3567   */\n      gt\n        /* \"#utility.yul\":3534:3651   */\n      iszero\n      tag_107\n      jumpi\n        /* \"#utility.yul\":3570:3649   */\n      tag_108\n      tag_32\n      jump\t// in\n    tag_108:\n        /* \"#utility.yul\":3534:3651   */\n    tag_107:\n        /* \"#utility.yul\":3675:3738   */\n      tag_109\n        /* \"#utility.yul\":3730:3737   */\n      dup5\n        /* \"#utility.yul\":3721:3727   */\n      dup3\n        /* \"#utility.yul\":3710:3719   */\n      dup6\n        /* \"#utility.yul\":3706:3728   */\n      add\n        /* \"#utility.yul\":3675:3738   */\n      tag_45\n      jump\t// in\n    tag_109:\n        /* \"#utility.yul\":3665:3738   */\n      swap2\n      pop\n        /* \"#utility.yul\":3461:3748   */\n      pop\n        /* \"#utility.yul\":3246:3755   */\n      swap3\n      swap2\n      pop\n      pop\n      jump\t// out\n        /* \"#utility.yul\":3761:3860   */\n    tag_46:\n        /* \"#utility.yul\":3813:3819   */\n      0x00\n        /* \"#utility.yul\":3847:3852   */\n      dup2\n        /* \"#utility.yul\":3841:3853   */\n      mload\n        /* \"#utility.yul\":3831:3853   */\n      swap1\n      pop\n        /* \"#utility.yul\":3761:3860   */\n      swap2\n      swap1\n      pop\n      jump\t// out\n        /* \"#utility.yul\":3866:4046   */\n    tag_47:\n        /* \"#utility.yul\":3914:3991   */\n      0x4e487b7100000000000000000000000000000000000000000000000000000000\n        /* \"#utility.yul\":3911:3912   */\n      0x00\n        /* \"#utility.yul\":3904:3992   */\n      mstore\n        /* \"#utility.yul\":4011:4015   */\n      0x22\n        /* \"#utility.yul\":4008:4009   */\n      0x04\n        /* \"#utility.yul\":4001:4016   */\n      mstore\n        /* \"#utility.yul\":4035:4039   */\n      0x24\n        /* \"#utility.yul\":4032:4033   */\n      0x00\n        /* \"#utility.yul\":4025:4040   */\n      revert\n        /* \"#utility.yul\":4052:4372   */\n    tag_48:\n        /* \"#utility.yul\":4096:4102   */\n      0x00\n        /* \"#utility.yul\":4133:4134   */\n      0x02\n        /* \"#utility.yul\":4127:4131   */\n      dup3\n        /* \"#utility.yul\":4123:4135   */\n      div\n        /* \"#utility.yul\":4113:4135   */\n      swap1\n      pop\n        /* \"#utility.yul\":4180:4181   */\n      0x01\n        /* \"#utility.yul\":4174:4178   */\n      dup3\n        /* \"#utility.yul\":4170:4182   */\n      and\n        /* \"#utility.yul\":4201:4219   */\n      dup1\n        /* \"#utility.yul\":4191:4272   */\n      tag_113\n      jumpi\n        /* \"#utility.yul\":4257:4261   */\n      0x7f\n        /* \"#utility.yul\":4249:4255   */\n      dup3\n        /* \"#utility.yul\":4245:4262   */\n      and\n        /* \"#utility.yul\":4235:4262   */\n      swap2\n      pop\n        /* \"#utility.yul\":4191:4272   */\n    tag_113:\n        /* \"#utility.yul\":4319:4321   */\n      0x20\n        /* \"#utility.yul\":4311:4317   */\n      dup3\n        /* \"#utility.yul\":4308:4322   */\n      lt\n        /* \"#utility.yul\":4288:4306   */\n      dup2\n        /* \"#utility.yul\":4285:4323   */\n      sub\n        /* \"#utility.yul\":4282:4366   */\n      tag_114\n      jumpi\n        /* \"#utility.yul\":4338:4356   */\n      tag_115\n      tag_47\n      jump\t// in\n    tag_115:\n        /* \"#utility.yul\":4282:4366   */\n    tag_114:\n        /* \"#utility.yul\":4103:4372   */\n      pop\n        /* \"#utility.yul\":4052:4372   */\n      swap2\n      swap1\n      pop\n      jump\t// out\n        /* \"#utility.yul\":4378:4519   */\n    tag_49:\n        /* \"#utility.yul\":4427:4431   */\n      0x00\n        /* \"#utility.yul\":4450:4453   */\n      dup2\n        /* \"#utility.yul\":4442:4453   */\n      swap1\n      pop\n        /* \"#utility.yul\":4473:4476   */\n      dup2\n        /* \"#utility.yul\":4470:4471   */\n      0x00\n        /* \"#utility.yul\":4463:4477   */\n      mstore\n        /* \"#utility.yul\":4507:4511   */\n      0x20\n        /* \"#utility.yul\":4504:4505   */\n      0x00\n        /* \"#utility.yul\":4494:4512   */\n      keccak256\n        /* \"#utility.yul\":4486:4512   */\n      swap1\n      pop\n        /* \"#utility.yul\":4378:4519   */\n      swap2\n      swap1\n      pop\n      jump\t// out\n        /* \"#utility.yul\":4525:4618   */\n    tag_50:\n        /* \"#utility.yul\":4562:4568   */\n      0x00\n        /* \"#utility.yul\":4609:4611   */\n      0x20\n        /* \"#utility.yul\":4604:4606   */\n      0x1f\n        /* \"#utility.yul\":4597:4602   */\n      dup4\n        /* \"#utility.yul\":4593:4607   */\n      add\n        /* \"#utility.yul\":4589:4612   */\n      div\n        /* \"#utility.yul\":4579:4612   */\n      swap1\n      pop\n        /* \"#utility.yul\":4525:4618   */\n      swap2\n      swap1\n      pop\n      jump\t// out\n        /* \"#utility.yul\":4624:4731   */\n    tag_51:\n        /* \"#utility.yul\":4668:4676   */\n      0x00\n        /* \"#utility.yul\":4718:4723   */\n      dup3\n        /* \"#utility.yul\":4712:4716   */\n      dup3\n        /* \"#utility.yul\":4708:4724   */\n      shl\n        /* \"#utility.yul\":4687:4724   */\n      swap1\n      pop\n        /* \"#utility.yul\":4624:4731   */\n      swap3\n      swap2\n      pop\n      pop\n      jump\t// out\n        /* \"#utility.yul\":4737:5130   */\n    tag_52:\n        /* \"#utility.yul\":4806:4812   */\n      0x00\n        /* \"#utility.yul\":4856:4857   */\n      0x08\n        /* \"#utility.yul\":4844:4854   */\n      dup4\n        /* \"#utility.yul\":4840:4858   */\n      mul\n        /* \"#utility.yul\":4879:4976   */\n      tag_120\n        /* \"#utility.yul\":4909:4975   */\n      0xffffffffffffffffffffffffffffffffffffffffffffffffffffffffffffffff\n        /* \"#utility.yul\":4898:4907   */\n      dup3\n        /* \"#utility.yul\":4879:4976   */\n      tag_51\n      jump\t// in\n    tag_120:\n        /* \"#utility.yul\":4997:5036   */\n      tag_121\n        /* \"#utility.yul\":5027:5035   */\n      dup7\n        /* \"#utility.yul\":5016:5025   */\n      dup4\n        /* \"#utility.yul\":4997:5036   */\n      tag_51\n      jump\t// in\n    tag_121:\n        /* \"#utility.yul\":4985:5036   */\n      swap6\n      pop\n        /* \"#utility.yul\":5069:5073   */\n      dup1\n        /* \"#utility.yul\":5065:5074   */\n      not\n        /* \"#utility.yul\":5058:5063   */\n      dup5\n        /* \"#utility.yul\":5054:5075   */\n      and\n        /* \"#utility.yul\":5045:5075   */\n      swap4\n      pop\n        /* \"#utility.yul\":5118:5122   */\n      dup1\n        /* \"#utility.yul\":5108:5116   */\n      dup7\n        /* \"#utility.yul\":5104:5123   */\n      and\n        /* \"#utility.yul\":5097:5102   */\n      dup5\n        /* \"#utility.yul\":5094:5124   */\n      or\n        /* \"#utility.yul\":5084:5124   */\n      swap3\n      pop\n        /* \"#utility.yul\":4813:5130   */\n      pop\n      pop\n        /* \"#utility.yul\":4737:5130   */\n      swap4\n      swap3\n      pop\n      pop\n      pop\n      jump\t// out\n        /* \"#utility.yul\":5136:5196   */\n    tag_53:\n        /* \"#utility.yul\":5164:5167   */\n      0x00\n        /* \"#utility.yul\":5185:5190   */\n      dup2\n        /* \"#utility.yul\":5178:5190   */\n      swap1\n      pop\n        /* \"#utility.yul\":5136:5196   */\n      swap2\n      swap1\n      pop\n      jump\t// out\n        /* \"#utility.yul\":5202:5344   */\n    tag_54:\n        /* \"#utility.yul\":5252:5261   */\n      0x00\n        /* \"#utility.yul\":5285:5338   */\n      tag_124\n        /* \"#utility.yul\":5303:5337   */\n      tag_125\n        /* \"#utility.yul\":5312:5336   */\n      tag_126\n        /* \"#utility.yul\":5330:5335   */\n      dup5\n        /* \"#utility.yul\":5312:5336   */\n      tag_33\n      jump\t// in\n    tag_126:\n        /* \"#utility.yul\":5303:5337   */\n      tag_53\n      jump\t// in\n    tag_125:\n        /* \"#utility.yul\":5285:5338   */\n      tag_33\n      jump\t// in\n    tag_124:\n        /* \"#utility.yul\":5272:5338   */\n      swap1\n      pop\n        /* \"#utility.yul\":5202:5344   */\n      swap2\n      swap1\n      pop\n      jump\t// out\n        /* \"#utility.yul\":5350:5425   */\n    tag_55:\n        /* \"#utility.yul\":5393:5396   */\n      0x00\n        /* \"#utility.yul\":5414:5419   */\n      dup2\n        /* \"#utility.yul\":5407:5419   */\n      swap1\n      pop\n        /* \"#utility.yul\":5350:5425   */\n      swap2\n      swap1\n      pop\n      jump\t// out\n        /* \"#utility.yul\":5431:5700   */\n    tag_56:\n        /* \"#utility.yul\":5541:5580   */\n      tag_129\n        /* \"#utility.yul\":5572:5579   */\n      dup4\n        /* \"#utility.yul\":5541:5580   */\n      tag_54\n      jump\t// in\n    tag_129:\n        /* \"#utility.yul\":5602:5693   */\n      tag_130\n        /* \"#utility.yul\":5651:5692   */\n      tag_131\n        /* \"#utility.yul\":5675:5691   */\n      dup3\n        /* \"#utility.yul\":5651:5692   */\n      tag_55\n      jump\t// in\n    tag_131:\n        /* \"#utility.yul\":5643:5649   */\n      dup5\n        /* \"#utility.yul\":5636:5640   */\n      dup5\n        /* \"#utility.yul\":5630:5641   */\n      sload\n        /* \"#utility.yul\":5602:5693   */\n      tag_52\n      jump\t// in\n    tag_130:\n        /* \"#utility.yul\":5596:5600   */\n      dup3\n        /* \"#utility.yul\":5589:5694   */\n      sstore\n        /* \"#utility.yul\":5507:5700   */\n      pop\n        /* \"#utility.yul\":5431:5700   */\n      pop\n      pop\n      pop\n      jump\t// out\n        /* \"#utility.yul\":5706:5779   */\n    tag_57:\n        /* \"#utility.yul\":5751:5754   */\n      0x00\n        /* \"#utility.yul\":5706:5779   */\n      swap1\n      jump\t// out\n        /* \"#utility.yul\":5785:5974   */\n    tag_58:\n        /* \"#utility.yul\":5862:5894   */\n      tag_134\n      tag_57\n      jump\t// in\n    tag_134:\n        /* \"#utility.yul\":5903:5968   */\n      tag_135\n        /* \"#utility.yul\":5961:5967   */\n      dup2\n        /* \"#utility.yul\":5953:5959   */\n      dup5\n        /* \"#utility.yul\":5947:5951   */\n      dup5\n        /* \"#utility.yul\":5903:5968   */\n      tag_56\n      jump\t// in\n    tag_135:\n        /* \"#utility.yul\":5838:5974   */\n      pop\n        /* \"#utility.yul\":5785:5974   */\n      pop\n      pop\n      jump\t// out\n        /* \"#utility.yul\":5980:6166   */\n    tag_59:\n        /* \"#utility.yul\":6040:6160   */\n    tag_137:\n        /* \"#utility.yul\":6057:6060   */\n      dup2\n        /* \"#utility.yul\":6050:6055   */\n      dup2\n        /* \"#utility.yul\":6047:6061   */\n      lt\n        /* \"#utility.yul\":6040:6160   */\n      iszero\n      tag_139\n      jumpi\n        /* \"#utility.yul\":6111:6150   */\n      tag_140\n        /* \"#utility.yul\":6148:6149   */\n      0x00\n        /* \"#utility.yul\":6141:6146   */\n      dup3\n        /* \"#utility.yul\":6111:6150   */\n      tag_58\n      jump\t// in\n    tag_140:\n        /* \"#utility.yul\":6084:6085   */\n      0x01\n        /* \"#utility.yul\":6077:6082   */\n      dup2\n        /* \"#utility.yul\":6073:6086   */\n      add\n        /* \"#utility.yul\":6064:6086   */\n      swap1\n      pop\n        /* \"#utility.yul\":6040:6160   */\n      jump(tag_137)\n    tag_139:\n        /* \"#utility.yul\":5980:6166   */\n      pop\n      pop\n      jump\t// out\n        /* \"#utility.yul\":6172:6715   */\n    tag_60:\n        /* \"#utility.yul\":6273:6275   */\n      0x1f\n        /* \"#utility.yul\":6268:6271   */\n      dup3\n        /* \"#utility.yul\":6265:6276   */\n      gt\n        /* \"#utility.yul\":6262:6708   */\n      iszero\n      tag_142\n      jumpi\n        /* \"#utility.yul\":6307:6345   */\n      tag_143\n        /* \"#utility.yul\":6339:6344   */\n      dup2\n        /* \"#utility.yul\":6307:6345   */\n      tag_49\n      jump\t// in\n    tag_143:\n        /* \"#utility.yul\":6391:6420   */\n      tag_144\n        /* \"#utility.yul\":6409:6419   */\n      dup5\n        /* \"#utility.yul\":6391:6420   */\n      tag_50\n      jump\t// in\n    tag_144:\n        /* \"#utility.yul\":6381:6389   */\n      dup2\n        /* \"#utility.yul\":6377:6421   */\n      add\n        /* \"#utility.yul\":6574:6576   */\n      0x20\n        /* \"#utility.yul\":6562:6572   */\n      dup6\n        /* \"#utility.yul\":6559:6577   */\n      lt\n        /* \"#utility.yul\":6556:6605   */\n      iszero\n      tag_145\n      jumpi\n        /* \"#utility.yul\":6595:6603   */\n      dup2\n        /* \"#utility.yul\":6580:6603   */\n      swap1\n      pop\n        /* \"#utility.yul\":6556:6605   */\n    tag_145:\n        /* \"#utility.yul\":6618:6698   */\n      tag_146\n        /* \"#utility.yul\":6674:6696   */\n      tag_147\n        /* \"#utility.yul\":6692:6695   */\n      dup6\n        /* \"#utility.yul\":6674:6696   */\n      tag_50\n      jump\t// in\n    tag_147:\n        /* \"#utility.yul\":6664:6672   */\n      dup4\n        /* \"#utility.yul\":6660:6697   */\n      add\n        /* \"#utility.yul\":6647:6658   */\n      dup3\n        /* \"#utility.yul\":6618:6698   */\n      tag_59\n      jump\t// in\n    tag_146:\n        /* \"#utility.yul\":6277:6708   */\n      pop\n      pop\n        /* \"#utility.yul\":6262:6708   */\n    tag_142:\n        /* \"#utility.yul\":6172:6715   */\n      pop\n      pop\n      pop\n      jump\t// out\n        /* \"#utility.yul\":6721:6838   */\n    tag_61:\n        /* \"#utility.yul\":6775:6783   */\n      0x00\n        /* \"#utility.yul\":6825:6830   */\n      dup3\n        /* \"#utility.yul\":6819:6823   */\n      dup3\n        /* \"#utility.yul\":6815:6831   */\n      shr\n        /* \"#utility.yul\":6794:6831   */\n      swap1\n      pop\n        /* \"#utility.yul\":6721:6838   */\n      swap3\n      swap2\n      pop\n      pop\n      jump\t// out\n        /* \"#utility.yul\":6844:7013   */\n    tag_62:\n        /* \"#utility.yul\":6888:6894   */\n      0x00\n        /* \"#utility.yul\":6921:6972   */\n      tag_150\n        /* \"#utility.yul\":6969:6970   */\n      0x00\n        /* \"#utility.yul\":6965:6971   */\n      not\n        /* \"#utility.yul\":6957:6962   */\n      dup5\n        /* \"#utility.yul\":6954:6955   */\n      0x08\n        /* \"#utility.yul\":6950:6963   */\n      mul\n        /* \"#utility.yul\":6921:6972   */\n      tag_61\n      jump\t// in\n    tag_150:\n        /* \"#utility.yul\":6917:6973   */\n      not\n        /* \"#utility.yul\":7002:7006   */\n      dup1\n        /* \"#utility.yul\":6996:7000   */\n      dup4\n        /* \"#utility.yul\":6992:7007   */\n      and\n        /* \"#utility.yul\":6982:7007   */\n      swap2\n      pop\n        /* \"#utility.yul\":6895:7013   */\n      pop\n        /* \"#utility.yul\":6844:7013   */\n      swap3\n      swap2\n      pop\n      pop\n      jump\t// out\n        /* \"#utility.yul\":7018:7313   */\n    tag_63:\n        /* \"#utility.yul\":7094:7098   */\n      0x00\n        /* \"#utility.yul\":7240:7269   */\n      tag_152\n        /* \"#utility.yul\":7265:7268   */\n      dup4\n        /* \"#utility.yul\":7259:7263   */\n      dup4\n        /* \"#utility.yul\":7240:7269   */\n      tag_62\n      jump\t// in\n    tag_152:\n        /* \"#utility.yul\":7232:7269   */\n      swap2\n      pop\n        /* \"#utility.yul\":7302:7305   */\n      dup3\n        /* \"#utility.yul\":7299:7300   */\n      0x02\n        /* \"#utility.yul\":7295:7306   */\n      mul\n        /* \"#utility.yul\":7289:7293   */\n      dup3\n        /* \"#utility.yul\":7286:7307   */\n      or\n        /* \"#utility.yul\":7278:7307   */\n      swap1\n      pop\n        /* \"#utility.yul\":7018:7313   */\n      swap3\n      swap2\n      pop\n      pop\n      jump\t// out\n        /* \"#utility.yul\":7318:8713   */\n    tag_29:\n        /* \"#utility.yul\":7435:7472   */\n      tag_154\n        /* \"#utility.yul\":7468:7471   */\n      dup3\n        /* \"#utility.yul\":7435:7472   */\n      tag_46\n      jump\t// in\n    tag_154:\n        /* \"#utility.yul\":7537:7555   */\n      0xffffffffffffffff\n        /* \"#utility.yul\":7529:7535   */\n      dup2\n        /* \"#utility.yul\":7526:7556   */\n      gt\n        /* \"#utility.yul\":7523:7579   */\n      iszero\n      tag_155\n      jumpi\n        /* \"#utility.yul\":7559:7577   */\n      tag_156\n      tag_39\n      jump\t// in\n    tag_156:\n        /* \"#utility.yul\":7523:7579   */\n    tag_155:\n        /* \"#utility.yul\":7603:7641   */\n      tag_157\n        /* \"#utility.yul\":7635:7639   */\n      dup3\n        /* \"#utility.yul\":7629:7640   */\n      sload\n        /* \"#utility.yul\":7603:7641   */\n      tag_48\n      jump\t// in\n    tag_157:\n        /* \"#utility.yul\":7688:7755   */\n      tag_158\n        /* \"#utility.yul\":7748:7754   */\n      dup3\n        /* \"#utility.yul\":7740:7746   */\n      dup3\n        /* \"#utility.yul\":7734:7738   */\n      dup6\n        /* \"#utility.yul\":7688:7755   */\n      tag_60\n      jump\t// in\n    tag_158:\n        /* \"#utility.yul\":7782:7783   */\n      0x00\n        /* \"#utility.yul\":7806:7810   */\n      0x20\n        /* \"#utility.yul\":7793:7810   */\n      swap1\n      pop\n        /* \"#utility.yul\":7838:7840   */\n      0x1f\n        /* \"#utility.yul\":7830:7836   */\n      dup4\n        /* \"#utility.yul\":7827:7841   */\n      gt\n        /* \"#utility.yul\":7855:7856   */\n      0x01\n        /* \"#utility.yul\":7850:8468   */\n      dup2\n      eq\n      tag_160\n      jumpi\n        /* \"#utility.yul\":8512:8513   */\n      0x00\n        /* \"#utility.yul\":8529:8535   */\n      dup5\n        /* \"#utility.yul\":8526:8603   */\n      iszero\n      tag_161\n      jumpi\n        /* \"#utility.yul\":8578:8587   */\n      dup3\n        /* \"#utility.yul\":8573:8576   */\n      dup8\n        /* \"#utility.yul\":8569:8588   */\n      add\n        /* \"#utility.yul\":8563:8589   */\n      mload\n        /* \"#utility.yul\":8554:8589   */\n      swap1\n      pop\n        /* \"#utility.yul\":8526:8603   */\n    tag_161:\n        /* \"#utility.yul\":8629:8696   */\n      tag_162\n        /* \"#utility.yul\":8689:8695   */\n      dup6\n        /* \"#utility.yul\":8682:8687   */\n      dup3\n        /* \"#utility.yul\":8629:8696   */\n      tag_63\n      jump\t// in\n    tag_162:\n        /* \"#utility.yul\":8623:8627   */\n      dup7\n        /* \"#utility.yul\":8616:8697   */\n      sstore\n        /* \"#utility.yul\":8485:8707   */\n      pop\n        /* \"#utility.yul\":7820:8707   */\n      jump(tag_159)\n        /* \"#utility.yul\":7850:8468   */\n    tag_160:\n        /* \"#utility.yul\":7902:7906   */\n      0x1f\n        /* \"#utility.yul\":7898:7907   */\n      not\n        /* \"#utility.yul\":7890:7896   */\n      dup5\n        /* \"#utility.yul\":7886:7908   */\n      and\n        /* \"#utility.yul\":7936:7973   */\n      tag_163\n        /* \"#utility.yul\":7968:7972   */\n      dup7\n        /* \"#utility.yul\":7936:7973   */\n      tag_49\n      jump\t// in\n    tag_163:\n        /* \"#utility.yul\":7995:7996   */\n      0x00\n        /* \"#utility.yul\":8009:8217   */\n    tag_164:\n        /* \"#utility.yul\":8023:8030   */\n      dup3\n        /* \"#utility.yul\":8020:8021   */\n      dup2\n        /* \"#utility.yul\":8017:8031   */\n      lt\n        /* \"#utility.yul\":8009:8217   */\n      iszero\n      tag_166\n      jumpi\n        /* \"#utility.yul\":8102:8111   */\n      dup5\n        /* \"#utility.yul\":8097:8100   */\n      dup10\n        /* \"#utility.yul\":8093:8112   */\n      add\n        /* \"#utility.yul\":8087:8113   */\n      mload\n        /* \"#utility.yul\":8079:8085   */\n      dup3\n        /* \"#utility.yul\":8072:8114   */\n      sstore\n        /* \"#utility.yul\":8153:8154   */\n      0x01\n        /* \"#utility.yul\":8145:8151   */\n      dup3\n        /* \"#utility.yul\":8141:8155   */\n      add\n        /* \"#utility.yul\":8131:8155   */\n      swap2\n      pop\n        /* \"#utility.yul\":8200:8202   */\n      0x20\n        /* \"#utility.yul\":8189:8198   */\n      dup6\n        /* \"#utility.yul\":8185:8203   */\n      add\n        /* \"#utility.yul\":8172:8203   */\n      swap5\n      pop\n        /* \"#utility.yul\":8046:8050   */\n      0x20\n        /* \"#utility.yul\":8043:8044   */\n      dup2\n        /* \"#utility.yul\":8039:8051   */\n      add\n        /* \"#utility.yul\":8034:8051   */\n      swap1\n      pop\n        /* \"#utility.yul\":8009:8217   */\n      jump(tag_164)\n    tag_166:\n        /* \"#utility.yul\":8245:8251   */\n      dup7\n        /* \"#utility.yul\":8236:8243   */\n      dup4\n        /* \"#utility.yul\":8233:8252   */\n      lt\n        /* \"#utility.yul\":8230:8409   */\n      iszero\n      tag_167\n      jumpi\n        /* \"#utility.yul\":8303:8312   */\n      dup5\n        /* \"#utility.yul\":8298:8301   */\n      dup10\n        /* \"#utility.yul\":8294:8313   */\n      add\n        /* \"#utility.yul\":8288:8314   */\n      mload\n        /* \"#utility.yul\":8346:8394   */\n      tag_168\n        /* \"#utility.yul\":8388:8392   */\n      0x1f\n        /* \"#utility.yul\":8380:8386   */\n      dup10\n        /* \"#utility.yul\":8376:8393   */\n      and\n        /* \"#utility.yul\":8365:8374   */\n      dup3\n        /* \"#utility.yul\":8346:8394   */\n      tag_62\n      jump\t// in\n    tag_168:\n        /* \"#utility.yul\":8338:8344   */\n      dup4\n        /* \"#utility.yul\":8331:8395   */\n      sstore\n        /* \"#utility.yul\":8253:8409   */\n      pop\n        /* \"#utility.yul\":8230:8409   */\n    tag_167:\n        /* \"#utility.yul\":8455:8456   */\n      0x01\n        /* \"#utility.yul\":8451:8452   */\n      0x02\n        /* \"#utility.yul\":8443:8449   */\n      dup9\n        /* \"#utility.yul\":8439:8453   */\n      mul\n        /* \"#utility.yul\":8435:8457   */\n      add\n        /* \"#utility.yul\":8429:8433   */\n      dup9\n        /* \"#utility.yul\":8422:8458   */\n      sstore\n        /* \"#utility.yul\":7857:8468   */\n      pop\n      pop\n      pop\n        /* \"#utility.yul\":7820:8707   */\n    tag_159:\n      pop\n        /* \"#utility.yul\":7410:8713   */\n      pop\n      pop\n      pop\n        /* \"#utility.yul\":7318:8713   */\n      pop\n      pop\n      jump\t// out\n\n    auxdata: 0xa264697066735822122051f5a94c04a1952620bf1cceb4a7c3aaf601acbeff2c5f24adaaa3ace41b1a8e64736f6c634300081a0033\n}\n",
				"bytecode": {
					"linkReferences": {},
					"object": "6080604052348015600e575f80fd5b506106298061001c5f395ff3fe608060405234801561000f575f80fd5b5060043610610055575f3560e01c80630f560cd7146100595780639507d39a14610063578063a2e620451461007f578063a7f4377914610089578063b0c8f9dc14610093575b5f80fd5b6100616100af565b005b61007d60048036038101906100789190610172565b6100b1565b005b6100876100b4565b005b6100916100b6565b005b6100ad60048036038101906100a891906102d9565b6100b8565b005b565b50565b565b565b5f60405180604001604052808381526020015f1515815250908060018154018082558091505060019003905f5260205f2090600202015f909190919091505f820151815f0190816101099190610524565b506020820151816001015f6101000a81548160ff021916908315150217905550505050565b5f604051905090565b5f80fd5b5f80fd5b5f819050919050565b6101518161013f565b811461015b575f80fd5b50565b5f8135905061016c81610148565b92915050565b5f6020828403121561018757610186610137565b5b5f6101948482850161015e565b91505092915050565b5f80fd5b5f80fd5b5f601f19601f8301169050919050565b7f4e487b71000000000000000000000000000000000000000000000000000000005f52604160045260245ffd5b6101eb826101a5565b810181811067ffffffffffffffff8211171561020a576102096101b5565b5b80604052505050565b5f61021c61012e565b905061022882826101e2565b919050565b5f67ffffffffffffffff821115610247576102466101b5565b5b610250826101a5565b9050602081019050919050565b828183375f83830152505050565b5f61027d6102788461022d565b610213565b905082815260208101848484011115610299576102986101a1565b5b6102a484828561025d565b509392505050565b5f82601f8301126102c0576102bf61019d565b5b81356102d084826020860161026b565b91505092915050565b5f602082840312156102ee576102ed610137565b5b5f82013567ffffffffffffffff81111561030b5761030a61013b565b5b610317848285016102ac565b91505092915050565b5f81519050919050565b7f4e487b71000000000000000000000000000000000000000000000000000000005f52602260045260245ffd5b5f600282049050600182168061036e57607f821691505b6020821081036103815761038061032a565b5b50919050565b5f819050815f5260205f209050919050565b5f6020601f8301049050919050565b5f82821b905092915050565b5f600883026103e37fffffffffffffffffffffffffffffffffffffffffffffffffffffffffffffffff826103a8565b6103ed86836103a8565b95508019841693508086168417925050509392505050565b5f819050919050565b5f61042861042361041e8461013f565b610405565b61013f565b9050919050565b5f819050919050565b6104418361040e565b61045561044d8261042f565b8484546103b4565b825550505050565b5f90565b61046961045d565b610474818484610438565b505050565b5b818110156104975761048c5f82610461565b60018101905061047a565b5050565b601f8211156104dc576104ad81610387565b6104b684610399565b810160208510156104c5578190505b6104d96104d185610399565b830182610479565b50505b505050565b5f82821c905092915050565b5f6104fc5f19846008026104e1565b1980831691505092915050565b5f61051483836104ed565b9150826002028217905092915050565b61052d82610320565b67ffffffffffffffff811115610546576105456101b5565b5b6105508254610357565b61055b82828561049b565b5f60209050601f83116001811461058c575f841561057a578287015190505b6105848582610509565b8655506105eb565b601f19841661059a86610387565b5f5b828110156105c15784890151825560018201915060208501945060208101905061059c565b868310156105de57848901516105da601f8916826104ed565b8355505b6001600288020188555050505b50505050505056fea264697066735822122051f5a94c04a1952620bf1cceb4a7c3aaf601acbeff2c5f24adaaa3ace41b1a8e64736f6c634300081a0033",
					"opcodes": "PUSH1 0x80 PUSH1 0x40 MSTORE CALLVALUE DUP1 ISZERO PUSH1 0xE JUMPI PUSH0 DUP1 REVERT JUMPDEST POP PUSH2 0x629 DUP1 PUSH2 0x1C PUSH0 CODECOPY PUSH0 RETURN INVALID PUSH1 0x80 PUSH1 0x40 MSTORE CALLVALUE DUP1 ISZERO PUSH2 0xF JUMPI PUSH0 DUP1 REVERT JUMPDEST POP PUSH1 0x4 CALLDATASIZE LT PUSH2 0x55 JUMPI PUSH0 CALLDATALOAD PUSH1 0xE0 SHR DUP1 PUSH4 0xF560CD7 EQ PUSH2 0x59 JUMPI DUP1 PUSH4 0x9507D39A EQ PUSH2 0x63 JUMPI DUP1 PUSH4 0xA2E62045 EQ PUSH2 0x7F JUMPI DUP1 PUSH4 0xA7F43779 EQ PUSH2 0x89 JUMPI DUP1 PUSH4 0xB0C8F9DC EQ PUSH2 0x93 JUMPI JUMPDEST PUSH0 DUP1 REVERT JUMPDEST PUSH2 0x61 PUSH2 0xAF JUMP JUMPDEST STOP JUMPDEST PUSH2 0x7D PUSH1 0x4 DUP1 CALLDATASIZE SUB DUP2 ADD SWAP1 PUSH2 0x78 SWAP2 SWAP1 PUSH2 0x172 JUMP JUMPDEST PUSH2 0xB1 JUMP JUMPDEST STOP JUMPDEST PUSH2 0x87 PUSH2 0xB4 JUMP JUMPDEST STOP JUMPDEST PUSH2 0x91 PUSH2 0xB6 JUMP JUMPDEST STOP JUMPDEST PUSH2 0xAD PUSH1 0x4 DUP1 CALLDATASIZE SUB DUP2 ADD SWAP1 PUSH2 0xA8 SWAP2 SWAP1 PUSH2 0x2D9 JUMP JUMPDEST PUSH2 0xB8 JUMP JUMPDEST STOP JUMPDEST JUMP JUMPDEST POP JUMP JUMPDEST JUMP JUMPDEST JUMP JUMPDEST PUSH0 PUSH1 0x40 MLOAD DUP1 PUSH1 0x40 ADD PUSH1 0x40 MSTORE DUP1 DUP4 DUP2 MSTORE PUSH1 0x20 ADD PUSH0 ISZERO ISZERO DUP2 MSTORE POP SWAP1 DUP1 PUSH1 0x1 DUP2 SLOAD ADD DUP1 DUP3 SSTORE DUP1 SWAP2 POP POP PUSH1 0x1 SWAP1 SUB SWAP1 PUSH0 MSTORE PUSH1 0x20 PUSH0 KECCAK256 SWAP1 PUSH1 0x2 MUL ADD PUSH0 SWAP1 SWAP2 SWAP1 SWAP2 SWAP1 SWAP2 POP PUSH0 DUP3 ADD MLOAD DUP2 PUSH0 ADD SWAP1 DUP2 PUSH2 0x109 SWAP2 SWAP1 PUSH2 0x524 JUMP JUMPDEST POP PUSH1 0x20 DUP3 ADD MLOAD DUP2 PUSH1 0x1 ADD PUSH0 PUSH2 0x100 EXP DUP2 SLOAD DUP2 PUSH1 0xFF MUL NOT AND SWAP1 DUP4 ISZERO ISZERO MUL OR SWAP1 SSTORE POP POP POP POP JUMP JUMPDEST PUSH0 PUSH1 0x40 MLOAD SWAP1 POP SWAP1 JUMP JUMPDEST PUSH0 DUP1 REVERT JUMPDEST PUSH0 DUP1 REVERT JUMPDEST PUSH0 DUP2 SWAP1 POP SWAP2 SWAP1 POP JUMP JUMPDEST PUSH2 0x151 DUP2 PUSH2 0x13F JUMP JUMPDEST DUP2 EQ PUSH2 0x15B JUMPI PUSH0 DUP1 REVERT JUMPDEST POP JUMP JUMPDEST PUSH0 DUP2 CALLDATALOAD SWAP1 POP PUSH2 0x16C DUP2 PUSH2 0x148 JUMP JUMPDEST SWAP3 SWAP2 POP POP JUMP JUMPDEST PUSH0 PUSH1 0x20 DUP3 DUP5 SUB SLT ISZERO PUSH2 0x187 JUMPI PUSH2 0x186 PUSH2 0x137 JUMP JUMPDEST JUMPDEST PUSH0 PUSH2 0x194 DUP5 DUP3 DUP6 ADD PUSH2 0x15E JUMP JUMPDEST SWAP2 POP POP SWAP3 SWAP2 POP POP JUMP JUMPDEST PUSH0 DUP1 REVERT JUMPDEST PUSH0 DUP1 REVERT JUMPDEST PUSH0 PUSH1 0x1F NOT PUSH1 0x1F DUP4 ADD AND SWAP1 POP SWAP2 SWAP1 POP JUMP JUMPDEST PUSH32 0x4E487B7100000000000000000000000000000000000000000000000000000000 PUSH0 MSTORE PUSH1 0x41 PUSH1 0x4 MSTORE PUSH1 0x24 PUSH0 REVERT JUMPDEST PUSH2 0x1EB DUP3 PUSH2 0x1A5 JUMP JUMPDEST DUP2 ADD DUP2 DUP2 LT PUSH8 0xFFFFFFFFFFFFFFFF DUP3 GT OR ISZERO PUSH2 0x20A JUMPI PUSH2 0x209 PUSH2 0x1B5 JUMP JUMPDEST JUMPDEST DUP1 PUSH1 0x40 MSTORE POP POP POP JUMP JUMPDEST PUSH0 PUSH2 0x21C PUSH2 0x12E JUMP JUMPDEST SWAP1 POP PUSH2 0x228 DUP3 DUP3 PUSH2 0x1E2 JUMP JUMPDEST SWAP2 SWAP1 POP JUMP JUMPDEST PUSH0 PUSH8 0xFFFFFFFFFFFFFFFF DUP3 GT ISZERO PUSH2 0x247 JUMPI PUSH2 0x246 PUSH2 0x1B5 JUMP JUMPDEST JUMPDEST PUSH2 0x250 DUP3 PUSH2 0x1A5 JUMP JUMPDEST SWAP1 POP PUSH1 0x20 DUP2 ADD SWAP1 POP SWAP2 SWAP1 POP JUMP JUMPDEST DUP3 DUP2 DUP4 CALLDATACOPY PUSH0 DUP4 DUP4 ADD MSTORE POP POP POP JUMP JUMPDEST PUSH0 PUSH2 0x27D PUSH2 0x278 DUP5 PUSH2 0x22D JUMP JUMPDEST PUSH2 0x213 JUMP JUMPDEST SWAP1 POP DUP3 DUP2 MSTORE PUSH1 0x20 DUP2 ADD DUP5 DUP5 DUP5 ADD GT ISZERO PUSH2 0x299 JUMPI PUSH2 0x298 PUSH2 0x1A1 JUMP JUMPDEST JUMPDEST PUSH2 0x2A4 DUP5 DUP3 DUP6 PUSH2 0x25D JUMP JUMPDEST POP SWAP4 SWAP3 POP POP POP JUMP JUMPDEST PUSH0 DUP3 PUSH1 0x1F DUP4 ADD SLT PUSH2 0x2C0 JUMPI PUSH2 0x2BF PUSH2 0x19D JUMP JUMPDEST JUMPDEST DUP2 CALLDATALOAD PUSH2 0x2D0 DUP5 DUP3 PUSH1 0x20 DUP7 ADD PUSH2 0x26B JUMP JUMPDEST SWAP2 POP POP SWAP3 SWAP2 POP POP JUMP JUMPDEST PUSH0 PUSH1 0x20 DUP3 DUP5 SUB SLT ISZERO PUSH2 0x2EE JUMPI PUSH2 0x2ED PUSH2 0x137 JUMP JUMPDEST JUMPDEST PUSH0 DUP3 ADD CALLDATALOAD PUSH8 0xFFFFFFFFFFFFFFFF DUP2 GT ISZERO PUSH2 0x30B JUMPI PUSH2 0x30A PUSH2 0x13B JUMP JUMPDEST JUMPDEST PUSH2 0x317 DUP5 DUP3 DUP6 ADD PUSH2 0x2AC JUMP JUMPDEST SWAP2 POP POP SWAP3 SWAP2 POP POP JUMP JUMPDEST PUSH0 DUP2 MLOAD SWAP1 POP SWAP2 SWAP1 POP JUMP JUMPDEST PUSH32 0x4E487B7100000000000000000000000000000000000000000000000000000000 PUSH0 MSTORE PUSH1 0x22 PUSH1 0x4 MSTORE PUSH1 0x24 PUSH0 REVERT JUMPDEST PUSH0 PUSH1 0x2 DUP3 DIV SWAP1 POP PUSH1 0x1 DUP3 AND DUP1 PUSH2 0x36E JUMPI PUSH1 0x7F DUP3 AND SWAP2 POP JUMPDEST PUSH1 0x20 DUP3 LT DUP2 SUB PUSH2 0x381 JUMPI PUSH2 0x380 PUSH2 0x32A JUMP JUMPDEST JUMPDEST POP SWAP2 SWAP1 POP JUMP JUMPDEST PUSH0 DUP2 SWAP1 POP DUP2 PUSH0 MSTORE PUSH1 0x20 PUSH0 KECCAK256 SWAP1 POP SWAP2 SWAP1 POP JUMP JUMPDEST PUSH0 PUSH1 0x20 PUSH1 0x1F DUP4 ADD DIV SWAP1 POP SWAP2 SWAP1 POP JUMP JUMPDEST PUSH0 DUP3 DUP3 SHL SWAP1 POP SWAP3 SWAP2 POP POP JUMP JUMPDEST PUSH0 PUSH1 0x8 DUP4 MUL PUSH2 0x3E3 PUSH32 0xFFFFFFFFFFFFFFFFFFFFFFFFFFFFFFFFFFFFFFFFFFFFFFFFFFFFFFFFFFFFFFFF DUP3 PUSH2 0x3A8 JUMP JUMPDEST PUSH2 0x3ED DUP7 DUP4 PUSH2 0x3A8 JUMP JUMPDEST SWAP6 POP DUP1 NOT DUP5 AND SWAP4 POP DUP1 DUP7 AND DUP5 OR SWAP3 POP POP POP SWAP4 SWAP3 POP POP POP JUMP JUMPDEST PUSH0 DUP2 SWAP1 POP SWAP2 SWAP1 POP JUMP JUMPDEST PUSH0 PUSH2 0x428 PUSH2 0x423 PUSH2 0x41E DUP5 PUSH2 0x13F JUMP JUMPDEST PUSH2 0x405 JUMP JUMPDEST PUSH2 0x13F JUMP JUMPDEST SWAP1 POP SWAP2 SWAP1 POP JUMP JUMPDEST PUSH0 DUP2 SWAP1 POP SWAP2 SWAP1 POP JUMP JUMPDEST PUSH2 0x441 DUP4 PUSH2 0x40E JUMP JUMPDEST PUSH2 0x455 PUSH2 0x44D DUP3 PUSH2 0x42F JUMP JUMPDEST DUP5 DUP5 SLOAD PUSH2 0x3B4 JUMP JUMPDEST DUP3 SSTORE POP POP POP POP JUMP JUMPDEST PUSH0 SWAP1 JUMP JUMPDEST PUSH2 0x469 PUSH2 0x45D JUMP JUMPDEST PUSH2 0x474 DUP2 DUP5 DUP5 PUSH2 0x438 JUMP JUMPDEST POP POP POP JUMP JUMPDEST JUMPDEST DUP2 DUP2 LT ISZERO PUSH2 0x497 JUMPI PUSH2 0x48C PUSH0 DUP3 PUSH2 0x461 JUMP JUMPDEST PUSH1 0x1 DUP2 ADD SWAP1 POP PUSH2 0x47A JUMP JUMPDEST POP POP JUMP JUMPDEST PUSH1 0x1F DUP3 GT ISZERO PUSH2 0x4DC JUMPI PUSH2 0x4AD DUP2 PUSH2 0x387 JUMP JUMPDEST PUSH2 0x4B6 DUP5 PUSH2 0x399 JUMP JUMPDEST DUP2 ADD PUSH1 0x20 DUP6 LT ISZERO PUSH2 0x4C5 JUMPI DUP2 SWAP1 POP JUMPDEST PUSH2 0x4D9 PUSH2 0x4D1 DUP6 PUSH2 0x399 JUMP JUMPDEST DUP4 ADD DUP3 PUSH2 0x479 JUMP JUMPDEST POP POP JUMPDEST POP POP POP JUMP JUMPDEST PUSH0 DUP3 DUP3 SHR SWAP1 POP SWAP3 SWAP2 POP POP JUMP JUMPDEST PUSH0 PUSH2 0x4FC PUSH0 NOT DUP5 PUSH1 0x8 MUL PUSH2 0x4E1 JUMP JUMPDEST NOT DUP1 DUP4 AND SWAP2 POP POP SWAP3 SWAP2 POP POP JUMP JUMPDEST PUSH0 PUSH2 0x514 DUP4 DUP4 PUSH2 0x4ED JUMP JUMPDEST SWAP2 POP DUP3 PUSH1 0x2 MUL DUP3 OR SWAP1 POP SWAP3 SWAP2 POP POP JUMP JUMPDEST PUSH2 0x52D DUP3 PUSH2 0x320 JUMP JUMPDEST PUSH8 0xFFFFFFFFFFFFFFFF DUP2 GT ISZERO PUSH2 0x546 JUMPI PUSH2 0x545 PUSH2 0x1B5 JUMP JUMPDEST JUMPDEST PUSH2 0x550 DUP3 SLOAD PUSH2 0x357 JUMP JUMPDEST PUSH2 0x55B DUP3 DUP3 DUP6 PUSH2 0x49B JUMP JUMPDEST PUSH0 PUSH1 0x20 SWAP1 POP PUSH1 0x1F DUP4 GT PUSH1 0x1 DUP2 EQ PUSH2 0x58C JUMPI PUSH0 DUP5 ISZERO PUSH2 0x57A JUMPI DUP3 DUP8 ADD MLOAD SWAP1 POP JUMPDEST PUSH2 0x584 DUP6 DUP3 PUSH2 0x509 JUMP JUMPDEST DUP7 SSTORE POP PUSH2 0x5EB JUMP JUMPDEST PUSH1 0x1F NOT DUP5 AND PUSH2 0x59A DUP7 PUSH2 0x387 JUMP JUMPDEST PUSH0 JUMPDEST DUP3 DUP2 LT ISZERO PUSH2 0x5C1 JUMPI DUP5 DUP10 ADD MLOAD DUP3 SSTORE PUSH1 0x1 DUP3 ADD SWAP2 POP PUSH1 0x20 DUP6 ADD SWAP5 POP PUSH1 0x20 DUP2 ADD SWAP1 POP PUSH2 0x59C JUMP JUMPDEST DUP7 DUP4 LT ISZERO PUSH2 0x5DE JUMPI DUP5 DUP10 ADD MLOAD PUSH2 0x5DA PUSH1 0x1F DUP10 AND DUP3 PUSH2 0x4ED JUMP JUMPDEST DUP4 SSTORE POP JUMPDEST PUSH1 0x1 PUSH1 0x2 DUP9 MUL ADD DUP9 SSTORE POP POP POP JUMPDEST POP POP POP POP POP POP JUMP INVALID LOG2 PUSH5 0x6970667358 0x22 SLT KECCAK256 MLOAD CREATE2 0xA9 0x4C DIV LOG1 SWAP6 0x26 KECCAK256 0xBF SHR 0xCE 0xB4 0xA7 0xC3 0xAA 0xF6 ADD 0xAC 0xBE SELFDESTRUCT 0x2C PUSH0 0x24 0xAD 0xAA LOG3 0xAC 0xE4 SHL BYTE DUP15 PUSH5 0x736F6C6343 STOP ADDMOD BYTE STOP CALLER "
				},
				"gasEstimates": {
					"creation": {
						"codeDepositCost": "315400",
						"executionCost": "353",
						"totalCost": "315753"
					},
					"external": {
						"add(string)": "infinite",
						"get(uint256)": "401",
						"list()": "121",
						"remove()": "187",
						"update()": "165"
					}
				},
				"methodIdentifiers": {
					"add(string)": "b0c8f9dc",
					"get(uint256)": "9507d39a",
					"list()": "0f560cd7",
					"remove()": "a7f43779",
					"update()": "a2e62045"
				}
			},
			"storageLayout": {
				"storage": [
					{
						"astId": 5,
						"contract": "contracts/todo.sol:Todo",
						"label": "tasks",
						"offset": 0,
						"slot": "0",
						"type": "t_array(t_struct(Task)10_storage)dyn_storage"
					}
				],
				"types": {
					"t_array(t_struct(Task)10_storage)dyn_storage": {
						"base": "t_struct(Task)10_storage",
						"encoding": "dynamic_array",
						"label": "struct Todo.Task[]",
						"numberOfBytes": "32"
					},
					"t_bool": {
						"encoding": "inplace",
						"label": "bool",
						"numberOfBytes": "1"
					},
					"t_string_storage": {
						"encoding": "bytes",
						"label": "string",
						"numberOfBytes": "32"
					},
					"t_struct(Task)10_storage": {
						"encoding": "inplace",
						"label": "struct Todo.Task",
						"members": [
							{
								"astId": 7,
								"contract": "contracts/todo.sol:Todo",
								"label": "content",
								"offset": 0,
								"slot": "0",
								"type": "t_string_storage"
							},
							{
								"astId": 9,
								"contract": "contracts/todo.sol:Todo",
								"label": "status",
								"offset": 0,
								"slot": "1",
								"type": "t_bool"
							}
						],
						"numberOfBytes": "64"
					}
				}
			},
			"userdoc": {
				"kind": "user",
				"methods": {},
				"version": 1
			}
		}
	}
}