{
	"data": {
		"bytecode": {
			"linkReferences": {},
			"object": "6080604052348015600e575f80fd5b5061099b8061001c5f395ff3fe608060405234801561000f575f80fd5b5060043610610055575f3560e01c80630b49c5241461005957806344ad9612146100775780635a73a567146100955780637efcd147146100b3578063e5843e1e146100cf575b5f80fd5b6100616100eb565b60405161006e919061040d565b60405180910390f35b61007f6101b1565b60405161008c919061040d565b60405180910390f35b61009d610218565b6040516100aa919061040d565b60405180910390f35b6100cd60048036038101906100c89190610605565b6102dc565b005b6100e960048036038101906100e4919061064c565b610318565b005b6100f361032c565b5f806040518060400160405290815f8201805461010f906106c0565b80601f016020809104026020016040519081016040528092919081815260200182805461013b906106c0565b80156101865780601f1061015d57610100808354040283529160200191610186565b820191905f5260205f20905b81548152906001019060200180831161016957829003601f168201915b50505050508152602001600182015f9054906101000a900460ff1660ff1660ff168152505091505090565b6101b961032c565b6101c161032c565b6040518060400160405280600881526020017f7a68616e6773616e000000000000000000000000000000000000000000000000815250815f01819052506019816020019060ff16908160ff16815250508091505090565b61022061032c565b5f6040518060400160405290815f8201805461023b906106c0565b80601f0160208091040260200160405190810160405280929190818152602001828054610267906106c0565b80156102b25780601f10610289576101008083540402835291602001916102b2565b820191905f5260205f20905b81548152906001019060200180831161029557829003601f168201915b50505050508152602001600182015f9054906101000a900460ff1660ff1660ff1681525050905090565b805f80820151815f0190816102f19190610896565b506020820151816001015f6101000a81548160ff021916908360ff16021790555090505050565b805f800190816103289190610896565b5050565b6040518060400160405280606081526020015f60ff1681525090565b5f81519050919050565b5f82825260208201905092915050565b8281835e5f83830152505050565b5f601f19601f8301169050919050565b5f61038a82610348565b6103948185610352565b93506103a4818560208601610362565b6103ad81610370565b840191505092915050565b5f60ff82169050919050565b6103cd816103b8565b82525050565b5f604083015f8301518482035f8601526103ed8282610380565b915050602083015161040260208601826103c4565b508091505092915050565b5f6020820190508181035f83015261042581846103d3565b905092915050565b5f604051905090565b5f80fd5b5f80fd5b5f80fd5b7f4e487b71000000000000000000000000000000000000000000000000000000005f52604160045260245ffd5b61047882610370565b810181811067ffffffffffffffff8211171561049757610496610442565b5b80604052505050565b5f6104a961042d565b90506104b5828261046f565b919050565b5f80fd5b5f80fd5b5f80fd5b5f67ffffffffffffffff8211156104e0576104df610442565b5b6104e982610370565b9050602081019050919050565b828183375f83830152505050565b5f610516610511846104c6565b6104a0565b905082815260208101848484011115610532576105316104c2565b5b61053d8482856104f6565b509392505050565b5f82601f830112610559576105586104be565b5b8135610569848260208601610504565b91505092915050565b61057b816103b8565b8114610585575f80fd5b50565b5f8135905061059681610572565b92915050565b5f604082840312156105b1576105b061043e565b5b6105bb60406104a0565b90505f82013567ffffffffffffffff8111156105da576105d96104ba565b5b6105e684828501610545565b5f8301525060206105f984828501610588565b60208301525092915050565b5f6020828403121561061a57610619610436565b5b5f82013567ffffffffffffffff8111156106375761063661043a565b5b6106438482850161059c565b91505092915050565b5f6020828403121561066157610660610436565b5b5f82013567ffffffffffffffff81111561067e5761067d61043a565b5b61068a84828501610545565b91505092915050565b7f4e487b71000000000000000000000000000000000000000000000000000000005f52602260045260245ffd5b5f60028204905060018216806106d757607f821691505b6020821081036106ea576106e9610693565b5b50919050565b5f819050815f5260205f209050919050565b5f6020601f8301049050919050565b5f82821b905092915050565b5f6008830261074c7fffffffffffffffffffffffffffffffffffffffffffffffffffffffffffffffff82610711565b6107568683610711565b95508019841693508086168417925050509392505050565b5f819050919050565b5f819050919050565b5f61079a6107956107908461076e565b610777565b61076e565b9050919050565b5f819050919050565b6107b383610780565b6107c76107bf826107a1565b84845461071d565b825550505050565b5f90565b6107db6107cf565b6107e68184846107aa565b505050565b5b81811015610809576107fe5f826107d3565b6001810190506107ec565b5050565b601f82111561084e5761081f816106f0565b61082884610702565b81016020851015610837578190505b61084b61084385610702565b8301826107eb565b50505b505050565b5f82821c905092915050565b5f61086e5f1984600802610853565b1980831691505092915050565b5f610886838361085f565b9150826002028217905092915050565b61089f82610348565b67ffffffffffffffff8111156108b8576108b7610442565b5b6108c282546106c0565b6108cd82828561080d565b5f60209050601f8311600181146108fe575f84156108ec578287015190505b6108f6858261087b565b86555061095d565b601f19841661090c866106f0565b5f5b828110156109335784890151825560018201915060208501945060208101905061090e565b86831015610950578489015161094c601f89168261085f565b8355505b6001600288020188555050505b50505050505056fea2646970667358221220d2670882d3e54129f871c33cac9d807b200263a88102e4d2c37bdfc7bcb3908a64736f6c634300081a0033",
			"opcodes": "PUSH1 0x80 PUSH1 0x40 MSTORE CALLVALUE DUP1 ISZERO PUSH1 0xE JUMPI PUSH0 DUP1 REVERT JUMPDEST POP PUSH2 0x99B DUP1 PUSH2 0x1C PUSH0 CODECOPY PUSH0 RETURN INVALID PUSH1 0x80 PUSH1 0x40 MSTORE CALLVALUE DUP1 ISZERO PUSH2 0xF JUMPI PUSH0 DUP1 REVERT JUMPDEST POP PUSH1 0x4 CALLDATASIZE LT PUSH2 0x55 JUMPI PUSH0 CALLDATALOAD PUSH1 0xE0 SHR DUP1 PUSH4 0xB49C524 EQ PUSH2 0x59 JUMPI DUP1 PUSH4 0x44AD9612 EQ PUSH2 0x77 JUMPI DUP1 PUSH4 0x5A73A567 EQ PUSH2 0x95 JUMPI DUP1 PUSH4 0x7EFCD147 EQ PUSH2 0xB3 JUMPI DUP1 PUSH4 0xE5843E1E EQ PUSH2 0xCF JUMPI JUMPDEST PUSH0 DUP1 REVERT JUMPDEST PUSH2 0x61 PUSH2 0xEB JUMP JUMPDEST PUSH1 0x40 MLOAD PUSH2 0x6E SWAP2 SWAP1 PUSH2 0x40D JUMP JUMPDEST PUSH1 0x40 MLOAD DUP1 SWAP2 SUB SWAP1 RETURN JUMPDEST PUSH2 0x7F PUSH2 0x1B1 JUMP JUMPDEST PUSH1 0x40 MLOAD PUSH2 0x8C SWAP2 SWAP1 PUSH2 0x40D JUMP JUMPDEST PUSH1 0x40 MLOAD DUP1 SWAP2 SUB SWAP1 RETURN JUMPDEST PUSH2 0x9D PUSH2 0x218 JUMP JUMPDEST PUSH1 0x40 MLOAD PUSH2 0xAA SWAP2 SWAP1 PUSH2 0x40D JUMP JUMPDEST PUSH1 0x40 MLOAD DUP1 SWAP2 SUB SWAP1 RETURN JUMPDEST PUSH2 0xCD PUSH1 0x4 DUP1 CALLDATASIZE SUB DUP2 ADD SWAP1 PUSH2 0xC8 SWAP2 SWAP1 PUSH2 0x605 JUMP JUMPDEST PUSH2 0x2DC JUMP JUMPDEST STOP JUMPDEST PUSH2 0xE9 PUSH1 0x4 DUP1 CALLDATASIZE SUB DUP2 ADD SWAP1 PUSH2 0xE4 SWAP2 SWAP1 PUSH2 0x64C JUMP JUMPDEST PUSH2 0x318 JUMP JUMPDEST STOP JUMPDEST PUSH2 0xF3 PUSH2 0x32C JUMP JUMPDEST PUSH0 DUP1 PUSH1 0x40 MLOAD DUP1 PUSH1 0x40 ADD PUSH1 0x40 MSTORE SWAP1 DUP2 PUSH0 DUP3 ADD DUP1 SLOAD PUSH2 0x10F SWAP1 PUSH2 0x6C0 JUMP JUMPDEST DUP1 PUSH1 0x1F ADD PUSH1 0x20 DUP1 SWAP2 DIV MUL PUSH1 0x20 ADD PUSH1 0x40 MLOAD SWAP1 DUP2 ADD PUSH1 0x40 MSTORE DUP1 SWAP3 SWAP2 SWAP1 DUP2 DUP2 MSTORE PUSH1 0x20 ADD DUP3 DUP1 SLOAD PUSH2 0x13B SWAP1 PUSH2 0x6C0 JUMP JUMPDEST DUP1 ISZERO PUSH2 0x186 JUMPI DUP1 PUSH1 0x1F LT PUSH2 0x15D JUMPI PUSH2 0x100 DUP1 DUP4 SLOAD DIV MUL DUP4 MSTORE SWAP2 PUSH1 0x20 ADD SWAP2 PUSH2 0x186 JUMP JUMPDEST DUP3 ADD SWAP2 SWAP1 PUSH0 MSTORE PUSH1 0x20 PUSH0 KECCAK256 SWAP1 JUMPDEST DUP2 SLOAD DUP2 MSTORE SWAP1 PUSH1 0x1 ADD SWAP1 PUSH1 0x20 ADD DUP1 DUP4 GT PUSH2 0x169 JUMPI DUP3 SWAP1 SUB PUSH1 0x1F AND DUP3 ADD SWAP2 JUMPDEST POP POP POP POP POP DUP2 MSTORE PUSH1 0x20 ADD PUSH1 0x1 DUP3 ADD PUSH0 SWAP1 SLOAD SWAP1 PUSH2 0x100 EXP SWAP1 DIV PUSH1 0xFF AND PUSH1 0xFF AND PUSH1 0xFF AND DUP2 MSTORE POP POP SWAP2 POP POP SWAP1 JUMP JUMPDEST PUSH2 0x1B9 PUSH2 0x32C JUMP JUMPDEST PUSH2 0x1C1 PUSH2 0x32C JUMP JUMPDEST PUSH1 0x40 MLOAD DUP1 PUSH1 0x40 ADD PUSH1 0x40 MSTORE DUP1 PUSH1 0x8 DUP2 MSTORE PUSH1 0x20 ADD PUSH32 0x7A68616E6773616E000000000000000000000000000000000000000000000000 DUP2 MSTORE POP DUP2 PUSH0 ADD DUP2 SWAP1 MSTORE POP PUSH1 0x19 DUP2 PUSH1 0x20 ADD SWAP1 PUSH1 0xFF AND SWAP1 DUP2 PUSH1 0xFF AND DUP2 MSTORE POP POP DUP1 SWAP2 POP POP SWAP1 JUMP JUMPDEST PUSH2 0x220 PUSH2 0x32C JUMP JUMPDEST PUSH0 PUSH1 0x40 MLOAD DUP1 PUSH1 0x40 ADD PUSH1 0x40 MSTORE SWAP1 DUP2 PUSH0 DUP3 ADD DUP1 SLOAD PUSH2 0x23B SWAP1 PUSH2 0x6C0 JUMP JUMPDEST DUP1 PUSH1 0x1F ADD PUSH1 0x20 DUP1 SWAP2 DIV MUL PUSH1 0x20 ADD PUSH1 0x40 MLOAD SWAP1 DUP2 ADD PUSH1 0x40 MSTORE DUP1 SWAP3 SWAP2 SWAP1 DUP2 DUP2 MSTORE PUSH1 0x20 ADD DUP3 DUP1 SLOAD PUSH2 0x267 SWAP1 PUSH2 0x6C0 JUMP JUMPDEST DUP1 ISZERO PUSH2 0x2B2 JUMPI DUP1 PUSH1 0x1F LT PUSH2 0x289 JUMPI PUSH2 0x100 DUP1 DUP4 SLOAD DIV MUL DUP4 MSTORE SWAP2 PUSH1 0x20 ADD SWAP2 PUSH2 0x2B2 JUMP JUMPDEST DUP3 ADD SWAP2 SWAP1 PUSH0 MSTORE PUSH1 0x20 PUSH0 KECCAK256 SWAP1 JUMPDEST DUP2 SLOAD DUP2 MSTORE SWAP1 PUSH1 0x1 ADD SWAP1 PUSH1 0x20 ADD DUP1 DUP4 GT PUSH2 0x295 JUMPI DUP3 SWAP1 SUB PUSH1 0x1F AND DUP3 ADD SWAP2 JUMPDEST POP POP POP POP POP DUP2 MSTORE PUSH1 0x20 ADD PUSH1 0x1 DUP3 ADD PUSH0 SWAP1 SLOAD SWAP1 PUSH2 0x100 EXP SWAP1 DIV PUSH1 0xFF AND PUSH1 0xFF AND PUSH1 0xFF AND DUP2 MSTORE POP POP SWAP1 POP SWAP1 JUMP JUMPDEST DUP1 PUSH0 DUP1 DUP3 ADD MLOAD DUP2 PUSH0 ADD SWAP1 DUP2 PUSH2 0x2F1 SWAP2 SWAP1 PUSH2 0x896 JUMP JUMPDEST POP PUSH1 0x20 DUP3 ADD MLOAD DUP2 PUSH1 0x1 ADD PUSH0 PUSH2 0x100 EXP DUP2 SLOAD DUP2 PUSH1 0xFF MUL NOT AND SWAP1 DUP4 PUSH1 0xFF AND MUL OR SWAP1 SSTORE POP SWAP1 POP POP POP JUMP JUMPDEST DUP1 PUSH0 DUP1 ADD SWAP1 DUP2 PUSH2 0x328 SWAP2 SWAP1 PUSH2 0x896 JUMP JUMPDEST POP POP JUMP JUMPDEST PUSH1 0x40 MLOAD DUP1 PUSH1 0x40 ADD PUSH1 0x40 MSTORE DUP1 PUSH1 0x60 DUP2 MSTORE PUSH1 0x20 ADD PUSH0 PUSH1 0xFF AND DUP2 MSTORE POP SWAP1 JUMP JUMPDEST PUSH0 DUP2 MLOAD SWAP1 POP SWAP2 SWAP1 POP JUMP JUMPDEST PUSH0 DUP3 DUP3 MSTORE PUSH1 0x20 DUP3 ADD SWAP1 POP SWAP3 SWAP2 POP POP JUMP JUMPDEST DUP3 DUP2 DUP4 MCOPY PUSH0 DUP4 DUP4 ADD MSTORE POP POP POP JUMP JUMPDEST PUSH0 PUSH1 0x1F NOT PUSH1 0x1F DUP4 ADD AND SWAP1 POP SWAP2 SWAP1 POP JUMP JUMPDEST PUSH0 PUSH2 0x38A DUP3 PUSH2 0x348 JUMP JUMPDEST PUSH2 0x394 DUP2 DUP6 PUSH2 0x352 JUMP JUMPDEST SWAP4 POP PUSH2 0x3A4 DUP2 DUP6 PUSH1 0x20 DUP7 ADD PUSH2 0x362 JUMP JUMPDEST PUSH2 0x3AD DUP2 PUSH2 0x370 JUMP JUMPDEST DUP5 ADD SWAP2 POP POP SWAP3 SWAP2 POP POP JUMP JUMPDEST PUSH0 PUSH1 0xFF DUP3 AND SWAP1 POP SWAP2 SWAP1 POP JUMP JUMPDEST PUSH2 0x3CD DUP2 PUSH2 0x3B8 JUMP JUMPDEST DUP3 MSTORE POP POP JUMP JUMPDEST PUSH0 PUSH1 0x40 DUP4 ADD PUSH0 DUP4 ADD MLOAD DUP5 DUP3 SUB PUSH0 DUP7 ADD MSTORE PUSH2 0x3ED DUP3 DUP3 PUSH2 0x380 JUMP JUMPDEST SWAP2 POP POP PUSH1 0x20 DUP4 ADD MLOAD PUSH2 0x402 PUSH1 0x20 DUP7 ADD DUP3 PUSH2 0x3C4 JUMP JUMPDEST POP DUP1 SWAP2 POP POP SWAP3 SWAP2 POP POP JUMP JUMPDEST PUSH0 PUSH1 0x20 DUP3 ADD SWAP1 POP DUP2 DUP2 SUB PUSH0 DUP4 ADD MSTORE PUSH2 0x425 DUP2 DUP5 PUSH2 0x3D3 JUMP JUMPDEST SWAP1 POP SWAP3 SWAP2 POP POP JUMP JUMPDEST PUSH0 PUSH1 0x40 MLOAD SWAP1 POP SWAP1 JUMP JUMPDEST PUSH0 DUP1 REVERT JUMPDEST PUSH0 DUP1 REVERT JUMPDEST PUSH0 DUP1 REVERT JUMPDEST PUSH32 0x4E487B7100000000000000000000000000000000000000000000000000000000 PUSH0 MSTORE PUSH1 0x41 PUSH1 0x4 MSTORE PUSH1 0x24 PUSH0 REVERT JUMPDEST PUSH2 0x478 DUP3 PUSH2 0x370 JUMP JUMPDEST DUP2 ADD DUP2 DUP2 LT PUSH8 0xFFFFFFFFFFFFFFFF DUP3 GT OR ISZERO PUSH2 0x497 JUMPI PUSH2 0x496 PUSH2 0x442 JUMP JUMPDEST JUMPDEST DUP1 PUSH1 0x40 MSTORE POP POP POP JUMP JUMPDEST PUSH0 PUSH2 0x4A9 PUSH2 0x42D JUMP JUMPDEST SWAP1 POP PUSH2 0x4B5 DUP3 DUP3 PUSH2 0x46F JUMP JUMPDEST SWAP2 SWAP1 POP JUMP JUMPDEST PUSH0 DUP1 REVERT JUMPDEST PUSH0 DUP1 REVERT JUMPDEST PUSH0 DUP1 REVERT JUMPDEST PUSH0 PUSH8 0xFFFFFFFFFFFFFFFF DUP3 GT ISZERO PUSH2 0x4E0 JUMPI PUSH2 0x4DF PUSH2 0x442 JUMP JUMPDEST JUMPDEST PUSH2 0x4E9 DUP3 PUSH2 0x370 JUMP JUMPDEST SWAP1 POP PUSH1 0x20 DUP2 ADD SWAP1 POP SWAP2 SWAP1 POP JUMP JUMPDEST DUP3 DUP2 DUP4 CALLDATACOPY PUSH0 DUP4 DUP4 ADD MSTORE POP POP POP JUMP JUMPDEST PUSH0 PUSH2 0x516 PUSH2 0x511 DUP5 PUSH2 0x4C6 JUMP JUMPDEST PUSH2 0x4A0 JUMP JUMPDEST SWAP1 POP DUP3 DUP2 MSTORE PUSH1 0x20 DUP2 ADD DUP5 DUP5 DUP5 ADD GT ISZERO PUSH2 0x532 JUMPI PUSH2 0x531 PUSH2 0x4C2 JUMP JUMPDEST JUMPDEST PUSH2 0x53D DUP5 DUP3 DUP6 PUSH2 0x4F6 JUMP JUMPDEST POP SWAP4 SWAP3 POP POP POP JUMP JUMPDEST PUSH0 DUP3 PUSH1 0x1F DUP4 ADD SLT PUSH2 0x559 JUMPI PUSH2 0x558 PUSH2 0x4BE JUMP JUMPDEST JUMPDEST DUP2 CALLDATALOAD PUSH2 0x569 DUP5 DUP3 PUSH1 0x20 DUP7 ADD PUSH2 0x504 JUMP JUMPDEST SWAP2 POP POP SWAP3 SWAP2 POP POP JUMP JUMPDEST PUSH2 0x57B DUP2 PUSH2 0x3B8 JUMP JUMPDEST DUP2 EQ PUSH2 0x585 JUMPI PUSH0 DUP1 REVERT JUMPDEST POP JUMP JUMPDEST PUSH0 DUP2 CALLDATALOAD SWAP1 POP PUSH2 0x596 DUP2 PUSH2 0x572 JUMP JUMPDEST SWAP3 SWAP2 POP POP JUMP JUMPDEST PUSH0 PUSH1 0x40 DUP3 DUP5 SUB SLT ISZERO PUSH2 0x5B1 JUMPI PUSH2 0x5B0 PUSH2 0x43E JUMP JUMPDEST JUMPDEST PUSH2 0x5BB PUSH1 0x40 PUSH2 0x4A0 JUMP JUMPDEST SWAP1 POP PUSH0 DUP3 ADD CALLDATALOAD PUSH8 0xFFFFFFFFFFFFFFFF DUP2 GT ISZERO PUSH2 0x5DA JUMPI PUSH2 0x5D9 PUSH2 0x4BA JUMP JUMPDEST JUMPDEST PUSH2 0x5E6 DUP5 DUP3 DUP6 ADD PUSH2 0x545 JUMP JUMPDEST PUSH0 DUP4 ADD MSTORE POP PUSH1 0x20 PUSH2 0x5F9 DUP5 DUP3 DUP6 ADD PUSH2 0x588 JUMP JUMPDEST PUSH1 0x20 DUP4 ADD MSTORE POP SWAP3 SWAP2 POP POP JUMP JUMPDEST PUSH0 PUSH1 0x20 DUP3 DUP5 SUB SLT ISZERO PUSH2 0x61A JUMPI PUSH2 0x619 PUSH2 0x436 JUMP JUMPDEST JUMPDEST PUSH0 DUP3 ADD CALLDATALOAD PUSH8 0xFFFFFFFFFFFFFFFF DUP2 GT ISZERO PUSH2 0x637 JUMPI PUSH2 0x636 PUSH2 0x43A JUMP JUMPDEST JUMPDEST PUSH2 0x643 DUP5 DUP3 DUP6 ADD PUSH2 0x59C JUMP JUMPDEST SWAP2 POP POP SWAP3 SWAP2 POP POP JUMP JUMPDEST PUSH0 PUSH1 0x20 DUP3 DUP5 SUB SLT ISZERO PUSH2 0x661 JUMPI PUSH2 0x660 PUSH2 0x436 JUMP JUMPDEST JUMPDEST PUSH0 DUP3 ADD CALLDATALOAD PUSH8 0xFFFFFFFFFFFFFFFF DUP2 GT ISZERO PUSH2 0x67E JUMPI PUSH2 0x67D PUSH2 0x43A JUMP JUMPDEST JUMPDEST PUSH2 0x68A DUP5 DUP3 DUP6 ADD PUSH2 0x545 JUMP JUMPDEST SWAP2 POP POP SWAP3 SWAP2 POP POP JUMP JUMPDEST PUSH32 0x4E487B7100000000000000000000000000000000000000000000000000000000 PUSH0 MSTORE PUSH1 0x22 PUSH1 0x4 MSTORE PUSH1 0x24 PUSH0 REVERT JUMPDEST PUSH0 PUSH1 0x2 DUP3 DIV SWAP1 POP PUSH1 0x1 DUP3 AND DUP1 PUSH2 0x6D7 JUMPI PUSH1 0x7F DUP3 AND SWAP2 POP JUMPDEST PUSH1 0x20 DUP3 LT DUP2 SUB PUSH2 0x6EA JUMPI PUSH2 0x6E9 PUSH2 0x693 JUMP JUMPDEST JUMPDEST POP SWAP2 SWAP1 POP JUMP JUMPDEST PUSH0 DUP2 SWAP1 POP DUP2 PUSH0 MSTORE PUSH1 0x20 PUSH0 KECCAK256 SWAP1 POP SWAP2 SWAP1 POP JUMP JUMPDEST PUSH0 PUSH1 0x20 PUSH1 0x1F DUP4 ADD DIV SWAP1 POP SWAP2 SWAP1 POP JUMP JUMPDEST PUSH0 DUP3 DUP3 SHL SWAP1 POP SWAP3 SWAP2 POP POP JUMP JUMPDEST PUSH0 PUSH1 0x8 DUP4 MUL PUSH2 0x74C PUSH32 0xFFFFFFFFFFFFFFFFFFFFFFFFFFFFFFFFFFFFFFFFFFFFFFFFFFFFFFFFFFFFFFFF DUP3 PUSH2 0x711 JUMP JUMPDEST PUSH2 0x756 DUP7 DUP4 PUSH2 0x711 JUMP JUMPDEST SWAP6 POP DUP1 NOT DUP5 AND SWAP4 POP DUP1 DUP7 AND DUP5 OR SWAP3 POP POP POP SWAP4 SWAP3 POP POP POP JUMP JUMPDEST PUSH0 DUP2 SWAP1 POP SWAP2 SWAP1 POP JUMP JUMPDEST PUSH0 DUP2 SWAP1 POP SWAP2 SWAP1 POP JUMP JUMPDEST PUSH0 PUSH2 0x79A PUSH2 0x795 PUSH2 0x790 DUP5 PUSH2 0x76E JUMP JUMPDEST PUSH2 0x777 JUMP JUMPDEST PUSH2 0x76E JUMP JUMPDEST SWAP1 POP SWAP2 SWAP1 POP JUMP JUMPDEST PUSH0 DUP2 SWAP1 POP SWAP2 SWAP1 POP JUMP JUMPDEST PUSH2 0x7B3 DUP4 PUSH2 0x780 JUMP JUMPDEST PUSH2 0x7C7 PUSH2 0x7BF DUP3 PUSH2 0x7A1 JUMP JUMPDEST DUP5 DUP5 SLOAD PUSH2 0x71D JUMP JUMPDEST DUP3 SSTORE POP POP POP POP JUMP JUMPDEST PUSH0 SWAP1 JUMP JUMPDEST PUSH2 0x7DB PUSH2 0x7CF JUMP JUMPDEST PUSH2 0x7E6 DUP2 DUP5 DUP5 PUSH2 0x7AA JUMP JUMPDEST POP POP POP JUMP JUMPDEST JUMPDEST DUP2 DUP2 LT ISZERO PUSH2 0x809 JUMPI PUSH2 0x7FE PUSH0 DUP3 PUSH2 0x7D3 JUMP JUMPDEST PUSH1 0x1 DUP2 ADD SWAP1 POP PUSH2 0x7EC JUMP JUMPDEST POP POP JUMP JUMPDEST PUSH1 0x1F DUP3 GT ISZERO PUSH2 0x84E JUMPI PUSH2 0x81F DUP2 PUSH2 0x6F0 JUMP JUMPDEST PUSH2 0x828 DUP5 PUSH2 0x702 JUMP JUMPDEST DUP2 ADD PUSH1 0x20 DUP6 LT ISZERO PUSH2 0x837 JUMPI DUP2 SWAP1 POP JUMPDEST PUSH2 0x84B PUSH2 0x843 DUP6 PUSH2 0x702 JUMP JUMPDEST DUP4 ADD DUP3 PUSH2 0x7EB JUMP JUMPDEST POP POP JUMPDEST POP POP POP JUMP JUMPDEST PUSH0 DUP3 DUP3 SHR SWAP1 POP SWAP3 SWAP2 POP POP JUMP JUMPDEST PUSH0 PUSH2 0x86E PUSH0 NOT DUP5 PUSH1 0x8 MUL PUSH2 0x853 JUMP JUMPDEST NOT DUP1 DUP4 AND SWAP2 POP POP SWAP3 SWAP2 POP POP JUMP JUMPDEST PUSH0 PUSH2 0x886 DUP4 DUP4 PUSH2 0x85F JUMP JUMPDEST SWAP2 POP DUP3 PUSH1 0x2 MUL DUP3 OR SWAP1 POP SWAP3 SWAP2 POP POP JUMP JUMPDEST PUSH2 0x89F DUP3 PUSH2 0x348 JUMP JUMPDEST PUSH8 0xFFFFFFFFFFFFFFFF DUP2 GT ISZERO PUSH2 0x8B8 JUMPI PUSH2 0x8B7 PUSH2 0x442 JUMP JUMPDEST JUMPDEST PUSH2 0x8C2 DUP3 SLOAD PUSH2 0x6C0 JUMP JUMPDEST PUSH2 0x8CD DUP3 DUP3 DUP6 PUSH2 0x80D JUMP JUMPDEST PUSH0 PUSH1 0x20 SWAP1 POP PUSH1 0x1F DUP4 GT PUSH1 0x1 DUP2 EQ PUSH2 0x8FE JUMPI PUSH0 DUP5 ISZERO PUSH2 0x8EC JUMPI DUP3 DUP8 ADD MLOAD SWAP1 POP JUMPDEST PUSH2 0x8F6 DUP6 DUP3 PUSH2 0x87B JUMP JUMPDEST DUP7 SSTORE POP PUSH2 0x95D JUMP JUMPDEST PUSH1 0x1F NOT DUP5 AND PUSH2 0x90C DUP7 PUSH2 0x6F0 JUMP JUMPDEST PUSH0 JUMPDEST DUP3 DUP2 LT ISZERO PUSH2 0x933 JUMPI DUP5 DUP10 ADD MLOAD DUP3 SSTORE PUSH1 0x1 DUP3 ADD SWAP2 POP PUSH1 0x20 DUP6 ADD SWAP5 POP PUSH1 0x20 DUP2 ADD SWAP1 POP PUSH2 0x90E JUMP JUMPDEST DUP7 DUP4 LT ISZERO PUSH2 0x950 JUMPI DUP5 DUP10 ADD MLOAD PUSH2 0x94C PUSH1 0x1F DUP10 AND DUP3 PUSH2 0x85F JUMP JUMPDEST DUP4 SSTORE POP JUMPDEST PUSH1 0x1 PUSH1 0x2 DUP9 MUL ADD DUP9 SSTORE POP POP POP JUMPDEST POP POP POP POP POP POP JUMP INVALID LOG2 PUSH5 0x6970667358 0x22 SLT KECCAK256 0xD2 PUSH8 0x882D3E54129F871 0xC3 EXTCODECOPY 0xAC SWAP14 DUP1 PUSH28 0x200263A88102E4D2C37BDFC7BCB3908A64736F6C634300081A003300 "
		},
		"gasEstimates": {
			"creation": {
				"codeDepositCost": "491800",
				"executionCost": "522",
				"totalCost": "492322"
			},
			"external": {
				"readPerson()": "infinite",
				"testMemoryStruct()": "infinite",
				"testStorageLocalStruct()": "infinite",
				"writePerson((string,uint8))": "infinite",
				"writePersonName(string)": "infinite"
			}
		},
		"methodIdentifiers": {
			"readPerson()": "5a73a567",
			"testMemoryStruct()": "44ad9612",
			"testStorageLocalStruct()": "0b49c524",
			"writePerson((string,uint8))": "7efcd147",
			"writePersonName(string)": "e5843e1e"
		}
	},
	"abi": [
		{
			"inputs": [],
			"name": "readPerson",
			"outputs": [
				{
					"components": [
						{
							"internalType": "string",
							"name": "name",
							"type": "string"
						},
						{
							"internalType": "uint8",
							"name": "age",
							"type": "uint8"
						}
					],
					"internalType": "struct StructType.Person",
					"name": "",
					"type": "tuple"
				}
			],
			"stateMutability": "view",
			"type": "function"
		},
		{
			"inputs": [],
			"name": "testMemoryStruct",
			"outputs": [
				{
					"components": [
						{
							"internalType": "string",
							"name": "name",
							"type": "string"
						},
						{
							"internalType": "uint8",
							"name": "age",
							"type": "uint8"
						}
					],
					"internalType": "struct StructType.Person",
					"name": "",
					"type": "tuple"
				}
			],
			"stateMutability": "pure",
			"type": "function"
		},
		{
			"inputs": [],
			"name": "testStorageLocalStruct",
			"outputs": [
				{
					"components": [
						{
							"internalType": "string",
							"name": "name",
							"type": "string"
						},
						{
							"internalType": "uint8",
							"name": "age",
							"type": "uint8"
						}
					],
					"internalType": "struct StructType.Person",
					"name": "",
					"type": "tuple"
				}
			],
			"stateMutability": "view",
			"type": "function"
		},
		{
			"inputs": [
				{
					"components": [
						{
							"internalType": "string",
							"name": "name",
							"type": "string"
						},
						{
							"internalType": "uint8",
							"name": "age",
							"type": "uint8"
						}
					],
					"internalType": "struct StructType.Person",
					"name": "p",
					"type": "tuple"
				}
			],
			"name": "writePerson",
			"outputs": [],
			"stateMutability": "nonpayable",
			"type": "function"
		},
		{
			"inputs": [
				{
					"internalType": "string",
					"name": "name",
					"type": "string"
				}
			],
			"name": "writePersonName",
			"outputs": [],
			"stateMutability": "nonpayable",
			"type": "function"
		}
	]
}